:020000022000DC
:1070000000000420197202000172020003720200E3
:1070100005720200077202000972020000000000FF
:107020000000000000000000000000000B720200E1
:107030000D720200000000000F72020011720200C7
:10704000B1B202001372020085B80200C1CC020086
:1070500013720200137202007DB702001372020065
:10706000137202001372020021BF020013720200A9
:1070700013720200137202001372020013720200F4
:1070800013720200FDEA0200137202001372020082
:107090001372020013720200A91603001372020099
:1070A00013720200137202001372020013720200C4
:1070B00013720200137202000000000000000000C2
:1070C00013720200137202001372020013720200A4
:1070D0001372020013720200137202001372020094
:1070E000137202001372020013720200000000000B
:1070F0000000000013720200000000001372020082
:10710000000000000000000000000000000000007F
:10711000000000000000000000000000000000006F
:10712000000000000000000000000000000000005F
:10713000000000000000000000000000000000004F
:10714000000000000000000000000000000000003F
:10715000000000000000000000000000000000002F
:10716000000000000000000000000000000000001F
:10717000000000000000000000000000000000000F
:1071800000000000000000000000000000000000FF
:1071900000000000000000000000000000000000EF
:1071A00000000000000000000000000000000000DF
:1071B00000000000000000000000000000000000CF
:1071C00000000000000000000000000000000000BF
:1071D00000000000000000000000000000000000AF
:1071E000000000000000000000000000000000009F
:1071F000000000000000000000000000000000008F
:10720000FEE7FEE7FEE7FEE7FEE7FEE7FEE7FEE756
:10721000FEE7FEE700F002B8FFF7FCBF0F484FF0B3
:107220000701884385460E4880470E48016841F4AF
:1072300070010160BFF34F8FBFF36F8F00F01AB87A
:1072400009480A490A4A884207D0521A05D00378E9
:1072500001300B700131013AF9D170470000042070
:107260004588020088ED00E09425030000230020FB
:10727000002300203A493B480A1A02D007229143D2
:107280008D46394939480A1A06D00722914381F3BD
:107290000988022282F3148835483649364A00F0BC
:1072A00041F836483649374A00F03CF83648374905
:1072B000374A00F037F837483749384A00F032F893
:1072C00037483849384A00F02DF838483849394AA3
:1072D00000F028F838483949394A00F023F839488D
:1072E0003949002200F036F838483949002200F0C8
:1072F00031F838483849091A0AF0B0FF374A904740
:1073000025482649884205D00268043003B49047D6
:1073100003BCF7E700208646EC4600200021304AF7
:107320009047FEE7884214D0521A12D003460B430E
:1073300013430324234206D1036804300B60043155
:10734000043AF9D17047037801300B700131013AEA
:10735000F9D17047884202D002700130FAE77047D5
:107360000000042000E003200000042000000420AE
:107370006C4503000023002080230020E4730200FA
:10738000E47302009E2403006C45030000230020E8
:107390000023002094250300942503009425030076
:1073A00094250300942503009425030094250300ED
:1073B0009425030069450300EC4503008023002069
:1073C0008023002080230020943F0020943F002051
:1073D000943F0020943F0020945F002041720200FF
:0473E000DD82020048
:1073E400A8DF704700BF184662DF704700BF184629
:1073F40010B592B00190294B02AC0FCB84E80F007A
:10740400019B03F10A0202AB11461846FFF7ECFF99
:107414001190119B1093109B002B01D0109B3AE00C
:10742400019B9B7A8DF83A300123ADF83830019AEC
:107434000EAB19460120FFF7D3FF1190119B0F9358
:107444000F9B002B01D00F9B25E006AB20220021CF
:1074540018460AF07BFF0223ADF81830019B9B7A93
:107464008DF81A300223ADF81C300223ADF81E301B
:107474009DF8253043F010038DF8253001238DF855
:107484002B30019B1888019B9A1C06AB194602F00D
:107494005BFD1190119B184612B010BD942503009A
:1074A40000B583B00190019B1B68184600F0D0F82A
:1074B4000346002B04D10B494FF4F67000F010F989
:1074C400019B1B681F2B02D84FF0A04306E0019BD1
:1074D4001B6803F01F02019B1A60034B184603B09C
:1074E4005DF804FBA42503000003005000B585B03B
:1074F4000190084611461A4603468DF803300B46A0
:107504008DF8023013468DF8013001AB1846FFF7B1
:10751400C7FF03909DF803209DF802305B001A43D7
:107524009DF801309B001A439DF818301B0242EA73
:1075340003019DF81C301B04019A1943039B02F5B7
:10754400E07243F8221000BF05B05DF804FB00B5FB
:1075540085B00390002301930023009300230122AC
:1075640001210398FFF7C2FF00BF05B05DF804FBDB
:1075740000B585B0019001AB1846FFF791FF039069
:10758400019B012202FA03F31946039800F04CF818
:1075940000BF05B05DF804FB00B585B0019001ABF8
:1075A4001846FFF77DFF0390019B012202FA03F3C3
:1075B4001946039800F042F800BF05B05DF804FBDB
:1075C40000B585B0019001AB1846FFF769FF039041
:1075D400039BD3F804350293029BDA43019B0121F8
:1075E40001FA03F31A40039BC3F80825019B012207
:1075F4009A40029B1A40039BC3F80C2500BF05B0B8
:107604005DF804FB00B583B001900091009B002B52
:1076140003D10198FFF7C0FF02E00198FFF7A8FF2C
:1076240000BF03B05DF804FB82B001900091019BA0
:10763400009AC3F8082500BF02B0704782B00190D9
:107644000091019B009AC3F80C2500BF02B070475B
:1076540084B00190019B5B09029300230393029B76
:10766400002B03D0029B012B04D007E04FF0FF3323
:10767400039303E04FF6FF73039300BF019B03F0F2
:107684001F030193039A019B22FA03F303F00103FE
:10769400002B14BF01230023DBB2184604B070474B
:1076A40072DF704700BF184673DF704700BF18468B
:1076B40076DF704700BF18467ADF704700BF184670
:1076C4007CDF704700BF18467FDF704700BF184655
:1076D4008FDF704700BF1846B1DF704700BF184600
:1076E40000B583B003460091ADF80630BDF806300E
:1076F400009A1946034806F083F800BF03B05DF80A
:1077040004FB00BFEFBEADDE00B583B006F028FC7D
:1077140003460193019B0093009B002B04D0044A71
:107724005B21009806F06CF800BF03B05DF804FB21
:10773400D425030000B587B09DF80030012262F320
:1077440003038DF800309DF80030012262F3071323
:107754008DF800306B4607221A491846FFF7B0FF30
:107764000590059B0493049B002B04D0164A6821C2
:10777400049806F045F801AB0822002118460AF0E7
:10778400E5FD5023ADF80430A023ADF80630002306
:10779400ADF808304FF4C873ADF80A3001AB1846A1
:1077A400FFF78AFF0590059B0393039B002B04D0EE
:1077B400054A7221039806F023F800BF07B05DF86C
:1077C40004FB00BF48260300D425030000B583B0A2
:1077D4000021094802F0EEFE0190019B0093009BFA
:1077E400002B04D0054A7821009806F009F800BF60
:1077F40003B05DF804FB00BF80230020D425030000
:1078040000B5ABB00123ADF81C30364B9B7A8DF834
:107814001E3017AB3C22002118460AF097FD0223C4
:107824008DF85C3001238DF85E3006238DF85F30CF
:1078340008AB3C22002118460AF088FD0123ADF86C
:10784400303007AB0D93284B196817AB274A1846FD
:1078540001F07DFD2990299B2893289B002B04D0BF
:10786400234A8D21289805F0CBFF1F4B996808AB5C
:10787400204A184601F06BFD2990299B2793279BEA
:10788400002B04D01A4A9021279805F0B9FF01ABC8
:107894001822002118460AF059FD01238DF81930E9
:1078A4000023ADF8103001238DF804300023029337
:1078B40000238DF818304023039301AB1A460A497C
:1078C4000D48FFF7EDFE2990299B2693269B002B5C
:1078D40004D0074A9D21269805F092FF00BF2BB0E3
:1078E4005DF804FBA02300200423002008230020CB
:1078F400D4250300102300200223002000B583B008
:107904000190044AA221019805F07AFF00BF03B058
:107914005DF804FBD425030000B585B00023009373
:10792400114B00936B461946104802F027FF039051
:10793400039B0293029B002B04D00D4AAC210298B6
:1079440005F05EFF0B48FFF753FD0390039B019383
:10795400019B002B04D0064AAF21019805F050FF8B
:1079640000BF05B05DF804FB0179020094230020F8
:10797400D4250300A023002000B585B00190019B0D
:107984001B78002B10D10A4B1B883B211846FFF7AC
:107994008FFE0390039B0293029B002B04D0054AA5
:1079A400C621029805F02CFF00BF05B05DF804FB6A
:1079B40000230020D425030000B583B00190044ABD
:1079C400D121019805F01CFF00BF03B05DF804FB52
:1079D400D425030000B58BB001AB1C22002118464E
:1079E4000AF0B4FC002301934EF66B63029343F652
:1079F4009A33039303238DF810300023ADF812302B
:107A040000238DF814300B4B06930B4B079301ABFB
:107A1400184601F0E1FE0990099B0893089B002B8E
:107A240004D0064AE821089805F0EAFE00BF0BB02E
:107A34005DF804FB7D790200BD790200D4250300C2
:107A440000B583B00A4B1B7801211846FFF72CFEC2
:107A54000190019B0093009B002B04D0054AF32165
:107A6400009805F0CDFE00BF03B05DF804FB00BF35
:107A740002230020D425030000B58DB001900091AD
:107A8400019B1B88562B00F0DD80562B00F3ED8004
:107A9400522B00F0B080522B00F3E780212B2DDC19
:107AA400102BC0F2E280103B112B00F2DE8001A209
:107AB40052F823F0097B0200657B02006F7C020010
:107AC4009F7B02006F7C02006F7C02006F7C0200CF
:107AD4006F7C02006F7C02006F7C02006F7C0200EE
:107AE4006F7C02006F7C02006F7C02006F7C0200DE
:107AF4006F7C02006F7C0200C77B02003B2B00F00E
:107B04008E80B2E0614A624BD31ADB081B0443F057
:107B140003036049184608F037FE019B9A885E4BC0
:107B24001A805D4B1B8819465C4802F049FE0B9095
:107B34000B9B0493049B002B05D0594A40F2091176
:107B4400049805F05DFE0B9B0393039B002B00F050
:107B54008E80534A40F20B11039805F051FE86E0E3
:107B64004A4A4B4BD31ADB081B0443F003034D4929
:107B7400184608F009FE484B4FF6FF721A800B9B1B
:107B84000593059B002B05D0454A40F21311059837
:107B940005F036FEFFF754FF74E03F4B18880023CE
:107BA40000228521FFF790FD0B900B9B0693069B0B
:107BB400002B5ED03A4A40F21D11069805F020FED3
:107BC40057E000238DF8083000238DF80930019B1D
:107BD4009B8802AA11461846FFF77AFD0B900B9B6F
:107BE4000793079B002B46D02D4A40F22911079892
:107BF40005F006FE3FE0284B1888002300220021F0
:107C0400FFF76AFD0B900B9B0993099B002B34D063
:107C1400234A40F22F11099805F0F2FD2DE0019B53
:107C24009B8813211846FFF743FD0B900B9B089389
:107C3400089B002B23D01A4A40F23711089805F00C
:107C4400DFFD1CE0019B9B8813211846FFF730FDE4
:107C54000B900B9B0A930A9B002B12D0104A40F204
:107C64003F110A9805F0CCFD0BE000BF0AE000BF0D
:107C740008E000BF06E000BF04E000BF02E000BF70
:107C840000E000BF00BF0DB05DF804FB3425030025
:107C9400FC2403005026030000230020942300202A
:107CA400D42503005C26030000B587B009F078FCF6
:107CB4000590059B0493049B002B05D0164A4FF4B2
:107CC400A971049805F09CFD0023019301AB1946AA
:107CD400012009F01DFD0590059B0393039B002BD8
:107CE40005D00D4A4FF4AC71039805F089FD01AB42
:107CF400184609F001FE0590059B0293029B002B98
:107D040005D0054A4FF4AE71029805F079FD00BF25
:107D140007B05DF804FB00BFD425030000B583B0B1
:107D24004FF48041002008F059FA0190019B009320
:107D3400009B002B05D0064A40F26711009805F01D
:107D44005FFD08F0E1F900BF03B05DF804FB00BF7C
:107D5400D425030000B587B003900B468DF80B3093
:107D64009DF90B30002B02DA7F238DF80B300023B2
:107D74008DF810309DF80B308DF8113004AA0023D3
:107D8400009302232821039804F0AEFE0590059B7E
:107D9400002B0CBF01230023DBB2184607B05DF8AB
:107DA40004FB000082B08DED010A334B5B68324A5C
:107DB4001360314B9B68304A53602F4BDB682E4A6B
:107DC40093602D4B1B692C4AD3609DED017ADFED46
:107DD4002B6AC7EE267A284BC3ED047A284B5B68DE
:107DE400274A1360264B9B68254A5360244BDB6863
:107DF400234A9360224B1B69214AD3601E4B93EDA7
:107E0400007A1D4BD3ED047A37EE277A1A4BD3ED63
:107E1400027A77EEA77A37EE677A194BD3ED007AB8
:107E2400DFED186A67EEA67A37EE277A144BD3EDA6
:107E3400017ADFED156A67EEA67A37EE277A104BE2
:107E4400D3ED027ADFED116A67EEA67A37EE277A70
:107E54000B4BD3ED037ADFED0E6A67EEA67A77EE6D
:107E6400277A074BC3ED047A054B1B6907EE903A5A
:107E7400B0EE670A02B07047EC23002051D6A5404B
:107E840000240020D2A153BE44BB513F36B9F9BFF0
:107E9400FD71154084B00346ADF80630BDF80630D8
:107EA400A3F580439BB2ADF80E30BDF90E301846F1
:107EB40004B0704782B003460091ADF8063000BFAD
:107EC40002B0704700B583B000238DF80030002362
:107ED4008DF8013000238DF8023006238DF803302D
:107EE4000023019304238DF8003000238DF8013022
:107EF40003238DF8023006238DF803306B46064ABF
:107F04001946064803F054FE044803F053FF00BF2B
:107F140003B05DF804FB00BFB97E02008C280300A7
:107F240008B50021024803F073FF0346184608BD54
:107F34008C28030008B5FFF7F3FF0346024AA2FBAF
:107F440003239B09184608BDD34D621000B585B0C4
:107F540001900091019B1B78002B29D1164B1A78B4
:107F6400164B1B789A4220D0134B1B781B02144AE1
:107F7400134418460AF07CF903900F4B1B781B023C
:107F84000F4A1344039A19460E4805F0FBF90A4BAD
:107F94001B7801335A4203F00F0302F00F0258BF5B
:107FA4005342DAB2044B1A7002E0074B00221A70F3
:107FB40000BF05B05DF804FB19340020183400201C
:107FC40018240020942803001424002000B589B04C
:107FD4006B462022002118460AF0B8F92B2300939F
:107FE4002C2301934FF0FF3302934FF0FF3303939D
:107FF400074B069306238DF81C306B46054A194639
:10800400054805F00BF900BF09B05DF804FB00BF9B
:1080140000E0D701517F02009428030000B587B027
:10802400019001980AF024F90590059BFF2B4BD889
:10803400274B1B7801335A4203F00F0302F00F025F
:1080440058BF53428DF81330224B1B789DF81320F0
:108054009A4239D01E4B1B781B021F4A9818059B65
:1080640001331A4601990AF03FF9194A9DF8133071
:1080740013701A4B1B78DBB283F00103DBB2002BC5
:1080840022D0164B01221A70124B1B781B02124A83
:10809400134418460AF0ECF803900E4B1B781B02AD
:1080A4000D4A1344039A19460D4805F06BF9094B20
:1080B4001B7801335A4203F00F0302F00F0258BF3A
:1080C4005342DAB2034B1A7000BF07B05DF804FBE9
:1080D400183400201934002018240020142400200F
:1080E4009428030084B00346ADF80630114B1B7886
:1080F400DBB201335A4203F03F0302F03F0258BFA0
:1081040053428DF80F300C4B1B78DBB29DF80F20D7
:108114009A420CD0074B1B78DBB21946074ABDF8CC
:10812400063022F81130034A9DF80F30137000BF57
:1081340004B070479C3400209D3400201C3400207F
:1081440082B00190124B1B78DAB2124B1B78DBB26F
:108154009A4201D1002317E00E4B1B78DBB21A467A
:108164000D4B33F91220019B1A800A4B1B78DBB2AA
:1081740001335A4203F03F0302F03F0258BF534217
:10818400DAB2044B1A700123184602B0704700BFDC
:108194009C3400209D3400201C34002010B584B091
:1081A4000B4B6C460FCB84E80F006946002300227A
:1081B400084804F0A9F80346002B02D00648FFF74C
:1081C4002DFF044804F04AF900BF04B010BD00BFFD
:1081D40088260300142300206C26030008B52D20F4
:1081E400FFF7B5F901212D20FFF70CFA00BF08BDF8
:1081F40008B51C20FFF7ABF901211C20FFF702FA98
:1082040000BF08BD00B58BB01648FFF707FF012378
:108214008DF827301AE00DF126029DF8271001236E
:10822400114804F089FC0346002B0AD19DF827303D
:1082340001A80E4A202109F0D6FC01AB1846FFF72D
:10824400EDFE9DF8273001338DF827309DF8273057
:108254007E2BE0D90648FFF7E1FE00BF0BB05DF8C6
:1082640004FB00BF9826030014230020B02603005B
:10827400CC26030000B593B040238DF847301BE0B3
:108284000DF146029DF847100123104804F054FCF8
:108294000346002B0BD19DF8473001A80C4A40211E
:1082A40009F0A1FC01AB1846FFF7B8FE0BE09DF8FE
:1082B400473001338DF847309DF84730412BDFD9E3
:1082C4000448FFF7ABFE13B05DF804FB1423002051
:1082D400E42603000C27030000B58FB0FFF71EFD52
:1082E400FFF77CFFFFF710FAFFF7DEFCFFF722FA37
:1082F400FFF76CFAFFF710FBFFF782FAFFF76AFB50
:10830400534A544BD31ADB081B0443F0030352496A
:10831400184608F039FAFFF793FBFFF7D3FDFFF790
:108324005DFFFFF765FFFFF751FE4C48FFF776FE50
:10833400FFF734FF4A48FFF771FEFFF763FFFFF7CB
:1083440099FF4848FFF76AFE474802F058FB034686
:1083540083F00103DBB2002B03D04448FFF75EFE39
:10836400FEE74348FFF75AFE4248FFF757FE3E48F0
:1083740002F0C4FB034683F00103DBB2002B03D0FD
:108384003D48FFF74BFEFEE73C48FFF747FE7F21E1
:108394003548FFF7DFFC0346002B03D03848FFF7CE
:1083A4003DFE02E03748FFF739FE00230D934FF4FA
:1083B4007A730C930023ADF822300023ADF82030FB
:1083C4000DF122031946284802F03CFC0346002B19
:1083D4001DD0BDF922301846FFF75CFD0346ADF809
:1083E4002E30BDF92E3007EE903AF8EEE77AB0EE73
:1083F400670AFFF7D7FC8DED0A0ADDED0A7AFDEE78
:10840400E77A17EE903A1BB21846FFF76BFE08ABFB
:108414001846FFF795FE0346002B0AD0BDF920301D
:108424006846194A202109F0DEFB6B461846FFF71F
:10843400F5FDFFF77FFD0990099A0D9BD31A0C9A5D
:108444009A42BDD8099B0D932D20FFF7B9F8B7E7E1
:1084540034250300FC2403003827030050270300BD
:10846400682703007C2703001423002098270300B7
:10847400B8270300D8270300FC27030020280300A3
:10848400382803006028030084280300BFF34F8FBB
:1084940000BF064BDB6803F4E0620449044B13435A
:1084A400CB60BFF34F8F00BF00BFFDE700ED00E0DE
:1084B4000400FA0582B0164B1B680193154B1B6828
:1084C4000093019B082B1FD1009B052B1AD801A2F6
:1084D40052F823F0F1840200F5840200F9840200CA
:1084E400FD840200018502000585020001230CE0E1
:1084F40001230AE0012308E0012306E0012304E04C
:10850400012302E0012300E00023184602B0704773
:10851400300100103401001082B0164B1B68019327
:10852400154B1B680093019B082B1FD1009B052B47
:108534001AD801A252F823F0558502005985020089
:108544005D8502006185020065850200698502007F
:1085540001230CE001230AE0012308E0012306E0E3
:10856400012304E0012302E0012300E00023184674
:1085740002B07047300100103401001082B0164B75
:108584001B680193154B1B680093019B082B1FD19B
:10859400009B052B1AD801A252F823F0B9850200DA
:1085A400BD850200C1850200C5850200C98502009F
:1085B400CD85020001230CE000230AE0002308E03B
:1085C400002306E0002304E0002302E0002300E08F
:1085D4000023184602B07047300100103401001027
:1085E40082B0164B1B680193154B1B680093019BCB
:1085F400082B1FD1009B052B1AD801A252F823F097
:108604001D860200218602002586020029860200BA
:108614002D8602003186020001230CE000230AE0CB
:10862400002308E0002306E0002304E0002302E026
:10863400002300E00023184602B070473001001008
:108644003401001082B0164B1B680193154B1B6854
:108654000093019B082B1FD1009B052B1AD801A264
:1086640052F823F081860200858602008986020082
:108674008D860200918602009586020001230CE09B
:1086840000230AE0002308E0002306E0002304E0BE
:10869400002302E0002300E00023184602B07047E4
:1086A400300100103401001082B0164B1B68019396
:1086B400154B1B680093019B082B1FD1009B052BB6
:1086C4001AD801A252F823F0E5860200E9860200D6
:1086D400ED860200F1860200F5860200F9860200AA
:1086E40001230CE000230AE0002308E0002306E055
:1086F400002304E0002302E0002300E000231846E6
:1087040002B07047300100103401001082B0164BE3
:108714001B680193154B1B680093019B082B1FD109
:10872400009B052B1AD801A252F823F049870200B6
:108734004D870200518702005587020059870200C5
:108744005D87020001230CE001230AE0012308E015
:10875400012306E0012304E0012302E0012300E0F9
:108764000023184602B07047300100103401001095
:1087740082B0164B1B680193154B1B680093019B39
:10878400082B1FD1009B052B1AD801A252F823F005
:10879400AD870200B1870200B5870200B9870200E5
:1087A400BD870200C187020000230CE000230AE019
:1087B400002308E0002306E0012304E0012302E093
:1087C400012300E00023184602B070473001001076
:1087D4003401001008B5FFF7CBFF0346002B07D088
:1087E4004FF010234FF08042D3F80832C2F85835C6
:1087F40000BF08BD00BF044BD3F80034002BFAD0EF
:1088040000BF00BF704700BF00E0014000B583B067
:108814000190054A019BC2F80435FFF7EBFF00BF46
:1088240003B05DF804FB00BF00E00140024B034AC3
:108834001A6000BF704700BF1C2300200090D003C3
:1088440008B5FFF737FE0346002B0ED04FF08043E8
:108854000022C3F80C214FF080430022C3F81021FA
:108864004FF080430022C3F83825FFF755FE034636
:10887400002B76D04FF08053734AD3F80434C2F8F7
:1088840020354FF08053704AD3F80834C2F82435A9
:108894004FF080536C4AD3F80C34C2F828354FF0AB
:1088A4008053694AD3F81034C2F82C354FF0805302
:1088B400654AD3F81434C2F830354FF08053624A15
:1088C400D3F81834C2F834354FF080535E4AD3F8E5
:1088D4001C34C2F840354FF080535B4AD3F820343F
:1088E400C2F844354FF08053574AD3F82434C2F8C1
:1088F40048354FF08053544AD3F82834C2F84C35E5
:108904004FF08053504AD3F82C34C2F850354FF00E
:1089140080534D4AD3F83034C2F854354FF0805365
:10892400494AD3F83434C2F860354FF08053464A8C
:10893400D3F83834C2F864354FF08053424AD3F840
:108944003C34C2F868354FF080533F4AD3F8403482
:10895400C2F86C354FF080533B4AD3F84434C2F824
:108964007035FFF70BFE0346002B02D0374B384A15
:108974001A60FFF735FE0346002B03D0354BFB226C
:10898400C3F81825FFF75EFE0346002B0AD0324BCE
:108994001B6823F00F02314B1B6803F00F032E49B1
:1089A40013430B60FFF780FE0346002B03D02C4BD0
:1089B4004FF400721A60FFF7A9FE0346002B0DD096
:1089C4004FF08043D3F8003403F00103002B05D0AB
:1089D4004FF080436FF00102C3F80024214BD3F819
:1089E4008830204A43F47003C2F88830BFF34F8FB5
:1089F40000BFBFF36F8F00BFFFF7ECFE4FF01023F3
:108A0400D3F80032002B05DB4FF01023D3F80432E7
:108A1400002B15DA0120FFF7F9FE4FF01023122284
:108A2400C3F80022FFF7E6FE4FF010231222C3F82A
:108A34000422FFF7DFFE0020FFF7E8FEFFF726FD24
:108A4400FFF7F4FE00BF08BD00C000408C56004094
:108A54004881030000F00040E40E0040580200107A
:108A64004096024000ED00E06DDF704700BF1846FD
:108A740079DF704700BF18467DDF704700BF184696
:108A840064DF704700BF184682B003460091ADF81A
:108A94000630BDF80630DAB2009B1A70BDF8063015
:108AA4001B0A9AB2009B0133D2B21A7002231846F1
:108AB40002B0704700B589B0039002911346ADF837
:108AC4000630029B1B8803F10902BDF806309A4266
:108AD40001D90C2353E004AB1846FFF7C5FF0790F8
:108AE400079B0693069B002B01D0069B47E0029B45
:108AF4001B881A46039B134408221A70029B1B8886
:108B040001339AB2029B1A80029B1B881A46039B6C
:108B140013441B221A70029B1B8801339AB2029BD6
:108B24001A80029B1B881A46039B981804AB0133D6
:108B34000622194609F0D8FB029B1B8806339AB219
:108B4400029B1A809DF8103023F00103DBB2002B46
:108B540007D1029B1B881A46039B134400221A70F8
:108B640006E0029B1B881A46039B134401221A70D9
:108B7400029B1B8801339AB2029B1A800023184679
:108B840009B05DF804FB00B589B00390029101922D
:108B9400ADF80230039B1B78012B05D1039B5B7856
:108BA400002B01D1072391E0019B1B889A1CBDF87F
:108BB40002309A420ED8039B1B78012B0CD1019BE7
:108BC4001B881A46039B5B7813449A1CBDF8023039
:108BD4009A4201D90C2379E0019B1B88BDF802203D
:108BE400D31A9BB2023BADF81C30BDF81C30ADF873
:108BF4001230019B1B880233029A13440DF11202B6
:108C040011461846FFF738FF0690069B0593059B0F
:108C1400002B01D0059B59E0039B1B78022B06D047
:108C2400039B5B781A46BDF812309A4209D3BDF80B
:108C34001230BDF81C209A4203D309238DF81F304B
:108C440016E008238DF81F30039B1B78012B0BD1F2
:108C5400039B5B781A46BDF81C30934204D3039BF4
:108C64005B78ADF8123003E0BDF81C30ADF812307B
:108C7400BDF81230FE2B01D90C2327E0BDF81230C9
:108C8400DAB2019B1B881946029B0B440132D2B213
:108C94001A70019B1B8801339AB2019B1A80019BB5
:108CA4001B881A46029B13449DF81F201A70019BCF
:108CB4001B8801339AB2019B1A80019B1A88BDF864
:108CC400123013449AB2019B1A800023184609B04B
:108CD4005DF804FB00B589B0039002911346ADF82A
:108CE4000630029B1B881A1DBDF806309A4201D932
:108CF4000C233AE00DF116031846FFF7B9FE07906E
:108D0400079B0693069B002B01D0069B2DE0029B3C
:108D14001B881A46039B134403221A70029B1B8868
:108D240001339AB2029B1A80029B1B881A46039B4A
:108D3400134419221A70029B1B8801339AB2029BB6
:108D44001A80BDF81620029B1B881946039B0B440E
:108D540019461046FFF798FE03461A46029B1B88E5
:108D640013449AB2029B1A800023184609B05DF896
:108D740004FB84B0029101921A4603468DF80F3029
:108D84001346ADF80C30019B1B88DA1CBDF80C307F
:108D94009A4201D90C2328E0019B1B881A46029BA6
:108DA400134402221A70019B1B8801339AB2019B5F
:108DB4001A80019B1B881A46029B134401221A70D5
:108DC400019B1B8801339AB2019B1A80019B1B886B
:108DD4001A46029B13449DF80F201A70019B1B88AE
:108DE40001339AB2019B1A800023184604B07047DD
:108DF40084B0029101921A4603468DF80F3013464F
:108E0400ADF80C30019B1B88DA1CBDF80C309A427B
:108E140001D90C2328E0019B1B881A46029B1344AA
:108E240002221A70019B1B8801339AB2019B1A809B
:108E3400019B1B881A46029B13440A221A70019B49
:108E44001B8801339AB2019B1A80019B1B881A4626
:108E5400029B13449DF80F201A70019B1B88013359
:108E64009AB2019B1A800023184604B0704700B5DB
:108E74008FB0039001930B468DF80B3013468DF899
:108E84000A3000238DF83330109B1B88ADF8303046
:108E940000230D9370E0039B5A680D9B9B001A44BA
:108EA40005AB106818600DF11B0105AB00221846D4
:108EB400FFF7E6FD0A900A9B0993099B002B01D05A
:108EC400099B7BE09DF81B309DF80A209A4250D103
:108ED4009DF83330002B01D0002300E002238DF8ED
:108EE4002330109B1B881A469DF81B301A449DF8AA
:108EF40023301A44BDF844309A4201DD0C235DE06E
:108F04009DF8333083F00103DBB2002B16D0109BA5
:108F14001B8801339AB2109B1A80109B1B881A4637
:108F2400019B13449DF80B201A70109B1B8801337E
:108F34009AB2109B1A8001238DF83330109B1B8842
:108F44001A46019B1A440DF11B0105AB1846FFF7A5
:108F540097FD0A900A9B0793079B002B01D0079B60
:108F64002CE0109B1B889DF81B2013449AB2109B85
:108F74001A800D9B01330D93039B1B881A460D9B8E
:108F8400934288DB9DF83330002B16D0109B1A884F
:108F9400BDF83030D31A9BB2013BADF82E30BDF88A
:108FA4002E30FF2B01D90C2308E0BDF83030019A94
:108FB4001344BDF82E20D2B21A70002318460FB005
:108FC4005DF804FB00B58BB0059003930B468DF858
:108FD400133013468DF812309DF81310BDF8343059
:108FE40001930C9B0093039B02220598FFF73FFF1C
:108FF4000990099B0893089B002B01D0089B14E05F
:109004009DF81210BDF8343001930C9B0093039B20
:1090140010220598FFF72BFF0990099B0793079BE4
:10902400002B01D0079B00E0002318460BB05DF82D
:1090340004FB82B00190019B1B88052B0AD9019B7C
:109044001B88B3F5486F07D9019B1B884FF6FF7245
:10905400934201D0072325E0019B5B88052B0AD9A5
:10906400019B5B88B3F5486F07D9019B5B884FF67A
:10907400FF72934201D0072314E0019B1B884FF633
:10908400FF7293420DD0019B5B884FF6FF729342AF
:1090940007D0019B1A88019B5B889A4201D9072358
:1090A40000E00023184602B0704700B587B0039073
:1090B40002910192ADF80230019B1B889A1DBDF804
:1090C40002309A4201D90C234BE00398FFF7B1FF19
:1090D4000590059B0493049B002B01D0049B40E066
:1090E400019B1B881A46029B134405221A70019B9C
:1090F4001B8801339AB2019B1A80019B1B881A4674
:10910400029B134412221A70019B1B8801339AB2EA
:10911400019B1A80039B1A88019B1B881946029B9A
:109124000B4419461046FFF7AFFC03461A46019B51
:109134001B8813449AB2019B1A80039B5A88019B93
:109144001B881946029B0B4419461046FFF79CFCEA
:1091540003461A46019B1B8813449AB2019B1A804A
:109164000023184607B05DF804FB00B587B00390F0
:1091740002910192ADF80230039B9B880233059360
:10918400019B1B881A46059B13449A1CBDF80230A8
:109194009A4201D90C2353E0059BFE2B01D90C23E1
:1091A4004EE0059BDAB2019B1B881946029B0B44D7
:1091B4000132D2B21A70019B1B8801339AB2019B0F
:1091C4001A80019B1B881A46029B1344FF221A70C3
:1091D400019B1B8801339AB2019B1A80039B1A8856
:1091E400019B1B881946029B0B4419461046FFF746
:1091F4004BFC03461A46019B1B8813449AB2019BFD
:109204001A80039B9B88002B19D0039B9B68002B1F
:1092140001D1072314E0019B1B881A46029B98186E
:10922400039B9968039B9B881A4609F05DF8019B90
:109234001A88039B9B8813449AB2019B1A800023CB
:10924400184607B05DF804FB00B589B0039002919D
:109254000192ADF80230039B9B6A002B01D10723D6
:1092640071E000238DF81F3065E0039B996A9DF837
:109274001F2013465B0013449B000B440693069B7C
:109284009B8802330593059BFE2B01D90C235AE0DE
:10929400059BDAB2019B1B881946029B0B440132E1
:1092A400D2B21A70019B1B8801339AB2019B1A80B7
:1092B400019B1B881A46029B134416221A70019BB9
:1092C4001B8801339AB2019B1A80069B1A88019B62
:1092D4001B881946029B0B4419461046FFF7D4FB22
:1092E40003461A46019B1B8813449AB2019B1A80B9
:1092F400069B9B88002B19D0069B9B68002B01D1F1
:10930400072320E0019B1B881A46029B9818069BA2
:109314009968069B9B881A4608F0E6FF019B1A8809
:10932400069B9B8813449AB2019B1A809DF81F30B8
:1093340001338DF81F30039B93F82C309DF81F20C8
:109344009A4292D30023184609B05DF804FB00B595
:1093540095B005900491039200231393039B1B88FB
:10936400ADF84A30039B00221A80059B93F82D30F8
:10937400002B0ED0BDF84A301A4603990498FFF723
:1093840099FB1390139B1193119B002B01D0119BFC
:10939400D8E0059B9B78002B0ED0BDF84A301A46C6
:1093A40003990498FFF796FC1390139B1093109B5A
:1093B400002B01D0109BC5E0059BDB78002B10D05F
:1093C400059BDB7858B2BDF84A30039A0499FFF73D
:1093D400D0FC1390139B0F930F9B002B01D00F9B7A
:1093E400B0E0059B5B68002B11D0059B5B6893F98B
:1093F4000000BDF84A30039A0499FFF7F9FC139072
:10940400139B0E930E9B002B01D00E9B9AE0059BA1
:109414001B89002B14D0059B03F10800BDF84A30CA
:109424000193039B0093049B06220221FFF7CAFDCC
:109434001390139B0D930D9B002B01D00D9B81E08A
:10944400059B1B8A002B14D0059B03F11000BDF86B
:109454004A300193039B0093049B07220321FFF7E7
:10946400B1FD1390139B0C930C9B002B01D00C9B10
:1094740068E0059B1B8B002B14D0059B03F118009F
:10948400BDF84A300193039B0093049B15221421D9
:10949400FFF798FD1390139B0B930B9B002B01D0AC
:1094A4000B9B4FE0059B1B6A002B0FD0059B186A92
:1094B400BDF84A30039A0499FFF7F7FD1390139B04
:1094C4000A930A9B002B01D00A9B3BE0059B5B6A35
:1094D400002B0FD0059B586ABDF84A30039A0499B3
:1094E400FFF743FE1390139B0993099B002B01D0B4
:1094F400099B27E0059B93F82C30002B0ED0BDF878
:109504004A30039A04990598FFF79EFE1390139B23
:109514000893089B002B01D0089B13E0059B1B7844
:10952400002B0ED0BDF84A30039A04990598FFF732
:109534002AFB1390139B0793079B002B01D0079BD7
:1095440000E0139B184615B05DF804FB75DF704707
:1095540000BF184676DF704700BF18467ADF7047B1
:1095640000BF18467BDF704700BF184684B003462F
:10957400ADF806300023039316E00F49039A13460F
:109584009B0013449B000B441B88BDF806209A42A1
:1095940007D1039A13469B0013449B00064A1344C5
:1095A40006E0039B01330393039B002BE5D00023C8
:1095B400184604B0704700BFC034002082B0019048
:1095C4000B46ADF80230019BBDF802201A80019BC6
:1095D40000221A72019B054903F10A020B4603CBD0
:1095E4001060516000BF02B0704700BFF03400202B
:1095F40082B00190019B4FF6FF721A8000BF02B047
:10960400704788B00390029111461A460B46ADF894
:1096140006301346ADF80430039B9B881A46BDF808
:10962400063013440793039B9B881946039B9B882E
:10963400BDF80620934228BF13469BB2CB1A06936B
:10964400039BDB881A46BDF8043013440593039B3F
:10965400DB881946039BDB88BDF80420934228BFAE
:1096640013469BB2CB1A0493029B5A88039B1B8814
:109674009A4205D3029B5A88039B5B889A4201D97C
:1096840000231CE0029B9B881A46069B934205D844
:10969400029B9B881A46079B934201D200230EE04B
:1096A400029BDB881A46049B934205D8029BDB8805
:1096B4001A46059B934201D2002300E00123184679
:1096C40008B0704700B583B00190064B9B69002B2E
:1096D40003D0044B9B690198984700BF03B05DF821
:1096E40004FB00BFD434002000B585B003460091CC
:1096F400ADF80630BDF8063000991846FFF726FF8E
:109704000390039B002B05D0039B112B02D00398DD
:10971400FFF7D8FF039B002B0CBF01230023DBB210
:10972400184605B05DF804FB00B589B00190019BB3
:109734000793079B9BB21846FFF718FF0690069BFA
:10974400002B42D0069B1A7A224B1B7B9A4215D2DD
:10975400079B9AB2069B0A3319461046FFF7C4FFCB
:1097640003468DF813309DF81330002B2DD0069B43
:109774001B7A0133DAB2069B1A7226E0069B00229A
:109784001A72144B1B7C002B0FD0079B9BB23B21FE
:109794001846FFF7DFFE0590059B002B05D0059BBF
:1097A400082B02D00598FFF78DFF0A4B5B69002B4D
:1097B4000BD000238DF80C30079B9BB2ADF80E3014
:1097C400044B5B6903AA1046984700BF09B05DF8D3
:1097D40004FB00BFD434002030B587B00190019B56
:1097E400002B01D10E2353E02B4A019B14461D4646
:1097F4000FCD0FC495E8070084E80700264B274ADD
:109804001A60019B1B68002B11D0019B1B68184632
:10981400FFF7A4FE0490049B002B01D0049B37E0C7
:10982400019B1A681D4B1068516803C308E01B486C
:10983400FFF798FE0490049B002B01D0049B27E0C3
:109844000023059320E0059A13469B0013449B00D4
:10985400134A134403930398FFF7CAFE059B5B0165
:10986400104A1A44039B5A60039B04330E4A002196
:10987400184604F0B3FB0490049B002B01D003238F
:1098840006E0059B01330593059B002BDBD00023E9
:10989400184607B030BD00BFD4340020F034002097
:1098A400C0340020A03400202D97020000B587B0FA
:1098B40003460091ADF80630009B5B7A002B1AD169
:1098C400009B1B7A002B03D1164B5B68059302E0C7
:1098D400144B9B680593009B5B68BDF806200599B3
:1098E400184604F0B5FB0490049B002B16D0049892
:1098F400FFF7E8FE12E0009B00221A72094B5B6935
:10990400002B0BD001238DF80C30BDF80630ADF8D8
:109914000E30044B5B6903AA1046984700BF07B09A
:109924005DF804FBD434002000B585B00190019BA0
:10993400DB7B8DF80F30019B9B88ADF80C309DF8D4
:109944000F30012B2CD14FF6FF70FFF70FFE029062
:10995400029B002B03D10420FFF7B4FE21E0BDF8E5
:109964000C3019460298FFF729FE029B03F10A0006
:10997400019B03F110014FF6FF7340F2F312FFF75E
:1099840040FE03461A46029B5A72074BDB89002BA2
:1099940007D1BDF80C3002991846FFF787FF00E0A5
:1099A40000BF05B05DF804FBD434002000B587B0D7
:1099B4000190019B9B88ADF81630BDF8163018460F
:1099C400FFF7D4FD0490049B002B0ED0049B5B682E
:1099D400184604F095FB0390039B002B02D00398D8
:1099E400FFF770FE0498FFF703FE00BF07B05DF8B1
:1099F40004FB000000B587B00190019B063305937A
:109A0400059B1A88194BDB899A422BD1059B5B89EC
:109A1400022B27D1019B9B88ADF81230BDF8123080
:109A24001846FFF7A3FD0390039B002B1AD0059B58
:109A34000C33184600F0FFF90346002B06D0BDF89E
:109A4400123003991846FFF731FF0BE0039B5B6864
:109A5400184604F055FB0290029B002B02D002989A
:109A6400FFF730FE00BF07B05DF804FBD4340020DC
:109A740000B585B00190019B9B88ADF80E30BDF810
:109A84000E301846FFF772FD0290029B002B15D092
:109A9400029B03F10A00019B03F108014FF6FF73D7
:109AA40040F2F312FFF7ADFD03461A46029B5A72C9
:109AB400BDF80E3002991846FFF7F8FE00BF05B056
:109AC4005DF804FB00B583B001900091019B1B88F5
:109AD400502B12D0502B18DC122B12D0122B14DC6A
:109AE400102B02D0112B04D00FE00198FFF71CFFBC
:109AF4000CE00198FFF75AFF08E00198FFF77AFF9E
:109B040004E00198FFF7B4FF00E000BF00BF03B01A
:109B14005DF804FB30B58FB00190009100230293EF
:109B2400009B002B1AD000230D9314E06B460D9973
:109B3400184605F022F90346002B09D0029B5A1C53
:109B440002920D9A92B25B0038336B4423F82C2CAA
:109B54000D9B01330D930D9B132BE7D9019B1D46E0
:109B640002AC0FCC0FC50FCC0FC594E8070085E8F5
:109B7400070001980FB030BD00B583B00346ADF8BF
:109B84000630BDF80630132B01D900230CE0BDF8D4
:109B940006301946064805F0BFF8BDF806301946E8
:109BA400044805F0B9F80123184603B05DF804FB36
:109BB40000350020FC34002000B585B00346ADF824
:109BC4000630002303930DE0039B9B00094A1344D2
:109BD4000433BDF806201146184605F0B5F8039B7A
:109BE40001330393039B1D2BEED900BF00BF05B0C7
:109BF4005DF804FBF834002000B583B00346ADF8EB
:109C04000630BDF806301946034805F09DF800BF3C
:109C140003B05DF804FB00BF0035002030B59BB0F5
:109C2400184B9B68DB431893164B5A6818AB1146C4
:109C3400184605F001F9189A6B4611461846FFF7C5
:109C440069FF0DAC6D460FCD0FC40FCD0FC495E861
:109C5400070084E80700002319930BE0199B5B00BD
:109C640068336B4433F8303C1846FFF7A5FF199B63
:109C7400013319930D9B199A9A42EFD300BF00BF89
:109C84001BB030BDF834002000B583B001900B4602
:109C9400ADF8023013468DF801309DF80130002BE9
:109CA40006D0BDF802301946019805F035F805E0F4
:109CB400BDF802301946019805F046F800BF03B01C
:109CC4005DF804FB00B585B001900091019B9B8871
:109CD400ADF80E30019B1B88103B0A2B00F28880E4
:109CE40001A252F823F000BF199D0200559D020005
:109CF400F59D0200F59D0200F59D0200F59D020010
:109D0400F59D0200F59D0200F59D0200BF9D020035
:109D1400619D0200FFF782FFBDF80E301846FFF781
:109D24002BFF034683F00103DBB2002B05D0324A3C
:109D3400F021042003F064FD57E0019BDB7B022B40
:109D440053D1BDF80E3019462C4804F0E5FF4CE021
:109D5400BDF80E301846FFF74FFF49E0019B1B7A10
:109D6400C3F30313DBB28DF80D309DF80D30032BD4
:109D74008CBF01230023DAB2BDF80E301946204807
:109D8400FFF782FF9DF80D30022B8CBF01230023C7
:109D9400DAB2BDF80E3019461A48FFF775FF9DF880
:109DA4000D30012B8CBF01230023DAB2BDF80E3035
:109DB40019461548FFF768FF1AE0019B1B7A002B30
:109DC40015D1019B5B7AC3F3C003DBB2002B14BF34
:109DD400012300238DF80C309DF80C20BDF80E30C3
:109DE40019460748FFF750FF01E000BF00E000BF3D
:109DF40000BF05B05DF804FB9C2803000435002077
:109E0400103500200C3500200835002082B0019068
:109E1400019B1B781AB2019B01331B781BB21B02F6
:109E24001BB213431BB29BB2184602B07047AADFA1
:109E3400704700BF184600B585B001900198FFF740
:109E4400E5FF0346ADF80E30BDF80E3003F0010314
:109E5400002B14BF01230023DBB2184605B05DF8C4
:109E640004FB000082B0034600918DF80730009A8D
:109E7400137823F00F031370009A137823F0F00380
:109E840013709DF80730052B5BD801A252F823F01C
:109E9400AD9E0200C39E0200DD9E0200F79E0200FA
:109EA400119F02002B9F0200009A137823F00F03E6
:109EB4001370009A137823F0F003137040E0009AB3
:109EC4001378012161F303031370009A13780121BD
:109ED40061F30713137033E0009A1378012161F3DF
:109EE40003031370009A1378022161F307131370AC
:109EF40026E0009A1378012161F303031370009A9A
:109F04001378032161F30713137019E0009A13788F
:109F1400022161F303031370009A1378012161F3A2
:109F2400071313700CE0009A1378022161F3030302
:109F34001370009A1378022161F30713137000BFA2
:109F440000BF00BF02B0704700B595B00346029150
:109F54000192ADF80E30029B9B78002B03D10123B4
:109F64008DF81E3003E0029B9B788DF81E30029B17
:109F74001B88ADF81C3006AB03220021184608F0FC
:109F8400E5F9029B5B7C06AA11461846FFF76AFFB7
:109F9400029B9A7C06AB013319461046FFF762FF19
:109FA400029BDA7B9DF81A3062F3C3038DF81A30F2
:109FB400029B1A7C9DF81A3062F304138DF81A3050
:109FC400029B1A7B9DF81A3062F300038DF81A3055
:109FD400029B1B7D002B01D0022200E001229DF890
:109FE4001A3062F342038DF81A300DAB1C220021A3
:109FF400184608F0ABF9029B5B7B03F01003DBB25D
:10A00400002B06D1029B5B7B03F02003DBB2002B09
:10A0140024D004AB03220021184608F097F9029BD0
:10A02400DA7C04AB013319461046FFF71BFF9DF899
:10A034001030012262F303038DF810309DF81030C4
:10A04400012262F307138DF810309DF812300122BB
:10A0540062F342038DF8123004AB1293029B5B7BD4
:10A064008DF83430029B9B7B8DF8353008AB14227D
:10A074000021184608F06AF907AB089306AB099368
:10A08400029B9B88ADF82C30029B9B68002B06D06A
:10A09400029BDB88ADF82830029B9B680C93029BE3
:10A0A4009B69002B4FD005AB03220021184608F012
:10A0B4004DF9029B9B691B88ADF83C30029B9B6960
:10A0C4005B88ADF83E30029B9B695B680E9305ABE1
:10A0D4001193029B9B691B7B05AA11461846FFF747
:10A0E400C1FE029B9B695A7B05AB0133194610469E
:10A0F400FFF7B8FE029B9B699A7A9DF8163062F3CB
:10A10400C3038DF81630029B9B69DA7A9DF81630EA
:10A1140062F304138DF81630029B9B691A7A9DF83A
:10A12400163062F300038DF81630029B9B699B7B0B
:10A13400002B01D0022200E001229DF8163062F3C8
:10A1440042038DF81630029BDB69002B02D0029B80
:10A15400DB69109308AA0DA9BDF80E00019BFFF757
:10A1640066FE0346184615B05DF804FB90DF7047A1
:10A1740000BF1846A5DF704700BF1846B5DF70471B
:10A1840000BF184682B00190019B17221A80019BE0
:10A1940017225A80019B00221A71019B00225A71D6
:10A1A400019B1B229A71019B1B22DA7100BF02B032
:10A1B4007047000030B589B003460A46ADF8063052
:10A1C4001346ADF80430BDF80430ADF81430BDF8D2
:10A1D4000430ADF816300023ADF818300023ADF884
:10A1E4001A3003AB00221A609A8003AA05A9BDF8AD
:10A1F40006301846FFF7BAFF0790079B002B39D0AB
:10A204001E4A1F4BD31ADB081B0443F00104BDF89C
:10A214000650079805F002FE03462A4619492046CF
:10A2240006F0D1FABDF80C30002B03D1BDF80E3086
:10A23400002B0ED0114A124BD31ADB081B0443F037
:10A244000100BDF80C301A46BDF80E300E4906F078
:10A25400BAFABDF81030002B0CD0084A084BD31AB8
:10A26400DB081B0443F00103BDF81020074918461E
:10A2740006F098FA079B184609B030BD5425030030
:10A28400FC2403001829030064290300A429030003
:10A2940010B586B001900091009B9B88ADF80E30FC
:10A2A400BDF80E30DB00019A134406330593019B7D
:10A2B4001A79059B9A71009BDB7B012B02D0022B40
:10A2C40005D009E0019B1A88059B1A8004E0019BD4
:10A2D4005A88059B1A8000BF059B1A88059B5B88DA
:10A2E4009A4226D9059B1A88BDF80E3011461846A5
:10A2F400FFF740FF0490049B002B03D1059B012230
:10A304005A7116E0049B112B03D1059B01221A718B
:10A314000FE0114A114BD31ADB081B0443F001046C
:10A32400049805F07BFD03461A460D49204606F0C5
:10A3340039FA059B9A79059BDB799A4208D9059BE2
:10A344009B791A46BDF80E3011461846FFF732FFC6
:10A3540000BF06B010BD00BF54250300FC24030059
:10A36400FC29030000B583B001900091009B9B88F9
:10A37400DB00019A134406331846FFF703FF00BFBE
:10A3840003B05DF804FB00B587B001900091009B19
:10A394009B88ADF81630009B5B89ADF81430BDF88E
:10A3A4001630DB00019A134406330493049B1B8884
:10A3B400BDF81420934228BF13469AB2049B5A80D6
:10A3C400049B5B88172B38BF17239AB2049B5A80CF
:10A3D400019B1B69002B15D0049B5B79002B11D0CA
:10A3E40040F67723ADF80830BDF81630ADF80A30E2
:10A3F400049B5B88ADF80C30019B1B6902AA1146D3
:10A4040001989847049B00225A71049B00221A71F8
:10A4140000BF07B05DF804FB10B588B0019000914F
:10A42400009B9B88ADF81A30009BDB88ADF8183090
:10A43400BDF81A30DB00019A134406330593BDF8C6
:10A444001830172B38BF1723ADF81830059B1B881D
:10A45400BDF81820934228BF13469AB2059B5A8030
:10A46400059B00221A71059B1A88BDF81A30114603
:10A474001846FFF783FE0790079B002B0FD0174A5F
:10A48400174BD31ADB081B0443F00104079805F0AB
:10A49400C5FC03461A461349204606F083F9059B7A
:10A4A4005B79002B16D1019B1B69002B13D040F65E
:10A4B4007723ADF80C30BDF81A30ADF80E30059B9B
:10A4C4005B88ADF81030019B1B6903AA1146019803
:10A4D400984700E000BF08B010BD00BF542503003A
:10A4E400FC240300302A030030B591B001900091A0
:10A4F400009B04AC1D1D0FCD0FC40FCD0FC495E8F8
:10A50400070084E80700BDF81030ADF83E30BDF810
:10A514001420BDF83E30D1B2019ADB0013440A4640
:10A524005A73019B1B69002B19D002AB00221A60DD
:10A534009A804DF67A23ADF80830BDF83E30ADF878
:10A544000A30BDF83E30019ADB0013445B7B8DF882
:10A554000C30019B1B6902AA11460198984700BF61
:10A5640011B030BD00B587B001900091009B043359
:10A574000593059B1B88DB00019A1344063304935F
:10A58400059B9B888DF80F30049B9B799DF80F20C9
:10A59400934228BF13468DF80E30059B1B889DF807
:10A5A4000E2092B211461846FFF704FE00BF07B012
:10A5B4005DF804FB00B585B001900091019B002B70
:10A5C40001D10E231DE0019B009A1A61019B172201
:10A5D4001A80019B17225A80019B1B221A710023A7
:10A5E40003930AE0039BDB00019A134406331846E5
:10A5F400FFF7C8FD039B01330393039B002BF1D0AA
:10A604000023184605B05DF804FB000010B586B0C1
:10A6140001900091009B0593019B9B88ADF812303B
:10A62400BDF81230002B40F09880019B1B88552BFD
:10A6340048D0552B55DC242B32DC102B51DB103B3E
:10A64400142B4ED801A252F823F000BFABA602008F
:10A65400B5A60200E7A60200E7A60200E7A60200EC
:10A66400E7A60200E7A60200E7A60200E7A60200AA
:10A67400E7A60200E7A60200E7A60200E7A602009A
:10A68400E7A60200E7A60200E7A60200E7A602008A
:10A69400E7A60200E7A60200DDA60200D3A6020098
:10A6A4003A2B0AD01DE001990598FFF7F1FD19E056
:10A6B40001990598FFF756FE14E001990598FFF7F4
:10A6C40062FE0FE001990598FFF7A6FE0AE00199E2
:10A6D4000598FFF709FF05E001990598FFF742FF88
:10A6E40000E000BFBDF81230059ADB0013449B7AEA
:10A6F400002B33D0BDF81230059ADB001344DA88FE
:10A70400BDF8123011461846FFF734FD0390039B41
:10A71400002B0ED1BDF81230059ADB001344002241
:10A724009A72BDF81230059ADB0013440122DA72E2
:10A7340014E0039B112B11D0094A0A4BD31ADB08EE
:10A744001B0443F00104039805F068FB03461A4612
:10A754000549204606F026F800E000BF06B010BD0B
:10A7640054250300FC240300FC290300B0DF7047D8
:10A7740000BF184666DF704700BF184682B00190DC
:10A784000091019B002B01D10E2316E0009B002BAE
:10A7940001D10E2311E0019B1B78DE2B01D108238C
:10A7A4000BE0009B1A68019B5A60019BDE221A7021
:10A7B400019B4FF6FF725A800023184602B070477F
:10A7C40082B001900B46ADF80230019B002B01D101
:10A7D4000E230AE0019B1B78DE2B01D0082304E042
:10A7E400019BBDF802205A800023184602B070472E
:10A7F40000B585B00190019B1B7A002B18D0019BFA
:10A804005B8800211846FFF7B5FF0390039B002BDC
:10A8140003D1019B00221A720AE0039B112B03D17E
:10A82400019B01221A7203E0019B5B68039898471D
:10A8340000BF05B05DF804FB00B583B00190009142
:10A84400009B1B79012B0BD1009B1A88019B5B8811
:10A854009A4205D1019B01221A720198FFF7C8FFA1
:10A8640000BF03B05DF804FB82B00190009100BF0B
:10A8740002B0704700B589B001900091009B1A881E
:10A88400019B5B889A4236D1009B02330793079B56
:10A894001B78022B31D1079B1B7A042B07D0079B13
:10A8A4001B7A062B03D0079B1B7A052B27D102ABFF
:10A8B40000221A605A609A60DA6002238DF8083028
:10A8C4004FF4C073ADF80C30079B1B7A052B02D1F3
:10A8D4000023ADF80C30009B1B8802AA11461846D1
:10A8E400FFF744FF0690069B002B09D0019B5B6891
:10A8F4000698984704E000BF02E000BF00E000BFF4
:10A9040009B05DF804FB00B585B001900091009B8F
:10A91400002B43D0019B002B40D0009B0393039B4F
:10A924001B78DE2B3AD1019B9A88039B5B889A4261
:10A9340002D10398FFF75CFF019B1B88512B18D0B1
:10A94400512B28DC112B1BD0112B24DC012B02D022
:10A95400022B07D01FE0019B043319460398FFF72D
:10A964006BFF1BE0019B043319460398FFF77CFF40
:10A9740014E0019B043319460398FFF77BFF0DE0B5
:10A98400019B9A88039B5B889A4206D1039B4FF6EE
:10A99400FF725A8001E000BF00E000BF05B05DF81F
:10A9A40004FB000000B585B00190019B002B0AD088
:10A9B400074B43F001030393019B9B010293039B09
:10A9C4000298984700E000BF05B05DF804FB00BFA3
:10A9D400702A030000B583B00190019B002B0AD0BC
:10A9E4004FF47A70FFF7DEFF019B013B0193019B5B
:10A9F400002BF5D100E000BF03B05DF804FB00B507
:10AA040083B00190019800F056F8034683F00103E7
:10AA1400DBB2002B01D0002303E00A20FFF7DAFFAA
:10AA24000123184603B05DF804FB00B589B0039018
:10AA34000B468DF80B3013468DF80A309DF90B3018
:10AA44009B005BB243F040035BB28DF81F309DF86E
:10AA54001F308DF814309DF80A308DF8153005AA92
:10AA64000023009302234021039802F03DF806904E
:10AA7400069B002B0CBF01230023DBB2184609B050
:10AA84005DF804FB00B585B003900B468DF80B30E0
:10AA94000DF10B020023009301234021039802F0DF
:10AAA40023F80346002B0CBF01230023DBB2184616
:10AAB40005B05DF804FB00B585B0019006238DF860
:10AAC4000F309DF80F3019460198FFF7DBFF03465E
:10AAD400184605B05DF804FB00B585B00190082365
:10AAE4008DF80F309DF80F3019460198FFF7CAFF13
:10AAF4000346184605B05DF804FB000000B585B0B8
:10AB0400019001238DF80F304D4B0293029B1B786B
:10AB14005BB21B015AB2029B5B785BB25B005BB217
:10AB240013435AB2029B9B785BB213435BB2DBB212
:10AB34001A4600210198FFF778FF03461A469DF84C
:10AB44000F301340002B14BF012300238DF80F3066
:10AB5400029BDB785BB25B015AB2029B1B795BB24E
:10AB64001B015BB213435AB2029B5B795BB2DB00FD
:10AB74005BB213435AB2029B9B795BB25B005BB23C
:10AB840013435AB2029BDB795BB213435BB2DBB271
:10AB94001A4601210198FFF748FF03461A469DF81B
:10ABA4000F301340002B14BF012300238DF80F3006
:10ABB400029B1B7A5B01DBB21A4602210198FFF764
:10ABC40034FF03461A469DF80F301340002B14BF80
:10ABD400012300238DF80F30029B5B7A5BB25B018B
:10ABE4005AB2029B9B7A5BB29B005BB213435BB28B
:10ABF400DBB21A4603210198FFF717FF03461A46F2
:10AC04009DF80F301340002B14BF012300238DF84F
:10AC14000F309DF80F30002B0CD00198FFF75CFF2C
:10AC2400034683F00103DBB2002B01D0002302E0D2
:10AC3400012300E00023184605B05DF804FB00BFC3
:10AC4400602A030000B587B0039002910023ADF899
:10AC5400143010238DF813300DF1130200230093E8
:10AC640001234021039801F03FFF0346002B01D04C
:10AC7400002321E005AA02234021039801F05CFF90
:10AC84000346002B01D0002316E09DF814301BB2BC
:10AC94001B021AB29DF815301BB213431AB2029B61
:10ACA4001A80029BB3F90030002B04DA029BB3F93B
:10ACB4000020029B1A800123184607B05DF804FBAC
:10ACC40082B003468DF807309DF90730002B13DB63
:10ACD4009DF8073003F01F0209499DF907305B090D
:10ACE400012000FA02F2203341F82320BFF34F8FF2
:10ACF40000BFBFF36F8F00BF00BF02B0704700BF3B
:10AD040000E100E0044BD3F80034002B14BF01230E
:10AD14000023DBB2184670470000014008B506F076
:10AD240093FC034683F00103DBB2002B03D10949F2
:10AD34007B20FCF7D5FCFFF7E5FF034683F0010316
:10AD4400DBB2002B04D000F091FA034B00229A707E
:10AD540000BF08BD802A03007435002000B583B00D
:10AD640000230193184B1B78002B02D085230193F9
:10AD74001CE0154B00229A60134B00225A60124BC0
:10AD840000221A61104B0022DA60104800F034FAF5
:10AD9400019006F059FC034683F00103DBB2002B5B
:10ADA40001D000F04FFA084B01221A70FFF7AAFFF6
:10ADB4000346002B02D0044B01229A70019B1846D3
:10ADC40003B05DF804FB00BF74350020A9AE020097
:10ADD40084B00190019B1B680393039B002B03D059
:10ADE400039B1A68019B1A60039B184604B07047C2
:10ADF40000B583B0164B1B78002B04D1154940F2E3
:10AE04001710FCF76DFC124BDB68002B04D11149C1
:10AE14004FF48C70FCF764FC00238DF807300DF1BF
:10AE24000703184603F03CFA094BDB68013B084A68
:10AE3400D360074BDB68002B01D1FFF76FFF9DF850
:10AE44000730184603F042FA00BF03B05DF804FB74
:10AE540074350020802A030000B585B003468DF8C0
:10AE640007309DF80730002B02D10C4B039301E00F
:10AE74000B4B03930398FFF7ABFF0290029B002B4D
:10AE840006D0029B5B689DF8072010469847F1E7BF
:10AE940000BF00BF05B05DF804FB00BF7C35002097
:10AEA4008435002000B583B003468DF807309DF843
:10AEB4000730002B05D10A4B01225A700020FFF7FE
:10AEC400CBFF9DF80730012B05D1054B01229A7069
:10AED4000120FFF7C1FF00BF03B05DF804FB00BF12
:10AEE4007435002000B583B001900091019B002BC4
:10AEF40005D1054B01225A700020FFF7ADFF00BFBA
:10AF040003B05DF804FB00BF7435002000B585B0C4
:10AF1400034600918DF807309DF80730032B29D0A4
:10AF2400032B35DC002B02D0012B04D030E00020B1
:10AF3400FFF7C6FE2DE000238DF80F300DF10F034F
:10AF4400184603F0ADF9154B1B7883F00103DBB20F
:10AF5400002B01D0FFF702FF104BDB6801330F4ACF
:10AF6400D3600E4B01229A709DF80F30184603F0FF
:10AF7400ADF90EE0094B1B78002B04D1084940F2CF
:10AF84005220FCF7ADFB00F05DF9FFF731FF00E064
:10AF940000BF00BF05B05DF804FB00BF743500209E
:10AFA400802A030082B003468DF807309DF90730EC
:10AFB400002B0CDB9DF8073003F01F0205499DF9B7
:10AFC40007305B09012000FA02F241F8232000BF98
:10AFD40002B0704700E100E082B0034600918DF8B2
:10AFE40007309DF90730002B0ADB009BDAB20C49CD
:10AFF4009DF907305201D2B20B4483F800230BE0D1
:10B00400009BDAB207499DF8073003F00F03043BB5
:10B014005201D2B20B441A7600BF02B0704700BF8F
:10B0240000E100E000ED00E082B00190019B1B0B09
:10B034005BB2184602B0704700B583B003460A46B7
:10B044008DF8073013468DF806309DF80630012B35
:10B0540003D99DF80630032B0BD99DF80630042B39
:10B0640003D99DF80630072B03D908496B20FCF758
:10B0740037FB9DF806209DF9073011461846FFF767
:10B08400ABFF00BF03B05DF804FB00BFEC2A030074
:10B0940000B583B003468DF807309DF90730184694
:10B0A400FFF780FF00BF03B05DF804FB82B00346E6
:10B0B4008DF807300F4A9DF90730002B00DA1F3353
:10B0C4005B115BB252F823209DF90730594203F01B
:10B0D4001F0301F01F0158BF4B425BB222FA03F376
:10B0E40003F00103002B14BF01230023DBB2184635
:10B0F40002B0704700E100E082B001904FF080425E
:10B10400019BC2F8083300BF02B0704782B0034607
:10B114008DF807309DF8073003F1804301221A604F
:10B1240000BF02B0704784B00346ADF80630BDF8E6
:10B13400063003F1804300221A60BDF8063003F1A3
:10B1440080431B680393039B00BF04B0704782B025
:10B154000346ADF80630BDF8063003F180431B68A2
:10B16400002B14BF01230023DBB2184602B0704742
:10B1740082B001904FF08042019BC2F8183500BFA5
:10B1840002B070474FF08043D3F818341B0C03F01F
:10B194000103002B14BF01230023DBB218467047C0
:10B1A40000B583B006238DF807304FF08040FFF7D9
:10B1B4003BFF03461846FFF779FF034683F001037C
:10B1C400DBB2002B13D04FF08040FFF72DFF034676
:10B1D4001A469DF8073019461046FFF72DFF4FF029
:10B1E4008040FFF721FF03461846FFF751FF00BFD9
:10B1F40003B05DF804FB000000B585B00190019B2D
:10B20400002B03D10D49A420FCF76AFA0023039311
:10B214000B4B1B79002B02D08523039308E0084ACB
:10B22400019B1360064B01221A71054B00225A71CF
:10B23400039B184605B05DF804FB00BF242B0300F4
:10B244008835002008B5074B1B79002B03D106492C
:10B25400BD20FCF745FAFFF7A3FF0120FFF788FFA5
:10B2640000BF08BD88350020242B030008B50D4B12
:10B274001B79002B03D10C49F720FCF731FA02208B
:10B28400FFF73AFF4FF48270FFF74DFF0C20FFF7F2
:10B294003DFF00BFFFF776FF0346002BFAD100BF46
:10B2A40000BF08BD88350020242B030008B54FF4E7
:10B2B4008070FFF74CFF0346002B14D04FF48070CE
:10B2C400FFF731FF0120FFF717FF114B5B7983F084
:10B2D4000103DBB2002B06D00D4B01225A710C4B3B
:10B2E4001B68002098474FF48270FFF730FF034635
:10B2F400002B0AD04FF48270FFF715FF0220FFF7EE
:10B30400FBFE034B1B680120984700BF08BD00BF2C
:10B314008835002000B583B00346ADF80630BDF88B
:10B324000630184600F026F803461B68012B0CBFB4
:10B3340001230023DBB2184603B05DF804FB00B51B
:10B3440085B00346ADF80630BDF80630184600F067
:10B3540011F803461A4600231360BDF80630184658
:10B3640000F008F803461B680393039B00BF05B075
:10B374005DF804FB82B00346ADF80630BDF8063034
:10B3840003F1804303F5C043184602B07047000040
:10B3940082B00190034BD3F80423019B1340184659
:10B3A40002B070470060004082B00190054A019BE2
:10B3B40003F5A27352F823301B0A03F03F03184627
:10B3C40002B070470060004082B00190064A019BC1
:10B3D40003F5A27352F823301B0C03F00303DBB212
:10B3E400184602B0704700BF0060004000B583B04B
:10B3F4000190019B1B68184600F0AAF80346002B35
:10B4040004D10B494FF4F670FCF76AF9019B1B68F1
:10B414001F2B02D84FF0A04306E0019B1B6803F0EA
:10B424001F02019B1A60034B184603B05DF804FB2E
:10B43400C02B03000003005000B585B001900B46FB
:10B444008DF8033001AB1846FFF7D0FF0390019A43
:10B45400039B02F5E07253F82230019A23F4403141
:10B46400039B02F5E07243F82210019A039B02F554
:10B47400E07253F822109DF803301B04019A19431B
:10B48400039B02F5E07243F8221000BF05B05DF89B
:10B4940004FB00B585B0019001AB1846FFF7A6FF89
:10B4A4000390019A039B02F5E07253F822301B0CBF
:10B4B40003F00303DBB2184605B05DF804FB00009B
:10B4C40088B0039002910192164A05AB92E80300FA
:10B4D40083E80300039B079319E0079B9B00203339
:10B4E4006B4453F80C3CD3F82025019B1A60079B4E
:10B4F4009B0020336B4453F80C3C019A1268C3F848
:10B504002025019B04330193079B01330793039A7E
:10B51400029B1344079A9A42DFD300BF00BF08B0CE
:10B52400704700BFF02B030000B585B0019001AB5C
:10B534001846FFF75BFF0390019B012202FA03F315
:10B544001A46039BC3F8202500BF05B05DF804FB31
:10B5540084B00190019B5B09029300230393029B37
:10B56400002B03D0029B012B04D007E04FF0FF33E4
:10B57400039303E04FF6FF73039300BF019B03F0B3
:10B584001F030193039A019B22FA03F303F00103BF
:10B59400002B14BF01230023DBB2184604B070470C
:10B5A40084B001900091009B0393019BDB080293FC
:10B5B400019B03F0070301930122019B02FA03F3A9
:10B5C4000399029A0A4412781340184604B070474B
:10B5D40082B00190044A019B1344303393F9003044
:10B5E400184602B0704700BF9035002082B0019029
:10B5F400034A019B52F82330184602B0704700BF3B
:10B604009035002084B00190074A019B13446033B5
:10B6140093F900308DF80F309DF80F3023F0C003FC
:10B62400184604B0704700BF9035002084B00190E4
:10B63400074A019B1344603393F900308DF80F30AF
:10B644009DF80F309B09DBB2184604B0704700BF69
:10B654009035002000B585B00190019A02210020A8
:10B66400FFF72EFF002303930BE0039B9B00019A3B
:10B6740013441B68002B01D0012306E0039B013314
:10B684000393039B012BF0D90023184605B05DF802
:10B6940004FB000000B587B00190002305935BE034
:10B6A400344A059B1344603393F90030B3F1FF3FF0
:10B6B4004ED00598FFF7A6FF049001990498FFF770
:10B6C4006FFF0346002B44D00598FFF7AFFF0346F6
:10B6D4008DF80F300498FFF7DCFE03468DF80E302A
:10B6E4009DF80E30022B01D1032300E002238DF8D4
:10B6F4000D309DF80D3019460498FFF79DFE04980F
:10B70400FFF712FF0498FFF763FF03461846FFF79D
:10B714006DFF0290029B002B1BD09DF80F30032B72
:10B724000FD09DF80E30022B03D19DF80F30012B62
:10B7340007D09DF80E30032B0BD19DF80F30022B50
:10B7440007D19DF80F20029B11460498984700E00A
:10B7540000BF059B01330593059B032BA0D90198DA
:10B76400FFF778FF0346002B97D100BF00BF07B057
:10B774005DF804FB9035002000B58BB000230893DE
:10B7840001AB00221A605A604FF48073ADF81A308E
:10B79400012309930023079321E0BDF81A301846CA
:10B7A400FFF7B8FD0346002B0ED00998FFF7F0FD14
:10B7B4000346002B08D0BDF81A301846FFF7BFFD2A
:10B7C400089A099B13430893099B5B000993BDF8EE
:10B7D4001A300433ADF81A30079B01330793079BE3
:10B7E400072BDAD94FF4BE70FFF794FD0346002B04
:10B7F4000DD04FF4BE70FFF7A2FD089B43F0004349
:10B80400089301AB1A4602210020FFF759FE089B5A
:10B81400DBB2002B29D0012309930023079321E0F5
:10B82400099A089B1340002B16D00798FFF7BCFD1C
:10B8340005900798FFF7C8FD03468DF81330079865
:10B84400FFF7D4FE0390039B002B05D09DF8132033
:10B85400039B114605989847099B5B000993079B36
:10B8640001330793079B072BDAD9089B002B03DAD4
:10B8740001AB1846FFF70EFF00BF0BB05DF804FBE9
:10B8840008B5064B1B68002B03D105495120FBF773
:10B8940027FF024B1B68984708BD00BFFC350020FA
:10B8A400702C030082B00190019B044A934201D1A1
:10B8B400034B00E00023184602B07047002000400C
:10B8C400FC35002000B587B001900091019B002B4E
:10B8D40003D11C497720FBF703FF0198FFF7E2FF30
:10B8E4000590059B002B25D000238DF813300023F1
:10B8F4008DF80B300DF10B03184602F0D1FC059BBB
:10B904001B79002B03D001238DF8133005E0059B30
:10B91400009A1A60059B01221A719DF80B30184693
:10B9240002F0D4FC9DF81330002B03D011230393B1
:10B93400039B02E000230393039B184607B05DF8C2
:10B9440004FB00BF702C030082B003468DF807305F
:10B954009DF90730002B0CDB9DF8073003F01F0224
:10B9640005499DF907305B09012000FA02F241F80C
:10B97400232000BF02B0704700E100E082B003461C
:10B9840000918DF807309DF90730002B0ADB009BEE
:10B99400DAB20C499DF907305201D2B20B4483F854
:10B9A40000230BE0009BDAB207499DF8073003F04F
:10B9B4000F03043B5201D2B20B441A7600BF02B00B
:10B9C400704700BF00E100E000ED00E082B00190AC
:10B9D400019B1B0B5BB2184602B0704700B583B0E5
:10B9E40003460A468DF8073013468DF806309DF855
:10B9F4000630012B03D99DF80630032B0BD99DF893
:10BA04000630042B03D99DF80630072B03D90849C7
:10BA14006B20FBF765FE9DF806209DF90730114663
:10BA24001846FFF7ABFF00BF03B05DF804FB00BF8F
:10BA3400DC2C030000B583B003468DF807309DF974
:10BA440007301846FFF780FF00BF03B05DF804FB22
:10BA540082B001900B468DF803309DF80330019AB3
:10BA6400134401221A6000BF02B0704784B00190F1
:10BA74000B46ADF80230BDF80230019A134400229F
:10BA84001A60BDF80230019A13441B680393039BA8
:10BA940000BF04B0704782B001900B46ADF802308D
:10BAA400BDF80230019A13441B68002B14BF012314
:10BAB4000023DBB2184602B0704782B001900091B7
:10BAC400019BD3F80423009B1340002B14BF0123D4
:10BAD4000023DBB2184602B0704782B001900B46D7
:10BAE4008DF80330019BD3F8043523F003029DF84D
:10BAF400033003F003031A43019BC3F8042500BF7A
:10BB040002B0704782B001900B468DF80330019B60
:10BB1400D3F8083523F003029DF8033003F0030340
:10BB24001A43019BC3F8082500BF02B0704782B0D6
:10BB340001900B468DF80330019BD3F8103523F0A8
:10BB44000F029DF8033003F00F031A43019BC3F85F
:10BB5400102500BF02B0704782B001900B468DF8EB
:10BB640003309DF80320019B02F5A87253F822309C
:10BB7400184602B0704782B00190019B9B0040338D
:10BB8400DBB2184602B0704782B00190019B9B0063
:10BB940003F5A0739BB2184602B0704782B00190BF
:10BBA4004FF48032019B02FA03F3184602B0704747
:10BBB40010B588B0039002910192039B1B791A4639
:10BBC40013465B0013449B00734A13440793039B7F
:10BBD4001B68724A934203D171494620FBF780FDEA
:10BBE400029B002B03D16E494820FBF779FD019B92
:10BBF400002B03D16A494920FBF772FD079B1B7A8E
:10BC0400002B03D008230593059BC2E0039B1B680C
:10BC1400624A93420FD1029B9B78012B63D0029B13
:10BC24009B78002B5FD0029B9B78022B5BD0029BFE
:10BC34009B78032B57D0039B1B685A4A93420FD11E
:10BC4400029B9B78012B4ED0029B9B78002B4AD001
:10BC5400029B9B78022B46D0029B9B78032B42D0FD
:10BC6400039B1B68504A93420FD1029B9B78012B84
:10BC740039D0029B9B78002B35D0029B9B78022BFA
:10BC840031D0029B9B78032B2DD0039B1B68474A22
:10BC940093420FD1029B9B78012B24D0029B9B786B
:10BCA400002B20D0029B9B78022B1CD0029B9B78FC
:10BCB400032B18D0039B1B683D4A93420FD1029B70
:10BCC4009B78012B0FD0029B9B78002B0BD0029BFF
:10BCD4009B78022B07D0029B9B78032B03D030491F
:10BCE4005D20FBF7FDFC079B019A1A60029B5A68D2
:10BCF400079B5A6000238DF81B3010E0039B1C68DF
:10BD04009DF81B301846FFF73FFF034619462046AF
:10BD1400FFF7ACFE9DF81B3001338DF81B30039BFD
:10BD24005B799DF81B209A42E8D3039B1B68184655
:10BD3400FFF74CFE03461A46029BDB781946104671
:10BD4400FFF74CFE039B1B681846FFF73FFE0346B4
:10BD54001846FFF76FFE039B1A68029B5B7819462F
:10BD64001046FFF7BAFE039B1A68029B9B7819469C
:10BD74001046FFF7C7FE039B1A68029B1B781946FF
:10BD84001046FFF7D4FE079B01221A720023059385
:10BD9400059B184608B010BD043600200080004002
:10BDA400142D03000090004000A0004000A00140BA
:10BDB40000B0014000B583B00190019B1B79194686
:10BDC400114A0B465B000B449B00134408331B7859
:10BDD400012B03D00D498D20FBF782FC019B1B68CE
:10BDE40000211846FFF734FE019B1B791946064AC9
:10BDF4000B465B000B449B001344083302221A7069
:10BE040000BF03B05DF804FB04360020142D0300CA
:10BE140010B582B001900B468DF80330019B1B795D
:10BE24001946184A0B465B000B449B001344083325
:10BE34001B78002B03D11449C020FBF751FC019B54
:10BE44005B799DF803209A4203D30F49C120FBF785
:10BE540047FC019B1C689DF803301846FFF78BFED6
:10BE6400034619462046FFF7F3FD019B1B689DF826
:10BE7400032011461846FFF76FFE0346184602B02A
:10BE840010BD00BF04360020142D030000B587B098
:10BE94000390029113468DF8073000238DF8173074
:10BEA40030E09DF817301846FFF76EFE0346ADF8F4
:10BEB40014309DF817301846FFF770FE0490BDF853
:10BEC400143019460398FFF7E6FD0346002B14D0FF
:10BED40004990398FFF7F1FD0346002B0DD0BDF83C
:10BEE400143019460398FFF7C1FD029B1B68029AA0
:10BEF4005168BDF81420104698479DF81730013357
:10BF04008DF817309DF817209DF807309A42C8D352
:10BF140000BF00BF07B05DF804FB000008B50422B1
:10BF240002490348FFF7B2FF00BF08BD04360020F2
:10BF340000A0004082B003468DF807309DF9073019
:10BF4400002B0CDB9DF8073003F01F0205499DF917
:10BF540007305B09012000FA02F241F8232000BFF8
:10BF640002B0704700E100E082B0034600918DF812
:10BF740007309DF90730002B0ADB009BDAB20C492D
:10BF84009DF907305201D2B20B4483F800230BE031
:10BF9400009BDAB207499DF8073003F00F03043B16
:10BFA4005201D2B20B441A7600BF02B0704700BFF0
:10BFB40000E100E000ED00E082B00190019B1B0B6A
:10BFC4005BB2184602B0704700B583B003460A4618
:10BFD4008DF8073013468DF806309DF80630012B96
:10BFE40003D99DF80630032B0BD99DF80630042B9A
:10BFF40003D99DF80630072B03D908496B20FBF7BA
:10C004006FFB9DF806209DF9073011461846FFF78F
:10C01400ABFF00BF03B05DF804FB00BF802D03003D
:10C0240000B583B003468DF807309DF907301846F4
:10C03400FFF780FF00BF03B05DF804FB82B00190FE
:10C044000B468DF803309DF80330019A1344012206
:10C054001A6000BF02B0704784B001900B46ADF87F
:10C064000230BDF80230019A134400221A60BDF870
:10C074000230019A13441B680393039B00BF04B06E
:10C08400704782B001900B46ADF80230BDF8023023
:10C09400019A13441B68002B14BF01230023DBB255
:10C0A400184602B0704782B001900091019B009A3B
:10C0B400C3F8042300BF02B0704782B0019000911E
:10C0C400019B009AC3F8082300BF02B0704782B0F6
:10C0D4000190019B0522C3F8002500BF02B0704700
:10C0E40082B00190019B0022C3F8002500BF02B07A
:10C0F400704784B0039002910192039B029AC3F8A3
:10C104000825039B019AC3F80C2500BF04B07047AF
:10C1140082B001900091019B009AC3F8242500BFCE
:10C1240002B0704784B00190019BD3F8C4340393E8
:10C13400019B039AC3F8C424039B184604B07047B8
:10C1440082B001900B468DF803309DF80320019BCB
:10C15400C3F8882500BF02B0704782B00190019BEC
:10C16400D3F81835DBB2184602B0704782B001909C
:10C174000B468DF803309DF80320019BC3F81C2562
:10C1840000BF02B0704782B001900091019B009AF9
:10C19400C3F8002200BF02B07047000000B583B0AE
:10C1A4000190019B1B68184600F04FF80346002BD2
:10C1B40004D10B494FF4F670FBF792FA019B1B680C
:10C1C4001F2B02D84FF0A04306E0019B1B6803F02D
:10C1D4001F02019B1A60034B184603B05DF804FB71
:10C1E400B02D03000003005000B585B0019008464F
:10C1F40011461A4603468DF803300B468DF802307B
:10C2040013468DF8013001AB1846FFF7C7FF0390C2
:10C214009DF803209DF802305B001A439DF801301D
:10C224009B001A439DF818301B0242EA03019DF853
:10C234001C301B04019A1943039B02F5E07243F876
:10C24400221000BF05B05DF804FB84B00190019B8F
:10C254005B09029300230393029B002B03D0029BF0
:10C26400012B04D007E04FF0FF33039303E04FF6B4
:10C27400FF73039300BF019B03F01F030193039A11
:10C28400019B22FA03F303F00103002B14BF0123E3
:10C294000023DBB2184604B0704784B00190032336
:10C2A4000393019B03F00103002B02D04FF40243DC
:10C2B4000393019B03F00203002B02D048F20123F5
:10C2C4000393019B03F00403002B02D048F20223E2
:10C2D4000393039B184604B0704700B583B00190E4
:10C2E4000091009B5A6B009B9B6A9A4207D001986D
:10C2F400FFF7F6FE0198FFF7EAFE002300E00123B2
:10C30400184603B05DF804FB00B58BB005900491AA
:10C3140003920293049B002B03D14D49A820FBF701
:10C32400DFF9049B1A68049B5B689A4203D148496D
:10C33400A920FBF7D5F9059B1B791A4613461B0167
:10C344009B1A9B00434A13440893089B93F82E308E
:10C35400002B03D008230793079B74E0059B1A68FE
:10C36400059B1B7919463C4B53F82130194610465E
:10C37400FFF7A8FA0346002B03D011230793079B6A
:10C3840061E0089B039A1A60089B029A5A60089B12
:10C3940000229A60089B002283F82D20089B00222B
:10C3A40083F83120089B002283F83020049B5A7BB9
:10C3B400089B83F83820049B186800230193062304
:10C3C4000093032300220021FFF70EFF049B58680B
:10C3D4000023019306230093032300220021FFF787
:10C3E40003FF059B1B680993049B1968049B5B6806
:10C3F4001A460998FFF77DFE049B9B681946099825
:10C40400FFF786FE089B1B68002B15D0059B1B6855
:10C414001846FFF7D1FD03461A46049B1B7B1946B9
:10C424001046FFF7D1FD059B1B681846FFF7C4FDB6
:10C4340003461846FFF7F4FD089B012283F82E20DB
:10C4440000230793079B18460BB05DF804FB00BF5D
:10C45400E42D0300103600204C2E030000B585B0F7
:10C464000190019B1B791A4613461B019B1A9B00E2
:10C474000D4A13440393039B93F82E30012B04D0ED
:10C484000A494FF48470FBF72BF9019B1B68029354
:10C494000298FFF71CFE039B022283F82E2000BFA4
:10C4A40005B05DF804FB00BF10360020E42D030046
:10C4B40000B583B001900091009B5A6B009B9B6A6E
:10C4C4009A420AD2009B5A6A009B5B6B13441B7806
:10C4D40019460198FFF74AFE1EE0009B93F82C30A2
:10C4E400002B05D01C210198FFF7A8FD002314E0C0
:10C4F400009B1B6A03F04003002B09D01C21019808
:10C50400FFF79CFD009B012283F82D20002304E00B
:10C5140014210198FFF792FD0123184603B05DF83A
:10C5240004FB10B582B001900091009B5A6B009BF4
:10C534009B6A9A4244D2009B5A6A009B5B6BD41854
:10C544000198FFF70AFE03462370009B5B6B5A1C9D
:10C55400009B5A63009B5A6B009B9B6A013B9A4267
:10C564000AD1009B1B6A03F04003002B04D1022173
:10C574000198FFF708FE1FE0009B5A6B009B9B6A23
:10C584009A4207D1009B1B6A03F04003002B01D1A0
:10C59400012316E0009B5A6B009B9B6A9A420BD1C5
:10C5A400009B1B6A03F04003002B05D0009B022272
:10C5B40083F82D20002304E020210198FFF73EFD9D
:10C5C4000123184602B010BD00B585B0019000915A
:10C5D40000238DF80F304FF482710198FFF751FD5D
:10C5E4000346002B07D04FF482710198FFF734FD06
:10C5F40001238DF80F30009B93F82F30002B0FD0C0
:10C604004FF492710198FFF727FD4FF48E71019852
:10C61400FFF722FD4FF484710198FFF71DFD78E0C8
:10C624004FF492710198FFF72CFD0346002B0DD0B7
:10C634004FF492710198FFF70FFD14210198FFF751
:10C64400FDFC009B012283F82F2062E04FF48E71E1
:10C654000198FFF716FD0346002B2BD04FF48E7183
:10C664000198FFF7F9FC009B5B6B5A1C009B5A6313
:10C674004FF492710198FFF704FD0346002B0DD08F
:10C684004FF492710198FFF7E7FC14210198FFF72A
:10C69400D5FC009B012283F82F203AE000990198F1
:10C6A400FFF706FF034683F00103DBB2002B30D013
:10C6B400002354E04FF484710198FFF7E2FC034631
:10C6C400002B26D04FF484710198FFF7C5FC4FF47A
:10C6D40092710198FFF7D5FC0346002B0DD04FF45F
:10C6E40092710198FFF7B8FC14210198FFF7A6FC9A
:10C6F400009B012283F82F200BE000990198FFF79B
:10C7040010FF034683F00103DBB2002B01D00023AA
:10C7140025E09DF80F30002B20D0009B002283F8E9
:10C724002D20009B93F82F3083F00103DBB2002B04
:10C7340012D000990198FFF7D0FD0346002B14BFD7
:10C7440001230023DBB283F00103DBB203F0010316
:10C75400DAB2009B83F82F20002300E0012318465F
:10C7640005B05DF804FB000000B587B001900091AE
:10C7740000230593384B03934FF482710198FFF71C
:10C784006BFC4FF492710198FFF766FC4FF48E71C5
:10C794000198FFF761FC4FF484710198FFF75CFC8A
:10C7A40000210198FFF7EFFC009B00225A63009BD5
:10C7B400002283F82F2020210198FFF73FFC009BE3
:10C7C40093F82D30012B03D008210198FFF736FC94
:10C7D40000990198FFF76CFE009B1B68002B0DD09D
:10C7E400009B40F286229A60009B9B681946019840
:10C7F400FFF759FC2AE0039B013B0393039B002BA7
:10C8040006DD00990198FFF7DFFE0346002BF2D105
:10C81400009B93F82F30002B0DD00198FFF782FC7A
:10C824000490049B002B04D00498FFF736FD059078
:10C8340001E003230593039B002B07DC0198FFF71A
:10C844004FFC0198FFF743FC03230593059B18460F
:10C8540007B05DF804FB00BFA086010000B587B0F7
:10C8640001900091002305933D4B03934FF4827193
:10C874000198FFF7F1FB4FF492710198FFF7ECFB7D
:10C884004FF48E710198FFF7E7FB4FF48471019820
:10C89400FFF7E2FB009B00225A63009B002283F80F
:10C8A4002F20009B9B6A012B0AD1009B1B6A03F07B
:10C8B4004003002B04D102210198FFF764FC03E03C
:10C8C40001210198FFF75FFC20210198FFF7B6FBD7
:10C8D400009B93F82D30022B03D000210198FFF721
:10C8E400ADFB009B1B68002B0DD0009B40F2862201
:10C8F4009A60009B9B6819460198FFF7D4FB2AE0D5
:10C90400039B013B0393039B002B06DD00990198D5
:10C91400FFF75AFE0346002BF2D1009B93F82F3009
:10C92400002B0DD00198FFF7FDFB0490049B002B16
:10C9340004D00498FFF7B1FC059001E003230593AC
:10C94400039B002B07DC0198FFF7CAFB0198FFF754
:10C95400BEFB03230593059B184607B05DF804FB53
:10C96400A086010030B587B0039002910192009334
:10C9740000230593029B93F82D30012B05D1019BD5
:10C984001B78012B01D108236DE0029B93F82D3015
:10C99400022B05D1019B1B78012B01D0082362E0F7
:10C9A40032490398FFF789FB029B93F83030DBB2DE
:10C9B400002B09D0029B9B6819460398FFF773FB71
:10C9C40011230593059B4EE0009B03F00403002B09
:10C9D4000CBF01230023DAB2029B83F83020029BB0
:10C9E400009A1A62029B019A03F10C0415460FCDBA
:10C9F4000FC42B682360019B5A68029B9A62019BB7
:10CA0400DA68029B5A62019B5B7819460398FFF728
:10CA140097FB019B1B78012B17D0019B1B78002BE4
:10CA240004D1009B03F02003002B01D0012300E07C
:10CA3400002303F00103DAB2029B83F82C2002994D
:10CA44000398FFF791FE059004E002990398FFF71D
:10CA540005FF0590029B1B68002B03D1029B00225B
:10CA640083F83020059B184607B030BD8642040089
:10CA740000B587B003900291019200230593039BB4
:10CA84001B791A4613461B019B1A9B00144A134434
:10CA94000493049B1B68002B08D1029B1B78022B78
:10CAA40004D110494FF42170FAF71AFE049B1B6855
:10CAB400002B08D1029B1B78032B04D1094940F2B7
:10CAC4008520FAF70DFE039B1868019B029A0499CE
