:020000022000DC
:1070000000000420197202000172020003720200E3
:1070100005720200077202000972020000000000FF
:107020000000000000000000000000000B720200E1
:107030000D720200000000000F72020011720200C7
:10704000899D0200137202005DA3020099B702003D
:10705000137202001372020055A2020013720200A2
:107060001372020013720200F9A9020013720200E7
:1070700013720200137202001372020013720200F4
:107080001372020061D50200137202001372020033
:107090001372020013720200EDFD0200137202006F
:1070A00013720200137202001372020013720200C4
:1070B00013720200137202000000000000000000C2
:1070C00013720200137202001372020013720200A4
:1070D0001372020013720200137202001372020094
:1070E000137202001372020013720200000000000B
:1070F0000000000013720200000000001372020082
:10710000000000000000000000000000000000007F
:10711000000000000000000000000000000000006F
:10712000000000000000000000000000000000005F
:10713000000000000000000000000000000000004F
:10714000000000000000000000000000000000003F
:10715000000000000000000000000000000000002F
:10716000000000000000000000000000000000001F
:10717000000000000000000000000000000000000F
:1071800000000000000000000000000000000000FF
:1071900000000000000000000000000000000000EF
:1071A00000000000000000000000000000000000DF
:1071B00000000000000000000000000000000000CF
:1071C00000000000000000000000000000000000BF
:1071D00000000000000000000000000000000000AF
:1071E000000000000000000000000000000000009F
:1071F000000000000000000000000000000000008F
:10720000FEE7FEE7FEE7FEE7FEE7FEE7FEE7FEE756
:10721000FEE7FEE700F002B8FFF7FCBF0F484FF0B3
:107220000701884385460E4880470E48016841F4AF
:1072300070010160BFF34F8FBFF36F8F00F01AB87A
:1072400009480A490A4A884207D0521A05D00378E9
:1072500001300B700131013AF9D170470000042070
:107260009583020088ED00E0F80903000023002068
:10727000002300203A493B480A1A02D007229143D2
:107280008D46394939480A1A06D00722914381F3BD
:107290000988022282F3148835483649364A00F0BC
:1072A00041F836483649374A00F03CF83648374905
:1072B000374A00F037F837483749384A00F032F893
:1072C00037483849384A00F02DF838483849394AA3
:1072D00000F028F838483949394A00F023F839488D
:1072E0003949002200F036F838483949002200F0C8
:1072F00031F838483849091A09F0E2F9374A904715
:1073000025482649884205D00268043003B49047D6
:1073100003BCF7E700208646EC4600200021304AF7
:107320009047FEE7884214D0521A12D003460B430E
:1073300013430324234206D1036804300B60043155
:10734000043AF9D17047037801300B700131013AEA
:10735000F9D17047884202D002700130FAE77047D5
:107360000000042000E003200000042000000420AE
:10737000942903000023002070230020E4730200FE
:10738000E473020002090300942903000023002093
:1073900000230020F8090300F8090300F80903009E
:1073A000F8090300F8090300F8090300F8090300CD
:1073B000F809030091290300042A03007023002028
:1073C0007023002070230020343F0020343F002031
:1073D000343F0020343F0020345F0020417202001F
:0473E000797E0200B0
:1073E40000B583B00190019B1B68184600F0D0F8EB
:1073F4000346002B04D10B494FF4F67000F004F956
:10740400019B1B681F2B02D84FF0A04306E0019B91
:107414001B6803F01F02019B1A60034B184603B05C
:107424005DF804FBF80903000003005000B585B0C3
:107434000190084611461A4603468DF803300B4660
:107444008DF8023013468DF8013001AB1846FFF772
:10745400C7FF03909DF803209DF802305B001A4398
:107464009DF801309B001A439DF818301B0242EA34
:1074740003019DF81C301B04019A1943039B02F578
:10748400E07243F8221000BF05B05DF804FB00B5BC
:1074940085B003900023019300230093002301226D
:1074A40001210398FFF7C2FF00BF05B05DF804FB9C
:1074B40000B585B0019001AB1846FFF791FF03902A
:1074C400019B012202FA03F31946039800F04CF8D9
:1074D40000BF05B05DF804FB00B585B0019001ABB9
:1074E4001846FFF77DFF0390019B012202FA03F384
:1074F4001946039800F042F800BF05B05DF804FB9C
:1075040000B585B0019001AB1846FFF769FF039001
:10751400039BD3F804350293029BDA43019B0121B8
:1075240001FA03F31A40039BC3F80825019B0122C7
:107534009A40029B1A40039BC3F80C2500BF05B078
:107544005DF804FB00B583B001900091009B002B13
:1075540003D10198FFF7C0FF02E00198FFF7A8FFED
:1075640000BF03B05DF804FB82B001900091019B61
:10757400009AC3F8082500BF02B0704782B001909A
:107584000091019B009AC3F80C2500BF02B070471C
:1075940084B00190019B5B09029300230393029B37
:1075A400002B03D0029B012B04D007E04FF0FF33E4
:1075B400039303E04FF6FF73039300BF019B03F0B3
:1075C4001F030193039A019B22FA03F303F00103BF
:1075D400002B14BF01230023DBB2184604B070470C
:1075E40073DF704700BF184676DF704700BF184648
:1075F4007FDF704700BF18468FDF704700BF184613
:10760400B1DF704700BF184600B583B00346009150
:10761400ADF80630BDF80630009A1946034804F068
:107624005BFE00BF03B05DF804FB00BFEFBEADDE40
:1076340000B583B005F000FA03460193019B009363
:10764400009B002B04D0044A5B21009804F044FE04
:1076540000BF03B05DF804FB280A030000B583B043
:107664000A4B1B7801211846FFF7BAFF0190019BD2
:107674000093009B002B04D0054AF321009804F0EA
:107684002BFE00BF03B05DF804FB00BF0223002003
:10769400280A030000B58DB001900091019B1B885E
:1076A400562B00F0E580562B00F3F580522B00F0AA
:1076B400B880522B00F3EF80212B2DDC102BC0F26D
:1076C400EA80103B112B00F2E68001A252F823F06D
:1076D40025770200897702009B780200CB770200AD
:1076E4009B7802009B7802009B7802009B78020042
:1076F4009B7802009B7802009B7802009B78020032
:107704009B7802009B7802009B7802009B78020021
:107714009B780200F37702003B2B00F09680BAE0DE
:10772400654A664BD31ADB081B0443F00303644920
:10773400184607F05BFD019B9A88624B1A80614BE7
:107744001B881946604801F0A7FD0B900B9B04931E
:10775400049B002B05D05D4A40F20911049804F003
:10776400BBFD584B1A885A4B9A820B9B0393039B7D
:10777400002B00F09280554A4FF48671039804F070
:10778400ABFD8AE04C4A4D4BD31ADB081B0443F093
:1077940003035049184607F029FD4A4B4FF6FF7280
:1077A4001A804B4B4FF6FF729A820B9B0593059BF5
:1077B400002B05D0454A4FF48A71059804F08CFDDE
:1077C400FFF74CFF74E03F4B18880023002285210B
:1077D400FFF70EFF0B900B9B0693069B002B5ED0CE
:1077E4003A4A4FF48F71069804F076FD57E000236F
:1077F4008DF8083000238DF80930019B9B8802AA7C
:1078040011461846FFF7F8FE0B900B9B0793079B56
:10781400002B46D02D4A4FF49571079804F05CFD77
:107824003FE0284B1888002300220021FFF7E8FEE0
:107834000B900B9B0993099B002B34D0234A4FF4E4
:107844009871099804F048FD2DE0019B9B88132151
:107854001846FFF7C9FE0B900B9B0893089B002B5F
:1078640023D01A4A4FF49C71089804F035FD1CE0AB
:10787400019B9B8813211846FFF7B6FE0B900B9BC8
:107884000A930A9B002B12D0104A4FF4A0710A9855
:1078940004F022FD0BE000BF0AE000BF08E000BFD7
:1078A40006E000BF04E000BF02E000BF00E000BF4C
:1078B40000BF0DB05DF804FB9809030060090300E4
:1078C400A40A03000023002084230020280A0300C4
:1078D40090230020B00A030000B583B04FF4804128
:1078E400002007F0ADF90190019B0093009B002B51
:1078F40005D0064A4FF4B471009804F0EDFC07F08B
:1079040035F900BF03B05DF804FB00BF280A03008B
:1079140000B587B003900B468DF80B309DF90B3002
:10792400002B02DA7F238DF80B3000238DF8103002
:107934009DF80B308DF8113004AA00230093022324
:107944002821039803F03CFE0590059B002B0CBFF7
:1079540001230023DBB2184607B05DF804FB0000E6
:1079640082B08DED010A334B5B68324A1360314BB0
:107974009B68304A53602F4BDB682E4A93602D4B33
:107984001B692C4AD3609DED017ADFED2B6AC7EEAB
:10799400267A284BC3ED047A284B5B68274A136088
:1079A400264B9B68254A5360244BDB68234A93602B
:1079B400224B1B69214AD3601E4B93ED007A1D4B69
:1079C400D3ED047A37EE277A1A4BD3ED027A77EEA9
:1079D400A77A37EE677A194BD3ED007ADFED186A90
:1079E40067EEA67A37EE277A144BD3ED017ADFEDF2
:1079F400156A67EEA67A37EE277A104BD3ED027A32
:107A0400DFED116A67EEA67A37EE277A0B4BD3EDDA
:107A1400037ADFED0E6A67EEA67A77EE277A074BD4
:107A2400C3ED047A054B1B6907EE903AB0EE670A82
:107A340002B07047A823002051D6A540BC230020E3
:107A4400D2A153BE44BB513F36B9F9BFFD711540B5
:107A540082B003460091ADF8063000BF02B0704713
:107A640000B583B000238DF8003000238DF8013079
:107A740000238DF8023006238DF803300023019390
:107A840004238DF8003000238DF8013003238DF892
:107A9400023006238DF803306B46064A1946064821
:107AA40002F0F2FD044802F0F1FE00BF03B05DF8FD
:107AB40004FB00BF557A0200C80C030008B500217E
:107AC400024802F011FF0346184608BDC80C030023
:107AD40008B5FFF7F3FF0346024AA2FB03239B0901
:107AE400184608BDD34D621000B585B001900091D1
:107AF400019B1B78002B29D1164B1A78164B1B7847
:107B04009A4220D0134B1B781B02144A1344184684
:107B140008F0E0FD03900F4B1B781B020F4A13443F
:107B2400039A19460E4804F099F90A4B1B7801335D
:107B34005A4203F00F0302F00F0258BF5342DAB265
:107B4400044B1A7002E0074B00221A7000BF05B004
:107B54005DF804FBD5330020D4330020D423002067
:107B6400D00C0300D023002000B589B06B4620223E
:107B74000021184608F01CFE2B2300932C230193AC
:107B84004FF0FF3302934FF0FF330393074B0693F9
:107B940006238DF81C306B46054A1946054804F047
:107BA400A9F800BF09B05DF804FB00BF00E0D701ED
:107BB400ED7A0200D00C030000B587B00190019863
:107BC40008F088FD0590059BFF2B4BD8274B1B78AD
:107BD40001335A4203F00F0302F00F0258BF53421D
:107BE4008DF81330224B1B789DF813209A4239D01C
:107BF4001E4B1B781B021F4A9818059B01331A461B
:107C0400019908F0A3FD194A9DF8133013701A4B1B
:107C14001B78DBB283F00103DBB2002B22D0164BBE
:107C240001221A70124B1B781B02124A1344184685
:107C340008F050FD03900E4B1B781B020D4A1344B1
:107C4400039A19460D4804F009F9094B1B780133CE
:107C54005A4203F00F0302F00F0258BF5342DAB244
:107C6400034B1A7000BF07B05DF804FBD433002047
:107C7400D5330020D4230020D0230020D00C0300CF
:107C840084B00346ADF80630114B1B78DBB20133E8
:107C94005A4203F03F0302F03F0258BF53428DF8AB
:107CA4000F300C4B1B78DBB29DF80F209A420CD09E
:107CB400074B1B78DBB21946074ABDF8063022F899
:107CC4001130034A9DF80F30137000BF04B07047A1
:107CD4005834002059340020D833002082B0019059
:107CE400124B1B78DAB2124B1B78DBB29A4201D1E9
:107CF400002317E00E4B1B78DBB21A460D4B33F909
:107D04001220019B1A800A4B1B78DBB201335A42C2
:107D140003F03F0302F03F0258BF5342DAB2044B70
:107D24001A700123184602B0704700BF583400206F
:107D340059340020D833002010B584B00B4B6C4666
:107D44000FCB84E80F00694600230022084803F0A3
:107D540047F80346002B02D00648FFF72DFF0448DE
:107D640003F0E8F800BF04B010BD00BFDC0A030054
:107D740004230020C00A030008B52D20FFF787FB69
:107D840001212D20FFF7DEFB00BF08BD08B51C2034
:107D9400FFF77DFB01211C20FFF7D4FB00BF08BDCA
:107DA40000B58BB01648FFF707FF01238DF8273085
:107DB4001AE00DF126029DF827100123114803F063
:107DC40027FC0346002B0AD19DF8273001A80E4A50
:107DD400202108F03AF901AB1846FFF7EDFE9DF8B3
:107DE400273001338DF827309DF827307E2BE0D9DA
:107DF4000648FFF7E1FE00BF0BB05DF804FB00BFCF
:107E0400EC0A030004230020040B0300200B0300EE
:107E140000B593B040238DF847301BE00DF14602C6
:107E24009DF847100123104803F0F2FB0346002B92
:107E34000BD19DF8473001A80C4A402108F005F900
:107E440001AB1846FFF7B8FE0BE09DF8473001334D
:107E54008DF847309DF84730412BDFD90448FFF7B0
:107E6400ABFE13B05DF804FB04230020380B0300C1
:107E7400600B030000B58FB0FFF72EFDFFF77CFF0A
:107E8400FFF7D6FBFFF7ECFDFFF776FFFFF77EFF6A
:107E9400FFF76AFE4548FFF78FFEFFF74DFF4448A2
:107EA400FFF78AFEFFF77CFFFFF7B2FF4148FFF7B9
:107EB40083FE414801F00FFB034683F00103DBB26C
:107EC400002B03D03D48FFF777FEFEE73C48FFF761
:107ED40073FE3C48FFF770FE374801F07BFB034616
:107EE40083F00103DBB2002B03D03748FFF764FEB5
:107EF400FEE73648FFF760FE0D212F48FFF708FD27
:107F04000346002B03D03248FFF756FE02E0314807
:107F1400FFF752FE00230D934FF47A730C93002362
:107F2400ADF826300023ADF824300DF126031946B0
:107F3400214801F0F3FB0346002B15D0BDF9263090
:107F440007EE903AF8EEE77AB0EE670AFFF708FD1D
:107F54008DED0B0ADDED0B7AFDEEE77A17EE903A24
:107F64001BB21846FFF78CFE09AB1846FFF7B6FEA6
:107F74000346002B0AD0BDF9243001A8164A20215B
:107F840008F063F801AB1846FFF716FEFFF7A0FDF3
:107F94000A900A9A0D9BD31A0C9A9A42C5D80A9B46
:107FA4000D932D20FFF7ACFABFE700BF8C0B030045
:107FB400A40B0300B80B030004230020D40B03001C
:107FC400F40B0300140C0300380C03005C0C0300D6
:107FD400740C03009C0C0300C00C0300BFF34F8F10
:107FE40000BF064BDB6803F4E0620449044B13430F
:107FF400CB60BFF34F8F00BF00BFFDE700ED00E093
:108004000400FA0582B0164B1B680193154B1B68DC
:108014000093019B082B1FD1009B052B1AD801A2AA
:1080240052F823F04180020045800200498002009A
:108034004D800200518002005580020001230CE0B3
:1080440001230AE0012308E0012306E0012304E000
:10805400012302E0012300E00023184602B0704728
:10806400300100103401001082B0164B1B680193DC
:10807400154B1B680093019B082B1FD1009B052BFC
:108084001AD801A252F823F0A5800200A9800200A8
:10809400AD800200B1800200B5800200B980020008
:1080A40001230CE001230AE0012308E0012306E098
:1080B400012304E0012302E0012300E00023184629
:1080C40002B07047300100103401001082B0164B2A
:1080D4001B680193154B1B680093019B082B1FD150
:1080E400009B052B1AD801A252F823F00981020043
:1080F4000D81020011810200158102001981020024
:108104001D81020001230CE000230AE0002308E0A3
:10811400002306E0002304E0002302E0002300E043
:108124000023184602B070473001001034010010DB
:1081340082B0164B1B680193154B1B680093019B7F
:10814400082B1FD1009B052B1AD801A252F823F04B
:108154006D81020071810200758102007981020043
:108164007D8102008181020001230CE000230AE0EA
:10817400002308E0002306E0002304E0002302E0DB
:10818400002300E00023184602B0704730010010BD
:108194003401001082B0164B1B680193154B1B6809
:1081A4000093019B082B1FD1009B052B1AD801A219
:1081B40052F823F0D1810200D5810200D981020056
:1081C400DD810200E1810200E581020001230CE06F
:1081D40000230AE0002308E0002306E0002304E073
:1081E400002302E0002300E00023184602B0704799
:1081F400300100103401001082B0164B1B6801934B
:10820400154B1B680093019B082B1FD1009B052B6A
:108214001AD801A252F823F03582020039820200F2
:108224003D8202004182020045820200498202002E
:1082340001230CE000230AE0002308E0002306E009
:10824400002304E0002302E0002300E0002318469A
:1082540002B07047300100103401001082B0164B98
:108264001B680193154B1B680093019B082B1FD1BE
:10827400009B052B1AD801A252F823F09982020020
:108284009D820200A1820200A5820200A98202004E
:10829400AD82020001230CE001230AE0012308E07F
:1082A400012306E0012304E0012302E0012300E0AE
:1082B4000023184602B0704730010010340100104A
:1082C40082B0164B1B680193154B1B680093019BEE
:1082D400082B1FD1009B052B1AD801A252F823F0BA
:1082E400FD8202000183020005830200098302006B
:1082F4000D8302001183020000230CE000230AE036
:10830400002308E0002306E0012304E0012302E047
:10831400012300E00023184602B07047300100102A
:108324003401001008B5FFF7CBFF0346002B07D03C
:108334004FF010234FF08042D3F80832C2F858357A
:1083440000BF08BD00BF044BD3F80034002BFAD0A3
:1083540000BF00BF704700BF00E0014000B583B01C
:108364000190054A019BC2F80435FFF7EBFF00BFFB
:1083740003B05DF804FB00BF00E00140024B034A78
:108384001A6000BF704700BF0C2300200090D00388
:1083940008B5FFF737FE0346002B0ED04FF080439D
:1083A4000022C3F80C214FF080430022C3F81021AF
:1083B4004FF080430022C3F83825FFF755FE0346EB
:1083C400002B76D04FF08053734AD3F80434C2F8AC
:1083D40020354FF08053704AD3F80834C2F824355E
:1083E4004FF080536C4AD3F80C34C2F828354FF060
:1083F4008053694AD3F81034C2F82C354FF08053B7
:10840400654AD3F81434C2F830354FF08053624AC9
:10841400D3F81834C2F834354FF080535E4AD3F899
:108424001C34C2F840354FF080535B4AD3F82034F3
:10843400C2F844354FF08053574AD3F82434C2F875
:1084440048354FF08053544AD3F82834C2F84C3599
:108454004FF08053504AD3F82C34C2F850354FF0C3
:1084640080534D4AD3F83034C2F854354FF080531A
:10847400494AD3F83434C2F860354FF08053464A41
:10848400D3F83834C2F864354FF08053424AD3F8F5
:108494003C34C2F868354FF080533F4AD3F8403437
:1084A400C2F86C354FF080533B4AD3F84434C2F8D9
:1084B4007035FFF70BFE0346002B02D0374B384ACA
:1084C4001A60FFF735FE0346002B03D0354BFB2221
:1084D400C3F81825FFF75EFE0346002B0AD0324B83
:1084E4001B6823F00F02314B1B6803F00F032E4966
:1084F40013430B60FFF780FE0346002B03D02C4B85
:108504004FF400721A60FFF7A9FE0346002B0DD04A
:108514004FF08043D3F8003403F00103002B05D05F
:108524004FF080436FF00102C3F80024214BD3F8CD
:108534008830204A43F47003C2F88830BFF34F8F69
:1085440000BFBFF36F8F00BFFFF7ECFE4FF01023A7
:10855400D3F80032002B05DB4FF01023D3F804329C
:10856400002B15DA0120FFF7F9FE4FF01023122239
:10857400C3F80022FFF7E6FE4FF010231222C3F8DF
:108584000422FFF7DFFE0020FFF7E8FEFFF726FDD9
:10859400FFF7F4FE00BF08BD00C000408C56004049
:1085A4004881030000F00040E40E0040580200102F
:1085B4004096024000ED00E084B00346ADF806307A
:1085C4000023039316E00F49039A13469B001344B8
:1085D4009B000B441B88BDF806209A4207D1039ADE
:1085E40013469B0013449B00064A134406E0039B76
:1085F40001330393039B002BE5D00023184604B0FA
:10860400704700BF5C34002082B001900B46ADF887
:108614000230019BBDF802201A80019B00221A72CD
:10862400019B054903F10A020B4603CB106051601C
:1086340000BF02B0704700BF8C34002082B00190AC
:10864400019B4FF6FF721A8000BF02B0704788B0DA
:108654000390029111461A460B46ADF806301346B4
:10866400ADF80430039B9B881A46BDF806301344CA
:108674000793039B9B881946039B9B88BDF80620A0
:10868400934228BF13469BB2CB1A0693039BDB8805
:108694001A46BDF8043013440593039BDB8819463E
:1086A400039BDB88BDF80420934228BF13469BB28A
:1086B400CB1A0493029B5A88039B1B889A4205D3C6
:1086C400029B5A88039B5B889A4201D900231CE0D1
:1086D400029B9B881A46069B934205D8029B9B8863
:1086E4001A46079B934201D200230EE0029BDB88CB
:1086F4001A46049B934205D8029BDB881A46059BC5
:10870400934201D2002300E00123184608B07047C9
:1087140000B583B00190064B9B69002B03D0044B3A
:108724009B690198984700BF03B05DF804FB00BF44
:108734007034002000B587B003460091ADF80630D0
:10874400009B5B7A002B1AD1009B1B7A002B03D170
:10875400164B5B68059302E0144B9B680593009BE2
:108764005B68BDF806200599184604F0A3F9049047
:10877400049B002B16D00498FFF7CAFF12E0009B5D
:1087840000221A72094B5B69002B0BD001238DF870
:108794000C30BDF80630ADF80E30044B5B6903AA0B
:1087A4001046984700BF07B05DF804FB7034002002
:1087B40000B585B00190019BDB7B8DF80F30019BE8
:1087C4009B88ADF80C309DF80F30012B2CD14FF65F
:1087D400FF70FFF7F1FE0290029B002B03D10420EF
:1087E400FFF796FF21E0BDF80C3019460298FFF719
:1087F4000BFF029B03F10A00019B03F110014FF6EA
:10880400FF7340F2F312FFF722FF03461A46029B5E
:108814005A72074BDB89002B07D1BDF80C30029943
:108824001846FFF787FF00E000BF05B05DF804FBC2
:108834007034002000B587B00190019B9B88ADF88F
:108844001630BDF816301846FFF7B6FE0490049BA8
:10885400002B0ED0049B5B68184604F083F9039048
:10886400039B002B02D00398FFF752FF0498FFF7F5
:10887400E5FE00BF07B05DF804FB000000B587B05B
:108884000190019B06330593059B1A88194BDB89DC
:108894009A422BD1059B5B89022B27D1019B9B8894
:1088A400ADF81230BDF812301846FFF785FE03907C
:1088B400039B002B1AD0059B0C33184600F0FBF9E0
:1088C4000346002B06D0BDF8123003991846FFF773
:1088D40031FF0BE0039B5B68184604F043F90290F8
:1088E400029B002B02D00298FFF712FF00BF07B0D3
:1088F4005DF804FB7034002000B585B00190019B45
:108904009B88ADF80E30BDF80E301846FFF754FEC4
:108914000290029B002B15D0029B03F10A00019BDD
:1089240003F108014FF6FF7340F2F312FFF78FFED5
:1089340003461A46029B5A72BDF80E300299184635
:10894400FFF7F8FE00BF05B05DF804FB00B583B087
:1089540001900091019B1B88502B12D0502B18DCE6
:10896400122B12D0122B14DC102B02D0112B04D09A
:108974000FE00198FFF71CFF0CE00198FFF75AFF86
:1089840008E00198FFF77AFF04E00198FFF7B4FFCD
:1089940000E000BF00BF03B05DF804FB30B58FB04A
:1089A4000190009100230293009B002B1AD0002316
:1089B4000D9314E06B460D99184604F010FF03461E
:1089C400002B09D0029B5A1C02920D9A92B25B00B2
:1089D40038336B4423F82C2C0D9B01330D930D9BE2
:1089E400132BE7D9019B1D4602AC0FCC0FC50FCC4E
:1089F4000FC594E8070085E8070001980FB030BD63
:108A040000B583B00346ADF80630BDF80630132B2D
:108A140001D900230CE0BDF806301946064804F0DD
:108A2400ADFEBDF806301946044804F0A7FE012344
:108A3400184603B05DF804FB9C34002098340020F1
:108A440000B585B00346ADF80630002303930DE06E
:108A5400039B9B00094A13440433BDF806201146C6
:108A6400184604F0A3FE039B01330393039B1D2BC1
:108A7400EED900BF00BF05B05DF804FB94340020BC
:108A840000B583B00346ADF80630BDF8063019468C
:108A9400034804F08BFE00BF03B05DF804FB00BF85
:108AA4009C34002030B59BB0184B9B68DB43189373
:108AB400164B5A6818AB1146184604F0EFFE189A84
:108AC4006B4611461846FFF769FF0DAC6D460FCD96
:108AD4000FC40FCD0FC495E8070084E807000023F6
:108AE40019930BE0199B5B0068336B4433F8303CFB
:108AF4001846FFF7A5FF199B013319930D9B199A8B
:108B04009A42EFD300BF00BF1BB030BD94340020A5
:108B140000B583B001900B46ADF8023013468DF8D2
:108B240001309DF80130002B06D0BDF80230194603
:108B3400019804F023FE05E0BDF8023019460198BF
:108B440004F034FE00BF03B05DF804FB00B585B04B
:108B540001900091019B9B88ADF80E30019B1B880E
:108B6400103B0A2B00F2888001A252F823F000BFC8
:108B7400A18B0200DD8B02007D8C02007D8C020043
:108B84007D8C02007D8C02007D8C02007D8C0200B5
:108B94007D8C0200478C0200E98B0200FFF782FF04
:108BA400BDF80E301846FFF72BFF034683F0010390
:108BB400DBB2002B05D0324AF021042003F08CFBF9
:108BC40057E0019BDB7B022B53D1BDF80E301946D5
:108BD4002C4804F0D3FD4CE0BDF80E301846FFF7E6
:108BE4004FFF49E0019B1B7AC3F30313DBB28DF8FB
:108BF4000D309DF80D30032B8CBF01230023DAB216
:108C0400BDF80E3019462048FFF782FF9DF80D305D
:108C1400022B8CBF01230023DAB2BDF80E301946B3
:108C24001A48FFF775FF9DF80D30012B8CBF012307
:108C34000023DAB2BDF80E3019461548FFF768FF75
:108C44001AE0019B1B7A002B15D1019B5B7AC3F3BD
:108C5400C003DBB2002B14BF012300238DF80C30BA
:108C64009DF80C20BDF80E3019460748FFF750FF59
:108C740001E000BF00E000BF00BF05B05DF804FBE9
:108C8400D80C0300A0340020AC340020A834002009
:108C9400A434002082B00190019B1B781AB2019B7E
:108CA40001331B781BB21B021BB213431BB29BB2D2
:108CB400184602B0704700B585B001900198FFF7DF
:108CC400E9FF0346ADF80E30BDF80E3003F00103A2
:108CD400002B14BF01230023DBB2184605B05DF856
:108CE40004FB90DF704700BF1846A5DF704700BF44
:108CF4001846B5DF704700BF184682B00190019B4B
:108D040017221A80019B17225A80019B00221A7194
:108D1400019B00225A71019B1B229A71019B1B2209
:108D2400DA7100BF02B0704730B589B003460A4615
:108D3400ADF806301346ADF80430BDF80430ADF894
:108D44001430BDF80430ADF816300023ADF81830F7
:108D54000023ADF81A3003AB00221A609A8003AAEC
:108D640005A9BDF806301846FFF7BBFF0790079B1F
:108D7400002B39D01E4A1F4BD31ADB081B0443F0C7
:108D84000104BDF80650079805F07AFD03462A460B
:108D94001949204606F049FABDF80C30002B03D1DE
:108DA400BDF80E30002B0ED0114A124BD31ADB083B
:108DB4001B0443F00100BDF80C301A46BDF80E3018
:108DC4000E4906F032FABDF81030002B0CD0084AD8
:108DD400084BD31ADB081B0443F00103BDF8102031
:108DE4000749184606F010FA079B184609B030BD2B
:108DF400B809030060090300540D0300A00D03002B
:108E0400E00D030010B586B001900091009B9B8893
:108E1400ADF80E30BDF80E30DB00019A1344063372
:108E24000593019B1A79059B9A71009BDB7B012BAF
:108E340002D0022B05D009E0019B1A88059B1A80F9
:108E440004E0019B5A88059B1A8000BF059B1A8881
:108E5400059B5B889A4226D9059B1A88BDF80E307B
:108E640011461846FFF741FF0490049B002B03D1E1
:108E7400059B01225A7116E0049B112B03D1059B1B
:108E840001221A710FE0114A114BD31ADB081B049B
:108E940043F00104049805F0F3FC03461A460D4917
:108EA400204606F0B1F9059B9A79059BDB799A4235
:108EB40008D9059B9B791A46BDF80E301146184611
:108EC400FFF732FF00BF06B010BD00BFB8090300B2
:108ED40060090300380E030000B583B001900091CF
:108EE400009B9B88DB00019A134406331846FFF766
:108EF40004FF00BF03B05DF804FB00B587B0019028
:108F04000091009B9B88ADF81630009B5B89ADF8FF
:108F14001430BDF81630DB00019A13440633049371
:108F2400049B1B88BDF81420934228BF13469AB2B1
:108F3400049B5A80049B5B88172B38BF17239AB273
:108F4400049B5A80019B1B69002B15D0049B5B7901
:108F5400002B11D040F67723ADF80830BDF8163059
:108F6400ADF80A30049B5B88ADF80C30019B1B699B
:108F740002AA114601989847049B00225A71049B47
:108F840000221A7100BF07B05DF804FB10B588B069
:108F940001900091009B9B88ADF81A30009BDB8800
:108FA400ADF81830BDF81A30DB00019A13440633CB
:108FB4000593BDF81830172B38BF1723ADF81830B8
:108FC400059B1B88BDF81820934228BF13469AB20C
:108FD400059B5A80059B00221A71059B1A88BDF8CF
:108FE4001A3011461846FFF784FE0790079B002BA2
:108FF4000FD0174A174BD31ADB081B0443F00104A4
:10900400079805F03DFC03461A461349204606F02E
:10901400FBF8059B5B79002B16D1019B1B69002B88
:1090240013D040F67723ADF80C30BDF81A30ADF804
:109034000E30059B5B88ADF81030019B1B6903AAB9
:1090440011460198984700E000BF08B010BD00BF6A
:10905400B8090300600903006C0E030030B591B039
:1090640001900091009B04AC1D1D0FCD0FC40FCDCA
:109074000FC495E8070084E80700BDF81030ADF888
:109084003E30BDF81420BDF83E30D1B2019ADB0069
:1090940013440A465A73019B1B69002B19D002AB77
:1090A40000221A609A804DF67A23ADF80830BDF894
:1090B4003E30ADF80A30BDF83E30019ADB0013446F
:1090C4005B7B8DF80C30019B1B6902AA1146019849
:1090D400984700BF11B030BD00B587B00190009132
:1090E400009B04330593059B1B88DB00019A134402
:1090F40006330493059B9B888DF80F30049B9B7962
:109104009DF80F20934228BF13468DF80E30059B1F
:109114001B889DF80E2092B211461846FFF704FEF4
:1091240000BF07B05DF804FB10B586B00190009154
:10913400009B0593019B9B88ADF81230BDF812305B
:10914400002B40F09880019B1B88552B48D0552B51
:1091540055DC242B32DC102B51DB103B142B4ED866
:1091640001A252F823F000BFC7910200D19102007E
:10917400039202000392020003920200039202008F
:10918400039202000392020003920200039202007F
:10919400039202000392020003920200039202006F
:1091A400039202000392020003920200039202005F
:1091B40003920200F9910200EF9102003A2B0AD0C7
:1091C4001DE001990598FFF71DFE19E00199059826
:1091D400FFF782FE14E001990598FFF78EFE0FE079
:1091E40001990598FFF7D2FE0AE001990598FFF767
:1091F40035FF05E001990598FFF76EFF00E000BF19
:10920400BDF81230059ADB0013449B7A002B33D04F
:10921400BDF81230059ADB001344DA88BDF8123029
:1092240011461846FFF761FD0390039B002B0ED1F6
:10923400BDF81230059ADB00134400229A72BDF87F
:109244001230059ADB0013440122DA7214E0039B06
:10925400112B11D0094A0A4BD31ADB081B0443F023
:109264000104039805F00CFB03461A460549204601
:1092740005F0CAFF00E000BF06B010BDB809030046
:1092840060090300380E0300B0DF704700BF1846C2
:1092940066DF704700BF184682B001900B46ADF8F8
:1092A4000230019B002B01D10E230AE0019B1B78A5
:1092B400DE2B01D0082304E0019BBDF802205A8074
:1092C4000023184602B0704700B585B00190019B99
:1092D4001B7A002B18D0019B5B8800211846FFF7EE
:1092E400D7FF0390039B002B03D1019B00221A722A
:1092F4000AE0039B112B03D1019B01221A7203E0A4
:10930400019B5B680398984700BF05B05DF804FBB8
:1093140000B583B001900091009B1B79012B0BD108
:10932400009B1A88019B5B889A4205D1019B01220C
:109334001A720198FFF7C8FF00BF03B05DF804FB81
:1093440082B00190009100BF02B0704700B589B0AF
:1093540001900091009B1A88019B5B889A4236D148
:10936400009B02330793079B1B78022B31D1079B89
:109374001B7A042B07D0079B1B7A062B03D0079B71
:109384001B7A052B27D102AB00221A605A609A601F
:10939400DA6002238DF808304FF4C073ADF80C3056
:1093A400079B1B7A052B02D10023ADF80C30009BE0
:1093B4001B8802AA11461846FFF766FF0690069B13
:1093C400002B09D0019B5B680698984704E000BF16
:1093D40002E000BF00E000BF09B05DF804FB00B587
:1093E40085B001900091009B002B43D0019B002B82
:1093F40040D0009B0393039B1B78DE2B3AD1019B47
:109404009A88039B5B889A4202D10398FFF75CFF1A
:10941400019B1B88512B18D0512B28DC112B1BD0FE
:10942400112B24DC012B02D0022B07D01FE0019B5F
:10943400043319460398FFF76BFF1BE0019B0433C9
:1094440019460398FFF77CFF14E0019B0433194687
:109454000398FFF77BFF0DE0019B9A88039B5B88D1
:109464009A4206D1039B4FF6FF725A8001E000BF77
:1094740000E000BF05B05DF804FB000000B585B056
:109484000190019B002B0AD0074B43F00103039387
:10949400019B9B010293039B0298984700E000BF45
:1094A40005B05DF804FB00BFB00E030000B583B047
:1094B4000190019B002B0AD04FF47A70FFF7DEFF76
:1094C400019B013B0193019B002BF5D100E000BF00
:1094D40003B05DF804FB00B583B00190019800F07F
:1094E40056F8034683F00103DBB2002B01D00023BE
:1094F40003E00A20FFF7DAFF0123184603B05DF802
:1095040004FB00B589B003900B468DF80B3013466D
:109514008DF80A309DF90B309B005BB243F0400399
:109524005BB28DF81F309DF81F308DF814309DF814
:109534000A308DF8153005AA002300930223402138
:10954400039802F03DF80690069B002B0CBF012304
:109554000023DBB2184609B05DF804FB00B585B002
:1095640003900B468DF80B300DF10B020023009392
:1095740001234021039802F023F80346002B0CBF7B
:1095840001230023DBB2184605B05DF804FB00B5E7
:1095940085B0019006238DF80F309DF80F301946E1
:1095A4000198FFF7DBFF0346184605B05DF804FB9E
:1095B40000B585B0019008238DF80F309DF80F3069
:1095C40019460198FFF7CAFF0346184605B05DF82F
:1095D40004FB000000B585B0019001238DF80F3025
:1095E4004D4B0293029B1B785BB21B015AB2029B48
:1095F4005B785BB25B005BB213435AB2029B9B780D
:109604005BB213435BB2DBB21A4600210198FFF749
:1096140078FF03461A469DF80F301340002B14BF01
:10962400012300238DF80F30029BDB785BB25B01D2
:109634005AB2029B1B795BB21B015BB213435AB251
:10964400029B5B795BB2DB005BB213435AB2029BB1
:109654009B795BB25B005BB213435AB2029BDB792A
:109664005BB213435BB2DBB21A4601210198FFF7E8
:1096740048FF03461A469DF80F301340002B14BFD1
:10968400012300238DF80F30029B1B7A5B01DBB2B0
:109694001A4602210198FFF734FF03461A469DF843
:1096A4000F301340002B14BF012300238DF80F301B
:1096B400029B5B7A5BB25B015AB2029B9B7A5BB200
:1096C4009B005BB213435BB2DBB21A4603210198E1
:1096D400FFF717FF03461A469DF80F301340002B7F
:1096E40014BF012300238DF80F309DF80F30002B99
:1096F4000CD00198FFF75CFF034683F00103DBB253
:10970400002B01D0002302E0012300E000231846CF
:1097140005B05DF804FB00BF9C0E030000B587B0E4
:10972400039002910023ADF8143010238DF8133008
:109734000DF113020023009301234021039801F04B
:109744003FFF0346002B01D0002321E005AA02239A
:109754004021039801F05CFF0346002B01D0002355
:1097640016E09DF814301BB21B021AB29DF8153096
:109774001BB213431AB2029B1A80029BB3F9003046
:10978400002B04DA029BB3F90020029B1A80012308
:10979400184607B05DF804FB82B003468DF8073025
:1097A4009DF90730002B13DB9DF8073003F01F02EF
:1097B40009499DF907305B09012000FA02F22033C0
:1097C40041F82320BFF34F8F00BFBFF36F8F00BF5B
:1097D40000BF02B0704700BF00E100E0044BD3F8C3
:1097E4000034002B14BF01230023DBB2184670475A
:1097F4000000014008B506F0C9FA034683F00103EE
:10980400DBB2002B03D109497B20FDF7FDFEFFF7F6
:10981400E5FF034683F00103DBB2002B04D000F024
:1098240091FA034B00229A7000BF08BDC00E0300DA
:109834001035002000B583B000230193184B1B782A
:10984400002B02D0852301931CE0154B00229A6063
:10985400134B00225A60124B00221A61104B002253
:10986400DA60104800F034FA019006F08FFA0346EB
:1098740083F00103DBB2002B01D000F04FFA084B58
:1098840001221A70FFF7AAFF0346002B02D0044BF3
:1098940001229A70019B184603B05DF804FB00BFD7
:1098A400103500208199020084B00190019B1B684F
:1098B4000393039B002B03D0039B1A68019B1A603C
:1098C400039B184604B0704700B583B0164B1B7851
:1098D400002B04D1154940F21710FDF795FE124BE9
:1098E400DB68002B04D111494FF48C70FDF78CFE1A
:1098F40000238DF807300DF10703184603F002FA30
:10990400094BDB68013B084AD360074BDB68002B3B
:1099140001D1FFF76FFF9DF80730184603F008FAEE
:1099240000BF03B05DF804FB10350020C00E030037
:1099340000B585B003468DF807309DF80730002B3D
:1099440002D10C4B039301E00B4B03930398FFF7F5
:10995400ABFF0290029B002B06D0029B5B689DF834
:10996400072010469847F1E700BF00BF05B05DF837
:1099740004FB00BF183500202035002000B583B05B
:1099840003468DF807309DF80730002B05D10A4BAC
:1099940001225A700020FFF7CBFF9DF80730012BFE
:1099A40005D1054B01229A700120FFF7C1FF00BFCA
:1099B40003B05DF804FB00BF1035002000B583B090
:1099C40001900091019B002B05D1054B01225A7097
:1099D4000020FFF7ADFF00BF03B05DF804FB00BF3C
:1099E4001035002000B585B0034600918DF807308E
:1099F4009DF80730032B29D0032B35DC002B02D034
:109A0400012B04D030E00020FFF7C6FE2DE0002338
:109A14008DF80F300DF10F03184603F073F9154B51
:109A24001B7883F00103DBB2002B01D0FFF702FFA8
:109A3400104BDB6801330F4AD3600E4B01229A703E
:109A44009DF80F30184603F073F90EE0094B1B78AC
:109A5400002B04D1084940F25220FDF7D5FD00F057
:109A64005DF9FFF731FF00E000BF00BF05B05DF80E
:109A740004FB00BF10350020C00E030082B0034673
:109A84008DF807309DF90730002B0CDB9DF807306B
:109A940003F01F0205499DF907305B09012000FA14
:109AA40002F241F8232000BF02B0704700E100E059
:109AB40082B0034600918DF807309DF90730002BE2
:109AC4000ADB009BDAB20C499DF907305201D2B28D
:109AD4000B4483F800230BE0009BDAB207499DF89E
:109AE400073003F00F03043B5201D2B20B441A7641
:109AF40000BF02B0704700BF00E100E000ED00E0ED
:109B040082B00190019B1B0B5BB2184602B07047F8
:109B140000B583B003460A468DF8073013468DF826
:109B240006309DF80630012B03D99DF80630032B2F
:109B34000BD99DF80630042B03D99DF80630072B6A
:109B440003D908496B20FDF75FFD9DF806209DF9B8
:109B5400073011461846FFF7ABFF00BF03B05DF8AE
:109B640004FB00BF2C0F030000B583B003468DF83F
:109B740007309DF907301846FFF780FF00BF03B098
:109B84005DF804FB82B003468DF807300F4A9DF957
:109B94000730002B00DA1F335B115BB252F823202D
:109BA4009DF90730594203F01F0301F01F0158BF0C
:109BB4004B425BB222FA03F303F00103002B14BF00
:109BC40001230023DBB2184602B0704700E100E035
:109BD40082B001904FF08042019BC2F8083300BF6D
:109BE40002B0704782B003468DF807309DF8073005
:109BF40003F1804301221A6000BF02B0704784B0B1
:109C04000346ADF80630BDF8063003F18043002268
:109C14001A60BDF8063003F180431B680393039B6D
:109C240000BF04B0704782B00346ADF80630BDF8FB
:109C3400063003F180431B68002B14BF012300236B
:109C4400DBB2184602B0704782B001904FF08042F8
:109C5400019BC2F8183500BF02B070474FF0804333
:109C6400D3F818341B0C03F00103002B14BF012399
:109C74000023DBB21846704700B583B006238DF885
:109C840007304FF08040FFF73BFF03461846FFF7CD
:109C940079FF034683F00103DBB2002B13D04FF0AE
:109CA4008040FFF72DFF03461A469DF807301946FA
:109CB4001046FFF72DFF4FF08040FFF721FF0346CA
:109CC4001846FFF751FF00BF03B05DF804FB000026
:109CD40000B585B00190019B002B03D10D49A42050
:109CE400FDF792FC002303930B4B1B79002B02D04E
:109CF4008523039308E0084A019B1360064B012265
:109D04001A71054B00225A71039B184605B05DF881
:109D140004FB00BF640F03002435002008B5074B83
:109D24001B79002B03D10649BD20FDF76DFCFFF71D
:109D3400A3FF0120FFF788FF00BF08BD24350020E2
:109D4400640F030008B50D4B1B79002B03D10C499C
:109D5400F720FDF759FC0220FFF73AFF4FF4827019
:109D6400FFF74DFF0C20FFF73DFF00BFFFF776FF25
:109D74000346002BFAD100BF00BF08BD24350020E4
:109D8400640F030008B54FF48070FFF74CFF0346DF
:109D9400002B14D04FF48070FFF731FF0120FFF740
:109DA40017FF114B5B7983F00103DBB2002B06D064
:109DB4000D4B01225A710C4B1B68002098474FF43D
:109DC4008270FFF730FF0346002B0AD04FF48270F5
:109DD400FFF715FF0220FFF7FBFE034B1B68012072
:109DE400984700BF08BD00BF2435002000B583B0EC
:109DF4000346ADF80630BDF80630184600F026F8E4
:109E040003461B68012B0CBF01230023DBB2184659
:109E140003B05DF804FB00B585B00346ADF8063029
:109E2400BDF80630184600F011F803461A46002320
:109E34001360BDF80630184600F008F803461B68A6
:109E44000393039B00BF05B05DF804FB82B0034697
:109E5400ADF80630BDF8063003F1804303F5C04386
:109E6400184602B07047000082B00190034BD3F84B
:109E74000423019B1340184602B070470060004061
:109E840082B00190054A019B03F5A27352F8233076
:109E94001B0A03F03F03184602B0704700600040FD
:109EA40082B00190064A019B03F5A27352F8233055
:109EB4001B0C03F00303DBB2184602B0704700BF6B
:109EC4000060004000B583B00190019B1B681846F8
:109ED40000F0AAF80346002B04D10B494FF4F670A6
:109EE400FDF792FB019B1B681F2B02D84FF0A04388
:109EF40006E0019B1B6803F01F02019B1A60034BE1
:109F0400184603B05DF804FB001003000003005082
:109F140000B585B001900B468DF8033001AB1846AF
:109F2400FFF7D0FF0390019A039B02F5E07253F808
:109F34002230019A23F44031039B02F5E07243F886
:109F44002210019A039B02F5E07253F822109DF847
:109F540003301B04019A1943039B02F5E07243F892
:109F6400221000BF05B05DF804FB00B585B0019078
:109F740001AB1846FFF7A6FF0390019A039B02F575
:109F8400E07253F822301B0C03F00303DBB21846D3
:109F940005B05DF804FB000088B0039002910192C3
:109FA400164A05AB92E8030083E80300039B07937A
:109FB40019E0079B9B0020336B4453F80C3CD3F807
:109FC4002025019B1A60079B9B0020336B4453F8A8
:109FD4000C3C019A1268C3F82025019B04330193B9
:109FE400079B01330793039A029B1344079A9A42EF
:109FF400DFD300BF00BF08B0704700BF30100300BC
:10A0040000B585B0019001AB1846FFF75BFF0390E4
:10A01400019B012202FA03F31A46039BC3F820258D
:10A0240000BF05B05DF804FB84B00190019B5B099F
:10A03400029300230393029B002B03D0029B012B6A
:10A0440004D007E04FF0FF33039303E04FF6FF73B0
:10A05400039300BF019B03F01F030193039A019B29
:10A0640022FA03F303F00103002B14BF012300239E
:10A07400DBB2184604B0704784B001900091009B95
:10A084000393019BDB080293019B03F007030193F5
:10A094000122019B02FA03F30399029A0A441278FB
:10A0A4001340184604B0704782B00190044A019BE3
:10A0B4001344303393F90030184602B0704700BFA0
:10A0C4002C35002082B00190034A019B52F82330C2
:10A0D400184602B0704700BF2C35002084B00190B0
:10A0E400074A019B1344603393F900308DF80F3015
:10A0F4009DF80F3023F0C003184604B0704700BF2A
:10A104002C35002084B00190074A019B134460332E
:10A1140093F900308DF80F309DF80F309B09DBB2B6
:10A12400184604B0704700BF2C35002000B585B038
:10A134000190019A02210020FFF72EFF00230393D0
:10A144000BE0039B9B00019A13441B68002B01D076
:10A15400012306E0039B01330393039B012BF0D9F6
:10A164000023184605B05DF804FB000000B587B075
:10A174000190002305935BE0344A059B134460334C
:10A1840093F90030B3F1FF3F4ED00598FFF7A6FFD7
:10A19400049001990498FFF76FFF0346002B44D005
:10A1A4000598FFF7AFFF03468DF80F300498FFF7CB
:10A1B400DCFE03468DF80E309DF80E30022B01D1E3
:10A1C400032300E002238DF80D309DF80D3019466D
:10A1D4000498FFF79DFE0498FFF712FF0498FFF719
:10A1E40063FF03461846FFF76DFF0290029B002BA6
:10A1F4001BD09DF80F30032B0FD09DF80E30022B8F
:10A2040003D19DF80F30012B07D09DF80E30032B9E
:10A214000BD19DF80F30022B07D19DF80F20029B24
:10A2240011460498984700E000BF059B013305934D
:10A23400059B032BA0D90198FFF778FF0346002B59
:10A2440097D100BF00BF07B05DF804FB2C35002098
:10A2540000B58BB00023089301AB00221A605A604A
:10A264004FF48073ADF81A30012309930023079348
:10A2740021E0BDF81A301846FFF7B8FD0346002B5D
:10A284000ED00998FFF7F0FD0346002B08D0BDF867
:10A294001A301846FFF7BFFD089A099B1343089329
:10A2A400099B5B000993BDF81A300433ADF81A30EA
:10A2B400079B01330793079B072BDAD94FF4BE7032
:10A2C400FFF794FD0346002B0DD04FF4BE70FFF74B
:10A2D400A2FD089B43F00043089301AB1A460221F8
:10A2E4000020FFF759FE089BDBB2002B29D0012385
:10A2F40009930023079321E0099A089B1340002B3C
:10A3040016D00798FFF7BCFD05900798FFF7C8FD26
:10A3140003468DF813300798FFF7D4FE0390039B90
:10A32400002B05D09DF81320039B114605989847F0
:10A33400099B5B000993079B01330793079B072B3A
:10A34400DAD9089B002B03DA01AB1846FFF70EFF9E
:10A3540000BF0BB05DF804FB08B5064B1B68002B6F
:10A3640003D105495120FDF74FF9024B1B6898476B
:10A3740008BD00BF98350020B010030082B00190E2
:10A38400019B044A934201D1034B00E00023184689
:10A3940002B07047002000409835002000B587B017
:10A3A40001900091019B002B03D11C497720FDF7FC
:10A3B4002BF90198FFF7E2FF0590059B002B25D0B0
:10A3C40000238DF8133000238DF80B300DF10B03AF
:10A3D400184602F097FC059B1B79002B03D0012340
:10A3E4008DF8133005E0059B009A1A60059B012245
:10A3F4001A719DF80B30184602F09AFC9DF8133040
:10A40400002B03D011230393039B02E00023039347
:10A41400039B184607B05DF804FB00BFB0100300AF
:10A4240082B003468DF807309DF90730002B0CDB12
:10A434009DF8073003F01F0205499DF907305B09B9
:10A44400012000FA02F241F8232000BF02B0704755
:10A4540000E100E082B0034600918DF807309DF9D9
:10A464000730002B0ADB009BDAB20C499DF9073058
:10A474005201D2B20B4483F800230BE0009BDAB202
:10A4840007499DF8073003F00F03043B5201D2B291
:10A494000B441A7600BF02B0704700BF00E100E031
:10A4A40000ED00E082B00190019B1B0B5BB21846EB
:10A4B40002B0704700B583B003460A468DF80730F2
:10A4C40013468DF806309DF80630012B03D99DF80C
:10A4D4000630032B0BD99DF80630042B03D99DF8C5
:10A4E4000630072B03D908496B20FDF78DF89DF83A
:10A4F40006209DF9073011461846FFF7ABFF00BF51
:10A5040003B05DF804FB00BF1C11030000B583B069
:10A5140003468DF807309DF907301846FFF780FF92
:10A5240000BF03B05DF804FB82B001900B468DF8C8
:10A5340003309DF80330019A134401221A6000BFCE
:10A5440002B0704784B001900B46ADF80230BDF8FC
:10A554000230019A134400221A60BDF80230019AB5
:10A5640013441B680393039B00BF04B0704782B07D
:10A5740001900B46ADF80230BDF80230019A134445
:10A584001B68002B14BF01230023DBB2184602B062
:10A59400704782B001900091019BD3F80423009B83
:10A5A4001340002B14BF01230023DBB2184602B072
:10A5B400704782B001900B468DF80330019BD3F8AD
:10A5C400043523F003029DF8033003F003031A4318
:10A5D400019BC3F8042500BF02B0704782B001900C
:10A5E4000B468DF80330019BD3F8083523F00302A2
:10A5F4009DF8033003F003031A43019BC3F80825B5
:10A6040000BF02B0704782B001900B468DF8033052
:10A61400019BD3F8103523F00F029DF8033003F0AB
:10A624000F031A43019BC3F8102500BF02B0704703
:10A6340082B001900B468DF803309DF80320019BF6
:10A6440002F5A87253F82230184602B0704782B05F
:10A654000190019B9B004033DBB2184602B0704767
:10A6640082B00190019B9B0003F5A0739BB2184636
:10A6740002B0704782B001904FF48032019B02FA1D
:10A6840003F3184602B0704710B588B003900291E6
:10A694000192039B1B791A4613465B0013449B00EB
:10A6A400734A13440793039B1B68724A934203D172
:10A6B40071494620FCF7A8FF029B002B03D16E4989
:10A6C4004820FCF7A1FF019B002B03D16A494920D4
:10A6D400FCF79AFF079B1B7A002B03D008230593F2
:10A6E400059BC2E0039B1B68624A93420FD1029B05
:10A6F4009B78012B63D0029B9B78002B5FD0029B3D
:10A704009B78022B5BD0029B9B78032B57D0039B37
:10A714001B685A4A93420FD1029B9B78012B4ED05F
:10A72400029B9B78002B4AD0029B9B78022B46D03D
:10A73400029B9B78032B42D0039B1B68504A934295
:10A744000FD1029B9B78012B39D0029B9B78002B65
:10A7540035D0029B9B78022B31D0029B9B78032B34
:10A764002DD0039B1B68474A93420FD1029B9B78D1
:10A77400012B24D0029B9B78002B20D0029B9B783A
:10A78400022B1CD0029B9B78032B18D0039B1B68C5
:10A794003D4A93420FD1029B9B78012B0FD0029B21
:10A7A4009B78002B0BD0029B9B78022B07D0029B3B
:10A7B4009B78032B03D030495D20FCF725FF079BD2
:10A7C400019A1A60029B5A68079B5A6000238DF80D
:10A7D4001B3010E0039B1C689DF81B301846FFF7E4
:10A7E4003FFF034619462046FFF7ACFE9DF81B3099
:10A7F40001338DF81B30039B5B799DF81B209A4233
:10A80400E8D3039B1B681846FFF74CFE03461A4621
:10A81400029BDB7819461046FFF74CFE039B1B682E
:10A824001846FFF73FFE03461846FFF76FFE039BEB
:10A834001A68029B5B7819461046FFF7BAFE039B21
:10A844001A68029B9B7819461046FFF7C7FE039BC4
:10A854001A68029B1B7819461046FFF7D4FE079B23
:10A8640001221A7200230593059B184608B010BDF7
:10A87400A0350020008000405411030000900040E7
:10A8840000A0004000A0014000B0014000B583B02A
:10A894000190019B1B791946114A0B465B000B443E
:10A8A4009B00134408331B78012B03D00D498D20E2
:10A8B400FCF7AAFE019B1B6800211846FFF734FE33
:10A8C400019B1B791946064A0B465B000B449B000F
:10A8D4001344083302221A7000BF03B05DF804FB6E
:10A8E400A03500205411030010B582B001900B462E
:10A8F4008DF80330019B1B791946184A0B465B00FF
:10A904000B449B00134408331B78002B03D11449D8
:10A91400C020FCF779FE019B5B799DF803209A42E5
:10A9240003D30F49C120FCF76FFE019B1C689DF8FF
:10A9340003301846FFF78BFE034619462046FFF7FF
:10A94400F3FD019B1B689DF8032011461846FFF791
:10A954006FFE0346184602B010BD00BFA0350020AC
:10A964005411030000B587B00390029113468DF88B
:10A97400073000238DF8173030E09DF81730184663
:10A98400FFF76EFE0346ADF814309DF817301846F5
:10A99400FFF770FE0490BDF8143019460398FFF7D2
:10A9A400E6FD0346002B14D004990398FFF7F1FD4C
:10A9B4000346002B0DD0BDF8143019460398FFF759
:10A9C400C1FD029B1B68029A5168BDF81420104611
:10A9D40098479DF8173001338DF817309DF81720EC
:10A9E4009DF807309A42C8D300BF00BF07B05DF896
:10A9F40004FB000008B5042202490348FFF7B2FF34
:10AA040000BF08BDA035002000A0004082B003466E
:10AA14008DF807309DF90730002B0CDB9DF80730CB
:10AA240003F01F0205499DF907305B09012000FA74
:10AA340002F241F8232000BF02B0704700E100E0B9
:10AA440082B0034600918DF807309DF90730002B42
:10AA54000ADB009BDAB20C499DF907305201D2B2ED
:10AA64000B4483F800230BE0009BDAB207499DF8FE
:10AA7400073003F00F03043B5201D2B20B441A76A1
:10AA840000BF02B0704700BF00E100E000ED00E04D
:10AA940082B00190019B1B0B5BB2184602B0704759
:10AAA40000B583B003460A468DF8073013468DF887
:10AAB40006309DF80630012B03D99DF80630032B90
:10AAC4000BD99DF80630042B03D99DF80630072BCB
:10AAD40003D908496B20FCF797FD9DF806209DF9E2
:10AAE400073011461846FFF7ABFF00BF03B05DF80F
:10AAF40004FB00BFC011030000B583B003468DF80A
:10AB040007309DF907301846FFF780FF00BF03B0F8
:10AB14005DF804FB82B001900B468DF803309DF87C
:10AB24000330019A134401221A6000BF02B0704737
:10AB340084B001900B46ADF80230BDF80230019AA2
:10AB4400134400221A60BDF80230019A13441B68B2
:10AB54000393039B00BF04B0704782B001900B467F
:10AB6400ADF80230BDF80230019A13441B68002B83
:10AB740014BF01230023DBB2184602B0704782B031
:10AB840001900091019B009AC3F8042300BF02B016
:10AB9400704782B001900091019B009AC3F808238A
:10ABA40000BF02B0704782B00190019B0522C3F838
:10ABB400002500BF02B0704782B00190019B0022C3
:10ABC400C3F8002500BF02B0704784B0039002911F
:10ABD4000192039B029AC3F80825039B019AC3F8C8
:10ABE4000C2500BF04B0704782B001900091019B16
:10ABF400009AC3F8242500BF02B0704784B00190C6
:10AC0400019BD3F8C4340393019B039AC3F8C4246F
:10AC1400039B184604B0704782B001900B468DF830
:10AC240003309DF80320019BC3F8882500BF02B0C0
:10AC3400704782B00190019BD3F81835DBB21846F7
:10AC440002B0704782B001900B468DF803309DF836
:10AC54000320019BC3F81C2500BF02B0704782B0DB
:10AC640001900091019B009AC3F8002200BF02B03A
:10AC74007047000000B583B00190019B1B68184623
:10AC840000F04FF80346002B04D10B494FF4F67043
:10AC9400FCF7BAFC019B1B681F2B02D84FF0A043A2
:10ACA40006E0019B1B6803F01F02019B1A60034B23
:10ACB400184603B05DF804FBF011030000030050D4
:10ACC40000B585B00190084611461A4603468DF832
:10ACD40003300B468DF8023013468DF8013001AB7A
:10ACE4001846FFF7C7FF03909DF803209DF8023034
:10ACF4005B001A439DF801309B001A439DF81830FD
:10AD04001B0242EA03019DF81C301B04019A1943FB
:10AD1400039B02F5E07243F8221000BF05B05DF812
:10AD240004FB84B00190019B5B090293002303930D
:10AD3400029B002B03D0029B012B04D007E04FF0B1
:10AD4400FF33039303E04FF6FF73039300BF019BAC
:10AD540003F01F030193039A019B22FA03F303F008
:10AD64000103002B14BF01230023DBB2184604B0F7
:10AD7400704784B0019003230393019B03F0010304
:10AD8400002B02D04FF402430393019B03F0020310
:10AD9400002B02D048F201230393019B03F0040328
:10ADA400002B02D048F202230393039B184604B0FD
:10ADB400704700B583B001900091009B5A6B009BD3
:10ADC4009B6A9A4207D00198FFF7F6FE0198FFF7B5
:10ADD400EAFE002300E00123184603B05DF804FBFB
:10ADE40000B58BB00590049103920293049B002B51
:10ADF40003D14D49A820FCF707FC049B1A68049B67
:10AE04005B689A4203D14849A920FCF7FDFB059BE6
:10AE14001B791A4613461B019B1A9B00434A134491
:10AE24000893089B93F82E30002B03D00823079334
:10AE3400079B74E0059B1A68059B1B7919463C4BDC
:10AE440053F8213019461046FFF7A8FA0346002BA1
:10AE540003D011230793079B61E0089B039A1A60B0
:10AE6400089B029A5A60089B00229A60089B002261
:10AE740083F82D20089B002283F83120089B0022B0
:10AE840083F83020049B5A7B089B83F83820049B6A
:10AE94001868002301930623009303230022002152
:10AEA400FFF70EFF049B58680023019306230093C9
:10AEB400032300220021FFF703FF059B1B6809936E
:10AEC400049B1968049B5B681A460998FFF77DFE8A
:10AED400049B9B6819460998FFF786FE089B1B682C
:10AEE400002B15D0059B1B681846FFF7D1FD0346C0
:10AEF4001A46049B1B7B19461046FFF7D1FD059BA0
:10AF04001B681846FFF7C4FD03461846FFF7F4FD17
:10AF1400089B012283F82E2000230793079B1846E1
:10AF24000BB05DF804FB00BF24120300AC35002015
:10AF34008C12030000B585B00190019B1B791A4661
:10AF440013461B019B1A9B000D4A13440393039B56
:10AF540093F82E30012B04D00A494FF48470FCF787
:10AF640053FB019B1B6802930298FFF71CFE039B93
:10AF7400022283F82E2000BF05B05DF804FB00BF59
:10AF8400AC3500202412030000B583B00190009179
:10AF9400009B5A6B009B9B6A9A420AD2009B5A6A96
:10AFA400009B5B6B13441B7819460198FFF74AFE1C
:10AFB4001EE0009B93F82C30002B05D01C21019837
:10AFC400FFF7A8FD002314E0009B1B6A03F0400375
:10AFD400002B09D01C210198FFF79CFD009B012246
:10AFE40083F82D20002304E014210198FFF792FD3B
:10AFF4000123184603B05DF804FB10B582B001903C
:10B004000091009B5A6B009B9B6A9A4244D2009B1E
:10B014005A6A009B5B6BD4180198FFF70AFE03463B
:10B024002370009B5B6B5A1C009B5A63009B5A6BFA
:10B03400009B9B6A013B9A420AD1009B1B6A03F066
:10B044004003002B04D102210198FFF708FE1FE002
:10B05400009B5A6B009B9B6A9A4207D1009B1B6A18
:10B0640003F04003002B01D1012316E0009B5A6B2F
:10B07400009B9B6A9A420BD1009B1B6A03F040031E
:10B08400002B05D0009B022283F82D20002304E02E
:10B0940020210198FFF73EFD0123184602B010BDA0
:10B0A40000B585B00190009100238DF80F304FF466
:10B0B40082710198FFF751FD0346002B07D04FF42E
:10B0C40082710198FFF734FD01238DF80F30009B46
:10B0D40093F82F30002B0FD04FF492710198FFF7A3
:10B0E40027FD4FF48E710198FFF722FD4FF4847110
:10B0F4000198FFF71DFD78E04FF492710198FFF776
:10B104002CFD0346002B0DD04FF492710198FFF7EC
:10B114000FFD14210198FFF7FDFC009B012283F829
:10B124002F2062E04FF48E710198FFF716FD03465D
:10B13400002B2BD04FF48E710198FFF7F9FC009B84
:10B144005B6B5A1C009B5A634FF492710198FFF792
:10B1540004FD0346002B0DD04FF492710198FFF7C4
:10B16400E7FC14210198FFF7D5FC009B012283F82A
:10B174002F203AE000990198FFF706FF034683F079
:10B184000103DBB2002B30D0002354E04FF4847170
:10B194000198FFF7E2FC0346002B26D04FF484719C
:10B1A4000198FFF7C5FC4FF492710198FFF7D5FCA5
:10B1B4000346002B0DD04FF492710198FFF7B8FCB1
:10B1C40014210198FFF7A6FC009B012283F82F208D
:10B1D4000BE000990198FFF710FF034683F0010389
:10B1E400DBB2002B01D0002325E09DF80F30002BAB
:10B1F40020D0009B002283F82D20009B93F82F3051
:10B2040083F00103DBB2002B12D000990198FFF701
:10B21400D0FD0346002B14BF01230023DBB283F0CF
:10B224000103DBB203F00103DAB2009B83F82F20A1
:10B23400002300E00123184605B05DF804FB00007C
:10B2440000B587B00190009100230593384B039318
:10B254004FF482710198FFF76BFC4FF492710198DF
:10B26400FFF766FC4FF48E710198FFF761FC4FF411
:10B2740084710198FFF75CFC00210198FFF7EFFC53
:10B28400009B00225A63009B002283F82F20202178
:10B294000198FFF73FFC009B93F82D30012B03D05E
:10B2A40008210198FFF736FC00990198FFF76CFE1E
:10B2B400009B1B68002B0DD0009B40F286229A60F5
:10B2C400009B9B6819460198FFF759FC2AE0039BF1
:10B2D400013B0393039B002B06DD00990198FFF7C4
:10B2E400DFFE0346002BF2D1009B93F82F30002B96
:10B2F4000DD00198FFF782FC0490049B002B04D02E
:10B304000498FFF736FD059001E003230593039BA2
:10B31400002B07DC0198FFF74FFC0198FFF743FC73
:10B3240003230593059B184607B05DF804FB00BF93
:10B33400A086010000B587B0019000910023059319
:10B344003D4B03934FF482710198FFF7F1FB4FF4E7
:10B3540092710198FFF7ECFB4FF48E710198FFF79F
:10B36400E7FB4FF484710198FFF7E2FB009B002296
:10B374005A63009B002283F82F20009B9B6A012BB9
:10B384000AD1009B1B6A03F04003002B04D1022165
:10B394000198FFF764FC03E001210198FFF75FFCCB
:10B3A40020210198FFF7B6FB009B93F82D30022B68
:10B3B40003D000210198FFF7ADFB009B1B68002B15
:10B3C4000DD0009B40F286229A60009B9B68194630
:10B3D4000198FFF7D4FB2AE0039B013B0393039BF3
:10B3E400002B06DD00990198FFF75AFE0346002B57
:10B3F400F2D1009B93F82F30002B0DD00198FFF76A
:10B40400FDFB0490049B002B04D00498FFF7B1FCCF
:10B41400059001E003230593039B002B07DC0198AF
:10B42400FFF7CAFB0198FFF7BEFB03230593059BB7
:10B43400184607B05DF804FBA086010030B587B05C
:10B44400039002910192009300230593029B93F8C9
:10B454002D30012B05D1019B1B78012B01D1082331
:10B464006DE0029B93F82D30022B05D1019B1B78D4
:10B47400012B01D0082362E032490398FFF789FBCE
:10B48400029B93F83030DBB2002B09D0029B9B68FF
:10B4940019460398FFF773FB11230593059B4EE0B0
:10B4A400009B03F00403002B0CBF01230023DAB23A
:10B4B400029B83F83020029B009A1A62029B019A35
:10B4C40003F10C0415460FCD0FC42B682360019BB8
:10B4D4005A68029B9A62019BDA68029B5A62019B3A
:10B4E4005B7819460398FFF797FB019B1B78012BA8
:10B4F40017D0019B1B78002B04D1009B03F0200381
:10B50400002B01D0012300E0002303F00103DAB291
:10B51400029B83F82C2002990398FFF791FE059073
:10B5240004E002990398FFF705FF0590029B1B684E
:10B53400002B03D1029B002283F83020059B184680
:10B5440007B030BD8642040000B587B00390029175
:10B55400019200230593039B1B791A4613461B0192
:10B564009B1A9B00144A13440493049B1B68002BEE
:10B5740008D1029B1B78022B04D110494FF421708F
:10B58400FCF742F8049B1B68002B08D1029B1B7834
:10B59400032B04D1094940F28520FCF735F8039BBD
:10B5A4001868019B029A0499FFF748FF0590059BD0
:10B5B400184607B05DF804FBAC35002024120300E4
:10B5C40000B58BB00390019200930B468DF80B30BD
:10B5D40000238DF814309DF80B308DF81530009B46
:10B5E400069300230793019B0893002309939DF876
:10B5F4003030002B01D0202200E0002205AB194698
:10B604000398FFF7A1FF034618460BB05DF804FB4F
:10B6140000B58BB00390019200930B468DF80B306C
:10B6240001238DF814309DF80B308DF81530009BF4
:10B63400069300230793019B08930023099305AB0A
:10B64400002219460398FFF77FFF034618460BB004
:10B654005DF804FB30B58BB001900091009B1B6832
:10B66400002B04D14A494FF42E70FBF7CDFF00990B
:10B674000198FFF715FD0346002B40F08680009BE0
:10B6840093F82F3083F00103DBB2002B33D0009BFF
:10B694001B7B022B03D0009B1B7B032B2BD1009B1A
:10B6A4005A6A009B9B699A4225D1009BDA69009BE8
:10B6B4005A62009B5A69009B9A62009B1B6A03F0C2
:10B6C4002003002B14BF01230023DAB2009B83F86C
:10B6D4002C20009B002283F82D20009B1B7B032B36
:10B6E40004D100990198FFF7ABFD4FE00099019850
:10B6F400FFF720FE4AE0009B04AC03F10C050FCDDC
:10B704000FC42B682360009B93F82F30002B22D0AA
:10B714000198FFF773FA0990099B03F00203002BC9
:10B7240003D001238DF80C3018E0099B03F00403C7
:10B73400002B03D002238DF80C300FE0099B03F09B
:10B744000103002B03D003238DF80C3006E00423FF
:10B754008DF80C3002E000238DF80C30009B0022A1
:10B7640083F83020009B1B6A03F00403002B04D0F1
:10B77400009B93F82F30002B08D0009B1B68009A85
:10B78400516803AA1046984700E000BF0BB030BDD3
:10B794002412030008B503490348FFF75BFF00BF09
:10B7A40008BD00BFAC3500200030004082B0034625
:10B7B4008DF807309DF90730002B0CDB9DF807301E
:10B7C40003F01F0205499DF907305B09012000FAC7
:10B7D40002F241F8232000BF02B0704700E100E00C
:10B7E40082B0034600918DF807309DF90730002B95
:10B7F4000ADB009BDAB20C499DF907305201D2B240
:10B804000B4483F800230BE0009BDAB207499DF850
:10B81400073003F00F03043B5201D2B20B441A76F3
:10B8240000BF02B0704700BF00E100E000ED00E09F
:10B8340082B00190019B1B0B5BB2184602B07047AB
:10B8440000B583B003460A468DF8073013468DF8D9
:10B8540006309DF80630012B03D99DF80630032BE2
:10B864000BD99DF80630042B03D99DF80630072B1D
:10B8740003D908496B20FBF7C7FE9DF806209DF904
:10B88400073011461846FFF7ABFF00BF03B05DF861
:10B8940004FB00BF9012030000B583B003468DF88B
:10B8A40007309DF907301846FFF780FF00BF03B04B
:10B8B4005DF804FB84B001900B46ADF80230BDF88E
:10B8C4000230019A134400221A60BDF80230019A32
:10B8D40013441B680393039B00BF04B0704782B0FA
:10B8E40001900B46ADF80230BDF80230019A1344C2
:10B8F4001B68002B14BF01230023DBB2184602B0DF
:10B90400704782B001900091019B009AC3F8042310
:10B9140000BF02B0704782B001900091019BD3F840
:10B924000423009B1340002B14BF01230023DBB22C
:10B93400184602B0704782B001900091019B009AB2
:10B94400C3F8082300BF02B0704784B00190019B84
:10B95400D3F880340393019B039AC3F88024039B98
:10B96400184604B0704782B00190019B0422C3F8CA
:10B97400002500BF02B0704784B003900291019289
:10B98400039B019AC3F81425039B029AC3F80C2560
:10B9940000BF04B0704784B0039002910192039BEE
:10B9A400029AC3F80825039B019AC3F8102500BF27
:10B9B40004B0704782B00190019BD3F81835DBB214
:10B9C400184602B0704782B001900B468DF80330E0
:10B9D4009DF80320019BC3F81C2500BF02B07047EB
:10B9E40082B001900B468DF803309DF80330019A24
:10B9F400134401221A6000BF02B0704782B0019064
:10BA04000B468DF8033013468DF802309DF8032061
:10BA14009DF802301343DBB21A46019BC3F86C2530
:10BA240000BF02B0704782B001900091019B009A60
:10BA3400C3F8242500BF02B07047000000B583B0EE
:10BA44000190019B1B68184600F093F80346002BF5
:10BA540004D10B494FF4F670FBF7D6FD019B1B682C
:10BA64001F2B02D84FF0A04306E0019B1B6803F094
:10BA74001F02019B1A60034B184603B05DF804FBD8
:10BA8400C01203000003005000B585B001900846C1
:10BA940011461A4603468DF803300B468DF80230E2
:10BAA40013468DF8013001AB1846FFF7C7FF03902A
:10BAB4009DF803209DF802305B001A439DF8013085
:10BAC4009B001A439DF818301B0242EA03019DF8BB
:10BAD4001C301B04019A1943039B02F5E07243F8DE
:10BAE400221000BF05B05DF804FB00B585B00390DB
:10BAF40000230193002300930023012201210398D2
:10BB0400FFF7C2FF00BF05B05DF804FB00B585B0C8
:10BB140003900B468DF80B309DF80B3000220192F8
:10BB240000220092002200210398FFF7ADFF00BF1E
:10BB340005B05DF804FB00B585B0019001AB184673
:10BB4400FFF77CFF0390019B012202FA03F31946DD
:10BB5400039800F004F800BF05B05DF804FB82B060
:10BB640001900091019B009AC3F8082500BF02B020
:10BB7400704784B00190019B5B09029300230393F7
:10BB8400029B002B03D0029B012B04D007E04FF053
:10BB9400FF33039303E04FF6FF73039300BF019B4E
:10BBA40003F01F030193039A019B22FA03F303F0AA
:10BBB4000103002B14BF01230023DBB2184604B099
:10BBC400704700B583B001900091009B1B68B3F1EE
:10BBD400FF3F09D0009B1B681846FFF7ACFF009B92
:10BBE4001B681846FFF781FF009B5B68B3F1FF3FBA
:10BBF40005D0009B5B6800211846FFF787FF019B77
:10BC04001A68009B9B6919461046FFF70CFF019BBD
:10BC14001868009B597D009B1B7D1A46FFF7EEFEBA
:10BC2400019B1868009B1968009B5B681A46FFF724
:10BC3400A3FE009B1B7D012B22D1009B9B68B3F1CB
:10BC4400FF3F05D0009B9B6800211846FFF75EFF6D
:10BC5400009BDB68B3F1FF3F09D0009BDB6818460B
:10BC6400FFF769FF009BDB681846FFF73EFF019B67
:10BC74001868009BD968009B9B681A46FFF78BFEE7
:10BC840000BF03B05DF804FB00B583B001900B4620
:10BC94008DF80330019B1B684FF48E711846FFF733
:10BCA40009FE019B1B684FF4A2711846FFF702FEC0
:10BCB400019B1B680E491846FFF723FE019B1B6876
:10BCC4001846FFF7B5FD03461A469DF8033019469A
:10BCD4001046FFF7B5FD019B1B681846FFF7A8FD4A
:10BCE40003461846FFF7D8FD00BF03B05DF804FB18
:10BCF4008000020000B587B0039002910192029B7C
:10BD0400002B03D12D49AA20FBF77EFC039B1B7952
:10BD14001A462C2302FB03F3294A134404930023F9
:10BD24000593049B93F82A30002B03D00823059332
:10BD3400059B3EE0039B1A68039B1B791946214B24
:10BD440053F8213019461046FEF728FB0346002B12
:10BD540003D011230593059B2BE002990398FFF769
:10BD640030FF049B019A5A60029B1A69049B1A6073
:10BD7400049B5B68002B05D0029B1B7F194603982C
:10BD8400FFF782FF039B1B681846FFF7ECFD049B3B
:10BD940000229A61049B0022DA61049B002283F84A
:10BDA4002920049B00225A61049B012283F82A2043
:10BDB400059B184607B05DF804FB00BFF8120300AA
:10BDC400E83500206413030000B585B001900091AC
:10BDD4004FF48E710198FFF76DFD009B9A68009BEC
:10BDE4001B6A13441B788DF80F30009B1B6A5A1C86
:10BDF400009B1A629DF80F3019460198FFF7E3FD86
:10BE040000BF05B05DF804FB00B585B0019000915A
:10BE1400009B5B69039316E0009B93F82830DBB228
:10BE2400002B01D0002314E04FF48E710198FFF72A
:10BE340056FD034683F00103DBB2002BECD10099DD
:10BE44000198FFF7C1FF009B1B6A039A9A42EBD843
:10BE54000123184605B05DF804FB000000B587B067
:10BE6400039002910192039B1B791A462C2302FB37
:10BE740003F33C4A13440493049B93F82A30012BA4
:10BE840004D039494FF48C70FBF7BEFB029B002BA6
:10BE940004D1354940F21910FBF7B6FB019B002B86
:10BEA40004D131494FF48D70FBF7AEFB039800F0D9
:10BEB4005DF80346002B03D011230593059B4CE04A
:10BEC400049B019A5A61049B029A9A60049B002283
:10BED4001A62049B002283F8282000230593039B05
:10BEE4001B684FF48E711846FFF7E4FC039B1B6834
:10BEF40008211846FFF774FD039B1B680499184634
:10BF0400FFF762FF049B5B68002B25D1039B1B6832
:10BF140004991846FFF778FF034683F00103DBB268
:10BF2400002B02D00F23059313E000BF039B1B6873
:10BF34004FF48E711846FFF7D2FC034683F00103D9
:10BF4400DBB2002BF2D1039B1B680C211846FFF7D0
:10BF540047FD049B00225A61059B184607B05DF813
:10BF640004FB00BFE8350020F812030082B0019002
:10BF7400019B1B791946074A2C2301FB03F3134445
:10BF840014331B68002B14BF01230023DBB21846B3
:10BF940002B07047E835002010B582B001900091DE
:10BFA400009B9B69002B08D14FF484710198FFF723
:10BFB40081FC0198FFF7FEFC13E04FF484710198B3
:10BFC400FFF778FC009BDA68009B5B6AD418019841
:10BFD400FFF7F0FC03462370009B5B6A5A1C009B2E
:10BFE4005A6202B010BD00B589B00390029101926B
:10BFF40001238DF81030029B0693019B0593039B4C
:10C004005B68039A116804AA1046984700BF09B0F8
:10C014005DF804FB00B587B00190009100238DF812
:10C024000830009B0493019B9B680393019B0022AF
:10C034005A61019B5B68019A116802AA10469847ED
:10C0440000BF07B05DF804FB00B58BB00190009110
:10C054004FF400710198FFF75EFC0346002B39D0C2
:10C064004FF492710198FFF73AFC0346002B31D04C
:10C074004FF492710198FFF71DFC4FF40171019880
:10C08400FFF759FC009B93F8293083F00103DBB2DE
:10C09400002B03D004210198FFF7A2FC02238DF8A2
:10C0A4000C300198FFF751FC03460693009B9B69F3
:10C0B4000593009BDB680493009B00229A61009B1C
:10C0C4000022DA61009B5B68009A116803AA10469B
:10C0D400984752E004210198FFF71DFC0346002B0A
:10C0E4004BD04FF484710198FFF7F9FB0346002B02
:10C0F40043D000990198FFF74FFF009B9A69009B7A
:10C104005B6A9A4239D1009BDB69002B19D0009BF2
:10C11400DB680993009B5B6A0893009BDA69009BC8
:10C124009A61009B1A69009BDA60009B0022DA6125
:10C13400009B00225A62099A08990098FFF753FF5E
:10C144001BE0009B93F8293083F00103DBB2002B42
:10C1540003D004210198FFF743FC4FF401710198C7
:10C16400FFF7E9FB009B00229A61009B596A009B40
:10C17400DB681A460098FFF736FF4FF48E7101987A
:10C18400FFF7ADFB0346002B24D0009B5B690793AC
:10C19400009B1B6A079A9A420DD9009B93F828309A
:10C1A400DBB283F00103DBB2002B04D000990198C9
:10C1B400FFF70AFE0EE04FF48E710198FFF77AFB49
:10C1C400009B5B69002B05D0009B5B6919460098B6
:10C1D400FFF720FF4FF4A2710198FFF780FB03469D
:10C1E400002B1CD04FF4A2710198FFF763FB009B56
:10C1F40093F82930002B03D000210198FFF7F0FBBE
:10C20400009B9B69002B0AD0009B00229A61009B33
:10C21400596A009BDB681A460098FFF7E4FE00BFEA
:10C224000BB05DF804FB000008B503490348FFF7B1
:10C234000BFF00BF08BD00BFE83500200020004010
:10C2440086B003900291019201238DF817309DF876
:10C254001730204A039B13601E4A029B53601D4AF9
:10C26400019B9360039B44F20102934212D0039B0F
:10C2740044F20202934220D1019B164AD360154B2B
:10C28400DB681B68134A9361124BDB685B68114AD5
:10C29400D36112E0019B0F4A13610E4B1B699B682B
:10C2A4000C4A53610B4B1B691B680A4A9361094B87
:10C2B4001B695B68074AD36100BF72B600BF00BF49
:10C2C4009DF81730DBB2002BFAD162B600BF00BF75
:10C2D40006B070471436002000B583B00290009178
:10C2E400019244F2010071466A4600F003F803B07B
:10C2F40000BD00BF30B58BB007900691059272B6B1
:10C3040000BF03F011FA02F0CDFF0346002BFAD16F
:10C31400079B44F2020293422FD0079B44F202028D
:10C32400934269D8079B44F20102934237D0079B9A
:10C3340044F2010293425FD8079B012B05D0079B6F
:10C3440041F2010293420CD056E0394A394BD31AD8
:10C35400DB081B0443F001033749184602F046FF8B
:10C3640057E0334A334BD31ADB081B0443F0010371
:10C374003249184602F03AFF4BE0059B09932C4AD8
:10C384002C4BD31ADB081B0443F00100099B5B68A8
:10C394001A46099B1B682A4902F047FF39E0059BAE
:10C3A4000893234A234BD31ADB081B0443F00104EC
:10C3B400089B9D68089B9B68184602F061FA034637
:10C3C4001846089B5B681946089B1B68069A0292EC
:10C3D4000193009103462A461A49204602F039FF88
:10C3E400134A144BD31ADB081B0443F00103164908
:10C3F400184602F0FBFE0CE00D4A0E4BD31ADB0884
:10C404001B0443F00103069A1049184602F0FCFE8F
:10C4140000BF0F4B1B6803F00103002B00D000BECC
:10C42400059A06990798FFF70BFF00BF0BB030BDC4
:10C434009809030060090300B8140300D81403002A
:10C44400FC140300181503004015030054150300E1
:10C45400F0ED00E02DE9F04383B0144801F063F8F7
:10C46400034600221C461546114BD3E9002314EB66
:10C47400020845EB0309CDE900890E4BD3E90023FB
:10C48400DDE90001904271EB030307D2DDE90023EB
:10C4940012F1807643F10007CDE90067DDE900235E
:10C4A4001046194603B0BDE8F08300BF10230020F6
:10C4B400403600204836002088B001900091019B4E
:10C4C4000793009B0693079BD3E90223CDE904233A
:10C4D400069BD3E90223CDE90223DDE90423DDE948
:10C4E4000201904271EB03032CBF01230023DBB252
:10C4F400184608B070470000F0B585B00190019B64
:10C504005B69002B03D14349A520FBF77DF8002389
:10C514008DF80F30404B1B78002B75D0019B002BFE
:10C5240072D0FFF797FF019BD3E90223904271EB8E
:10C53400030358D300238DF80D300DF10D03184675
:10C5440000F0E0FB019B1B69002B06D101994FF021
:10C55400FF324FF0FF33C1E902239DF80D30184636
:10C5640000F0E6FB019B5B69019A926910469847CB
:10C5740000238DF80C3003AB184600F0C3FB019B7D
:10C584001B69002B1AD0019BD3E90223B3F1FF3FAF
:10C5940008BFB2F1FF3F11D0019BD3E902230199F7
:10C5A400096900200C460546161943EB0507019B53
:10C5B400C3E9026701238DF80E3002E000238DF8F1
:10C5C4000E309DF80C30184600F0B2FB9DF80E308A
:10C5D400002B19D0019B1946104802F0ABF8012337
:10C5E4008DF80F3010E0019BD3E90223B3F1FF3F34
:10C5F40008BFB2F1FF3F07D0019B1946074802F07C
:10C6040099F801238DF80F309DF80F30184605B0C6
:10C61400F0BD00BF7815030038360020E81503008C
:10C6240030B58BB0019000910D230993009B00223B
:10C634001A70019BD3E90223CDE90623FFF70AFF11
:10C64400DDE90623141A63EB0105CDE90445DDE9B0
:10C654000423012A73F1000318DB049BB3F5350F9F
:10C6640005D300F0D1FA0246144B134400E0069BB4
:10C6740003934FF49603039A0021114800F046FEF9
:10C684000990099B002B05D1012314E000210C48DB
:10C6940000F014FF099B0D2B07D10198FFF72CFF25
:10C6A40003461A46009B1A7004E006494FF486704C
:10C6B400FAF7AAFF002318460BB030BDFFFFB40001
:10C6C400102300207815030000B583B0044802F05D
:10C6D4006BF80190019B184603B05DF804FB00BFA2
:10C6E400E815030000B583B0044802F07FF8019018
:10C6F400019B184603B05DF804FB00BFE815030076
:10C7040000B583B0FFF7E0FF0190019B002B06D03A
:10C7140001994FF0FF324FF0FF33C1E90223019B2F
:10C72400002BEFD100BF00BF03B05DF804FB000095
:10C73400054BD3E9002312F1807043F10001024B51
:10C74400C3E9000100BF70474036002010B582B035
:10C754000190124B1B68002B1DD0019800F0E3FEE2
:10C7640004460021019800F0CFFE034619462046F6
:10C7740000F03EFA0346B3F5960F04D3084940F29D
:10C784004110FAF741FF054B1B681846FFF7B4FE4A
:10C79400024B00221A6000BF02B010BD34360020E4
:10C7A4007815030000B583B00190FFF753FE0246ED
:10C7B4000B460349C1E9002300BF03B05DF804FB45
:10C7C4004836002000B587B00190FFF78BFF049036
:10C7D40000238DF81730049B002B58D0049BD3E919
:10C7E4000223B3F1FF3F08BFB2F1FF3F02D1FFF7CD
:10C7F4006BFF54E02E4B1B68002B03D101238DF8F3
:10C8040017301DE0049BD3E90201294B1B68D3E9CF
:10C814000223904271EB030312D201238DF81730E7
:10C82400234B1B68D3E90223B3F1FF3F08BFB2F1E6
:10C83400FF3F05D01E4B1B6819461E4801F07AFFC6
:10C844009DF81730002B2BD0FFF73EFF04900DF11D
:10C854000F0319460498FFF7E3FE0346002B12D09A
:10C86400134B1B68002B02D1019800F05BFC104AAB
:10C87400049B13609DF80F3083F00103DBB2002B9F
:10C88400A3D000BF0FE00A4B00221A609DE7084BBB
:10C894001B68002B06D1019800F05AFC02E094E7D3
:10C8A40000BF00E000BF00BF07B05DF804FB00BF9D
:10C8B40034360020E815030000B587B001902B4AF8
:10C8C40003AB1946104600F02CFF049045E0049B8E
:10C8D4001B78022B2BD0022B2FDC002B02D0012B38
:10C8E40011D02AE0049B5B68D3E90223B3F1FF3F34
:10C8F40008BFB2F1FF3F22D0049B5B6819461C4875
:10C9040001F018FF1BE0049B5A681A4B1B689A42FB
:10C9140003D1184B00221A6012E0049B5B6819468D
:10C92400134801F077FF03468DF8173008E0FFF74E
:10C93400E7FE114B01221A7002E000BF00E000BFC5
:10C944000A4A03AB1946104600F004FF074A03AB3A
:10C954001946104600F0E5FE0490049B002BB6D166
:10C9640000BF00BF07B05DF804FB00BFA83600207D
:10C97400E8150300343600203836002000B583B0B3
:10C984000190019800F08DFD0346002B01D0FFF7C4
:10C99400CFFE0021019800F0A2FD0346002B02D037
:10C9A4000198FFF7D3FE0121019800F098FD03469A
:10C9B400002B02D00198FFF7F5FE0198FFF77CFFEA
:10C9C4000198FFF7FFFE00BF03B05DF804FB000011
:10C9D40008B5024800F0B4FD00BF08BD10230020D4
:10C9E40000B585B0034600918DF80730114A02ABBB
:10C9F4001946104600F068FE0390039B002B13D0E9
:10CA0400039B9DF807201A70039B009A5A60094AF9
:10CA140002AB1946104600F070FE0346002B01D00D
:10CA2400FFF7D6FF002300E00423184605B05DF8A5
:10CA340004FB00BFA836002000B583B0164B1B686A
:10CA44000093164808235822154900F00AFE019065
:10CA5400019B002B01D0019B19E06B46114A19463A
:10CA6400114800F0E1FA0190019B002B01D0019BD9
:10CA74000DE001210C4800F003FD01230B4A0121C4
:10CA8400094800F07BFB0A4B01221A70019B1846EF
:10CA940003B05DF804FB00BFE4150300A8360020D2
:10CAA4005036002081C9020010230020FFFF7F00C0
:10CAB40038360020F0B589B0039002910192039BAF
:10CAC400002B04D1264940F26B20FAF79DFD039B0D
