:020000022000DC
:1070000000000420197202000172020003720200E3
:1070100005720200077202000972020000000000FF
:107020000000000000000000000000000B720200E1
:107030000D720200000000000F72020011720200C7
:10704000C58D0200137202009993020025A202006E
:107050001372020013720200919202001372020076
:107060001372020013720200137202001372020004
:1070700013720200137202001372020013720200F4
:1070800013720200E9C402001372020013720200BC
:107090001372020013720200A5E6020013720200CE
:1070A00013720200137202001372020013720200C4
:1070B00013720200137202000000000000000000C2
:1070C00013720200137202001372020013720200A4
:1070D0001372020013720200137202001372020094
:1070E000137202001372020013720200000000000B
:1070F0000000000013720200000000001372020082
:10710000000000000000000000000000000000007F
:10711000000000000000000000000000000000006F
:10712000000000000000000000000000000000005F
:10713000000000000000000000000000000000004F
:10714000000000000000000000000000000000003F
:10715000000000000000000000000000000000002F
:10716000000000000000000000000000000000001F
:10717000000000000000000000000000000000000F
:1071800000000000000000000000000000000000FF
:1071900000000000000000000000000000000000EF
:1071A00000000000000000000000000000000000DF
:1071B00000000000000000000000000000000000CF
:1071C00000000000000000000000000000000000BF
:1071D00000000000000000000000000000000000AF
:1071E000000000000000000000000000000000009F
:1071F000000000000000000000000000000000008F
:10720000FEE7FEE7FEE7FEE7FEE7FEE7FEE7FEE756
:10721000FEE7FEE700F002B8FFF7FCBF0F484FF0B3
:107220000701884385460E4880470E48016841F4AF
:1072300070010160BFF34F8FBFF36F8F00F01AB87A
:1072400009480A490A4A884207D0521A05D00378E9
:1072500001300B700131013AF9D170470000042070
:10726000097D020088ED00E090F20200002300207A
:10727000002300203A493B480A1A02D007229143D2
:107280008D46394939480A1A06D00722914381F3BD
:107290000988022282F3148835483649364A00F0BC
:1072A00041F836483649374A00F03CF83648374905
:1072B000374A00F037F837483749384A00F032F893
:1072C00037483849384A00F02DF838483849394AA3
:1072D00000F028F838483949394A00F023F839488D
:1072E0003949002200F036F838483949002200F0C8
:1072F00031F838483849091A07F03EFE374A9047B6
:1073000025482649884205D00268043003B49047D6
:1073100003BCF7E700208646EC4600200021304AF7
:107320009047FEE7884214D0521A12D003460B430E
:1073300013430324234206D1036804300B60043155
:10734000043AF9D17047037801300B700131013AEA
:10735000F9D17047884202D002700130FAE77047D5
:107360000000042000E003200000042000000420AE
:10737000941003000023002078230020E47302000F
:10738000E4730200BAF1020094100300002300200D
:107390000023002090F2020090F2020090F202001E
:1073A00090F2020090F2020090F2020090F20200CD
:1073B00090F20200911003000C11030078230020CA
:1073C0007823002078230020782B0020782B0020C1
:1073D000782B0020782B0020784B0020417202008F
:0473E00075780200BA
:1073E40000B585B00190019B002B0AD0074B43F0F8
:1073F40001030393019B9B010293039B029898470B
:1074040000E000BF05B05DF804FB00BFC0F402005B
:1074140000B583B00190019B1B68184600F0D0F8BA
:107424000346002B04D10B494FF4F67005F068F8BD
:10743400019B1B681F2B02D84FF0A04306E0019B61
:107444001B6803F01F02019B1A60034B184603B02C
:107454005DF804FB90F202000003005000B585B013
:107464000190084611461A4603468DF803300B4630
:107474008DF8023013468DF8013001AB1846FFF742
:10748400C7FF03909DF803209DF802305B001A4368
:107494009DF801309B001A439DF818301B0242EA04
:1074A40003019DF81C301B04019A1943039B02F548
:1074B400E07243F8221000BF05B05DF804FB00B58C
:1074C40085B003900023019300230093002301223D
:1074D40001210398FFF7C2FF00BF05B05DF804FB6C
:1074E40000B585B0019001AB1846FFF791FF0390FA
:1074F400019B012202FA03F31946039800F04CF8A9
:1075040000BF05B05DF804FB00B585B0019001AB88
:107514001846FFF77DFF0390019B012202FA03F353
:107524001946039800F042F800BF05B05DF804FB6B
:1075340000B585B0019001AB1846FFF769FF0390D1
:10754400039BD3F804350293029BDA43019B012188
:1075540001FA03F31A40039BC3F80825019B012297
:107564009A40029B1A40039BC3F80C2500BF05B048
:107574005DF804FB00B583B001900091009B002BE3
:1075840003D10198FFF7C0FF02E00198FFF7A8FFBD
:1075940000BF03B05DF804FB82B001900091019B31
:1075A400009AC3F8082500BF02B0704782B001906A
:1075B4000091019B009AC3F80C2500BF02B07047EC
:1075C40084B00190019B5B09029300230393029B07
:1075D400002B03D0029B012B04D007E04FF0FF33B4
:1075E400039303E04FF6FF73039300BF019B03F083
:1075F4001F030193039A019B22FA03F303F001038F
:10760400002B14BF01230023DBB2184604B07047DB
:1076140000B583B00190019B002B0AD04FF47A701F
:10762400FFF7DEFE019B013B0193019B002BF5D18B
:1076340000E000BF03B05DF804FB000082B00190DD
:107644000091019B1B78002B02D1034B00221A707E
:1076540000BF02B0704700BFF823002000B589B016
:107664006B4620220021184607F0FEFC2B230093D2
:107674002C2301934FF0FF3302934FF0FF33039316
:10768400074B069306238DF81C306B46054A1946B2
:10769400054803F059F900BF09B05DF804FB00BFC9
:1076A40000E0D70141760200ACF4020000B587B0D7
:1076B4000190019807F06AFC0590019B049323E074
:1076C400059B802B28BF8023039300E020BF134B2E
:1076D4001B78DBB2002BF9D1039A0499104807F008
:1076E40091FC039A0E490F4803F010FA0346002B4D
:1076F4000ED10A4B01221A70049A039B134404937B
:10770400059A039BD31A0593059B002BD8D100E05F
:1077140000BF00BF07B05DF804FB00BFF8230020E2
:1077240078230020ACF4020010B584B00B4B6C46F7
:107734000FCB84E80F00694600230022084802F0BA
:1077440095F80346002B03D00648FFF7AFFFFEE78A
:10775400034802F035F900BF04B010BDDCF20200AA
:10776400B4F40200C0F2020008B52D20FFF7A7FE12
:1077740001212D20FFF7FEFE00BF08BD08B51C2027
:10778400FFF79DFE01211C20FFF7F4FE00BF08BD9A
:1077940000B58DB01848FFF789FF01238DF82F300D
:1077A4001EE00DF127029DF82F100123134802F06B
:1077B40075FC0A900A9B002B0AD19DF82F3001A872
:1077C4000F4A202107F09DF801AB1846FFF76EFF22
:1077D4000520FFF71DFF9DF82F3001338DF82F3062
:1077E4009DF82F307E2BDCD90648FFF75FFF00BFE2
:1077F4000DB05DF804FB00BFECF20200B4F402002B
:1078040004F3020020F3020000B595B040238DF884
:107814004F301CE00DF147029DF84F100123114831
:1078240002F03CFC1290129B002B0BD19DF84F30C0
:1078340001A80D4A402107F064F801AB1846FFF790
:1078440035FF0BE09DF84F3001338DF84F309DF834
:107854004F30412BDED90548FFF728FF15B05DF8FE
:1078640004FB00BFB4F4020038F3020060F302002A
:1078740000B593B0FFF778FFFFF780FFFFF7EEFE48
:107884002848FFF713FFFFF74FFF2748FFF70EFFC6
:10789400FFF77EFFFFF7B8FF2448FFF707FF2448F0
:1078A40004F0ABF9034683F00103DBB2002B03D0F1
:1078B4002048FFF7FBFEFEE71F48FFF7F7FE1F48CF
:1078C400FFF7F4FE1A4804F017FA034683F00103A5
:1078D400DBB2002B03D01A48FFF7E8FEFEE7194895
:1078E400FFF7E4FE0023119311AB1946104804F08E
:1078F400A7FA0346002B0AD0119B01A8124A402183
:1079040006F0FFFF01AB1846FFF7D0FE02E00F4878
:10791400FFF7CCFE2D20FFF70BFE4FF47A70FFF734
:1079240077FEDFE788F30200A0F30200B4F302005D
:10793400B4F40200D0F30200F0F3020010F40200E9
:1079440034F4020058F4020070F4020084F40200DB
:10795400BFF34F8F00BF064BDB6803F4E0620449BA
:10796400044B1343CB60BFF34F8F00BF00BFFDE751
:1079740000ED00E00400FA0582B0164B1B68019389
:10798400154B1B680093019B082B1FD1009B052BF3
:107994001AD801A252F823F0B5790200B97902008D
:1079A400BD790200C1790200C5790200C9790200DB
:1079B40001230CE001230AE0012308E0012306E08F
:1079C400012304E0012302E0012300E00023184620
:1079D40002B07047300100103401001082B0164B21
:1079E4001B680193154B1B680093019B082B1FD147
:1079F400009B052B1AD801A252F823F0197A020031
:107A04001D7A0200217A0200257A0200297A0200F6
:107A14002D7A020001230CE001230AE0012308E08F
:107A2400012306E0012304E0012302E0012300E036
:107A34000023184602B070473001001034010010D2
:107A440082B0164B1B680193154B1B680093019B76
:107A5400082B1FD1009B052B1AD801A252F823F042
:107A64007D7A0200817A0200857A0200897A020016
:107A74008D7A0200917A020001230CE000230AE0CF
:107A8400002308E0002306E0002304E0002302E0D2
:107A9400002300E00023184602B0704730010010B4
:107AA4003401001082B0164B1B680193154B1B6800
:107AB4000093019B082B1FD1009B052B1AD801A210
:107AC40052F823F0E17A0200E57A0200E97A020032
:107AD400ED7A0200F17A0200F57A020001230CE04B
:107AE40000230AE0002308E0002306E0002304E06A
:107AF400002302E0002300E00023184602B0704790
:107B0400300100103401001082B0164B1B68019341
:107B1400154B1B680093019B082B1FD1009B052B61
:107B24001AD801A252F823F0457B0200497B0200D7
:107B34004D7B0200517B0200557B0200597B020001
:107B440001230CE000230AE0002308E0002306E000
:107B5400002304E0002302E0002300E00023184691
:107B640002B07047300100103401001082B0164B8F
:107B74001B680193154B1B680093019B082B1FD1B5
:107B8400009B052B1AD801A252F823F0A97B02000E
:107B9400AD7B0200B17B0200B57B0200B97B020021
:107BA400BD7B020001230CE000230AE0002308E06F
:107BB400002306E0002304E0002302E0002300E0A9
:107BC4000023184602B07047300100103401001041
:107BD40082B0164B1B680193154B1B680093019BE5
:107BE400082B1FD1009B052B1AD801A252F823F0B1
:107BF4000D7C0200117C0200157C0200197C02003D
:107C04001D7C0200217C020001230CE001230AE018
:107C1400012308E0012306E0012304E0012302E03C
:107C2400012300E00023184602B070473001001021
:107C34003401001082B0164B1B680193154B1B686E
:107C44000093019B082B1FD1009B052B1AD801A27E
:107C540052F823F0717C0200757C0200797C0200EA
:107C64007D7C0200817C0200857C020000230CE004
:107C740000230AE0002308E0002306E0012304E0D7
:107C8400012302E0012300E00023184602B07047FC
:107C9400300100103401001008B5FFF7CBFF034694
:107CA400002B07D04FF010234FF08042D3F8083256
:107CB400C2F8583500BF08BD00BF044BD3F80034E8
:107CC400002BFAD000BF00BF704700BF00E00140A6
:107CD40000B583B00190054A019BC2F80435FFF753
:107CE400EBFF00BF03B05DF804FB00BF00E0014000
:107CF400024B034A1A6000BF704700BF00230020F4
:107D04000090D00308B5FFF737FE0346002B0ED0D2
:107D14004FF080430022C3F80C214FF0804300222F
:107D2400C3F810214FF080430022C3F83825FFF731
:107D340055FE0346002B76D04FF08053734AD3F898
:107D44000434C2F820354FF08053704AD3F8083415
:107D5400C2F824354FF080536C4AD3F80C34C2F87F
:107D640028354FF08053694AD3F81034C2F82C35C3
:107D74004FF08053654AD3F81434C2F830354FF0CD
:107D84008053624AD3F81834C2F834354FF0805324
:107D94005E4AD3F81C34C2F840354FF080535B4A36
:107DA400D3F82034C2F844354FF08053574AD3F8FF
:107DB4002434C2F848354FF08053544AD3F8283459
:107DC400C2F84C354FF08053504AD3F82C34C2F8E3
:107DD40050354FF080534D4AD3F83034C2F85435FF
:107DE4004FF08053494AD3F83434C2F860354FF029
:107DF4008053464AD3F83834C2F864354FF0805380
:107E0400424AD3F83C34C2F868354FF080533F4AB5
:107E1400D3F84034C2F86C354FF080533B4AD3F862
:107E24004434C2F87035FFF70BFE0346002B02D032
:107E3400374B384A1A60FFF735FE0346002B03D050
:107E4400354BFB22C3F81825FFF75EFE0346002BD3
:107E54000AD0324B1B6823F00F02314B1B6803F02E
:107E64000F032E4913430B60FFF780FE0346002BDC
:107E740003D02C4B4FF400721A60FFF7A9FE03469F
:107E8400002B0DD04FF08043D3F8003403F00103EE
:107E9400002B05D04FF080436FF00102C3F800249B
:107EA400214BD3F88830204A43F47003C2F8883059
:107EB400BFF34F8F00BFBFF36F8F00BFFFF7ECFE20
:107EC4004FF01023D3F80032002B05DB4FF01023C2
:107ED400D3F80432002B15DA0120FFF7F9FE4FF036
:107EE40010231222C3F80022FFF7E6FE4FF01023FE
:107EF4001222C3F80422FFF7DFFE0020FFF7E8FE9A
:107F0400FFF726FDFFF7F4FE00BF08BD00C00040E8
:107F14008C5600404881030000F00040E40E00400D
:107F2400580200104096024000ED00E084B0034681
:107F3400ADF806300023039316E00F49039A134665
:107F44009B0013449B000B441B88BDF806209A42F7
:107F540007D1039A13469B0013449B00064A13441B
:107F640006E0039B01330393039B002BE5D000231E
:107F7400184604B0704700BFFC23002082B0019073
:107F84000B46ADF80230019BBDF802201A80019B1C
:107F940000221A72019B054903F10A020B4603CB26
:107FA4001060516000BF02B0704700BF2C24002055
:107FB40082B00190019B4FF6FF721A8000BF02B09D
:107FC400704788B00390029111461A460B46ADF8EB
:107FD40006301346ADF80430039B9B881A46BDF85F
:107FE400063013440793039B9B881946039B9B8885
:107FF400BDF80620934228BF13469BB2CB1A0693C2
:10800400039BDB881A46BDF8043013440593039B95
:10801400DB881946039BDB88BDF80420934228BF04
:1080240013469BB2CB1A0493029B5A88039B1B886A
:108034009A4205D3029B5A88039B5B889A4201D9D2
:1080440000231CE0029B9B881A46069B934205D89A
:10805400029B9B881A46079B934201D200230EE0A1
:10806400029BDB881A46049B934205D8029BDB885B
:108074001A46059B934201D2002300E001231846CF
:1080840008B0704700B583B00190064B9B69002B84
:1080940003D0044B9B690198984700BF03B05DF877
:1080A40004FB00BF1024002000B587B003460091F4
:1080B400ADF80630009B5B7A002B1AD1009B1B7A2B
:1080C400002B03D1164B5B68059302E0144B9B68AD
:1080D4000593009B5B68BDF806200599184604F0DB
:1080E40063F80490049B002B16D00498FFF7CAFF92
:1080F40012E0009B00221A72094B5B69002B0BD023
:1081040001238DF80C30BDF80630ADF80E30044B69
:108114005B6903AA1046984700BF07B05DF804FBEB
:108124001024002000B585B00190019BDB7B8DF805
:108134000F30019B9B88ADF80C309DF80F30012B5C
:108144002CD14FF6FF70FFF7F1FE0290029B002B3B
:1081540003D10420FFF796FF21E0BDF80C30194647
:108164000298FFF70BFF029B03F10A00019B03F146
:1081740010014FF6FF7340F2F312FFF722FF03469C
:108184001A46029B5A72074BDB89002B07D1BDF8B4
:108194000C3002991846FFF787FF00E000BF05B0D6
:1081A4005DF804FB1024002000B587B00190019B0A
:1081B4009B88ADF81630BDF816301846FFF7B6FEAA
:1081C4000490049B002B0ED0049B5B68184604F0BB
:1081D40043F80390039B002B02D00398FFF752FF50
:1081E4000498FFF7E5FE00BF07B05DF804FB00004C
:1081F40000B587B00190019B06330593059B1A884F
:10820400194BDB899A422BD1059B5B89022B27D121
:10821400019B9B88ADF81230BDF812301846FFF769
:1082240085FE0390039B002B1AD0059B0C33184644
:1082340000F0FBF90346002B06D0BDF81230039979
:108244001846FFF731FF0BE0039B5B68184604F008
:1082540003F80290029B002B02D00298FFF712FF52
:1082640000BF07B05DF804FB1024002000B585B002
:108274000190019B9B88ADF80E30BDF80E30184676
:10828400FFF754FE0290029B002B15D0029B03F1D2
:108294000A00019B03F108014FF6FF7340F2F31249
:1082A400FFF78FFE03461A46029B5A72BDF80E3042
:1082B40002991846FFF7F8FE00BF05B05DF804FB0D
:1082C40000B583B001900091019B1B88502B12D004
:1082D400502B18DC122B12D0122B14DC102B02D0D2
:1082E400112B04D00FE00198FFF71CFF0CE001985C
:1082F400FFF75AFF08E00198FFF77AFF04E00198BE
:10830400FFF7B4FF00E000BF00BF03B05DF804FB5B
:1083140030B58FB00190009100230293009B002B95
:108324001AD000230D9314E06B460D99184604F0FF
:1083340095F90346002B09D0029B5A1C02920D9A10
:1083440092B25B0038336B4423F82C2C0D9B013321
:108354000D930D9B132BE7D9019B1D4602AC0FCC4B
:108364000FC50FCC0FC594E8070085E807000198F6
:108374000FB030BD00B583B00346ADF80630BDF88C
:108384000630132B01D900230CE0BDF80630194642
:10839400064804F032F9BDF806301946044804F0E2
:1083A4002CF90123184603B05DF804FB3C2400209B
:1083B4003824002000B585B00346ADF8063000230C
:1083C40003930DE0039B9B00094A13440433BDF857
:1083D40006201146184604F028F9039B0133039341
:1083E400039B1D2BEED900BF00BF05B05DF804FB55
:1083F4003424002000B583B00346ADF80630BDF840
:1084040006301946034804F010F900BF03B05DF8C4
:1084140004FB00BF3C24002030B59BB0184B9B6884
:10842400DB431893164B5A6818AB1146184604F0F0
:1084340074F9189A6B4611461846FFF769FF0DAC9C
:108444006D460FCD0FC40FCD0FC495E8070084E827
:108454000700002319930BE0199B5B0068336B44FE
:1084640033F8303C1846FFF7A5FF199B01331993E5
:108474000D9B199A9A42EFD300BF00BF1BB030BDC9
:108484003424002000B583B001900B46ADF80230CF
:1084940013468DF801309DF80130002B06D0BDF84D
:1084A40002301946019804F0A8F805E0BDF802303E
:1084B4001946019804F0B9F800BF03B05DF804FB55
:1084C40000B585B001900091019B9B88ADF80E30FA
:1084D400019B1B88103B0A2B00F2888001A252F8F2
:1084E40023F000BF1585020051850200F1850200CA
:1084F400F1850200F1850200F1850200F185020098
:10850400F1850200F1850200BB8502005D85020051
:10851400FFF782FFBDF80E301846FFF72BFF034626
:1085240083F00103DBB2002B05D0324AF021042092
:1085340003F016FD57E0019BDB7B022B53D1BDF802
:108544000E3019462C4804F058F84CE0BDF80E30B3
:108554001846FFF74FFF49E0019B1B7AC3F303134F
:10856400DBB28DF80D309DF80D30032B8CBF012349
:108574000023DAB2BDF80E3019462048FFF782FF17
:108584009DF80D30022B8CBF01230023DAB2BDF815
:108594000E3019461A48FFF775FF9DF80D30012B70
:1085A4008CBF01230023DAB2BDF80E3019461548FA
:1085B400FFF768FF1AE0019B1B7A002B15D1019B82
:1085C4005B7AC3F3C003DBB2002B14BF0123002387
:1085D4008DF80C309DF80C20BDF80E301946074874
:1085E400FFF750FF01E000BF00E000BF00BF05B08F
:1085F4005DF804FBC8F40200402400204C24002051
:10860400482400204424002082B00190019B1B7860
:108614001AB2019B01331B781BB21B021BB213431A
:108624001BB29BB2184602B0704700B585B00190EA
:108634000198FFF7E9FF0346ADF80E30BDF80E30A0
:1086440003F00103002B14BF01230023DBB21846FF
:1086540005B05DF804FB000082B003468DF80730D6
:108664009DF90730002B13DB9DF8073003F01F0240
:1086740009499DF907305B09012000FA02F2203311
:1086840041F82320BFF34F8F00BFBFF36F8F00BFAC
:1086940000BF02B0704700BF00E100E0044BD3F814
:1086A4000034002B14BF01230023DBB218467047AB
:1086B4000000014008B505F0C5FF034683F001033F
:1086C400DBB2002B03D109497B2003F019FFFFF72C
:1086D400E5FF034683F00103DBB2002B04D000F076
:1086E4004FFB034B00229A7000BF08BD94F60200B2
:1086F400B024002000B583B000230193184B1B78ED
:10870400002B02D0852301931CE0154B00229A60B4
:10871400134B00225A60124B00221A61104B0022A4
:10872400DA60104800F0F2FA019005F08BFF03467E
:1087340083F00103DBB2002B01D000F00DFB084BEA
:1087440001221A70FFF7AAFF0346002B02D0044B44
:1087540001229A70019B184603B05DF804FB00BF28
:10876400B02400204188020084B00190019B1B6862
:108774000393039B002B03D0039B1A68019B1A608D
:10878400039B184604B0704700B583B0164B1B78A2
:10879400002B04D1154940F2171003F0B1FE124B1F
:1087A400DB68002B04D111494FF48C7003F0A8FE50
:1087B40000238DF807300DF10703184603F006FE79
:1087C400094BDB68013B084AD360074BDB68002B8D
:1087D40001D1FFF76FFF9DF80730184603F00CFE38
:1087E40000BF03B05DF804FBB024002094F602003F
:1087F40000B585B003468DF807309DF80730002B8F
:1088040002D10C4B039301E00B4B03930398FFF746
:10881400ABFF0290029B002B06D0029B5B689DF885
:10882400072010469847F1E700BF00BF05B05DF888
:1088340004FB00BFB8240020C024002000B583B08E
:1088440003468DF807309DF80730002B05D10A4BFD
:1088540001225A700020FFF7CBFF9DF80730012B4F
:1088640005D1054B01229A700120FFF7C1FF00BF1B
:1088740003B05DF804FB00BFB024002000B583B052
:1088840001900091019B002B05D1054B01225A70E8
:108894000020FFF7ADFF00BF03B05DF804FB00BF8D
:1088A400B024002000B585B0034600918DF8073050
:1088B4009DF80730032B29D0032B35DC002B02D085
:1088C400012B04D030E00020FFF7C6FE2DE000238A
:1088D4008DF80F300DF10F03184603F077FD154B9B
:1088E4001B7883F00103DBB2002B01D0FFF702FFFA
:1088F400104BDB6801330F4AD3600E4B01229A7090
:108904009DF80F30184603F077FD0EE0094B1B78F5
:10891400002B04D1084940F2522003F0F1FD00F08D
:108924001BFAFFF731FF00E000BF00BF05B05DF8A0
:1089340004FB00BFB024002094F6020000B589B007
:1089440001900091009B0793019B1B788DF80C30DC
:10895400019B5B680493019B9B68DBB28DF8143028
:10896400019BDB680693074A079B52F823300649AC
:10897400079A51F8221003AA1046984700BF09B07D
:108984005DF804FBC4240020CC24002000B589B089
:1089940001900091009B0793019B1B788DF80C308C
:1089A400019B5B680493019B9B68DBB28DF81430D8
:1089B400019BDB680693074A079B52F8233006495C
:1089C400079A51F8221003AA1046984700BF09B02D
:1089D4005DF804FBC4240020CC24002030B58FB003
:1089E400039002910192039B1B780C932C490C9BDE
:1089F400019A41F82320029B1A692A490C9B41F8E9
:108A040023200C9B012B07D1029B5B7F002B03D1FE
:108A14002549762003F074FD029B5B7F1946234AA7
:108A24000C9B13440A461A70029B04AC1D460FCDDE
:108A34000FC495E80F0084E80F000C9B08930023F3
:108A44000D93039B1B781A46184B9B5C002B0DD08F
:108A5400039B181D019B002B01D0154A00E0002246
:108A640004AB194602F0F8FD0D9014E0039B1B784B
:108A74001A460E4B9B5C002B0DD1039B03F10C009B
:108A8400019B002B01D00B4A00E0002204AB1946E5
:108A940001F05AFF0D900D9B18460FB030BD00BF7A
:108AA400C4240020CC24002000F70200D424002099
:108AB400418902009189020082B003468DF8073093
:108AC4009DF90730002B0CDB9DF8073003F01F02E3
:108AD40005499DF907305B09012000FA02F241F8CB
:108AE400232000BF02B0704700E100E082B00346DB
:108AF40000918DF807309DF90730002B0ADB009BAD
:108B0400DAB20C499DF907305201D2B20B4483F812
:108B140000230BE0009BDAB207499DF8073003F00D
:108B24000F03043B5201D2B20B441A7600BF02B0C9
:108B3400704700BF00E100E000ED00E082B001906A
:108B4400019B1B0B5BB2184602B0704700B583B0A3
:108B540003460A468DF8073013468DF806309DF813
:108B64000630012B03D99DF80630032B0BD99DF851
:108B74000630042B03D99DF80630072B03D9084986
:108B84006B2003F0BDFC9DF806209DF907301146CB
:108B94001846FFF7ABFF00BF03B05DF804FB00BF4E
:108BA4006CF7020000B583B003468DF807309DF9D9
:108BB40007301846FFF780FF00BF03B05DF804FBE1
:108BC40082B003468DF807300F4A9DF90730002B19
:108BD40000DA1F335B115BB252F823209DF9073092
:108BE400594203F01F0301F01F0158BF4B425BB20F
:108BF40022FA03F303F00103002B14BF0123002323
:108C0400DBB2184602B0704700E100E082B0019088
:108C14004FF08042019BC2F8083300BF02B0704796
:108C240082B003468DF807309DF8073003F1804386
:108C340001221A6000BF02B0704784B00346ADF849
:108C44000630BDF8063003F1804300221A60BDF8F7
:108C5400063003F180431B680393039B00BF04B0F9
:108C6400704782B00346ADF80630BDF8063003F114
:108C740080431B68002B14BF01230023DBB218467A
:108C840002B0704782B001904FF08042019BC2F85D
:108C9400183500BF02B070474FF08043D3F8183442
:108CA4001B0C03F00103002B14BF01230023DBB2D0
:108CB4001846704700B583B006238DF807304FF08F
:108CC4008040FFF73BFF03461846FFF779FF034652
:108CD40083F00103DBB2002B13D04FF08040FFF789
:108CE4002DFF03461A469DF8073019461046FFF734
:108CF4002DFF4FF08040FFF721FF03461846FFF792
:108D040051FF00BF03B05DF804FB000000B585B05F
:108D14000190019B002B03D10D49A42003F0F0FB2B
:108D2400002303930B4B1B79002B02D08523039361
:108D340008E0084A019B1360064B01221A71054B97
:108D440000225A71039B184605B05DF804FB00BF6E
:108D5400A4F70200D824002008B5074B1B79002B88
:108D640003D10649BD2003F0CBFBFFF7A3FF01208D
:108D7400FFF788FF00BF08BDD8240020A4F7020035
:108D840008B50D4B1B79002B03D10C49F72003F0D8
:108D9400B7FB0220FFF73AFF4FF48270FFF74DFF55
:108DA4000C20FFF73DFF00BFFFF776FF0346002BC3
:108DB400FAD100BF00BF08BDD8240020A4F70200E8
:108DC40008B54FF48070FFF74CFF0346002B14D016
:108DD4004FF48070FFF731FF0120FFF717FF114BAD
:108DE4005B7983F00103DBB2002B06D00D4B01222B
:108DF4005A710C4B1B68002098474FF48270FFF7A0
:108E040030FF0346002B0AD04FF48270FFF715FFA2
:108E14000220FFF7FBFE034B1B680120984700BFAD
:108E240008BD00BFD824002000B583B00346ADF8C8
:108E34000630BDF80630184600F026F803461B68D5
:108E4400012B0CBF01230023DBB2184603B05DF8ED
:108E540004FB00B585B00346ADF80630BDF8063016
:108E6400184600F011F803461A4600231360BDF8B3
:108E74000630184600F008F803461B680393039B6A
:108E840000BF05B05DF804FB82B00346ADF80630C0
:108E9400BDF8063003F1804303F5C043184602B021
:108EA4007047000082B00190034BD3F80423019B68
:108EB4001340184602B070470060004082B0019031
:108EC400054A019B03F5A27352F823301B0A03F0F1
:108ED4003F03184602B070470060004082B0019022
:108EE400064A019B03F5A27352F823301B0C03F0CE
:108EF4000303DBB2184602B0704700BF00600040B5
:108F040000B583B00190019B1B68184600F0AAF8D5
:108F14000346002B04D10B494FF4F67003F0F0FA2A
:108F2400019B1B681F2B02D84FF0A04306E0019B56
:108F34001B6803F01F02019B1A60034B184603B021
:108F44005DF804FB40F802000003005000B585B052
:108F540001900B468DF8033001AB1846FFF7D0FFA4
:108F64000390019A039B02F5E07253F82230019AB0
:108F740023F44031039B02F5E07243F82210019A76
:108F8400039B02F5E07253F822109DF803301B0492
:108F9400019A1943039B02F5E07243F8221000BFC3
:108FA40005B05DF804FB00B585B0019001AB18462F
:108FB400FFF7A6FF0390019A039B02F5E07253F8B2
:108FC40022301B0C03F00303DBB2184605B05DF836
:108FD40004FB000088B0039002910192164A05AB8D
:108FE40092E8030083E80300039B079319E0079BBF
:108FF4009B0020336B4453F80C3CD3F82025019B91
:109004001A60079B9B0020336B4453F80C3C019A75
:109014001268C3F82025019B04330193079B013395
:109024000793039A029B1344079A9A42DFD300BF23
:1090340000BF08B0704700BF70F8020000B585B0EB
:10904400019001AB1846FFF75BFF0390019B0122DF
:1090540002FA03F31A46039BC3F8202500BF05B0A8
:109064005DF804FB84B00190019B5B09029300232B
:109074000393029B002B03D0029B012B04D007E037
:109084004FF0FF33039303E04FF6FF73039300BFE6
:10909400019B03F01F030193039A019B22FA03F33C
:1090A40003F00103002B14BF01230023DBB2184695
:1090B40004B0704784B001900091009B0393019B1E
:1090C400DB080293019B03F0070301930122019B38
:1090D40002FA03F30399029A0A44127813401846D9
:1090E40004B0704782B00190044A019B13443033AA
:1090F40093F90030184602B0704700BFE024002006
:1091040082B00190034A019B52F82330184602B002
:10911400704700BFE024002084B00190074A019BFF
:109124001344603393F900308DF80F309DF80F30FD
:1091340023F0C003184604B0704700BFE0240020A9
:1091440084B00190074A019B1344603393F90030C3
:109154008DF80F309DF80F309B09DBB2184604B030
:10916400704700BFE024002000B585B00190019A4B
:1091740002210020FFF72EFF002303930BE0039B43
:109184009B00019A13441B68002B01D0012306E0C5
:10919400039B01330393039B012BF0D9002318464F
:1091A40005B05DF804FB000000B587B00190002312
:1091B40005935BE0344A059B1344603393F9003014
:1091C400B3F1FF3F4ED00598FFF7A6FF0490019935
:1091D4000498FFF76FFF0346002B44D00598FFF770
:1091E400AFFF03468DF80F300498FFF7DCFE03460B
:1091F4008DF80E309DF80E30022B01D1032300E0D0
:1092040002238DF80D309DF80D3019460498FFF7B0
:109214009DFE0498FFF712FF0498FFF763FF0346CF
:109224001846FFF76DFF0290029B002B1BD09DF8A0
:109234000F30032B0FD09DF80E30022B03D19DF875
:109244000F30012B07D09DF80E30032B0BD19DF866
:109254000F30022B07D19DF80F20029B1146049872
:10926400984700E000BF059B01330593059B032B42
:10927400A0D90198FFF778FF0346002B97D100BFD0
:1092840000BF07B05DF804FBE024002000B58BB0FC
:109294000023089301AB00221A605A604FF48073D4
:1092A400ADF81A30012309930023079321E0BDF898
:1092B4001A301846FFF7B8FD0346002B0ED0099864
:1092C400FFF7F0FD0346002B08D0BDF81A3018460E
:1092D400FFF7BFFD089A099B13430893099B5B00A2
:1092E4000993BDF81A300433ADF81A30079B0133E3
:1092F4000793079B072BDAD94FF4BE70FFF794FD51
:109304000346002B0DD04FF4BE70FFF7A2FD089B5F
:1093140043F00043089301AB1A4602210020FFF7F3
:1093240059FE089BDBB2002B29D0012309930023AB
:10933400079321E0099A089B1340002B16D0079845
:10934400FFF7BCFD05900798FFF7C8FD03468DF8AD
:1093540013300798FFF7D4FE0390039B002B05D02E
:109364009DF81320039B114605989847099B5B00C1
:109374000993079B01330793079B072BDAD9089BB3
:10938400002B03DA01AB1846FFF70EFF00BF0BB04A
:109394005DF804FB08B5064B1B68002B03D1054997
:1093A400512003F0ADF8024B1B68984708BD00BF7D
:1093B4004C250020F0F8020082B00190019B044A81
:1093C400934201D1034B00E00023184602B07047DA
:1093D400002000404C25002000B587B0019000918A
:1093E400019B002B03D11C49772003F089F80198D5
:1093F400FFF7E2FF0590059B002B25D000238DF895
:10940400133000238DF80B300DF10B03184602F0D6
:10941400DDFF059B1B79002B03D001238DF813304E
:1094240005E0059B009A1A60059B01221A719DF8BC
:109434000B30184602F0E0FF9DF81330002B03D0E8
:1094440011230393039B02E000230393039B184619
:1094540007B05DF804FB00BFF0F8020000B585B06A
:109464000190019B002B03D10A499B2003F048F88B
:109474000198FFF7A1FF0390039B002B05D0039BEA
:1094840000221A60039B00221A7100BF05B05DF828
:1094940004FB00BFF0F8020082B003468DF80730E9
:1094A4009DF90730002B0CDB9DF8073003F01F02F9
:1094B40005499DF907305B09012000FA02F241F8E1
:1094C400232000BF02B0704700E100E082B00346F1
:1094D40000918DF807309DF90730002B0ADB009BC3
:1094E400DAB20C499DF907305201D2B20B4483F829
:1094F40000230BE0009BDAB207499DF8073003F024
:109504000F03043B5201D2B20B441A7600BF02B0DF
:10951400704700BF00E100E000ED00E082B0019080
:10952400019B1B0B5BB2184602B0704700B583B0B9
:1095340003460A468DF8073013468DF806309DF829
:109544000630012B03D99DF80630032B0BD99DF867
:109554000630042B03D99DF80630072B03D908499C
:109564006B2002F0CDFF9DF806209DF907301146CF
:109574001846FFF7ABFF00BF03B05DF804FB00BF64
:109584005CF9020000B583B003468DF807309DF9FD
:1095940007301846FFF780FF00BF03B05DF804FBF7
:1095A40082B001900B468DF803309DF80330019A88
:1095B400134401221A6000BF02B0704784B00190C6
:1095C4000B46ADF80230BDF80230019A1344002274
:1095D4001A60BDF80230019A13441B680393039B7D
:1095E40000BF04B0704782B001900B46ADF8023062
:1095F400BDF80230019A13441B68002B14BF0123E9
:109604000023DBB2184602B0704782B0019000918B
:10961400019B009AC3F8042300BF02B0704782B0D4
:1096240001900091019B009AC3F8082300BF02B087
:10963400704782B00190019B0522C3F8002500BF4A
:1096440002B0704782B00190019B0022C3F800254C
:1096540000BF02B0704784B0039002910192039B53
:10966400029AC3F80825039B019AC3F80C2500BF8E
:1096740004B0704782B001900091019B009AC3F836
:10968400242500BF02B0704784B00190019BD3F839
:10969400C4340393019B039AC3F8C424039B184660
:1096A40004B0704782B001900B468DF803309DF8EA
:1096B4000320019BC3F8882500BF02B0704782B025
:1096C4000190019BD3F81835DBB2184602B07047FD
:1096D40082B001900B468DF803309DF80320019B66
:1096E400C3F81C2500BF02B0704782B001900091FE
:1096F400019B009AC3F8002200BF02B0704700002B
:1097040000B583B00190019B1B68184600F04FF828
:109714000346002B04D10B494FF4F67002F0F0FE1F
:10972400019B1B681F2B02D84FF0A04306E0019B4E
:109734001B6803F01F02019B1A60034B184603B019
:109744005DF804FB8CF902000003005000B585B0FD
:109754000190084611461A4603468DF803300B461D
:109764008DF8023013468DF8013001AB1846FFF72F
:10977400C7FF03909DF803209DF802305B001A4355
:109784009DF801309B001A439DF818301B0242EAF1
:1097940003019DF81C301B04019A1943039B02F535
:1097A400E07243F8221000BF05B05DF804FB84B0FA
:1097B4000190019B5B09029300230393029B002BFE
:1097C40003D0029B012B04D007E04FF0FF33039337
:1097D40003E04FF6FF73039300BF019B03F01F03E5
:1097E4000193039A019B22FA03F303F00103002B74
:1097F40014BF01230023DBB2184604B0704784B0C1
:10980400019003230393019B03F00103002B02D077
:109814004FF402430393019B03F00203002B02D095
:1098240048F201230393019B03F00403002B02D0AD
:1098340048F202230393039B184604B0704700B513
:1098440083B001900091009B5A6B009B9B6A9A42E3
:1098540007D00198FFF7F6FE0198FFF7EAFE002310
:1098640000E00123184603B05DF804FB00B58BB09B
:109874000590049103920293049B002B03D14D495C
:10988400A82002F03DFE049B1A68049B5B689A4280
:1098940003D14849A92002F033FE059B1B791A46DF
:1098A40013461B019B1A9B00434A13440893089BCD
:1098B40093F82E30002B03D008230793079B74E002
:1098C400059B1A68059B1B7919463C4B53F82130BC
:1098D40019461046FFF780FD0346002B03D01123E1
:1098E4000793079B61E0089B039A1A60089B029AFE
:1098F4005A60089B00229A60089B002283F82D205E
:10990400089B002283F83120089B002283F8302032
:10991400049B5A7B089B83F83820049B1868002317
:10992400019306230093032300220021FFF70EFF77
:10993400049B586800230193062300930323002209
:109944000021FFF703FF059B1B680993049B19681B
:10995400049B5B681A460998FFF77DFE049B9B688D
:1099640019460998FFF786FE089B1B68002B15D043
:10997400059B1B681846FFF7D1FD03461A46049B56
:109984001B7B19461046FFF7D1FD059B1B68184643
:10999400FFF7C4FD03461846FFF7F4FD089B0122B8
:1099A40083F82E2000230793079B18460BB05DF81D
:1099B40004FB00BFC0F902005425002028FA02006D
:1099C40000B585B00190019B1B791A4613461B0113
:1099D4009B1A9B000D4A13440393039B93F82E3068
:1099E400012B04D00A494FF4847002F089FD019BD5
:1099F4001B6802930298FFF71CFE039B022283F864
:109A04002E2000BF05B05DF804FB00BF54250020E4
:109A1400C0F9020000B583B001900091009B5A6B1D
:109A2400009B9B6A9A420AD2009B5A6A009B5B6B1A
:109A340013441B7819460198FFF74AFE1EE0009B69
:109A440093F82C30002B05D01C210198FFF7A8FDBA
:109A5400002314E0009B1B6A03F04003002B09D091
:109A64001C210198FFF79CFD009B012283F82D2007
:109A7400002304E014210198FFF792FD0123184606
:109A840003B05DF804FB10B582B001900091009B17
:109A94005A6B009B9B6A9A4244D2009B5A6A009B71
:109AA4005B6BD4180198FFF70AFE03462370009BF2
:109AB4005B6B5A1C009B5A63009B5A6B009B9B6A0E
:109AC400013B9A420AD1009B1B6A03F04003002B1E
:109AD40004D102210198FFF708FE1FE0009B5A6B96
:109AE400009B9B6A9A4207D1009B1B6A03F04003C8
:109AF400002B01D1012316E0009B5A6B009B9B6A4B
:109B04009A420BD1009B1B6A03F04003002B05D043
:109B1400009B022283F82D20002304E020210198D9
:109B2400FFF73EFD0123184602B010BD00B585B015
:109B34000190009100238DF80F304FF48271019849
:109B4400FFF751FD0346002B07D04FF482710198B3
:109B5400FFF734FD01238DF80F30009B93F82F306D
:109B6400002B0FD04FF492710198FFF727FD4FF4AB
:109B74008E710198FFF722FD4FF484710198FFF76D
:109B84001DFD78E04FF492710198FFF72CFD034618
:109B9400002B0DD04FF492710198FFF70FFD1421A3
:109BA4000198FFF7FDFC009B012283F82F2062E05F
:109BB4004FF48E710198FFF716FD0346002B2BD04E
:109BC4004FF48E710198FFF7F9FC009B5B6B5A1CF4
:109BD400009B5A634FF492710198FFF704FD03460A
:109BE400002B0DD04FF492710198FFF7E7FC14217C
:109BF4000198FFF7D5FC009B012283F82F203AE05F
:109C040000990198FFF706FF034683F00103DBB2D6
:109C1400002B30D0002354E04FF484710198FFF7F7
:109C2400E2FC0346002B26D04FF484710198FFF721
:109C3400C5FC4FF492710198FFF7D5FC0346002B45
:109C44000DD04FF492710198FFF7B8FC14210198DC
:109C5400FFF7A6FC009B012283F82F200BE000995C
:109C64000198FFF710FF034683F00103DBB2002BDA
:109C740001D0002325E09DF80F30002B20D0009B5D
:109C8400002283F82D20009B93F82F3083F00103EA
:109C9400DBB2002B12D000990198FFF7D0FD0346E8
:109CA400002B14BF01230023DBB283F00103DBB2DA
:109CB40003F00103DAB2009B83F82F20002300E0B5
:109CC4000123184605B05DF804FB000000B587B019
:109CD4000190009100230593384B03934FF4827154
:109CE4000198FFF76BFC4FF492710198FFF766FC43
:109CF4004FF48E710198FFF761FC4FF48471019861
:109D0400FFF75CFC00210198FFF7EFFC009B0022A9
:109D14005A63009B002283F82F2020210198FFF72B
:109D24003FFC009B93F82D30012B03D008210198B0
:109D3400FFF736FC00990198FFF76CFE009B1B6847
:109D4400002B0DD0009B40F286229A60009B9B68FA
:109D540019460198FFF759FC2AE0039B013B039342
:109D6400039B002B06DD00990198FFF7DFFE0346F5
:109D7400002BF2D1009B93F82F30002B0DD00198CB
:109D8400FFF782FC0490049B002B04D00498FFF797
:109D940036FD059001E003230593039B002B07DCAC
:109DA4000198FFF74FFC0198FFF743FC0323059349
:109DB400059B184607B05DF804FB00BFA0860100B0
:109DC40000B587B001900091002305933D4B0393A8
:109DD4004FF482710198FFF7F1FB4FF492710198EF
:109DE400FFF7ECFB4FF48E710198FFF7E7FB4FF49C
:109DF40084710198FFF7E2FB009B00225A63009BE9
:109E0400002283F82F20009B9B6A012B0AD1009B20
:109E14001B6A03F04003002B04D102210198FFF7D1
:109E240064FC03E001210198FFF75FFC2021019805
:109E3400FFF7B6FB009B93F82D30022B03D00021D3
:109E44000198FFF7ADFB009B1B68002B0DD0009B16
:109E540040F286229A60009B9B6819460198FFF79E
:109E6400D4FB2AE0039B013B0393039B002B06DDF9
:109E740000990198FFF75AFE0346002BF2D1009B8C
:109E840093F82F30002B0DD00198FFF7FDFB0490C1
:109E9400049B002B04D00498FFF7B1FC059001E06B
:109EA40003230593039B002B07DC0198FFF7CAFBF0
:109EB4000198FFF7BEFB03230593059B184607B0E3
:109EC4005DF804FBA086010030B587B003900291D1
:109ED4000192009300230593029B93F82D30012BEC
:109EE40005D1019B1B78012B01D108236DE0029B56
:109EF40093F82D30022B05D1019B1B78012B01D047
:109F0400082362E032490398FFF789FB029B93F828
:109F14003030DBB2002B09D0029B9B6819460398B2
:109F2400FFF773FB11230593059B4EE0009B03F0A1
:109F34000403002B0CBF01230023DAB2029B83F835
:109F44003020029B009A1A62029B019A03F10C04CE
:109F540015460FCD0FC42B682360019B5A68029BE2
:109F64009A62019BDA68029B5A62019B5B781946EC
:109F74000398FFF797FB019B1B78012B17D0019BDC
:109F84001B78002B04D1009B03F02003002B01D08D
:109F9400012300E0002303F00103DAB2029B83F8FB
:109FA4002C2002990398FFF791FE059004E0029992
:109FB4000398FFF705FF0590029B1B68002B03D154
:109FC400029B002283F83020059B184607B030BD61
:109FD4008642040000B587B00390029101920023E9
:109FE4000593039B1B791A4613461B019B1A9B007E
:109FF400144A13440493049B1B68002B08D1029B4E
:10A004001B78022B04D110494FF4217002F078FA26
:10A01400049B1B68002B08D1029B1B78032B04D1E3
:10A02400094940F2852002F06BFA039B1868019BF2
:10A03400029A0499FFF748FF0590059B184607B05C
:10A044005DF804FB54250020C0F9020000B58BB074
:10A054000390019200930B468DF80B3000238DF88A
:10A0640014309DF80B308DF81530009B06930023B7
:10A074000793019B0893002309939DF83030002B2C
:10A0840001D0202200E0002205AB19460398FFF717
:10A09400A1FF034618460BB05DF804FB00B58BB076
:10A0A4000390019200930B468DF80B3001238DF839
:10A0B40014309DF80B308DF81530009B0693002367
:10A0C4000793019B08930023099305AB00221946CB
:10A0D4000398FFF77FFF034618460BB05DF804FBB7
:10A0E40030B58BB001900091009B1B68002B04D10C
:10A0F4004A494FF42E7002F003FA00990198FFF7D1
:10A1040015FD0346002B40F08680009B93F82F300A
:10A1140083F00103DBB2002B33D0009B1B7B022BAB
:10A1240003D0009B1B7B032B2BD1009B5A6A009B03
:10A134009B699A4225D1009BDA69009B5A62009B75
:10A144005A69009B9A62009B1B6A03F02003002B50
:10A1540014BF01230023DAB2009B83F82C20009B58
:10A16400002283F82D20009B1B7B032B04D1009934
:10A174000198FFF7ABFD4FE000990198FFF720FE2F
:10A184004AE0009B04AC03F10C050FCD0FC42B680F
:10A194002360009B93F82F30002B22D00198FFF707
:10A1A40073FA0990099B03F00203002B03D00123E7
:10A1B4008DF80C3018E0099B03F00403002B03D046
:10A1C40002238DF80C300FE0099B03F00103002BF0
:10A1D40003D003238DF80C3006E004238DF80C30F3
:10A1E40002E000238DF80C30009B002283F830201D
:10A1F400009B1B6A03F00403002B04D0009B93F81C
:10A204002F30002B08D0009B1B68009A516803AACA
:10A214001046984700E000BF0BB030BDC0F9020003
:10A2240008B503490348FFF75BFF00BF08BD00BF43
:10A23400542500200030004082B003468DF80730DA
:10A244009DF90730002B0CDB9DF8073003F01F024B
:10A2540005499DF907305B09012000FA02F241F833
:10A26400232000BF02B0704700E100E082B0034643
:10A274008DF807309DF90730002B13DB9DF807306C
:10A2840003F01F0209499DF907305B09012000FA18
:10A2940002F2203341F82320BFF34F8F00BFBFF3F6
:10A2A4006F8F00BF00BF02B0704700BF00E100E045
:10A2B40082B0034600918DF807309DF90730002BDA
:10A2C4000ADB009BDAB20C499DF907305201D2B285
:10A2D4000B4483F800230BE0009BDAB207499DF896
:10A2E400073003F00F03043B5201D2B20B441A7639
:10A2F40000BF02B0704700BF00E100E000ED00E0E5
:10A3040082B00190019B1B0B5BB2184602B07047F0
:10A3140000B583B003460A468DF8073013468DF81E
:10A3240006309DF80630012B03D99DF80630032B27
:10A334000BD99DF80630042B03D99DF80630072B62
:10A3440003D908496B2002F0DBF89DF806209DF93B
:10A35400073011461846FFF7ABFF00BF03B05DF8A6
:10A3640004FB00BF2CFA020000B583B003468DF84D
:10A3740007309DF907301846FFF75EFF00BF03B0B2
:10A384005DF804FB00B583B003468DF807309DF9F2
:10A3940007301846FFF76AFF00BF03B05DF804FBFF
:10A3A40084B001900B46ADF80230BDF80230019A3A
:10A3B400134400221A60BDF80230019A13441B684A
:10A3C4000393039B00BF04B0704782B001900B4617
:10A3D400ADF80230BDF80230019A13441B68002B1B
:10A3E40014BF01230023DBB2184602B0704782B0C9
:10A3F40001900091019B009AC3F8042300BF02B0AE
:10A40400704782B001900091019BD3F80423009B14
:10A414001340002B14BF01230023DBB2184602B003
:10A42400704782B001900091019B009AC3F8082301
:10A4340000BF02B0704784B00190019BD3F8803410
:10A444000393019B039AC3F88024039B184604B02A
:10A45400704782B00190019B0422C3F8002500BF1D
:10A4640002B0704782B00190019B0022C3F800251E
:10A4740000BF02B0704784B0039002910192039B25
:10A48400019AC3F81425039B029AC3F80C2500BF54
:10A4940004B0704700B583B001904FF0FF324FF025
:10A4A400FF310198FFF7E7FF00BF03B05DF804FB3D
:10A4B40082B00190019BD3F80C35184602B0704766
:10A4C40082B00190019BD3F81435184602B070474E
:10A4D40082B00190019BD3F80835184602B070474A
:10A4E40082B00190019BD3F81035184602B0704732
:10A4F40084B0039002910192039B029AC3F8082549
:10A50400039B019AC3F8102500BF04B0704700B53F
:10A5140083B001904FF0FF324FF0FF310198FFF705
:10A52400E7FF00BF03B05DF804FB82B00190019B1C
:10A53400D3F81835DBB2184602B0704782B00190E8
:10A544000B468DF803309DF80320019BC3F81C25AE
:10A5540000BF02B0704782B001900B468DF8033003
:10A564009DF80330019A134401221A6000BF02B01F
:10A57400704782B001900B468DF8033013468DF876
:10A5840002309DF803209DF802301343DBB21A46D3
:10A59400019BC3F86C2500BF02B0704782B00190E4
:10A5A4000091019B009AC3F8242500BF02B07047B4
:10A5B40000B583B00190019B1B68184600F0A4F815
:10A5C4000346002B04D10B494FF4F67001F098FFB9
:10A5D400019B1B681F2B02D84FF0A04306E0019B90
:10A5E4001B6803F01F02019B1A60034B184603B05B
:10A5F4005DF804FB5CFA02000003005000B585B06E
:10A604000190084611461A4603468DF803300B465E
:10A614008DF8023013468DF8013001AB1846FFF770
:10A62400C7FF03909DF803209DF802305B001A4396
:10A634009DF801309B001A439DF818301B0242EA32
:10A6440003019DF81C301B04019A1943039B02F576
:10A65400E07243F8221000BF05B05DF804FB00B5BA
:10A6640085B003900023019300230093002301226B
:10A6740001210398FFF7C2FF00BF05B05DF804FB9A
:10A6840000B585B003900B468DF80B309DF80B3068
:10A694000022019200220092002200210398FFF779
:10A6A400ADFF00BF05B05DF804FB00B585B00390B5
:10A6B4000023019300230093002301220021039827
:10A6C400FFF79CFF00BF05B05DF804FB00B585B043
:10A6D400019001AB1846FFF76BFF0390019B012229
:10A6E40002FA03F31946039800F004F800BF05B01A
:10A6F4005DF804FB82B001900091019B009AC3F8BD
:10A70400082500BF02B0704784B00190019B5B092B
:10A71400029300230393029B002B03D0029B012B83
:10A7240004D007E04FF0FF33039303E04FF6FF73C9
:10A73400039300BF019B03F01F030193039A019B42
:10A7440022FA03F303F00103002B14BF01230023B7
:10A75400DBB2184604B0704700B583B00190009195
:10A76400009B1B68B3F1FF3F09D0009B1B68184690
:10A77400FFF7ACFF009B1B681846FFF770FF009BB8
:10A784005B68B3F1FF3F05D0009B5B68002118466E
:10A79400FFF776FF019B1A68009B9B6919461046D8
:10A7A400FFF7FCFE019B1868009B597D009B1B7DF5
:10A7B4001A46FFF7DEFE019B1868009B1968009B90
:10A7C4005B681A46FFF757FE009B1B7D012B22D1C5
:10A7D400009B9B68B3F1FF3F05D0009B9B68002161
:10A7E4001846FFF74DFF009BDB68B3F1FF3F09D02C
:10A7F400009BDB681846FFF769FF009BDB6818467F
:10A80400FFF72DFF019B1868009BD968009B9B688C
:10A814001A46FFF76DFE00BF03B05DF804FB0000AD
:10A8240000B583B001900B468DF80330019B1B6883
:10A834004FF48E711846FFF7B3FD019B1B684FF46C
:10A84400A2711846FFF7ACFD019B1B680E49184620
:10A85400FFF7CDFD019B1B681846FFF751FD03462A
:10A864001A469DF8033019461046FFF751FD019B27
:10A874001B681846FFF744FD03461846FFF774FDAE
:10A8840000BF03B05DF804FB8000020000B583B094
:10A894000190019B1B6808491846FFF7C2FD019B04
:10A8A4001B681846FFF72CFD03461846FFF76AFDA0
:10A8B40000BF03B05DF804FB8402020000B587B05A
:10A8C4000190019B1B681846FFF7F2FD0590019B60
:10A8D4001B681846FFF7F4FD0490019B1B6818469B
:10A8E400FFF7F6FD0390019B1B681846FFF7F8FD80
:10A8F4000290019B1B681846FFF7CCFD019B1B6867
:10A904001846FFF704FE059BB3F1FF3F02D00598FC
:10A91400FFF7CBFE049BB3F1FF3F02D00498FFF78F
:10A92400C4FE029BB3F1FF3F02D00298FFF7BDFEC5
:10A93400039BB3F1FF3F02D00398FFF7B6FE00BFBD
:10A9440007B05DF804FB000000B587B003900291E6
:10A954000192029B002B03D12D49AA2001F0D0FDC6
:10A96400039B1B791A462C2302FB03F3294A134445
:10A97400049300230593049B93F82A30002B03D0FF
:10A9840008230593059B3EE0039B1A68039B1B79F0
:10A994001946214B53F8213019461046FEF71CFD89
:10A9A4000346002B03D011230593059B2BE002994A
:10A9B4000398FFF7D1FE049B019A5A60029B1A691F
:10A9C400049B1A60049B5B68002B05D0029B1B7FD1
:10A9D40019460398FFF724FF039B1B681846FFF7EB
:10A9E40038FD049B00229A61049B0022DA61049BD7
:10A9F400002283F82920049B00225A61049B01222F
:10AA040083F82A20059B184607B05DF804FB00BFB5
:10AA140094FA02009025002000FB020000B585B0E6
:10AA24000190019B1B791A462C2302FB03F3114A64
:10AA340013440393019B1B681846FFF713FD039B04
:10AA44005B68002B02D00198FFF720FF0198FFF705
:10AA540035FF019B1B681846FEF700FD039B00228F
:10AA640083F82A20039B00225A6000BF05B05DF8DA
:10AA740004FB00BF9025002000B585B00190009133
:10AA84004FF48E710198FFF78BFC009B9A68009B32
:10AA94001B6A13441B788DF80F30009B1B6A5A1CE9
:10AAA400009B1A629DF80F3019460198FFF746FD86
:10AAB40000BF05B05DF804FB00B585B001900091BE
:10AAC400009B5B69039316E0009B93F82830DBB28C
:10AAD400002B01D0002314E04FF48E710198FFF78E
:10AAE40074FC034683F00103DBB2002BECD1009924
:10AAF4000198FFF7C1FF009B1B6A039A9A42EBD8A7
:10AB04000123184605B05DF804FB000000B587B0CA
:10AB1400039002910192039B1B791A462C2302FB9A
:10AB240003F33C4A13440493049B93F82A30012B07
:10AB340004D039494FF48C7001F0E2FC029B002BE5
:10AB440004D1354940F2191001F0DAFC019B002BC5
:10AB540004D131494FF48D7001F0D2FC039800F018
:10AB64005DF80346002B03D011230593059B4CE0AD
:10AB7400049B019A5A61049B029A9A60049B0022E6
:10AB84001A62049B002283F8282000230593039B68
:10AB94001B684FF48E711846FFF702FC039B1B6879
:10ABA40008211846FFF7D7FC039B1B680499184635
:10ABB400FFF762FF049B5B68002B25D1039B1B6896
:10ABC40004991846FFF778FF034683F00103DBB2CC
:10ABD400002B02D00F23059313E000BF039B1B68D7
:10ABE4004FF48E711846FFF7F0FB034683F0010320
:10ABF400DBB2002BF2D1039B1B680C211846FFF734
:10AC0400AAFC049B00225A61059B184607B05DF814
:10AC140004FB00BF9025002094FA020082B001904A
:10AC2400019B1B791946074A2C2301FB03F31344A8
:10AC340014331B68002B14BF01230023DBB2184616
:10AC440002B070479025002010B582B001900091A9
:10AC5400009B9B69002B08D14FF484710198FFF786
:10AC64009FFB0198FFF761FC13E04FF48471019896
:10AC7400FFF796FB009BDA68009B5B6AD418019887
:10AC8400FFF753FC03462370009B5B6A5A1C009B2E
:10AC94005A6202B010BD00B589B0039002910192CE
:10ACA40001238DF81030029B0693019B0593039BAF
:10ACB4005B68039A116804AA1046984700BF09B05C
:10ACC4005DF804FB00B587B00190009100238DF876
:10ACD4000830009B0493019B9B680393019B002213
:10ACE4005A61019B5B68019A116802AA1046984751
:10ACF40000BF07B05DF804FB00B58BB00190009174
:10AD04004FF400710198FFF77CFB0346002B39D008
:10AD14004FF492710198FFF758FB0346002B31D092
:10AD24004FF492710198FFF73BFB4FF401710198C6
:10AD3400FFF777FB009B93F8293083F00103DBB224
:10AD4400002B03D004210198FFF705FC02238DF8A2
:10AD54000C300198FFF76FFB03460693009B9B6939
:10AD64000593009BDB680493009B00229A61009B7F
:10AD74000022DA61009B5B68009A116803AA1046FE
:10AD8400984752E004210198FFF73BFB0346002B50
:10AD94004BD04FF484710198FFF717FB0346002B47
:10ADA40043D000990198FFF74FFF009B9A69009BDD
:10ADB4005B6A9A4239D1009BDB69002B19D0009B56
:10ADC400DB680993009B5B6A0893009BDA69009B2C
:10ADD4009A61009B1A69009BDA60009B0022DA6189
:10ADE400009B00225A62099A08990098FFF753FFC2
:10ADF4001BE0009B93F8293083F00103DBB2002BA6
:10AE040003D004210198FFF7A6FB4FF401710198C8
:10AE1400FFF707FB009B00229A61009B596A009B85
:10AE2400DB681A460098FFF736FF4FF48E710198DD
:10AE3400FFF7CBFA0346002B24D0009B5B690793F2
:10AE4400009B1B6A079A9A420DD9009B93F82830FD
:10AE5400DBB283F00103DBB2002B04D0009901982C
:10AE6400FFF70AFE0EE04FF48E710198FFF798FA8F
:10AE7400009B5B69002B05D0009B5B691946009819
:10AE8400FFF720FF4FF4A2710198FFF79EFA0346E3
:10AE9400002B1CD04FF4A2710198FFF781FA009B9C
:10AEA40093F82930002B03D000210198FFF753FBBE
:10AEB400009B9B69002B0AD0009B00229A61009B97
:10AEC400596A009BDB681A460098FFF7E4FE00BF4E
:10AED4000BB05DF804FB000008B503490348FFF715
:10AEE4000BFF00BF08BD00BF9025002000200040DC
:10AEF40082B003468DF807309DF90730002B0CDB38
:10AF04009DF8073003F01F0205499DF907305B09DE
:10AF1400012000FA02F241F8232000BF02B070477A
:10AF240000E100E082B003468DF807309DF9073058
:10AF3400002B13DB9DF8073003F01F0209499DF92C
:10AF440007305B09012000FA02F2203341F8232084
:10AF5400BFF34F8F00BFBFF36F8F00BF00BF02B0BE
:10AF6400704700BF00E100E082B0034600918DF815
:10AF740007309DF90730002B0ADB009BDAB20C493D
:10AF84009DF907305201D2B20B4483F800230BE041
:10AF9400009BDAB207499DF8073003F00F03043B26
:10AFA4005201D2B20B441A7600BF02B0704700BF00
:10AFB40000E100E000ED00E082B00190019B03F0AD
:10AFC4006043B3F1005F0CBF01230023DBB21846DA
:10AFD40002B0704782B00190019B1B0B5BB2184614
:10AFE40002B0704700B583B003460A468DF80730B7
:10AFF40013468DF806309DF80630012B03D99DF8D1
:10B004000630032B0BD99DF80630042B03D99DF889
:10B014000630072B03D908496B2001F071FA9DF81B
:10B0240006209DF9073011461846FFF79DFF00BF23
:10B0340003B05DF804FB00BF04FB020000B583B05D
:10B0440003468DF807309DF907301846FFF750FF87
:10B0540000BF03B05DF804FB00B583B003468DF870
:10B0640007309DF907301846FFF75CFF00BF03B0B7
:10B074005DF804FB84B001900B46ADF80230BDF8D6
:10B084000230019A134400221A60BDF80230019A7A
:10B0940013441B680393039B00BF04B0704782B042
:10B0A40001900B46ADF80230BDF80230019A13440A
:10B0B4001B68002B14BF01230023DBB2184602B027
:10B0C400704782B001900091019BD3F80022009B4D
:10B0D400DB431A40019BC3F8002200BF02B0704753
:10B0E40082B001900091019B009AC3F8042300BF31
:10B0F40002B0704782B001900091019B009AC3F89E
:10B10400082300BF02B0704784B00190019BD3F8BC
:10B1140080340393019B039AC3F88024039B18464D
:10B1240004B0704782B00190019B0822C3F8002547
:10B1340000BF02B0704782B00190019B0022C3F8A7
:10B14400002500BF02B0704784B0039002910192C1
:10B15400039B029AC3F80C25039B019AC3F8142598
:10B1640000BF04B0704700B583B001904FF0FF32C8
:10B174004FF0FF310198FFF7E7FF00BF03B05DF820
:10B1840004FB82B00190019BD3F80C35184602B041
:10B19400704782B00190019BD3F81435184602B071
:10B1A400704782B00190019BD3F80835184602B06D
:10B1B400704782B00190019BD3F81035184602B055
:10B1C400704784B0039002910192039B029AC3F8E2
:10B1D4000825039B019AC3F8102500BF04B07047EB
:10B1E40000B583B001904FF0FF324FF0FF3101986A
:10B1F400FFF7E7FF00BF03B05DF804FB82B00190E6
:10B204000B468DF803309DF80330019A1344012254
:10B214001A6000BF02B0704782B001900B468DF8EF
:10B22400033013468DF802309DF803209DF8023058
:10B234001343DBB21A46019BC3F86C2500BF02B06E
:10B24400704782B001900091019B009AC3F82425B5
:10B2540000BF02B0704784B0039002910192029A39
:10B26400039BC3F84425039B019AC3F8482500BFF8
:10B2740004B0704782B00190019BD3F84C35184656
:10B2840002B0704782B00190019BD3F83C35184658
:10B2940002B0704700B583B00190019B1B6818464B
:10B2A40000F0A4F80346002B04D10B494FF4F670C8
:10B2B40001F026F9019B1B681F2B02D84FF0A04315
:10B2C40006E0019B1B6803F01F02019B1A60034BFD
:10B2D400184603B05DF804FB34FB02000003005081
:10B2E40000B585B00190084611461A4603468DF80C
:10B2F40003300B468DF8023013468DF8013001AB54
:10B304001846FFF7C7FF03909DF803209DF802300D
:10B314005B001A439DF801309B001A439DF81830D6
:10B324001B0242EA03019DF81C301B04019A1943D5
:10B33400039B02F5E07243F8221000BF05B05DF8EC
:10B3440004FB00B585B00390002301930023009310
:10B354000023012201210398FFF7C2FF00BF05B0BB
:10B364005DF804FB00B585B003900B468DF80B30F7
:10B374009DF80B300022019200220092002200214D
:10B384000398FFF7ADFF00BF05B05DF804FB00B5FF
:10B3940085B003900023019300230093002301222E
:10B3A40000210398FFF79CFF00BF05B05DF804FB84
:10B3B40000B585B0019001AB1846FFF76BFF039011
:10B3C400019B012202FA03F31946039800F004F8E2
:10B3D40000BF05B05DF804FB82B001900091019BB1
:10B3E400009AC3F8082500BF02B0704784B00190EA
:10B3F400019B5B09029300230393029B002B03D060
:10B40400029B012B04D007E04FF0FF33039303E0CA
:10B414004FF6FF73039300BF019B03F01F030193D7
:10B42400039A019B22FA03F303F00103002B14BFD8
:10B4340001230023DBB2184604B0704700B583B083
:10B4440001900091009B1B68B3F1FF3F09D0009B62
:10B454001B681846FFF7ACFF009B1B681846FFF7F4
:10B4640070FF009B5B68B3F1FF3F05D0009B5B68F6
:10B4740000211846FFF776FF019B1A68009B9B6921
:10B4840019461046FFF7DDFE019B1868009B597DA5
:10B49400009B1B7D1A46FFF7BFFE019B1868009BAB
:10B4A4001968009B5B681A46FFF74EFE009B1B7DE4
:10B4B400012B22D1009B9B68B3F1FF3F05D0009B79
:10B4C4009B6800211846FFF74DFF009BDB68B3F132
:10B4D400FF3F09D0009BDB681846FFF769FF009B1C
:10B4E400DB681846FFF72DFF019B1868009BD9689D
:10B4F400009B9B681A46FFF764FE00BF03B05DF82B
:10B5040004FB000000B583B001900B468DF80330B6
:10B51400019B1B684FF488711846FFF7ABFD019B34
:10B524001B684FF490711846FFF7A4FD019B1B683C
:10B534004FF492711846FFF79DFD019B1B684FF471
:10B54400A2711846FFF796FD019B1B684FF4AC717E
:10B554001846FFF78FFD019B1B680F491846FFF73C
:10B56400BFFD019B1B681846FFF734FD03461A46CE
:10B574009DF8033019461046FFF734FD019B1B6804
:10B584001846FFF727FD03461846FFF757FD00BF8F
:10B5940003B05DF804FB00BF1003420000B583B0A4
:10B5A4000190019B1B6808491846FFF7A3FD019B06
:10B5B4001B681846FFF70EFD03461846FFF74CFDBF
:10B5C40000BF03B05DF804FB1003420000B587B070
:10B5D4000190019B1B681846FFF7D3FD0590019B62
:10B5E4001B681846FFF7D5FD0490019B1B6818469D
:10B5F400FFF7D7FD0390019B1B681846FFF7D9FDA1
:10B604000290019B1B681846FFF7ADFD019B1B6868
:10B614001846FFF7E5FD059BB3F1FF3F02D00598FF
:10B62400FFF7B5FE049BB3F1FF3F02D00498FFF788
:10B63400AEFE029BB3F1FF3F02D00298FFF7A7FED4
:10B64400039BB3F1FF3F02D00398FFF7A0FE00BFB6
:10B6540007B05DF804FB000000B587B003900291C9
:10B664000192029B002B03D12B49CF2000F048FF0D
:10B67400039B1B791A461346DB0013449B00274A9D
:10B684001344049300230593049B93F82030002B68
:10B6940003D008230593059B3AE0039B1A68039B98
:10B6A4001B7919461E4B53F8213019461046FDF7F5
:10B6B40093FE0346002B03D011230593059B27E03B
:10B6C40002990398FFF7BAFE049B019A5A60029B01
:10B6D4001A69049B1A60049B5B68002B05D0029BCB
:10B6E4001B7F19460398FFF70DFF039B1B68184641
:10B6F400FFF718FD049B00229A61049B0022DA6183
:10B70400049B00225A61049B012283F82020059B9C
:10B71400184607B05DF804FB6CFB0200BC25002052
:10B72400D8FB020000B585B00190019B1B791A4635
:10B734001346DB0013449B002A4A13440393019BE2
:10B744001B680293039B5B68002B02D00198FFF7F0
:10B7540025FF20210298FFF7B4FC039B9B69002B73
:10B7640008D04FF4A2710298FFF784FC04210298D8
:10B77400FFF744FD4FF4AC710298FFF77BFC0C21FA
:10B784000298FFF73BFD00BF4FF4AC710298FFF73E
:10B7940086FC034683F00103DBB2002BF4D1039B48
:10B7A4009B69002B0AD04FF4A2710298FFF777FC33
:10B7B400034683F00103DBB2002BE5D10298FFF7C7
:10B7C400BAFC0198FFF702FF0298FDF747FE039BBE
:10B7D400002283F82020039B00225A6000BF05B09A
:10B7E4005DF804FBBC25002000B589B003900291EC
:10B7F4000192039B1B791A461346DB0013449B00FA
:10B80400574A13440593059B93F82030012B04D029
:10B81400544940F2531000F073FE029B002B04D1F4
:10B8240050494FF4AA7000F06BFE019B002B04D129
:10B834004C4940F2551000F063FE039B1B79002B2A
:10B8440003D1019BB3F5803F04D346494FF4AB7059
:10B8540000F056FE0298FFF7AFFB034683F00103A6
:10B86400DBB2002B03D010230793079B73E00398EC
:10B8740000F07AF80346002B03D011230793079BAB
:10B8840069E0059B019A5A61059B029A9A6000231C
:10B894000793039B1B684FF490711846FFF7EAFB6C
:10B8A400039B1B684FF4AC711846FFF7E3FB039B43
:10B8B4001868059B9968059B5B691A46FFF7CBFCE2
:10B8C400039B1B6808211846FFF798FC059B5B68DF
:10B8D400002B3FD1039B1B684FF490711846FFF770
:10B8E400DEFB03468DF81B30039B1B684FF4AC71E1
:10B8F4001846FFF7D4FB03468DF81A309DF81B3029
:10B9040083F00103DBB2002B06D09DF81A3083F0DC
:10B914000103DBB2002BDDD19DF81A30002B02D0DD
:10B924000F23079313E0039B1B680C211846FFF7B2
:10B9340065FC00BF039B1B684FF4AC711846FFF70E
:10B94400AEFB034683F00103DBB2002BF2D1059B6F
:10B9540000225A61079B184609B05DF804FB00BF3A
:10B96400BC2500206CFB020082B00190019B1B7976
:10B974001946084A0B46DB000B449B00134414335E
:10B984001B68002B14BF01230023DBB2184602B04E
:10B99400704700BFBC25002000B589B00390029118
:10B9A400019201238DF81030029B0693019B0593AD
:10B9B400039B5B68039A116804AA1046984700BF6A
:10B9C40009B05DF804FB00B587B001900091002335
:10B9D4008DF80830009B0493019B9B680393019BA3
:10B9E40000225A61019B5B68019A116802AA104601
:10B9F400984700BF07B05DF804FB00B589B001901B
:10BA040000914FF492710198FFF749FB0346002B14
:10BA140022D04FF492710198FFF72CFB02238DF88A
:10BA240008300198FFF770FB034605930198FFF770
:10BA340029FC03460493009BDB680393009B0022CC
:10BA44009A61009B0022DA61009B5B68009A11688E
:10BA540002AA104698473BE04FF488710198FFF71B
:10BA64001EFB0346002B33D04FF488710198FFF777
:10BA740001FB0198FFF706FC0790009B9B69079A5E
:10BA84009A4225D1009BDB69002B17D0009BDB6811
:10BA9400069320210198FFF714FB009BDA69009BB1
:10BAA4009A61009B1A69009BDA60009B0022DA61AC
:10BAB400069A07990098FFF76FFF09E0009B0022A0
:10BAC4009A61009BDB681A4607990098FFF764FFA8
:10BAD4004FF4A2710198FFF7E2FA0346002B18D045
:10BAE4004FF4A2710198FFF7C5FA009B9B69002BE4
:10BAF4000FD0009B00229A61009B0022DA6101981A
:10BB0400FFF7C0FB0146009BDB681A460098FFF76D
:10BB140043FF4FF490710198FFF7C1FA0346002BDD
:10BB240014D04FF490710198FFF7A4FA0C210198F6
:10BB3400FFF764FB009B5B69002B07D00198FFF7BC
:10BB440099FB034619460098FFF73DFF4FF4AC718B
:10BB54000198FFF7A4FA0346002B10D04FF4AC7100
:10BB64000198FFF787FA009B5B69002B07D00198C7
:10BB7400FFF780FB034619460098FFF724FF00BF38
:10BB840009B05DF804FB000008B503490348FFF75A
:10BB940034FF00BF08BD00BFBC25002000200040CA
:10BBA40000B585B00190019B002B0AD0074B43F0F0
:10BBB40001030393019B9B010293039B0298984703
:10BBC40000E000BF05B05DF804FB00BFF0FB02001D
:10BBD40000B583B00190019B002B0AD04FF47A701A
:10BBE400FFF7DEFF019B013B0193019B002BF5D185
:10BBF40000E000BF03B05DF804FB00B583B0019022
:10BC0400019800F056F8034683F00103DBB2002BE1
:10BC140001D0002303E00A20FFF7DAFF01231846CE
:10BC240003B05DF804FB00B589B003900B468DF8B2
:10BC34000B3013468DF80A309DF90B309B005BB234
:10BC440043F040035BB28DF81F309DF81F308DF830
:10BC540014309DF80A308DF8153005AA002300939E
:10BC6400022340210398FEF7F1F90690069B002B6E
:10BC74000CBF01230023DBB2184609B05DF804FBB6
:10BC840000B585B003900B468DF80B300DF10B0217
:10BC940000230093012340210398FEF7D7F90346BC
:10BCA400002B0CBF01230023DBB2184605B05DF85E
:10BCB40004FB00B585B0019006238DF80F309DF884
:10BCC4000F3019460198FFF7DBFF0346184605B00D
:10BCD4005DF804FB00B585B0019008238DF80F30A2
:10BCE4009DF80F3019460198FFF7CAFF034618461E
:10BCF40005B05DF804FB000000B585B00190012398
:10BD04008DF80F304D4B0293029B1B785BB21B01E5
:10BD14005AB2029B5B785BB25B005BB213435AB2CC
:10BD2400029B9B785BB213435BB2DBB21A460021E1
:10BD34000198FFF778FF03461A469DF80F30134029
:10BD4400002B14BF012300238DF80F30029BDB78F6
:10BD54005BB25B015AB2029B1B795BB21B015BB203
:10BD640013435AB2029B5B795BB2DB005BB21343B1
:10BD74005AB2029B9B795BB25B005BB213435AB22B
:10BD8400029BDB795BB213435BB2DBB21A4601213F
:10BD94000198FFF748FF03461A469DF80F301340F9
:10BDA400002B14BF012300238DF80F30029B1B7A54
:10BDB4005B01DBB21A4602210198FFF734FF034608
:10BDC4001A469DF80F301340002B14BF01230023A3
:10BDD4008DF80F30029B5B7A5BB25B015AB2029B17
:10BDE4009B7A5BB29B005BB213435BB2DBB21A4635
:10BDF40003210198FFF717FF03461A469DF80F30F9
:10BE04001340002B14BF012300238DF80F309DF83D
:10BE14000F30002B0CD00198FFF75CFF034683F032
:10BE24000103DBB2002B01D0002302E0012300E078
:10BE34000023184605B05DF804FB00BFDCFB0200DC
:10BE440000B587B00390029105AB00210A461A8021
:10BE54000A469A7010238DF813300DF11302002353
:10BE64000093012340210398FEF7F0F80346002BCA
:10BE740001D0002324E005AA032340210398FEF700
:10BE84000DF90346002B01D0002319E09DF814306E
:10BE94001A049DF815301B0213439DF816201A430B
:10BEA400029B1A60029B1B6803F40003002B06D05C
:10BEB400029B1B6843F07F431A46029B1A600123CE
:10BEC400184607B05DF804FB86B003900291019216
:10BED40001238DF817309DF81730204A039B136017
:10BEE4001E4A029B53601D4A019B9360039B44F2CC
:10BEF4000102934212D0039B44F20202934220D1E6
:10BF0400019B164AD360154BDB681B68134A936187
:10BF1400124BDB685B68114AD36112E0019B0F4A44
:10BF240013610E4B1B699B680C4A53610B4B1B69D5
:10BF34001B680A4A9361094B1B695B68074AD36112
:10BF440000BF72B600BF00BF9DF81730DBB2002BF4
:10BF5400FAD162B600BF00BF06B07047E0250020EA
:10BF640000B583B002900091019244F20100714641
:10BF74006A4600F003F803B000BD00BF30B58BB0D3
:10BF840007900691059272B600BF02F083F901F0A2
:10BF9400ABFF0346002BFAD1079B44F20202934203
:10BFA4002FD0079B44F20202934269D8079B44F2C4
:10BFB4000102934237D0079B44F2010293425FD8B7
:10BFC400079B012B05D0079B41F2010293420CD041
:10BFD40056E0394A394BD31ADB081B0443F00103FA
:10BFE4003749184601F024FF57E0334A334BD31A3C
:10BFF400DB081B0443F001033249184601F018FF23
:10C004004BE0059B09932C4A2C4BD31ADB081B04E9
:10C0140043F00100099B5B681A46099B1B682A4987
:10C0240001F025FF39E0059B0893234A234BD31ADB
:10C03400DB081B0443F00104089B9D68089B9B6874
:10C04400184601F031FA03461846089B5B68194606
:10C05400089B1B68069A02920193009103462A46A4
:10C064001A49204601F017FF134A144BD31ADB0870
:10C074001B0443F001031649184601F0D9FE0CE0F5
:10C084000D4A0E4BD31ADB081B0443F00103069A36
:10C094001049184601F0DAFE00BF0F4B1B6803F08D
:10C0A4000103002B00D000BE059A06990798FFF7FC
:10C0B4000BFF00BF0BB030BD30F2020000F20200F3
:10C0C40074FC020094FC0200B8FC0200D4FC0200E0
:10C0D400FCFC020010FD0200F0ED00E02DE9F0434D
:10C0E40083B0144800F0E4F9034600221C461546C8
:10C0F400114BD3E9002314EB020845EB0309CDE906
:10C1040000890E4BD3E90023DDE90001904271EB75
:10C11400030307D2DDE9002312F1807643F100071F
:10C12400CDE90067DDE900231046194603B0BDE8F8
:10C13400F08300BF042300200026002008260020EE
:10C1440008B5024800F0C1F900BF08BD042300206F
:10C1540000B585B0034600918DF80730114A02AB53
:10C164001946104600F01CFA0390039B002B13D0D1
:10C17400039B9DF807201A70039B009A5A60094A92
:10C1840002AB1946104600F024FA0346002B01D0F6
:10C19400FFF7D6FF002300E00423184605B05DF83E
:10C1A40004FB00BF10260020F0B589B00390029173
:10C1B4000192039B002B04D1264940F26B2000F02E
:10C1C4009FF9039B069300238DF817300DF1170395
:10C1D400184600F0FBF8069BD3E90223B3F1FF3FB6
:10C1E40008BFB2F1FF3F11D1FFF778FF02460B46BB
:10C1F400029900200C460546161943EB0507069BD9
:10C20400C3E9026701238DF81F3002E000238DF893
:10C214001F309DF81730184600F0EEF89DF81F30D7
:10C2240083F00103DBB2002B01D000230EE0069B58
:10C23400019A9A61069B1B69002B02D0069B029A05
:10C244001A6106990020FFF783FF0346184609B0D8
:10C25400F0BD00BF34FD020000B587B00190019B22
:10C26400002B04D11E4940F2932000F049F9019BB0
:10C27400049300238DF80F300DF10F03184600F0DE
:10C28400A5F8049BD3E90223B3F1FF3F08BFB2F141
:10C29400FF3F03D100238DF8173009E004994FF0D4
:10C2A400FF324FF0FF33C1E9022301238DF8173029
:10C2B4009DF80F30184600F09FF89DF8173083F072
:10C2C4000103DBB2002B01D0002304E00499012018
:10C2D400FFF73EFF0346184607B05DF804FB00BFB6
:10C2E40034FD020082B0EFF310830093009B0193AE
:10C2F40072B600BF019B184602B0704762B600BF19
:10C3040000BF704700B585B00190FFF7EBFF0390C5
:10C31400164B9B68002B1BD1144B01229A60144BC3
:10C32400D3F88020134B1340104A1360104B114A6A
:10C33400C3F880200E4BD3F884300C4A53600C4B66
:10C344004FF0FF32C3F88420019B00221A7002E0F0
:10C35400019B01221A70039B002B01D1FFF7CEFF32
:10C364000023184605B05DF804FB00BF202600201A
:10C3740000E100E0FC06FFBD00B585B003468DF882
:10C384000730104B9B68002B16D09DF80730002B0C
:10C3940012D1FFF7A7FF03900B4A0A4B1B681360E7
:10C3A400094A084B5B685360064B00229A60039B62
:10C3B400002B01D1FFF7A2FF0023184605B05DF85A
:10C3C40004FB00BF2026002000E100E000B583B09C
:10C3D400019000F02BF80346012B03D005494320BC
:10C3E40000F08EF80198FFF78DFF00BF03B05DF8F1
:10C3F40004FB00BFA4FD020000B583B003468DF822
:10C40400073000F013F80346012B03D006495120EE
:10C4140000F076F89DF807301846FFF7ADFF00BF2F
:10C4240003B05DF804FB00BFA4FD020084B0EFF389
:10C4340005830193019BC3F308030393039B002B20
:10C444000DD1EFF314830093009B0293029B03F03E
:10C454000103002B0CBF01230023DBB200E0012306
:10C46400184604B07047000082B003468DF80730C8
:10C474009DF90730002B0DDB9DF8073003F01F02F8
:10C4840006499DF907305B09012000FA02F24033A6
:10C4940041F8232000BF02B0704700BF00E100E074
:10C4A40082B00190019BD3F80435184602B070475E
:10C4B40000B583B00190019B1B681846FFF7F0FF9D
:10C4C4000346184603B05DF804FB00B583B0019041
:10C4D400019B93F904301846FFF7C6FF00BF03B071
:10C4E4005DF804FB08B5044B1B68044A1268104647
:10C4F400984700BF08BD00BF2C260020302600202E
:10C5040000B585B003460091ADF80630BDF806309D
:10C514000293009B039302AB1A46002144F20200EB
:10C52400FFF72CFD00BF05B05DF804FB86B0019059
:10C534000091019B53E8011F8AB2D889024498896B
:10C54400824228BF121A1889824202BFBFF32F8F7A
:10C55400002307E0C2EA010243E801200028E9D1F0
:10C564004FF001038DF80F30059002910492029A66
:10C57400009B1A609DF80F30DBB2184606B0704776
:10C5840084B00190019951E8013FC3EA034341E8B3
:10C594000132002AF7D10392029300BF04B070471E
:10C5A40000B585B001900091009B19460198FFF7F2
:10C5B400BDFF0346002B07D0019B1B68009A12881D
:10C5C40013440393039B00E00023184605B05DF871
:10C5D40004FB00B583B001900091009B1A88009B76
:10C5E4005B889A4204D10198FFF7CAFF012300E057
:10C5F4000023184603B05DF804FB00B585B0019034
:10C604000091009B5B099B00019A1A44009B03F074
:10C614001F03012101FA03F31946104600F04DF8F7
:10C62400039000BF05B05DF804FB00B585B0019030
:10C634000091009B5B099B00019A1A44009B03F044
:10C644001F03012101FA03F3DB431946104600F0EE
:10C6540064F8039000BF05B05DF804FB82B001905C
:10C664000091009B5B099B00019A13441A68009B8C
:10C6740003F01F0322FA03F303F00103002B14BF9A
:10C6840001230023DBB2184602B0704710B487B010
:10C6940001900091019B009A53E8004F104643E833
:10C6A400000191F0000FF7D1059404900391059BCC
:10C6B400184607B05DF8044B704710B487B001907A
:10C6C4000091019B009A53E8004F44EA020043E8BA
:10C6D400000191F0000FF6D1059404900391049B9E
:10C6E400184607B05DF8044B704710B487B001904A
:10C6F4000091019B009A53E8004F04EA020043E8CA
:10C70400000191F0000FF6D1059404900391059B6C
:10C71400184607B05DF8044B704710B487B0019019
:10C724000091019B009A53E8004F04EA020043E899
:10C73400000191F0000FF6D1059404900391049B3D
:10C74400184607B05DF8044B704710B487B00190E9
:10C754000091019B009A53E8004F04EB020043E868
:10C76400000191F0000FF6D1059404900391049B0D
:10C77400184607B05DF8044B704710B487B00190B9
:10C784000091019B009A53E8004FA4EB020043E898
:10C79400000191F0000FF6D1059404900391049BDD
:10C7A400184607B05DF8044B704700B583B001909C
:10C7B40001210198FFF781FF0346184603B05DF895
:10C7C40004FB00B583B0019000210198FFF78DFFB1
:10C7D4000346184603B05DF804FB000000B583B0BF
:10C7E40001900B468DF80330019B002B03D10849BF
:10C7F400E820FFF785FE019BDA689DF80330019974
:10C80400098A01FB03F31344184603B05DF804FBE3
:10C8140018FE020000B583B001900091019B002B2B
:10C8240003D10849F520FFF76BFE009B019AD268FB
:10C834009B1A019A128AB3FBF2F3DBB2184603B0D7
:10C844005DF804FB18FE020000B585B00190019B61
:10C85400002B04D11F494FF49270FFF751FE0023BF
:10C86400039300238DF80A300DF10A031846FFF7ED
:10C87400ADFD019B1B681A68019B5B689A421FD936
:10C88400019B1B681A68013A1A601B681B781946D9
:10C894000198FFF7A3FF0390019B9A68019B1B6813
:10C8A4001B68D31A8DF80B30019B1B681B799DF80C
:10C8B4000B209A4204D9019B1B689DF80B201A7126
:10C8C4009DF80A301846FFF797FD039B184605B0FC
:10C8D4005DF804FB18FE020010B584B001900091CD
:10C8E400019B002B04D1154940F24710FFF708FEC5
:10C8F400009B002B04D111494FF4A470FFF700FEF4
:10C90400009B039300238DF80B300DF10B031846A5
:10C91400FFF75CFD019B1B681C68621C1A6003998D
:10C924000198FFF777FF034623709DF80B301846F4
:10C93400FFF762FD00BF04B010BD00BF18FE020087
:10C9440000B583B00190019B002B03D10C49312029
:10C95400FFF7D6FD019B9B68002B0CD0019B5B6904
:10C96400019A1069019A1168019A92689847019B8B
:10C9740000229A6000E000BF03B05DF804FB00BF32
:10C9840088FE02000EB400B584B00190019B002B18
:10C9940003D118494220FFF7B3FD019B5B69002BCB
:10C9A40003D114494320FFF7ABFD019B1B68002B07
:10C9B40003D110494420FFF7A3FD019B5B68002BC2
:10C9C40003D10C494520FFF79BFD059B002B0AD0A2
:10C9D4000023039306AB039303AB1A46059901980E
:10C9E40000F0B8F900E000BF04B05DF804EB03B058
:10C9F400704700BF88FE020000B583B001900B466B
:10CA04008DF803309DF803300A2B03D10D210198D2
:10CA1400FFF7F2FF019B1A68019B9B68581C019960
:10CA2400886013449DF803201A70019B9A68019B47
:10CA34005B689A4202D30198FFF782FF00BF03B0FC
:10CA44005DF804FB00B587B0039002910192009356
:10CA540000230593009B03F00103002B24D00BE07B
:10CA6400029B01330293059B013305939DF8133018
:10CA740019460398FFF7C0FF029B1B788DF813300B
:10CA84009DF81330002BEBD106E0019B013B019391
:10CA940020210398FFF7B0FF019A059B9A422ED9F3
:10CAA400019B002BF1D12AE0029B002B0BD00298B2
:10CAB40002F06CFA059006E0019B013B01932021F2
:10CAC4000398FFF799FF019A059B9A420FD9019B9E
