:020000022000DC
:107000000000042089730200717302007373020090
:1070100075730200777302007973020000000000AC
:107020000000000000000000000000007B73020070
:107030007D730200000000007F7302008173020074
:10704000B1A802008373020085AE020083730200C0
:1070500083730200837302007DAD0200837302001C
:107060008373020083730200837302008373020040
:107070008373020083730200837302008373020030
:1070800083730200E98A02008373020083730200A3
:1070900083730200837302002DE8020083730200F1
:1070A0008373020083730200837302008373020000
:1070B00083730200837302000000000000000000E0
:1070C00083730200837302008373020083730200E0
:1070D000837302008373020083730200D9DC020011
:1070E00083730200837302008373020000000000B8
:1070F00000000000837302000000000083730200A0
:10710000000000000000000000000000000000007F
:10711000000000000000000000000000000000006F
:10712000000000000000000000000000000000005F
:10713000000000000000000000000000000000004F
:10714000000000000000000000000000000000003F
:10715000000000000000000000000000000000002F
:10716000000000000000000000000000000000001F
:10717000000000000000000000000000000000000F
:1071800000000000000000000000000000000000FF
:1071900000000000000000000000000000000000EF
:1071A00000000000000000000000000000000000DF
:1071B00000000000000000000000000000000000CF
:1071C00000000000000000000000000000000000BF
:1071D00000000000000000000000000000000000AF
:1071E000000000000000000000000000000000009F
:1071F000000000000000000000000000000000008F
:107200003A493B480A1A02D0072291438D46394930
:1072100039480A1A06D00722914381F309880222CD
:1072200082F3148835483649364A00F041F836482A
:107230003649374A00F03CF836483749374A00F0BB
:1072400037F837483749384A00F032F83748384974
:10725000384A00F02DF838483849394A00F028F803
:1072600038483949394A00F023F839483949002269
:1072700000F036F838483949002200F031F8384833
:107280003849091A07F090FB374A904725482649A4
:10729000884205D00268043003B4904703BCF7E786
:1072A00000208646EC4600200021304A9047FEE749
:1072B000884214D0521A12D003460B4313430324BE
:1072C000234206D1036804300B600431043AF9D13B
:1072D0007047037801300B700131013AF9D17047E2
:1072E000884202D002700130FAE7704700000420A3
:1072F00000E003200000042000000420D808030060
:107300000023002078230020E4730200E4730200CD
:107310001EEB0200D80803000023002000230020F9
:107320000CEC02000CEC02000CEC02000CEC020075
:107330000CEC02000CEC02000CEC02000CEC020065
:10734000D50803005009030078230020782300208B
:1073500078230020F42B0020F42B0020F42B0020B5
:10736000F42B0020F44B0020B173020095DF0200E3
:10737000FEE7FEE7FEE7FEE7FEE7FEE7FEE7FEE7E5
:10738000FEE7FEE700F002B8FFF7FCBF0F484FF042
:107390000701884385460E4880470E48016841F43E
:1073A00070010160BFF34F8FBFF36F8FFFF728BFEE
:1073B00009480A490A4A884207D0521A05D0037878
:1073C00001300B700131013AF9D1704700000420FF
:1073D000F19E020088ED00E00CEC0200002300208A
:0473E0000023002066
:1073E40000B5A1B00590049103920293049802F0B1
:1073F40006FA039B1593029B16930023179300230D
:107404008DF8603000231993229B1A9300231F9355
:107414000FA91F9B0822049802F0CAFA08231F939D
:10742400119B1293BDF84030ADF84C30BDF842309A
:10743400ADF84E3000238DF851309DF83C3003F008
:107444000303DBB2012B26D10F9BC3F395231C93BB
:107454009DF83C30C3F3C203DBB28DF85030BDF865
:107464003C30C3F38313DBB21B931B9B9A0009A923
:107474001F9B049802F09CFA1B9B9B001F9A1344C9
:107484001F9312AA09A915AB009313461B9A1C98C3
:1074940000F000FF2FE09DF83C3003F00303DBB263
:1074A400022B28D1BDF83E30C3F389139BB21E933F
:1074B4009DF83C30C3F3C203DBB28DF850301E9B01
:1074C400082B28BF08231D9307A91F9B1D9A049806
:1074D40002F06EFA1F9A1D9B13441F931E9A1D9B64
:1074E400D31A1E9315AB12AA07A81D9900F074FFB6
:1074F4001E9B002BE3D1049802F090F900BF21B049
:107504005DF804FB00B583B00190019B1B781A461B
:107514000C4B9B5C002B05D0019B0433184604F0F4
:10752400A7FF0BE0019B1B781A46064B9B5C002BC4
:1075340004D1019B0C33184604F016F900BF03B0C4
:107544005DF804FB2C29002000B587B0039002915C
:1075540013468DF8073000230593039B1B781A46C6
:10756400114B9B5C002B09D0039B04339DF807202F
:107574000299184604F0DEFF05900FE0039B1B7888
:107584001A46094B9B5C002B08D1039B0C339DF8D6
:1075940007200299184604F05FF90590059B1846E8
:1075A40007B05DF804FB00BF2C29002082B00190D5
:1075B4000091034B01221A7000BF02B0704700BF54
:1075C400B823002030B58DB003468DF807301A4B30
:1075D40002AC1D460FCD0FC495E80F0084E80F00E0
:1075E400062302934FF0FF3303934FF0FF330493CA
:1075F4004FF0FF3305934FF0EB7308939DF807307A
:10760400002B01D00D4A00E0002202AB19460C48C1
:1076140002F042FF0B900B9B0A930A9B002B04D0B1
:10762400084A43210A9800F09BFF074A9DF8073057
:10763400137000BF0DB030BD6CEC0200B1750200D8
:10764400002300200CEC0200B923002000B589B00F
:10765400039002910192019B8DF81F30124B00227E
:107664001A709DF81F301A4602991048FFF76CFFF4
:107674000690069B0593059B002B04D00C4A5321CE
:10768400059800F06DFF00BF0A4B1B78002B07D054
:10769400054B1B78DBB283F00103DBB2002BF3D183
:1076A40000BF09B05DF804FBB823002000230020CC
:1076B4000CEC0200B923002000B585B003900291C0
:1076C400054B00934023054A02990398FFF788FE6F
:1076D40000BF05B05DF804FB51760200782300205A
:1076E40082B0019000BF02B07047000000B583B0C3
:1076F40001900548FFF706FF0020FFF763FF00BF76
:1077040003B05DF804FB00BF0023002000B583B084
:1077140001900091019B1B681B6800990198984790
:1077240000BF03B05DF804FB00B583B00190019B7A
:107734001B685B680198984700BF03B05DF804FBC1
:1077440000B583B00190019B1B689B680198984722
:1077540000BF03B05DF804FB82B00190019BDB68BD
:1077640001225A7100BF02B0704782B00190019BA0
:10777400DB685B79184602B070470000024A034B8D
:10778400D31ADB0818467047FCEB020064EB0200D6
:1077940000B587B001900B468DF803309DF8033097
:1077A400002B1FD0FFF7EAFF04900023059313E09A
:1077B400059B9B000E4A13440393039B1B881A46A4
:1077C400019B1B689A4204D1019B059A1A6000230D
:1077D40009E0059B01330593059A049B9A42E7D37C
:1077E400052300E00023184607B05DF804FB00BF42
:1077F4000023002000B585B001900B468DF80330BE
:107804009DF8032001AB11461846FFF7C1FF03465C
:10781400002B07D1019BDB00054A13440393039B10
:107824001B6800E00023184605B05DF804FB00BFA8
:1078340064EB020084B001900B468DF80330019B89
:10784400DB00174A134402939DF80330013B032BDA
:107854001CD801A252F823F06D780200757802005A
:107864007D7802008778020002238DF80F3011E042
:1078740004238DF80F300DE0029B1B798DF80F3037
:1078840008E0029B5B798DF80F3003E000238DF84C
:107894000F3000BF9DF80F30184604B0704700BF8A
:1078A40064EB020084B00190009100238DF80F3046
:1078B400019B1B7803F00403DBB2002B24D0019B53
:1078C4001B78C3F30103DBB2012B02D0022B0CD0D3
:1078D40017E0009B1B68019A1288C2F38312D2B28C
:1078E40013449A1C009B1A600BE0009B1B68019ACE
:1078F4005288C2F3891292B213449A1C009B1A60F4
:1079040000BF01238DF80F309DF80F30184604B0E6
:107914007047000000B58BB00023ADF826303E4818
:1079240001F043FA3D4801F040FA3D4B9B68049353
:107934003C4B1B680693049A069B134002339B003E
:10794400374A13440433089304AB19460898FFF7E5
:10795400A9FF0346002B09D0049A069B1340023367
:107964009B002F4A134404330893EDE700BF002320
:10797400079311E0049B5A1C0492069A1340079A39
:10798400920001A90A44264902339B000B445B6818
:107994001360079B01330793079B012BEAD99DF8DA
:1079A4000430C3F30103DBB2012B10D0022B1CD132
:1079B400BDF80A30ADF82630BDF80630C3F389139C
:1079C4009BB203339A08049B1344049313E0BDF859
:1079D4000A30ADF82630BDF80430C3F38313DBB2AC
:1079E4001A46049B1344049305E00F494FF4C270F4
:1079F40001F086F800BF094801F0E3F90590059B02
:107A0400002B02D0049B064A9360BDF8263018462A
:107A14000BB05DF804FB00BFA4280020A0280020C0
:107A24008C2400201C23002014ED020000B585B036
:107A34000021074801F02AF90390039B0293029B5B
:107A440083F310030193019B184605B05DF804FB12
:107A5400A828002000B589B00390029101920093F8
:107A6400039B1B0C0793FFF7E1FF0690FFF786FECD
:107A74000246079B934204D3214940F2A91001F026
:107A84003FF8069B1904009B5A1C0A9B1340079A53
:107A94000A431C4902339B000B445A60009A0A9B18
:107AA400134002339B00174A134404330593039B8A
:107AB40003F00703D9B2059A137861F3C503137071
:107AC400019B03F00F03D9B2059A138861F389135C
:107AD4001380029BC3F31501059A136861F39F2376
:107AE4001360059A1378012161F301031370059A59
:107AF400137823F00403137000BF09B05DF804FB8E
:107B040014ED02008C24002000BF704700B58DB036
:107B14000390029113468DF80730039B02330A93B6
:107B240001238DF8273000238DF81B300DF11B0342
:107B3400184600F04BFF404B5A68029B1A603F4BBB
:107B44001A683D4B99683C4B5B68CB1A134401336C
:107B54000B9314E001213A4801F0F7F8FFF7DAFE3D
:107B640007900799364801F0F0F8344B1A68324B05
:107B74009968314B5B68CB1A134401330B930A9A0F
:107B84000B9B9A42E6D89DF82730002B48D000235F
:107B940005939DF80730002B17D09DF8143001226F
:107BA40062F301038DF814309DF8143043F004039C
:107BB4008DF81430039B03F00F03DAB2BDF81430D0
:107BC40062F38913ADF8143016E09DF814300222E4
:107BD40062F301038DF814309DF8143043F004036C
:107BE4008DF81430039BC3F309039AB2BDF8163021
:107BF40062F38F13ADF816300F4B5A680F4B1B68A6
:107C0400134002339B000C4A134404330893059A2F
:107C1400089B1A60084B5A680A9B1344064A53602F
:107C24009DF81B30184600F0E7FE9DF827301846F3
:107C34000DB05DF804FB00BF8C2400201C23002041
:107C4400A828002000B58BB00590049103920293FC
:107C54001F4B1B68079306AB012219460298FFF7D6
:107C640055FF0346002B24D0069B023309930023BF
:107C7400089311E0089B9B00039A1A44099B591C22
:107C8400099107990B401268124902339B000B4477
:107C94005A60089B01330893089A029B9A42E9D3DD
:107CA400069A079B00931346029A04990598FFF7D6
:107CB400D1FE084B1B78002B04D000F069F8034672
:107CC400002BFAD1FFF720FF00BF0BB05DF804FBD7
:107CD4001C2300208C24002000B583B00190009167
:107CE4000023002200990198FFF7ACFF00BF03B006
:107CF4005DF804FB00B587B0039002910192019BEB
:107D0400059305AA012302990398FFF79BFF00BF7F
:107D140007B05DF804FB00B587B0039002910192AF
:107D24000093019B0493009B059304AA02230299E8
:107D34000398FFF787FF00BF07B05DF804FB00B5A9
:107D44008BB00390029101920093019B0593009BD9
:107D540006930C9B07930D9B08930E9B099305AA0E
:107D6400052302990398FFF76DFF00BF0BB05DF880
:107D740004FB0000054B9A68044B5B689A420CBFF5
:107D840001230023DBB21846704700BF8C24002077
:107D940000B599B0FFF7EEFF0346002B01D0002396
:107DA400C0E19B4B0022C3F81824BFF34F8F00BFE0
:107DB400974B9B680493974B1B681093049A109BF2
:107DC400134002339B00924A13440433119300235B
:107DD40017930023169300230F9304AB19461198AD
:107DE400FFF760FD0346002B19D0894BD3F81834F4
:107DF400002B14D1864B5A68049B9A4205D8844BB5
:107E04005B68834A936000238CE1049A109B1340BF
:107E140002339B007E4A134404331193DDE70023AD
:107E2400159311E0049B5A1C0492109A1340159A5E
:107E3400920001A90A44764902339B000B445B6813
:107E44001360159B01331593159B012BEAD99DF8FB
:107E5400043003F00303DBB2022B40F09C80BDF836
:107E64000630C3F389139BB20D93BDF80630C3F3F8
:107E740089139BB2502B28BF50239BB20C930C9BAD
:107E8400C3F309039AB2BDF8063062F38F13ADF859
:107E940006300C9B08330B939DF80430C3F3C203E4
:107EA400DBB20F930B995C4801F018FC1790179BF9
:107EB400002B00F0D380179801F0A1FC01A9169BB8
:107EC4000822179801F056FD169B08331693049B5D
:107ED400DA43109B134001339B000A930C9A0A9BCC
:107EE4009A4242D90A9B002B08D0049A109B134053
:107EF40002339B00464A1344043300E0474B089383
:107F04000A9B002B02D00A9BDBB201E00C9BDBB284
:107F14008DF81F300A9B002B01D0404B00E000235A
:107F240006930A9B002B06D00C9BDAB20A9BDBB2A9
:107F3400D31ADBB200E000238DF817309DF81F2020
:107F4400169B0899179801F015FD9DF81F30169A95
:107F540013441693069B002B16D09DF81720169BEE
:107F64000699179801F006FD0EE0049A109B134041
:107F740002339B00264A134404330993169B0C9A3C
:107F84000999179801F0F6FC0D9B03339A08049B9A
:107F94001344049362E09DF8043003F00303DBB25E
:107FA400012B5BD1BDF80430C3F38313DBB2062B82
:107FB40028BF0623DAB2BDF8043062F38913ADF8A2
:107FC4000430BDF80430C3F38313DBB202330E93E1
:107FD4009DF80430C3F3C203DBB20F930E9B9B00E6
:107FE40019460D4801F07AFB1790179B002B35D0EA
:107FF400179801F004FC01A9169B0822179801F0B8
:10800400B9FC169B08331693002315931DE000BF9B
:108014008C2400201C23002050EB02009824002014
:10802400049B5A1C0492109A134002339B003F4A4B
:108034001344191D169B0422179801F09BFC169BF0
:1080440004331693159B01331593BDF80430C3F321
:108054008313DBB21A46159B9342E1D3179B002B83
:1080640040D0324BD3F810341493304BD3F8183437
:10807400002B1BD0179801F0D1FB4DE000238DF8A5
:108084004F301498FFF771FB0346002B02D00123F5
:108094008DF84F309DF84F30002B03D0179914986A
:1080A400FFF734FB149BDB681B681493149B002BB1
:1080B400E4D1179801F0B2FB00238DF803300DF1E1
:1080C4000303184600F082FC184BD3F81834002B35
:1080D40002D1049B154A93609DF80330184600F0C2
:1080E4008BFC19E0114BD3F81034129306E012986C
:1080F400FFF726FB129BDB681B681293129B002B75
:10810400F5D10B4A0B4BD31ADB081B0443F00203D3
:1081140009491846FFF7E0FDFFF72CFE034683F0FC
:108124000103DBB2184619B05DF804FB8C2400206F
:1081340094EB020064EB020070ED020000B583B022
:108144000C4BD3F8103401930A4B01221A7009E046
:108154000198FFF701FB0198FFF7E6FA019BDB6842
:108164001B680193019B002BF2D100BF00BF03B039
:108174005DF804FB8C24002082B00190009100BFC4
:1081840002B0704710B584B003900291039BDB8862
:10819400002B0AD0039BDB881A461F4B009313461F
:1081A4001E4A1F49029800F0EDFE039B1B7A052B23
:1081B4002ED0039B5B7A002B12D0039B9B881A461C
:1081C400039B1B7A19461046FFF734FB03461A46F5
:1081D400144B53F822301A461349029800F0D2FE89
:1081E400039B1B6819460298FFF7C6FF039B1B7A83
:1081F4001A460E4B53F82240039B9B8800211846D5
:10820400FFF7F8FA034622460949029800F0BAFE3D
:1082140000BF04B010BD00BFA4ED0200B4ED020025
:10822400ECED02003423002004EE020020230020A1
:1082340008EE020000B585B00390029113468DF854
:108244000730039B1B7A052B0FD0039B5B7A002B13
:1082540006D00D4B1B681A460C49029800F092FE9A
:108264000B49029800F08EFE07E09DF80730002BC2
:1082740003D00749029800F085FE029800F060FEE2
:1082840000BF05B05DF804FB3423002004EE0200B7
:1082940014EE020030B58BB007900691059204935A
:1082A4000E9B1B7B8DF827300E9B00221A730E99B0
:1082B4000498FFF767FF059B062B7FD801A252F8AD
:1082C40023F000BFE5820200EF820200FF82020079
:1082D4001383020031830200598302008983020060
:1082E40007990E9800F04EFE69E0069B1B681A463B
:1082F40007990E9800F046FE61E0069B1A68069BFB
:1083040004331B6807990E9800F03CFE57E0069B67
:108314001A68069B04331968069B08331B6800938C
:108324000B4607990E9800F02DFE48E0069B19684D
:10833400069B04331868069B08331B68069A0C32A4
:1083440012680192009303460A4607990E9800F0BA
:1083540019FE34E0069B1868069B04331C68069BD0
:1083640008331B68069A0C321268069910310968A2
:108374000291019200932346024607990E9800F059
:1083840001FE1CE0069B1C68069B04331D68069BCB
:1083940008331B68069A0C32126806991031096872
:1083A40006981430006803900291019200932B46C2
:1083B400224607990E9800F0E5FD00E000BF002278
:1083C4000E990498FFF736FF0E9B9DF827201A7329
:1083D40000BF0BB030BD00BF00B587B00390029161
:1083E40001920093029B082B60D8009B1B7B8DF8A5
:1083F4001330009B00221A7300990198FFF7C2FE04
:108404000023059314E0059A029B9A4209D2039A29
:10841400059B13441B781A462649009800F0B2FDC8
:1084240003E02549009800F0ADFD059B0133059359
:10843400059B072BE7D92149009800F0A3FD0023F1
:10844400059326E0059A029B9A421BD2039A059B48
:1084540013441B788DF812309DF812307E2B0AD805
:108464009DF81230184606F00EFB0346002B02D08E
:108474009DF8123000E02E231A461149009800F0AE
:1084840081FD03E00F49009800F07CFD059B01335A
:108494000593059B072BD5D9012200990198FFF775
:1084A400C9FE009B9DF813201A7300E000BF07B0BB
:1084B4005DF804FB18EE020020EE020024EE020038
:1084C40028EE02002CEE020086B003900291019285
:1084D40001238DF817309DF81730204A039B136051
:1084E4001E4A029B53601D4A019B9360039B44F206
:1084F4000102934212D0039B44F20202934220D120
:10850400019B164AD360154BDB681B68134A9361C1
:10851400124BDB685B68114AD36112E0019B0F4A7E
:1085240013610E4B1B699B680C4A53610B4B1B690F
:108534001B680A4A9361094B1B695B68074AD3614C
:1085440000BF72B600BF00BF9DF81730DBB2002B2E
:10855400FAD162B600BF00BF06B07047AC28002055
:1085640000B583B002900091019244F2010071467B
:108574006A4600F003F803B000BD00BF30B58BB00D
:1085840007900691059272B600BFFFF7D7FDFFF77B
:10859400FFFB0346002BFAD1079B44F202029342ED
:1085A4002FD0079B44F20202934269D8079B44F2FE
:1085B4000102934237D0079B44F2010293425FD8F1
:1085C400079B012B05D0079B41F2010293420CD07B
:1085D40056E0394A394BD31ADB081B0443F0010334
:1085E40037491846FFF778FB57E0334A334BD31A21
:1085F400DB081B0443F0010332491846FFF76CFB08
:108604004BE0059B09932C4A2C4BD31ADB081B0423
:1086140043F00100099B5B681A46099B1B682A49C1
:10862400FFF779FB39E0059B0893234A234BD31AC0
:10863400DB081B0443F00104089B9D68089B9B68AE
:10864400184601F031FA03461846089B5B68194640
:10865400089B1B68069A02920193009103462A46DE
:108664001A492046FFF76BFB134A144BD31ADB0855
:108674001B0443F0010316491846FFF72DFB0CE0D9
:108684000D4A0E4BD31ADB081B0443F00103069A70
:1086940010491846FFF72EFB00BF0F4B1B6803F071
:1086A4000103002B00D000BE059A06990798FFF736
:1086B4000BFF00BF0BB030BD94EB020064EB020073
:1086C40090EE0200B0EE0200D4EE0200F0EE0200E2
:1086D40018EF02002CEF0200F0ED00E02DE9F0436A
:1086E40083B0144800F0E4F9034600221C46154602
:1086F400114BD3E9002314EB020845EB0309CDE940
:1087040000890E4BD3E90023DDE90001904271EBAF
:10871400030307D2DDE9002312F1807643F1000759
:10872400CDE90067DDE900231046194603B0BDE832
:10873400F08300BF58230020D0280020D828002030
:1087440008B5024800F0C1F900BF08BD5823002055
:1087540000B585B0034600918DF80730114A02AB8D
:108764001946104600F01CFA0390039B002B13D00B
:10877400039B9DF807201A70039B009A5A60094ACC
:1087840002AB1946104600F024FA0346002B01D030
:10879400FFF7D6FF002300E00423184605B05DF878
:1087A40004FB00BFE0280020F0B589B003900291DB
:1087B4000192039B002B04D1264940F26B2000F068
:1087C4009FF9039B069300238DF817300DF11703CF
:1087D400184600F0FBF8069BD3E90223B3F1FF3FF0
:1087E40008BFB2F1FF3F11D1FFF778FF02460B46F5
:1087F400029900200C460546161943EB0507069B13
:10880400C3E9026701238DF81F3002E000238DF8CD
:108814001F309DF81730184600F0EEF89DF81F3011
:1088240083F00103DBB2002B01D000230EE0069B92
:10883400019A9A61069B1B69002B02D0069B029A3F
:108844001A6106990020FFF783FF0346184609B012
:10885400F0BD00BF50EF020000B587B00190019B4E
:10886400002B04D11E4940F2932000F049F9019BEA
:10887400049300238DF80F300DF10F03184600F018
:10888400A5F8049BD3E90223B3F1FF3F08BFB2F17B
:10889400FF3F03D100238DF8173009E004994FF00E
:1088A400FF324FF0FF33C1E9022301238DF8173063
:1088B4009DF80F30184600F09FF89DF8173083F0AC
:1088C4000103DBB2002B01D0002304E00499012052
:1088D400FFF73EFF0346184607B05DF804FB00BFF0
:1088E40050EF020082B0EFF310830093009B0193DA
:1088F40072B600BF019B184602B0704762B600BF53
:1089040000BF704700B585B00190FFF7EBFF0390FF
:10891400164B9B68002B1BD1144B01229A60144BFD
:10892400D3F88020134B1340104A1360104B114AA4
:10893400C3F880200E4BD3F884300C4A53600C4BA0
:108944004FF0FF32C3F88420019B00221A7002E02A
:10895400019B01221A70039B002B01D1FFF7CEFF6C
:108964000023184605B05DF804FB00BFF028002082
:1089740000E100E0FC06FFBD00B585B003468DF8BC
:108984000730104B9B68002B16D09DF80730002B46
:1089940012D1FFF7A7FF03900B4A0A4B1B68136021
:1089A400094A084B5B685360064B00229A60039B9C
:1089B400002B01D1FFF7A2FF0023184605B05DF894
:1089C40004FB00BFF028002000E100E000B583B004
:1089D400019000F02BF80346012B03D005494320F6
:1089E40000F08EF80198FFF78DFF00BF03B05DF82B
:1089F40004FB00BFA8EF020000B583B003468DF866
:108A0400073000F013F80346012B03D00649512028
:108A140000F076F89DF807301846FFF7ADFF00BF69
:108A240003B05DF804FB00BFA8EF020084B0EFF3CD
:108A340005830193019BC3F308030393039B002B5A
:108A44000DD1EFF314830093009B0293029B03F078
:108A54000103002B0CBF01230023DBB200E0012340
:108A6400184604B07047000082B003468DF8073002
:108A74009DF90730002B0DDB9DF8073003F01F0232
:108A840006499DF907305B09012000FA02F24033E0
:108A940041F8232000BF02B0704700BF00E100E0AE
:108AA40082B00190019BD3F80435184602B0704798
:108AB40000B583B00190019B1B681846FFF7F0FFD7
:108AC4000346184603B05DF804FB00B583B001907B
:108AD400019B93F904301846FFF7C6FF00BF03B0AB
:108AE4005DF804FB08B5044B1B68044A1268104681
:108AF400984700BF08BD00BFFC28002000290020C3
:108B040000B585B003460091ADF80630BDF80630D7
:108B14000293009B039302AB1A46002144F2020025
:108B2400FFF72CFD00BF05B05DF804FB86B0019093
:108B34000091019B53E8011F8AB2D88902449889A5
:108B4400824228BF121A1889824202BFBFF32F8FB4
:108B5400002307E0C2EA010243E801200028E9D12A
:108B64004FF001038DF80F30059002910492029AA0
:108B7400009B1A609DF80F30DBB2184606B07047B0
:108B840084B00190019951E8013FC3EA034341E8ED
:108B94000132002AF7D10392029300BF04B0704758
:108BA40000B585B001900091009B19460198FFF72C
:108BB400BDFF0346002B07D0019B1B68009A128857
:108BC40013440393039B00E00023184605B05DF8AB
:108BD40004FB00B583B001900091009B1A88009BB0
:108BE4005B889A4204D10198FFF7CAFF012300E091
:108BF4000023184603B05DF804FB00B585B001906E
:108C04000091009B5B099B00019A1A44009B03F0AE
:108C14001F03012101FA03F31946104600F04DF831
:108C2400039000BF05B05DF804FB00B585B001906A
:108C34000091009B5B099B00019A1A44009B03F07E
:108C44001F03012101FA03F3DB431946104600F028
:108C540064F8039000BF05B05DF804FB82B0019096
:108C64000091009B5B099B00019A13441A68009BC6
:108C740003F01F0322FA03F303F00103002B14BFD4
:108C840001230023DBB2184602B0704710B487B04A
:108C940001900091019B009A53E8004F104643E86D
:108CA400000191F0000FF7D1059404900391059B06
:108CB400184607B05DF8044B704710B487B00190B4
:108CC4000091019B009A53E8004F44EA020043E8F4
:108CD400000191F0000FF6D1059404900391049BD8
:108CE400184607B05DF8044B704710B487B0019084
:108CF4000091019B009A53E8004F04EA020043E804
:108D0400000191F0000FF6D1059404900391059BA6
:108D1400184607B05DF8044B704710B487B0019053
:108D24000091019B009A53E8004F04EA020043E8D3
:108D3400000191F0000FF6D1059404900391049B77
:108D4400184607B05DF8044B704710B487B0019023
:108D54000091019B009A53E8004F04EB020043E8A2
:108D6400000191F0000FF6D1059404900391049B47
:108D7400184607B05DF8044B704710B487B00190F3
:108D84000091019B009A53E8004FA4EB020043E8D2
:108D9400000191F0000FF6D1059404900391049B17
:108DA400184607B05DF8044B704700B583B00190D6
:108DB40001210198FFF781FF0346184603B05DF8CF
:108DC40004FB00B583B0019000210198FFF78DFFEB
:108DD4000346184603B05DF804FB000000B583B0F9
:108DE40001900B468DF80330019B002B03D10849F9
:108DF400E820FFF785FE019BDA689DF803300199AE
:108E0400098A01FB03F31344184603B05DF804FB1D
:108E140000F0020000B583B001900091019B002B8B
:108E240003D10849F520FFF76BFE009B019AD26835
:108E34009B1A019A128AB3FBF2F3DBB2184603B011
:108E44005DF804FB00F0020000B585B00190019BC1
:108E5400002B04D11F494FF49270FFF751FE0023F9
:108E6400039300238DF80A300DF10A031846FFF727
:108E7400ADFD019B1B681A68019B5B689A421FD970
:108E8400019B1B681A68013A1A601B681B78194613
:108E94000198FFF7A3FF0390019B9A68019B1B684D
:108EA4001B68D31A8DF80B30019B1B681B799DF846
:108EB4000B209A4204D9019B1B689DF80B201A7160
:108EC4009DF80A301846FFF797FD039B184605B036
:108ED4005DF804FB00F0020010B584B0019000912D
:108EE400019B002B04D1154940F24710FFF708FEFF
:108EF400009B002B04D111494FF4A470FFF700FE2E
:108F0400009B039300238DF80B300DF10B031846DF
:108F1400FFF75CFD019B1B681C68621C1A600399C7
:108F24000198FFF777FF034623709DF80B3018462E
:108F3400FFF762FD00BF04B010BD00BF00F00200E7
:108F440000B583B00190019B002B03D10C49312063
:108F5400FFF7D6FD019B9B68002B0CD0019B5B693E
:108F6400019A1069019A1168019A92689847019BC5
:108F740000229A6000E000BF03B05DF804FB00BF6C
:108F840054F002000EB400B584B00190019B002B94
:108F940003D118494220FFF7B3FD019B5B69002B05
:108FA40003D114494320FFF7ABFD019B1B68002B41
:108FB40003D110494420FFF7A3FD019B5B68002BFC
:108FC40003D10C494520FFF79BFD059B002B0AD0DC
:108FD4000023039306AB039303AB1A460599019848
:108FE40000F0B8F900E000BF04B05DF804EB03B092
:108FF400704700BF54F0020000B583B001900B46E7
:109004008DF803309DF803300A2B03D10D2101980C
:10901400FFF7F2FF019B1A68019B9B68581C01999A
:10902400886013449DF803201A70019B9A68019B81
:109034005B689A4202D30198FFF782FF00BF03B036
:109044005DF804FB00B587B0039002910192009390
:1090540000230593009B03F00103002B24D00BE0B5
:10906400029B01330293059B013305939DF8133052
:1090740019460398FFF7C0FF029B1B788DF8133045
:109084009DF81330002BEBD106E0019B013B0193CB
:1090940020210398FFF7B0FF019A059B9A422ED92D
:1090A400019B002BF1D12AE0029B002B0BD00298EC
:1090B40005F084FC059006E0019B013B019320210F
:1090C4000398FFF799FF019A059B9A420FD9019BD8
:1090D400002BF1D10BE0029B01330293059B01337A
:1090E40005939DF8133019460398FFF785FF029BFB
:1090F4001B788DF813309DF81330002BEBD100BF93
:1091040007B05DF804FB000000B589B0039002913C
:1091140001920093029B07930123069307E0079AA9
:10912400019BB2FBF3F30793069B01330693079A63
:10913400019B9A42F3D2009A069B9A4201D9009B62
:1091440006930B9B03F00103002B22D10A9B002BF7
:109154001FD00B9B03F00203002B06D0009B002BB7
:1091640003D130238DF8173002E020238DF8173017
:1091740008E00A9B013B0A939DF8173019460398AF
:10918400FFF73AFF0A9B002B03D0069A0A9B9A42E8
:10919400EFD301230793009B012B03D9009B013BD1
:1091A400009309E0029A079BB2FBF3F30493049A39
:1091B400019B9A4200D205E0079B019A02FB03F34C
:1091C4000793E8E7029A079BB2FBF3F30493049B2B
:1091D400079A02FB03F3029AD31A0293154A049BDB
:1091E40013441B7819460398FFF706FF079A019B5F
:1091F400B2FBF3F30793079B002BE3D10B9B03F024
:109204000103002B11D00A9B002B0ED006E00A9B11
:10921400013B0A9320210398FFF7EEFE0A9B002BE3
:1092240003D0069A0A9B9A42F1D300BF09B05DF8B5
:1092340004FB00BFECF0020000B589B00590049176
:1092440003920293049B002BB8BF5B420693012355
:10925400079307E0039B069A92FBF3F30693079B9D
:1092640001330793039B069A9A42F3DA029A079B07
:109274009A4201D9029B07930A9B002B0AD0049BB4
:10928400002B04DB0B9B03F00403002B02D00A9B8E
:10929400013B0A930B9B03F00203002B02D0029BB9
:1092A400002B16D00B9B03F00103002B11D10A9B5A
:1092B400002B0ED006E00A9B013B0A93202105985F
:1092C400FFF79AFE0A9B002B03D0079A0A9B9A4247
:1092D400F1D3049B002B07DA049B5B4204932D21FA
:1092E4000598FFF789FE08E00B9B03F00403002BAD
:1092F40003D02B210598FFF77FFE0B9B03F002039D
:10930400002B19D00B9B03F00103002B14D1029BFB
:10931400002B11D10A9B002B0ED006E00A9B013BC7
:109324000A9330210598FFF767FE0A9B002B03D0B0
:10933400079A0A9B9A42F1D304990B9B01930A9BC7
:109344000093029B039A0598FFF7DEFE00BF09B065
:109354005DF804FB00B58FB0059004910392059B62
:10936400002B04D1AD4940F25220FFF7C9FB059B05
:109374005B69002B04D1A9494FF41570FFF7C0FBBA
:10938400059B1B68002B04D1A44940F25520FFF72C
:10939400B7FB059B5B68002B04D1A04940F2562023
:1093A400FFF7AEFB049B002B00F09381049B1B781A
:1093B4008DF83730049B013304939DF83730002B2C
:1093C40000F07E819DF83730252B40F06D8100231D
:1093D4000A9301230C93049B1B788DF837309DF876
:1093E4003730302B0DD0302B1BDC2B2B11D02D2BF9
:1093F40017D10A9B43F001030A93049B013304939E
:1094040012E00A9B43F002030A93049B0133049382
:109414000AE00A9B43F004030A93049B0133049378
:1094240002E000230C9300BF0C9B002BD3D100233C
:1094340009939DF837302A2B0CD1039B1B68191D07
:10944400039A11601B68099A13440993049B01331E
:1094540004931AE0049B1B788DF837309DF837305D
:109464002F2B12D99DF83730392B0ED8049B01339A
:109474000493099A13469B0013445B001A469DF813
:1094840037301344303B0993D3E700230B93049BF9
:109494001B788DF837309DF837302E2B1DD1049B67
:1094A40001330493049B1B788DF837309DF83730D3
:1094B4002F2B12D99DF83730392B0ED8049B01334A
:1094C40004930B9A13469B0013445B001A469DF8C1
:1094D40037301344303B0B93E4E7049B1B788DF83F
:1094E40037309DF837306C2B03D09DF83730682B1C
:1094F40007D1049B01330493049B1B788DF8373008
:10950400EFE79DF83730252B00F0C480252BC0F2FF
:10951400C680782B00F3C380582BC0F2C080583B20
:10952400202B00F2BC8001A252F823F02596020001
:10953400A3960200A3960200A3960200A39602003B
:10954400A3960200A3960200A3960200A39602002B
:10955400A3960200A3960200B5950200D7950200D7
:10956400A3960200A3960200A3960200A39602000B
:10957400D7950200A3960200A3960200A3960200C8
:10958400A3960200A3960200A39602006596020029
:10959400A3960200A396020049960200A396020035
:1095A400FB950200A3960200A396020025960200F2
:1095B400039B1B68191D039A11601B680C930C9B79
:1095C4008DF81F309DF81F3019460598FFF714FDDC
:1095D40066E0039B1B68191D039A11601B680C93BA
:1095E4000A9B0193099B00930B9B0A220C990598F3
:1095F400FFF722FE54E0039B1B68191D039A1160B8
:109604001B680C930C990A9B0193099B00930B9B79
:109614000A220598FFF778FD42E000BF9CF00200A3
:10962400039B1B68191D039A11601B680C930C990A
:109634000A9B0193099B00930B9B10220598FFF74B
:1096440063FD2DE0039B1B68191D039A11601B68C1
:1096540008930A9B099A08990598FFF7F3FC1FE001
:10966400039B1B68191D039A11601B680C9330211E
:109674000598FFF7C1FC78210598FFF7BDFC0C990C
:109684000023019308230093082310220598FFF771
:109694003BFD05E025210598FFF7AEFC00E000BF87
:1096A400049B0133049305E09DF83730194605986F
:1096B400FFF7A2FC049B1B78002B7FF477AE00E03D
:1096C40000BF059B1B7B002B04D00598FFF738FCDB
:1096D40000E000BF0FB05DF804FB00BF00B58BB025
:1096E40001900091019B1B8A043B0793009A079BFE
:1096F4001344DA1C079BB2FBF3F38DF81B3001987B
:10970400FFF7A2FB0590059B002B01D1002338E055
:10971400059B00221A71059B01225A71079B9AB27C
:10972400059BDA80059B09939DF81B30013B04934C
:10973400099B019A1A60002308931DE00198FFF722
:1097440083FB0390039B002B0ED0059B5B790133B5
:10975400DAB2059B5A71099B039A1A60039B019A1A
:109764001A60039B099304E0059800F00EF80023A7
:1097740007E0089B01330893089A049B9A42DDD3BF
:10978400059B18460BB05DF804FB00B58BB0019047
:10979400019B0793079B5B798DF81B30019B089312
:1097A4009DF81B30013B05930023099305E0089BBA
:1097B4001B680893099B01330993099A059B9A42F4
:1097C400F5D3089B1B680493019B0893002309931A
:1097D4000BE0089B1B68039308990498FFF77CFB34
:1097E400039B0893099B013309939DF81B30099A45
:1097F4009A42EED300BF00BF0BB05DF804FB00B586
:1098040085B00190019B0393039B04330121184607
:10981400FFF79BFA00BF05B05DF804FB00B587B005
:109824000190019B0593059B043301211846FFF722
:10983400A4FA0346039303AB0493049B1B78002B05
:1098440002D10198FFF7A1FF00BF07B05DF804FB48
:1098540000B591B00390029101920093039B002BF9
:1098640003D14349B620FFF74BF9039B0993039BAC
:109874000F93099BDB881A46099B5B7902FB03F370
:10988400043B0893009A089B9A4203D33849C420A6
:10989400FFF736F9099BDB880793009B1A1D079B8A
:1098A400B2FBF3F30E93009B0433079AB3FBF2F27B
:1098B400079901FB02F29B1A0D93019B1A68009B06
:1098C4001344089A9A4203D2089A009BD31A01E0DF
:1098D400019B1B680C93019B0C9A1A6005E00F9B7B
:1098E4001B680F930E9B013B0E930E9B002BF6D12E
:1098F40000230B93079A0D9BD31A0A930A9A0C9B85
:10990400934228BF13460A932AE0029A0B9B1344FE
:1099140006930F9A0D9B1344043305939DF8483026
:10992400002B05D00A9A0599069805F05DF804E025
:109934000A9A0699059805F057F800230D930F9B92
:109944001B680F930C9A0A9BD31A0C930B9A0A9BCD
:1099540013440B93079A0C9B934228BF13460A9314
:109964000C9B002BD1D100BF00BF11B05DF804FBEC
:10997400FCF0020000B589B00590049103920293B3
:10998400039B079307AA00230093029B049905985D
:10999400FFF75EFF079B039A9A4203D00349F62020
:1099A400FFF7AEF800BF09B05DF804FBFCF002005D
:1099B40000B589B00590049103920293039B079329
:1099C40007AA01230093029B04990598FFF740FF1F
:1099D400079B039A9A4204D004494FF48070FFF71E
:1099E4008FF800BF09B05DF804FB00BFFCF0020073
:1099F40000B583B001900091019B002B03D1104965
:109A04005020FFF77DF8009B002B03D10C49512017
:109A1400FFF776F8019B009A1A60019B1B681A688D
:109A2400019B5A60019B5A68019B1B685B689A42C0
:109A340002D1019B00225A6000BF03B05DF804FB11
:109A440040F2020000B583B00190019B002B03D1CA
:109A540014496320FFF754F8019B1B68002B03D1C2
:109A640010496420FFF74CF8019B5B68002B14D06D
:109A7400019B5B681A46019B1B689B6813441A464A
:109A8400019B5A60019B5A68019B1B685B689A4260
:109A940004D1019B00225A6000E000BF03B05DF8CE
:109AA40004FB00BF40F2020000B585B001900198AC
:109AB40000F00EF80390039B002B01D0039B00E001
:109AC400024B184605B05DF804FB00BF10F302001A
:109AD40086B00190164B0593164B04931FE0049A2D
:109AE400059BD31ADB10DA0F13445B10DB00059AD5
:109AF40013440393039B1B680293029A019B9A42AB
:109B040002D9039B04930AE0029A019B9A4203D26E
:109B1400039B0833059302E0039B5B6804E0059A0A
:109B2400049B9A42DBD30023184606B0704700BF5B
:109B340010F7020038F80200BFF34F8F00BF064B46
:109B4400DB6803F4E0620449044B1343CB60BFF3C6
:109B54004F8F00BF00BFFDE700ED00E00400FA05F1
:109B640082B0164B1B680193154B1B680093019B35
:109B7400082B1FD1009B052B1AD801A252F823F001
:109B84009D9B0200A19B0200A59B0200A99B0200D1
:109B9400AD9B0200B19B020001230CE001230AE00B
:109BA400012308E0012306E0012304E0012302E08D
:109BB400012300E00023184602B070473001001072
:109BC4003401001082B0164B1B680193154B1B68BF
:109BD4000093019B082B1FD1009B052B1AD801A2CF
:109BE40052F823F0019C0200059C0200099C02002B
:109BF4000D9C0200119C0200159C020001230CE044
:109C040001230AE0012308E0012306E0012304E024
:109C1400012302E0012300E00023184602B070474C
:109C2400300100103401001082B0164B1B68019300
:109C3400154B1B680093019B082B1FD1009B052B20
:109C44001AD801A252F823F0659C0200699C020014
:109C54006D9C0200719C0200759C0200799C0200BC
:109C640001230CE000230AE0002308E0002306E0BF
:109C7400002304E0002302E0002300E00023184650
:109C840002B07047300100103401001082B0164B4E
:109C94001B680193154B1B680093019B082B1FD174
:109CA400009B052B1AD801A252F823F0C99C02008C
:109CB400CD9C0200D19C0200D59C0200D99C0200DC
:109CC400DD9C020001230CE000230AE0002308E0ED
:109CD400002306E0002304E0002302E0002300E068
:109CE4000023184602B07047300100103401001000
:109CF40082B0164B1B680193154B1B680093019BA4
:109D0400082B1FD1009B052B1AD801A252F823F06F
:109D14002D9D0200319D0200359D0200399D0200F7
:109D24003D9D0200419D020001230CE000230AE056
:109D3400002308E0002306E0002304E0002302E0FF
:109D4400002300E00023184602B0704730010010E1
:109D54003401001082B0164B1B680193154B1B682D
:109D64000093019B082B1FD1009B052B1AD801A23D
:109D740052F823F0919D0200959D0200999D0200E6
:109D84009D9D0200A19D0200A59D020001230CE0FF
:109D940000230AE0002308E0002306E0002304E097
:109DA400002302E0002300E00023184602B07047BD
:109DB400300100103401001082B0164B1B6801936F
:109DC400154B1B680093019B082B1FD1009B052B8F
:109DD4001AD801A252F823F0F59D0200F99D020061
:109DE400FD9D0200019E0200059E0200099E0200E4
:109DF40001230CE001230AE0012308E0012306E02B
:109E0400012304E0012302E0012300E000231846BB
:109E140002B07047300100103401001082B0164BBC
:109E24001B680193154B1B680093019B082B1FD1E2
:109E3400009B052B1AD801A252F823F0599E020068
:109E44005D9E0200619E0200659E0200699E020002
:109E54006D9E020000230CE000230AE0002308E0CA
:109E6400002306E0012304E0012302E0012300E0D3
:109E74000023184602B0704730010010340100106E
:109E840008B5FFF7CBFF0346002B07D04FF0102394
:109E94004FF08042D3F80832C2F8583500BF08BDED
:109EA40000BF044BD3F80034002BFAD000BF00BF2E
:109EB400704700BF00E0014000B583B00190054A3F
:109EC400019BC2F80435FFF7EBFF00BF03B05DF858
:109ED40004FB00BF00E00140024B034A1A6000BFCC
:109EE400704700BF602300200090D00308B5FFF73F
:109EF40037FE0346002B0ED04FF080430022C3F8F8
:109F04000C214FF080430022C3F810214FF080430E
:109F14000022C3F83825FFF755FE0346002B76D000
:109F24004FF08053734AD3F80434C2F820354FF00D
:109F34008053704AD3F80834C2F824354FF0805364
:109F44006C4AD3F80C34C2F828354FF08053694A70
:109F5400D3F81034C2F82C354FF08053654AD3F847
:109F64001434C2F830354FF08053624AD3F81834B1
:109F7400C2F834354FF080535E4AD3F81C34C2F82B
:109F840040354FF080535B4AD3F82034C2F844354F
:109F94004FF08053574AD3F82434C2F848354FF071
:109FA4008053544AD3F82834C2F84C354FF08053C8
:109FB400504AD3F82C34C2F850354FF080534D4AF0
:109FC400D3F83034C2F854354FF08053494AD3F8AB
:109FD4003434C2F860354FF08053464AD3F83834ED
:109FE400C2F864354FF08053424AD3F83C34C2F887
:109FF40068354FF080533F4AD3F84034C2F86C358B
:10A004004FF080533B4AD3F84434C2F87035FFF71D
:10A014000BFE0346002B02D0374B384A1A60FFF779
:10A0240035FE0346002B03D0354BFB22C3F818251D
:10A03400FFF75EFE0346002B0AD0324B1B6823F069
:10A044000F02314B1B6803F00F032E4913430B60BF
:10A05400FFF780FE0346002B03D02C4B4FF4007215
:10A064001A60FFF7A9FE0346002B0DD04FF0804382
:10A07400D3F8003403F00103002B05D04FF08043E4
:10A084006FF00102C3F80024214BD3F88830204A32
:10A0940043F47003C2F88830BFF34F8F00BFBFF39F
:10A0A4006F8F00BFFFF7ECFE4FF01023D3F80032A0
:10A0B400002B05DB4FF01023D3F80432002B15DA04
:10A0C4000120FFF7F9FE4FF010231222C3F80022FB
:10A0D400FFF7E6FE4FF010231222C3F80422FFF725
:10A0E400DFFE0020FFF7E8FEFFF726FDFFF7F4FE92
:10A0F40000BF08BD00C000408C56004048810300EA
:10A1040000F00040E40E0040580200104096024067
:10A1140000ED00E082B003468DF807309DF907306A
:10A12400002B13DB9DF8073003F01F0209499DF94A
:10A1340007305B09012000FA02F2203341F82320A2
:10A14400BFF34F8F00BFBFF36F8F00BF00BF02B0DC
:10A15400704700BF00E100E0044BD3F80034002B4B
:10A1640014BF01230023DBB21846704700000140EE
:10A1740008B504F02BFB034683F00103DBB2002B8C
:10A1840003D109497B20FEF7BBFCFFF7E5FF03463B
:10A1940083F00103DBB2002B04D000F067FB034B18
:10A1A40000229A7000BF08BD44FB02000829002069
:10A1B40000B583B000230193184B1B78002B02D009
:10A1C400852301931CE0154B00229A60134B002257
:10A1D4005A60124B00221A61104B0022DA601048B8
:10A1E40000F00AFB019004F0F1FA034683F0010346
:10A1F400DBB2002B01D000F025FB084B01221A70C2
:10A20400FFF7AAFF0346002B02D0044B01229A70E9
:10A21400019B184603B05DF804FB00BF0829002029
:10A22400FDA2020084B00190019B1B680393039B71
:10A23400002B03D0039B1A68019B1A60039B1846EA
:10A2440004B0704700B583B0164B1B78002B04D1C3
:10A25400154940F21710FEF753FC124BDB68002B34
:10A2640004D111494FF48C70FEF74AFC00238DF899
:10A2740007300DF107031846FEF7A8FB094BDB680E
:10A28400013B084AD360074BDB68002B01D1FFF781
:10A294006FFF9DF807301846FEF7AEFB00BF03B012
:10A2A4005DF804FB0829002044FB020000B585B0DA
:10A2B40003468DF807309DF80730002B02D10C4B74
:10A2C400039301E00B4B03930398FFF7ABFF02905A
:10A2D400029B002B06D0029B5B689DF8072010466A
:10A2E4009847F1E700BF00BF05B05DF804FB00BF6D
:10A2F400102900201829002000B583B003468DF8EA
:10A3040007309DF80730002B05D10A4B01225A7003
:10A314000020FFF7CBFF9DF80730012B05D1054B3B
:10A3240001229A700120FFF7C1FF00BF03B05DF85E
:10A3340004FB00BF0829002000B583B00190009100
:10A34400019B002B05D1054B01225A700020FFF719
:10A35400ADFF00BF03B05DF804FB00BF0829002077
:10A3640000B585B0034600918DF807309DF807309D
:10A37400032B29D0032B35DC002B02D0012B04D076
:10A3840030E00020FFF7C6FE2DE000238DF80F30EB
:10A394000DF10F031846FEF719FB154B1B7883F0DC
:10A3A4000103DBB2002B01D0FFF702FF104BDB6887
:10A3B40001330F4AD3600E4B01229A709DF80F307F
:10A3C4001846FEF719FB0EE0094B1B78002B04D14D
:10A3D400084940F25220FEF793FB00F033FAFFF7EE
:10A3E40031FF00E000BF00BF05B05DF804FB00BF13
:10A3F4000829002044FB020000B589B001900091B7
:10A40400009B0793019B1B788DF80C30019B5B68C4
:10A414000493019B9B68DBB28DF81430019BDB68CD
:10A424000693074A079B52F823300649079A51F8C6
:10A43400221003AA1046984700BF09B05DF804FB38
:10A444001C2900202429002000B589B00190009126
:10A45400009B0793019B1B788DF80C30019B5B6874
:10A464000493019B9B68DBB28DF81430019BDB687D
:10A474000693074A079B52F823300649079A51F876
:10A48400221003AA1046984700BF09B05DF804FBE8
:10A494001C2900202429002030B58FB0039002919C
:10A4A4000192039B1B780C932C490C9B019A41F855
:10A4B4002320029B1A692A490C9B41F823200C9BF8
:10A4C400012B07D1029B5B7F002B03D1254976200A
:10A4D400FEF716FB029B5B7F1946234A0C9B134431
:10A4E4000A461A70029B04AC1D460FCD0FC495E8B2
:10A4F4000F0084E80F000C9B089300230D93039B2B
:10A504001B781A46184B9B5C002B0DD0039B181D1F
:10A51400019B002B01D0154A00E0002204AB194630
:10A5240001F040FF0D9014E0039B1B781A460E4B7C
:10A534009B5C002B0DD1039B03F10C00019B002BB2
:10A5440001D00B4A00E0002204AB194601F0A2F846
:10A554000D900D9B18460FB030BD00BF1C29002084
:10A564002429002098FB02002C290020FDA30200CE
:10A574004DA4020010B487B001900091019B009A91
:10A5840053E8004F04EA020043E8000191F0000F91
:10A59400F6D1059404900391059B184607B05DF825
:10A5A400044B704782B003468DF807309DF907309D
:10A5B400002B0CDB9DF8073003F01F0205499DF9C1
:10A5C40007305B09012000FA02F241F8232000BFA2
:10A5D40002B0704700E100E082B0034600918DF8BC
:10A5E40007309DF90730002B0ADB009BDAB20C49D7
:10A5F4009DF907305201D2B20B4483F800230BE0DB
:10A60400009BDAB207499DF8073003F00F03043BBF
:10A614005201D2B20B441A7600BF02B0704700BF99
:10A6240000E100E000ED00E082B00190019B1B0B13
:10A634005BB2184602B0704700B583B003460A46C1
:10A644008DF8073013468DF806309DF80630012B3F
:10A6540003D99DF80630032B0BD99DF80630042B43
:10A6640003D99DF80630072B03D908496B20FEF760
:10A6740047FA9DF806209DF9073011461846FFF762
:10A68400ABFF00BF03B05DF804FB00BFE8FB0200B2
:10A6940000B583B003468DF807309DF9073018469E
:10A6A400FFF780FF00BF03B05DF804FB82B00346F0
:10A6B4008DF807300F4A9DF90730002B00DA1F335D
:10A6C4005B115BB252F823209DF90730594203F025
:10A6D4001F0301F01F0158BF4B425BB222FA03F380
:10A6E40003F00103002B14BF01230023DBB218463F
:10A6F40002B0704700E100E082B001904FF0804268
:10A70400019BC2F8083300BF02B0704782B0034611
:10A714008DF807309DF8073003F1804301221A6059
:10A7240000BF02B0704784B00346ADF80630BDF8F0
:10A73400063003F1804300221A60BDF8063003F1AD
:10A7440080431B680393039B00BF04B0704782B02F
:10A754000346ADF80630BDF8063003F180431B68AC
:10A76400002B14BF01230023DBB2184602B070474C
:10A7740082B001904FF08042019BC2F8183500BFAF
:10A7840002B070474FF08043D3F818341B0C03F029
:10A794000103002B14BF01230023DBB218467047CA
:10A7A40000B583B006238DF807304FF08040FFF7E3
:10A7B4003BFF03461846FFF779FF034683F0010386
:10A7C400DBB2002B13D04FF08040FFF72DFF034680
:10A7D4001A469DF8073019461046FFF72DFF4FF033
:10A7E4008040FFF721FF03461846FFF751FF00BFE3
:10A7F40003B05DF804FB000000B585B00190019B37
:10A80400002B03D10D49A420FEF77AF9002303930A
:10A814000B4B1B79002B02D08523039308E0084AD5
:10A82400019B1360064B01221A71054B00225A71D9
:10A83400039B184605B05DF804FB00BF20FC020032
:10A844003029002008B5074B1B79002B03D106499A
:10A85400BD20FEF755F9FFF7A3FF0120FFF788FF9E
:10A8640000BF08BD3029002020FC020008B50D4BB4
:10A874001B79002B03D10C49F720FEF741F9022084
:10A88400FFF73AFF4FF48270FFF74DFF0C20FFF7FC
:10A894003DFF00BFFFF776FF0346002BFAD100BF50
:10A8A40000BF08BD3029002020FC020008B54FF489
:10A8B4008070FFF74CFF0346002B14D04FF48070D8
:10A8C400FFF731FF0120FFF717FF114B5B7983F08E
:10A8D4000103DBB2002B06D00D4B01225A710C4B45
:10A8E4001B68002098474FF48270FFF730FF03463F
:10A8F400002B0AD04FF48270FFF715FF0220FFF7F8
:10A90400FBFE034B1B680120984700BF08BD00BF36
:10A914003029002000B583B00346ADF80630BDF8F9
:10A924000630184600F026F803461B68012B0CBFBE
:10A9340001230023DBB2184603B05DF804FB00B525
:10A9440085B00346ADF80630BDF80630184600F071
:10A9540011F803461A4600231360BDF80630184662
:10A9640000F008F803461B680393039B00BF05B07F
:10A974005DF804FB82B00346ADF80630BDF806303E
:10A9840003F1804303F5C043184602B0704700004A
:10A9940082B00190034BD3F80423019B1340184663
:10A9A40002B070470060004082B00190054A019BEC
:10A9B40003F5A27352F823301B0A03F03F03184631
:10A9C40002B070470060004082B00190064A019BCB
:10A9D40003F5A27352F823301B0C03F00303DBB21C
:10A9E400184602B0704700BF0060004000B583B055
:10A9F4000190019B1B68184600F0AAF80346002B3F
:10AA040004D10B494FF4F670FEF77AF8019B1B68EA
:10AA14001F2B02D84FF0A04306E0019B1B6803F0F4
:10AA24001F02019B1A60034B184603B05DF804FB38
:10AA3400A0FC02000003005000B585B001900B4655
:10AA44008DF8033001AB1846FFF7D0FF0390019A4D
:10AA5400039B02F5E07253F82230019A23F440314B
:10AA6400039B02F5E07243F82210019A039B02F55E
:10AA7400E07253F822109DF803301B04019A194325
:10AA8400039B02F5E07243F8221000BF05B05DF8A5
:10AA940004FB00B585B0019001AB1846FFF7A6FF93
:10AAA4000390019A039B02F5E07253F822301B0CC9
:10AAB40003F00303DBB2184605B05DF804FB0000A5
:10AAC40088B0039002910192164A05AB92E8030004
:10AAD40083E80300039B079319E0079B9B00203343
:10AAE4006B4453F80C3CD3F82025019B1A60079B58
:10AAF4009B0020336B4453F80C3C019A1268C3F852
:10AB04002025019B04330193079B01330793039A88
:10AB1400029B1344079A9A42DFD300BF00BF08B0D8
:10AB2400704700BFD0FC020000B585B0019001ABB6
:10AB34001846FFF75BFF0390019B012202FA03F31F
:10AB44001A46039BC3F8202500BF05B05DF804FB3B
:10AB540084B00190019B5B09029300230393029B41
:10AB6400002B03D0029B012B04D007E04FF0FF33EE
:10AB7400039303E04FF6FF73039300BF019B03F0BD
:10AB84001F030193039A019B22FA03F303F00103C9
:10AB9400002B14BF01230023DBB2184604B0704716
:10ABA40084B001900091009B0393019BDB08029306
:10ABB400019B03F0070301930122019B02FA03F3B3
:10ABC4000399029A0A4412781340184604B0704755
:10ABD40082B00190044A019B1344303393F900304E
:10ABE400184602B0704700BF3829002082B0019097
:10ABF400034A019B52F82330184602B0704700BF45
:10AC04003829002084B00190074A019B1344603323
:10AC140093F900308DF80F309DF80F3023F0C00306
:10AC2400184604B0704700BF3829002084B0019052
:10AC3400074A019B1344603393F900308DF80F30B9
:10AC44009DF80F309B09DBB2184604B0704700BF73
:10AC54003829002000B585B00190019A0221002016
:10AC6400FFF72EFF002303930BE0039B9B00019A45
:10AC740013441B68002B01D0012306E0039B01331E
:10AC84000393039B012BF0D90023184605B05DF80C
:10AC940004FB000000B587B00190002305935BE03E
:10ACA400344A059B1344603393F90030B3F1FF3FFA
:10ACB4004ED00598FFF7A6FF049001990498FFF77A
:10ACC4006FFF0346002B44D00598FFF7AFFF034600
:10ACD4008DF80F300498FFF7DCFE03468DF80E3034
:10ACE4009DF80E30022B01D1032300E002238DF8DE
:10ACF4000D309DF80D3019460498FFF79DFE049819
:10AD0400FFF712FF0498FFF763FF03461846FFF7A7
:10AD14006DFF0290029B002B1BD09DF80F30032B7C
:10AD24000FD09DF80E30022B03D19DF80F30012B6C
:10AD340007D09DF80E30032B0BD19DF80F30022B5A
:10AD440007D19DF80F20029B11460498984700E014
:10AD540000BF059B01330593059B032BA0D90198E4
:10AD6400FFF778FF0346002B97D100BF00BF07B061
:10AD74005DF804FB3829002000B58BB0002308934C
:10AD840001AB00221A605A604FF48073ADF81A3098
:10AD9400012309930023079321E0BDF81A301846D4
:10ADA400FFF7B8FD0346002B0ED00998FFF7F0FD1E
:10ADB4000346002B08D0BDF81A301846FFF7BFFD34
:10ADC400089A099B13430893099B5B000993BDF8F8
:10ADD4001A300433ADF81A30079B01330793079BED
:10ADE400072BDAD94FF4BE70FFF794FD0346002B0E
:10ADF4000DD04FF4BE70FFF7A2FD089B43F0004353
:10AE0400089301AB1A4602210020FFF759FE089B64
:10AE1400DBB2002B29D0012309930023079321E0FF
:10AE2400099A089B1340002B16D00798FFF7BCFD26
:10AE340005900798FFF7C8FD03468DF8133007986F
:10AE4400FFF7D4FE0390039B002B05D09DF813203D
:10AE5400039B114605989847099B5B000993079B40
:10AE640001330793079B072BDAD9089B002B03DADE
:10AE740001AB1846FFF70EFF00BF0BB05DF804FBF3
:10AE840008B5064B1B68002B03D105495120FDF77B
:10AE940037FE024B1B68984708BD00BFA429002059
:10AEA40034FD020082B00190019B044A934201D117
:10AEB400034B00E00023184602B070470020004016
:10AEC400A429002000B587B001900091019B002BBC
:10AED40003D11C497720FDF713FE0198FFF7E2FF29
:10AEE4000590059B002B25D000238DF813300023FB
:10AEF4008DF80B300DF10B031846FDF767FD059B2C
:10AF04001B79002B03D001238DF8133005E0059B3A
:10AF1400009A1A60059B01221A719DF80B3018469D
:10AF2400FDF76AFD9DF81330002B03D01123039322
:10AF3400039B02E000230393039B184607B05DF8CC
:10AF440004FB00BF34FD020000B585B00190019BF5
:10AF5400002B03D10A499B20FDF7D2FD0198FFF78E
:10AF6400A1FF0390039B002B05D0039B00221A60D2
:10AF7400039B00221A7100BF05B05DF804FB00BFFB
:10AF840034FD020082B003468DF807309DF9073086
:10AF9400002B0CDB9DF8073003F01F0205499DF9D7
:10AFA40007305B09012000FA02F241F8232000BFB8
:10AFB40002B0704700E100E082B003468DF807302C
:10AFC4009DF90730002B13DB9DF8073003F01F02B7
:10AFD40009499DF907305B09012000FA02F2203388
:10AFE40041F82320BFF34F8F00BFBFF36F8F00BF23
:10AFF40000BF02B0704700BF00E100E082B003462A
:10B0040000918DF807309DF90730002B0ADB009B77
:10B01400DAB20C499DF907305201D2B20B4483F8DD
:10B0240000230BE0009BDAB207499DF8073003F0D8
:10B034000F03043B5201D2B20B441A7600BF02B094
:10B04400704700BF00E100E000ED00E082B0019035
:10B05400019B1B0B5BB2184602B0704700B583B06E
:10B0640003460A468DF8073013468DF806309DF8DE
:10B074000630012B03D99DF80630032B0BD99DF81C
:10B084000630042B03D99DF80630072B03D9084951
:10B094006B20FDF735FD9DF806209DF9073011461C
:10B0A4001846FFF7ABFF00BF03B05DF804FB00BF19
:10B0B40088FD020000B583B003468DF807309DF982
:10B0C40007301846FFF75EFF00BF03B05DF804FBCE
:10B0D40000B583B003468DF807309DF90730184654
:10B0E400FFF76AFF00BF03B05DF804FB84B0019072
:10B0F4000B46ADF80230BDF80230019A1344002229
:10B104001A60BDF80230019A13441B680393039B31
:10B1140000BF04B0704782B001900B46ADF8023016
:10B12400BDF80230019A13441B68002B14BF01239D
:10B134000023DBB2184602B0704782B00190009140
:10B14400019B009AC3F8042300BF02B0704782B089
:10B1540001900091019BD3F80423009B1340002B22
:10B1640014BF01230023DBB2184602B0704782B03B
:10B1740001900091019B009AC3F8082300BF02B01C
:10B18400704784B00190019BD3F880340393019BF2
:10B19400039AC3F88024039B184604B0704782B016
:10B1A4000190019B0422C3F8002500BF02B0704740
:10B1B40082B00190019B0022C3F8002500BF02B0B9
:10B1C400704784B0039002910192039B019AC3F8E3
:10B1D4001425039B029AC3F80C2500BF04B07047E2
:10B1E40000B583B001904FF0FF324FF0FF3101986A
:10B1F400FFF7E7FF00BF03B05DF804FB82B00190E6
:10B20400019BD3F80C35184602B0704782B0019008
:10B21400019BD3F81435184602B0704782B00190F0
:10B22400019BD3F80835184602B0704782B00190EC
:10B23400019BD3F81035184602B0704784B00390D0
:10B2440002910192039B029AC3F80825039B019A79
:10B25400C3F8102500BF04B0704700B583B0019057
:10B264004FF0FF324FF0FF310198FFF7E7FF00BFC7
:10B2740003B05DF804FB82B00190019BD3F818354C
:10B28400DBB2184602B0704782B001900B468DF8CD
:10B2940003309DF80320019BC3F81C2500BF02B0B6
:10B2A400704782B001900B468DF803309DF803304F
:10B2B400019A134401221A6000BF02B0704782B0A1
:10B2C40001900B468DF8033013468DF802309DF83B
:10B2D40003209DF802301343DBB21A46019BC3F8E6
:10B2E4006C2500BF02B0704782B001900091019BB1
:10B2F400009AC3F8242500BF02B0704700B583B09C
:10B304000190019B1B68184600F0A4F80346002B2B
:10B3140004D10B494FF4F670FDF7F2FB019B1B6857
:10B324001F2B02D84FF0A04306E0019B1B6803F0DB
:10B334001F02019B1A60034B184603B05DF804FB1F
:10B34400B8FD02000003005000B585B00190084626
:10B3540011461A4603468DF803300B468DF8023029
:10B3640013468DF8013001AB1846FFF7C7FF039071
:10B374009DF803209DF802305B001A439DF80130CC
:10B384009B001A439DF818301B0242EA03019DF802
:10B394001C301B04019A1943039B02F5E07243F825
:10B3A400221000BF05B05DF804FB00B585B0039022
:10B3B4000023019300230093002301220121039819
:10B3C400FFF7C2FF00BF05B05DF804FB00B585B010
:10B3D40003900B468DF80B309DF80B300022019240
:10B3E40000220092002200210398FFF7ADFF00BF66
:10B3F40005B05DF804FB00B585B00390002301930C
:10B40400002300930023012200210398FFF79CFFEF
:10B4140000BF05B05DF804FB00B585B0019001AB39
:10B424001846FFF76BFF0390019B012202FA03F316
:10B434001946039800F004F800BF05B05DF804FB5A
:10B4440082B001900091019B009AC3F8082500BFC7
:10B4540002B0704784B00190019B5B090293002302
:10B464000393029B002B03D0029B012B04D007E023
:10B474004FF0FF33039303E04FF6FF73039300BFD2
:10B48400019B03F01F030193039A019B22FA03F328
:10B4940003F00103002B14BF01230023DBB2184681
:10B4A40004B0704700B583B001900091009B1B6805
:10B4B400B3F1FF3F09D0009B1B681846FFF7ACFFB0
:10B4C400009B1B681846FFF770FF009B5B68B3F195
:10B4D400FF3F05D0009B5B6800211846FFF776FF0D
:10B4E400019B1A68009B9B6919461046FFF7FCFEF6
:10B4F400019B1868009B597D009B1B7D1A46FFF732
:10B50400DEFE019B1868009B1968009B5B681A4665
:10B51400FFF757FE009B1B7D012B22D1009B9B68EC
:10B52400B3F1FF3F05D0009B9B6800211846FFF74D
:10B534004DFF009BDB68B3F1FF3F09D0009BDB6844
:10B544001846FFF769FF009BDB681846FFF72DFFDD
:10B55400019B1868009BD968009B9B681A46FFF7FB
:10B564006DFE00BF03B05DF804FB000000B583B0BE
:10B5740001900B468DF80330019B1B684FF48E71CC
:10B584001846FFF7B3FD019B1B684FF4A2711846E0
:10B59400FFF7ACFD019B1B680E491846FFF7CDFD74
:10B5A400019B1B681846FFF751FD03461A469DF898
:10B5B400033019461046FFF751FD019B1B681846DE
:10B5C400FFF744FD03461846FFF774FD00BF03B0C0
:10B5D4005DF804FB8000020000B583B00190019B7C
:10B5E4001B6808491846FFF7C2FD019B1B681846F3
:10B5F400FFF72CFD03461846FFF76AFD00BF03B0B2
:10B604005DF804FB8402020000B587B00190019B41
:10B614001B681846FFF7F2FD0590019B1B6818464E
:10B62400FFF7F4FD0490019B1B681846FFF7F6FD35
:10B634000390019B1B681846FFF7F8FD0290019BDD
:10B644001B681846FFF7CCFD019B1B681846FFF7E3
:10B6540004FE059BB3F1FF3F02D00598FFF7CBFE34
:10B66400049BB3F1FF3F02D00498FFF7C4FE029B92
:10B67400B3F1FF3F02D00298FFF7BDFE039BB3F185
:10B68400FF3F02D00398FFF7B6FE00BF07B05DF896
:10B6940004FB000000B587B0039002910192029B65
:10B6A400002B03D12D49AA20FDF72AFA039B1B790D
:10B6B4001A462C2302FB03F3294A13440493002360
:10B6C4000593049B93F82A30002B03D00823059399
:10B6D400059B3EE0039B1A68039B1B791946214B8B
:10B6E40053F8213019461046FFF7ECFB0346002BB4
:10B6F40003D011230593059B2BE002990398FFF7D0
:10B70400D1FE049B019A5A60029B1A69049B1A6039
:10B71400049B5B68002B05D0029B1B7F1946039892
:10B72400FFF724FF039B1B681846FFF738FD049BB3
:10B7340000229A61049B0022DA61049B002283F8B0
:10B744002920049B00225A61049B012283F82A20A9
:10B75400059B184607B05DF804FB00BFF0FD02002E
:10B76400AC29002040FE020000B585B00190019B89
:10B774001B791A462C2302FB03F3114A1344039347
:10B78400019B1B681846FFF713FD039B5B68002BA6
:10B7940002D00198FFF720FF0198FFF735FF019BC6
:10B7A4001B681846FFF7D0FB039B002283F82A206E
:10B7B400039B00225A6000BF05B05DF804FB00BF84
:10B7C400AC29002000B585B0019000914FF48E7132
:10B7D4000198FFF78BFC009B9A68009B1B6A13443B
:10B7E4001B788DF80F30009B1B6A5A1C009B1A6251
:10B7F4009DF80F3019460198FFF746FD00BF05B0CC
:10B804005DF804FB00B585B001900091009B5B6975
:10B81400039316E0009B93F82830DBB2002B01D091
:10B82400002314E04FF48E710198FFF774FC034673
:10B8340083F00103DBB2002BECD100990198FFF7F0
:10B84400C1FF009B1B6A039A9A42EBD80123184656
:10B8540005B05DF804FB000000B587B003900291C9
:10B864000192039B1B791A462C2302FB03F33C4AE7
:10B8740013440493049B93F82A30012B04D03949D0
:10B884004FF48C70FDF73CF9029B002B04D1354931
:10B8940040F21910FDF734F9019B002B04D1314912
:10B8A4004FF48D70FDF72CF9039800F05DF8034612
:10B8B400002B03D011230593059B4CE0049B019AB4
:10B8C4005A61049B029A9A60049B00221A62049BA8
:10B8D400002283F8282000230593039B1B684FF460
:10B8E4008E711846FFF702FC039B1B68082118465B
:10B8F400FFF7D7FC039B1B6804991846FFF762FF08
:10B90400049B5B68002B25D1039B1B680499184694
:10B91400FFF778FF034683F00103DBB2002B02D06C
:10B924000F23059313E000BF039B1B684FF48E7134
:10B934001846FFF7F0FB034683F00103DBB2002B4C
:10B94400F2D1039B1B680C211846FFF7AAFC049B49
:10B9540000225A61059B184607B05DF804FB00BF3E
:10B96400AC290020F0FD020082B00190019B1B79FC
:10B974001946074A2C2301FB03F3134414331B68B1
:10B98400002B14BF01230023DBB2184602B070471A
:10B99400AC29002010B582B001900091009B9B69F6
:10B9A400002B08D14FF484710198FFF79FFB019895
:10B9B400FFF761FC13E04FF484710198FFF796FBE5
:10B9C400009BDA68009B5B6AD4180198FFF753FC6C
:10B9D40003462370009B5B6A5A1C009B5A6202B0A8
:10B9E40010BD00B589B003900291019201238DF836
:10B9F4001030029B0693019B0593039B5B68039A9B
:10BA0400116804AA1046984700BF09B05DF804FB0A
:10BA140000B587B00190009100238DF80830009B99
:10BA24000493019B9B680393019B00225A61019B31
:10BA34005B68019A116802AA1046984700BF07B0D4
:10BA44005DF804FB00B58BB0019000914FF40071D8
:10BA54000198FFF77CFB0346002B39D04FF4927119
:10BA64000198FFF758FB0346002B31D04FF4927135
:10BA74000198FFF73BFB4FF401710198FFF777FB47
:10BA8400009B93F8293083F00103DBB2002B03D031
:10BA940004210198FFF705FC02238DF80C3001986E
:10BAA400FFF76FFB03460693009B9B690593009B7E
:10BAB400DB680493009B00229A61009B0022DA61F8
:10BAC400009B5B68009A116803AA1046984752E0ED
:10BAD40004210198FFF73BFB0346002B4BD04FF4A6
:10BAE40084710198FFF717FB0346002B43D000999C
:10BAF4000198FFF74FFF009B9A69009B5B6A9A428B
:10BB040039D1009BDB69002B19D0009BDB680993BA
:10BB1400009B5B6A0893009BDA69009B9A61009B17
:10BB24001A69009BDA60009B0022DA61009B002204
:10BB34005A62099A08990098FFF753FF1BE0009B8B
:10BB440093F8293083F00103DBB2002B03D00421E6
:10BB54000198FFF7A6FB4FF401710198FFF707FB6B
:10BB6400009B00229A61009B596A009BDB681A467D
:10BB74000098FFF736FF4FF48E710198FFF7CBFA68
:10BB84000346002B24D0009B5B690793009B1B6A30
:10BB9400079A9A420DD9009B93F82830DBB283F0C0
:10BBA4000103DBB2002B04D000990198FFF70AFED1
:10BBB4000EE04FF48E710198FFF798FA009B5B69D1
:10BBC400002B05D0009B5B6919460098FFF720FF06
:10BBD4004FF4A2710198FFF79EFA0346002B1CD084
:10BBE4004FF4A2710198FFF781FA009B93F8293072
:10BBF400002B03D000210198FFF753FB009B9B69A6
:10BC0400002B0AD0009B00229A61009B596A009B7A
:10BC1400DB681A460098FFF7E4FE00BF0BB05DF83E
:10BC240004FB000008B503490348FFF70BFF00BFFE
:10BC340008BD00BFAC2900200020004082B00346AC
:10BC44008DF807309DF90730002B0CDB9DF8073089
:10BC540003F01F0205499DF907305B09012000FA32
:10BC640002F241F8232000BF02B0704700E100E077
:10BC740082B003468DF807309DF90730002B13DBA3
:10BC84009DF8073003F01F0209499DF907305B094D
:10BC9400012000FA02F2203341F82320BFF34F8F32
:10BCA40000BFBFF36F8F00BF00BF02B0704700BF7B
:10BCB40000E100E082B0034600918DF807309DF961
:10BCC4000730002B0ADB009BDAB20C499DF90730E0
:10BCD4005201D2B20B4483F800230BE0009BDAB28A
:10BCE40007499DF8073003F00F03043B5201D2B219
:10BCF4000B441A7600BF02B0704700BF00E100E0B9
:10BD040000ED00E082B00190019B03F06043B3F1C9
:10BD1400005F0CBF01230023DBB2184602B070475A
:10BD240082B00190019B1B0B5BB2184602B07047B6
:10BD340000B583B003460A468DF8073013468DF8E4
:10BD440006309DF80630012B03D99DF80630032BED
:10BD54000BD99DF80630042B03D99DF80630072B28
:10BD640003D908496B20FCF7CBFE9DF806209DF90A
:10BD7400073011461846FFF79DFF00BF03B05DF87A
:10BD840004FB00BF44FE020000B583B003468DF8F7
:10BD940007309DF907301846FFF750FF00BF03B086
:10BDA4005DF804FB00B583B003468DF807309DF9B8
:10BDB40007301846FFF75CFF00BF03B05DF804FBD3
:10BDC40084B001900B46ADF80230BDF80230019A00
:10BDD400134400221A60BDF80230019A13441B6810
:10BDE4000393039B00BF04B0704782B001900B46DD
:10BDF400ADF80230BDF80230019A13441B68002BE1
:10BE040014BF01230023DBB2184602B0704782B08E
:10BE140001900091019BD3F80022009BDB431A4060
:10BE2400019BC3F8002200BF02B0704782B00190AA
:10BE34000091019B009AC3F8042300BF02B070472D
:10BE440082B001900091019B009AC3F8082300BFBF
:10BE540002B0704784B00190019BD3F880340393FF
:10BE6400019B039AC3F88024039B184604B07047CF
:10BE740082B00190019B0822C3F8002500BF02B0E4
:10BE8400704782B00190019B0022C3F8002500BFD7
:10BE940002B0704784B0039002910192039B029A0E
:10BEA400C3F80C25039B019AC3F8142500BF04B002
:10BEB400704700B583B001904FF0FF324FF0FF316F
:10BEC4000198FFF7E7FF00BF03B05DF804FB82B001
:10BED4000190019BD3F80C35184602B0704782B02C
:10BEE4000190019BD3F81435184602B0704782B014
:10BEF4000190019BD3F80835184602B0704782B010
:10BF04000190019BD3F81035184602B0704784B0F5
:10BF1400039002910192039B029AC3F80825039BA4
:10BF2400019AC3F8102500BF04B0704700B583B070
:10BF340001904FF0FF324FF0FF310198FFF7E7FF18
:10BF440000BF03B05DF804FB82B001900B468DF88E
:10BF540003309DF80330019A134401221A6000BF94
:10BF640002B0704782B001900B468DF8033013463F
:10BF74008DF802309DF803209DF802301343DBB2A4
:10BF84001A46019BC3F86C2500BF02B0704782B00B
:10BF940001900091019B009AC3F8242500BF02B0D0
:10BFA400704784B0039002910192029A039BC3F8F4
:10BFB4004425039B019AC3F8482500BF04B0704789
:10BFC40082B00190019BD3F84C35184602B07047FB
:10BFD40082B00190019BD3F83C35184602B07047FB
:10BFE40000B583B00190019B1B68184600F0A4F8CB
:10BFF4000346002B04D10B494FF4F670FCF780FD87
:10C00400019B1B681F2B02D84FF0A04306E0019B45
:10C014001B6803F01F02019B1A60034B184603B010
:10C024005DF804FB74FE02000003005000B585B007
:10C034000190084611461A4603468DF803300B4614
:10C044008DF8023013468DF8013001AB1846FFF726
:10C05400C7FF03909DF803209DF802305B001A434C
:10C064009DF801309B001A439DF818301B0242EAE8
:10C0740003019DF81C301B04019A1943039B02F52C
:10C08400E07243F8221000BF05B05DF804FB00B570
:10C0940085B0039000230193002300930023012221
:10C0A40001210398FFF7C2FF00BF05B05DF804FB50
:10C0B40000B585B003900B468DF80B309DF80B301E
:10C0C4000022019200220092002200210398FFF72F
:10C0D400ADFF00BF05B05DF804FB00B585B003906B
:10C0E40000230193002300930023012200210398DD
:10C0F400FFF79CFF00BF05B05DF804FB00B585B0F9
:10C10400019001AB1846FFF76BFF0390019B0122DE
:10C1140002FA03F31946039800F004F800BF05B0CF
:10C124005DF804FB82B001900091019B009AC3F872
:10C13400082500BF02B0704784B00190019B5B09E1
:10C14400029300230393029B002B03D0029B012B39
:10C1540004D007E04FF0FF33039303E04FF6FF737F
:10C16400039300BF019B03F01F030193039A019BF8
:10C1740022FA03F303F00103002B14BF012300236D
:10C18400DBB2184604B0704700B583B0019000914B
:10C19400009B1B68B3F1FF3F09D0009B1B68184646
:10C1A400FFF7ACFF009B1B681846FFF770FF009B6E
:10C1B4005B68B3F1FF3F05D0009B5B680021184624
:10C1C400FFF776FF019B1A68009B9B69194610468E
:10C1D400FFF7DDFE019B1868009B597D009B1B7DCA
:10C1E4001A46FFF7BFFE019B1868009B1968009B65
:10C1F4005B681A46FFF74EFE009B1B7D012B22D184
:10C20400009B9B68B3F1FF3F05D0009B9B68002116
:10C214001846FFF74DFF009BDB68B3F1FF3F09D0E1
:10C22400009BDB681846FFF769FF009BDB68184634
:10C23400FFF72DFF019B1868009BD968009B9B6842
:10C244001A46FFF764FE00BF03B05DF804FB00006C
:10C2540000B583B001900B468DF80330019B1B6839
:10C264004FF488711846FFF7ABFD019B1B684FF430
:10C2740090711846FFF7A4FD019B1B684FF492715F
:10C284001846FFF79DFD019B1B684FF4A2711846E9
:10C29400FFF796FD019B1B684FF4AC711846FFF73E
:10C2A4008FFD019B1B680F491846FFF7BFFD019BDB
:10C2B4001B681846FFF734FD03461A469DF8033001
:10C2C40019461046FFF734FD019B1B681846FFF71B
:10C2D40027FD03461846FFF757FD00BF03B05DF87E
:10C2E40004FB00BF1003420000B583B00190019B22
:10C2F4001B6808491846FFF7A3FD019B1B681846F5
:10C30400FFF70EFD03461846FFF74CFD00BF03B0D0
:10C314005DF804FB1003420000B587B00190019B57
:10C324001B681846FFF7D3FD0590019B1B68184650
:10C33400FFF7D5FD0490019B1B681846FFF7D7FD56
:10C344000390019B1B681846FFF7D9FD0290019BDF
:10C354001B681846FFF7ADFD019B1B681846FFF7E5
:10C36400E5FD059BB3F1FF3F02D00598FFF7B5FE4D
:10C37400049BB3F1FF3F02D00498FFF7AEFE029B8B
:10C38400B3F1FF3F02D00298FFF7A7FE039BB3F17E
:10C39400FF3F02D00398FFF7A0FE00BF07B05DF88F
:10C3A40004FB000000B587B0039002910192029B48
:10C3B400002B03D12B49CF20FCF7A2FB039B1B7955
:10C3C4001A461346DB0013449B00274A1344049384
:10C3D40000230593049B93F82030002B03D00823FB
:10C3E4000593059B3AE0039B1A68039B1B79194646
:10C3F4001E4B53F8213019461046FEF763FD0346E1
:10C40400002B03D011230593059B27E00299039881
:10C41400FFF7BAFE049B019A5A60029B1A69049BB7
:10C424001A60049B5B68002B05D0029B1B7F194696
:10C434000398FFF70DFF039B1B681846FFF718FDD1
:10C44400049B00229A61049B0022DA61049B00226F
:10C454005A61049B012283F82020059B184607B0EB
:10C464005DF804FBACFE0200D8290020FCFE0200AB
:10C4740000B585B00190019B1B791A461346DB0079
:10C4840013449B002A4A13440393019B1B680293A1
:10C49400039B5B68002B02D00198FFF725FF202146
:10C4A4000298FFF7B4FC039B9B69002B08D04FF460
:10C4B400A2710298FFF784FC04210298FFF744FD5F
:10C4C4004FF4AC710298FFF77BFC0C210298FFF744
:10C4D4003BFD00BF4FF4AC710298FFF786FC0346A6
:10C4E40083F00103DBB2002BF4D1039B9B69002B87
:10C4F4000AD04FF4A2710298FFF777FC034683F049
:10C504000103DBB2002BE5D10298FFF7BAFC0198D6
:10C51400FFF702FF0298FEF717FD039B002283F842
:10C524002020039B00225A6000BF05B05DF804FB85
:10C53400D829002000B589B0039002910192039B91
:10C544001B791A461346DB0013449B00574A1344D5
:10C554000593059B93F82030012B04D0544940F2F5
:10C564005310FCF7CDFA029B002B04D150494FF431
:10C57400AA70FCF7C5FA019B002B04D14C4940F288
:10C584005510FCF7BDFA039B1B79002B03D1019BCB
:10C59400B3F5803F04D346494FF4AB70FCF7B0FACF
:10C5A4000298FFF7AFFB034683F00103DBB2002BD5
:10C5B40003D010230793079B73E0039800F07AF8E5
:10C5C4000346002B03D011230793079B69E0059BC7
:10C5D400019A5A61059B029A9A6000230793039B70
:10C5E4001B684FF490711846FFF7EAFB039B1B6826
:10C5F4004FF4AC711846FFF7E3FB039B1868059BE7
:10C604009968059B5B691A46FFF7CBFC039B1B6883
:10C6140008211846FFF798FC059B5B68002B3FD167
:10C62400039B1B684FF490711846FFF7DEFB03462B
:10C634008DF81B30039B1B684FF4AC711846FFF751
:10C64400D4FB03468DF81A309DF81B3083F00103A8
:10C65400DBB2002B06D09DF81A3083F00103DBB265
:10C66400002BDDD19DF81A30002B02D00F23079345
:10C6740013E0039B1B680C211846FFF765FC00BF01
:10C68400039B1B684FF4AC711846FFF7AEFB0346DF
:10C6940083F00103DBB2002BF2D1059B00225A6127
:10C6A400079B184609B05DF804FB00BFD829002099
:10C6B400ACFE020082B00190019B1B791946084A26
:10C6C4000B46DB000B449B00134414331B68002B04
:10C6D40014BF01230023DBB2184602B0704700BF29
:10C6E400D829002000B589B003900291019201235A
:10C6F4008DF81030029B0693019B0593039B5B68A6
:10C70400039A116804AA1046984700BF09B05DF85F
:10C7140004FB00B587B00190009100238DF8083028
:10C72400009B0493019B9B680393019B00225A6125
:10C73400019B5B68019A116802AA1046984700BFE2
:10C7440007B05DF804FB00B589B0019000914FF487
:10C7540092710198FFF749FB0346002B22D04FF456
:10C7640092710198FFF72CFB02238DF80830019891
:10C77400FFF770FB034605930198FFF729FC034676
:10C784000493009BDB680393009B00229A61009B47
:10C794000022DA61009B5B68009A116802AA1046C5
:10C7A40098473BE04FF488710198FFF71EFB03465E
:10C7B400002B33D04FF488710198FFF701FB0198E7
:10C7C400FFF706FC0790009B9B69079A9A4225D1C4
:10C7D400009BDB69002B17D0009BDB6806932021AC
:10C7E4000198FFF714FB009BDA69009B9A61009B98
:10C7F4001A69009BDA60009B0022DA61069A0799A5
:10C804000098FFF76FFF09E0009B00229A61009BEC
:10C81400DB681A4607990098FFF764FF4FF4A2718A
:10C824000198FFF7E2FA0346002B18D04FF4A271E7
:10C834000198FFF7C5FA009B9B69002B0FD0009B62
:10C8440000229A61009B0022DA610198FFF7C0FB85
:10C854000146009BDB681A460098FFF743FF4FF43C
:10C8640090710198FFF7C1FA0346002B14D04FF4DE
:10C8740090710198FFF7A4FA0C210198FFF764FB6B
:10C88400009B5B69002B07D00198FFF799FB0346D7
:10C8940019460098FFF73DFF4FF4AC710198FFF77C
:10C8A400A4FA0346002B10D04FF4AC710198FFF7A3
:10C8B40087FA009B5B69002B07D00198FFF780FB88
:10C8C400034619460098FFF724FF00BF09B05DF83E
:10C8D40004FB000008B503490348FFF734FF00BF19
:10C8E40008BD00BFD82900200020004082B001907C
:10C8F400019B9A00024B1B681344184602B0704710
:10C904004400030082B00190019B03F1804303F5CE
:10C914001C33184602B0704782B00190019B03F1AA
:10C92400804303F51C33184602B0704700B583B04A
:10C9340003468DF807309DF807301846FFF7E2FFED
:10C94400034601221A60BFF36F8F00BFBFF34F8FFE
:10C9540000BF00BF03B05DF804FB00B583B003461D
:10C96400ADF80630BDF806301846FFF7CBFF034696
:10C9740000221A60BFF36F8F00BFBFF34F8F00BF59
:10C9840000BF03B05DF804FB00B583B00346ADF807
:10C994000630BDF806301846FFF7BEFF03461B6895
:10C9A400002B14BF01230023DBB2184603B05DF84B
:10C9B40004FB00B585B00346ADF80630BDF806307B
:10C9C4001846FFF7E1FF03468DF80F309DF80F304E
:10C9D400002B04D0BDF806301846FFF7BEFF9DF8C3
:10C9E4000F30184605B05DF804FB0000024BD3F885
:10C9F40004331846704700BF00700240024BD3F85E
:10CA040000341846704700BF0070024082B00190A5
:10CA1400064A019BC2F80034BFF36F8F00BFBFF317
:10CA24004F8F00BF00BF02B0704700BF00700240CC
:10CA340000B583B0FFF7E2FF01900198FFF7E6FF2E
:10CA4400BFF36F8F00BFBFF34F8F00BF019B18462A
:10CA540003B05DF804FB0000024BD3F86C341846B5
:10CA6400704700BF0070024082B00190064A019BEB
:10CA7400C2F86C34BFF36F8F00BFBFF34F8F00BF9A
:10CA840000BF02B0704700BF0070024000B583B021
:10CA9400FFF7E2FF01900198FFF7E6FF019B1846BC
:10CAA40003B05DF804FB0000024BD3F88034DBB222
:10CAB400184670470070024000B585B003468DF8F3
:10CAC40007309DF90730002B05DA9DF8073003F095
