:020000022000DC
:1070000000000420197202000172020003720200E3
:1070100005720200077202000972020000000000FF
:107020000000000000000000000000000B720200E1
:107030000D720200000000000F72020011720200C7
:10704000398C0200137202000D92020013720200CA
:107050001372020013720200059102001372020003
:107060001372020013720200137202001372020004
:1070700013720200137202001372020013720200F4
:107080001372020031C80200137202001372020070
:107090001372020013720200EDE902001372020083
:1070A00013720200137202001372020013720200C4
:1070B00013720200137202000000000000000000C2
:1070C00013720200137202001372020013720200A4
:1070D00013720200137202001372020061C00200F8
:1070E000137202001372020013720200000000000B
:1070F0000000000013720200000000001372020082
:10710000000000000000000000000000000000007F
:10711000000000000000000000000000000000006F
:10712000000000000000000000000000000000005F
:10713000000000000000000000000000000000004F
:10714000000000000000000000000000000000003F
:10715000000000000000000000000000000000002F
:10716000000000000000000000000000000000001F
:10717000000000000000000000000000000000000F
:1071800000000000000000000000000000000000FF
:1071900000000000000000000000000000000000EF
:1071A00000000000000000000000000000000000DF
:1071B00000000000000000000000000000000000CF
:1071C00000000000000000000000000000000000BF
:1071D00000000000000000000000000000000000AF
:1071E000000000000000000000000000000000009F
:1071F000000000000000000000000000000000008F
:10720000FEE7FEE7FEE7FEE7FEE7FEE7FEE7FEE756
:10721000FEE7FEE700F002B8FFF7FCBF0F484FF0B3
:107220000701884385460E4880470E48016841F4AF
:1072300070010160BFF34F8FBFF36F8F00F01AB87A
:1072400009480A490A4A884207D0521A05D00378E9
:1072500001300B700131013AF9D170470000042070
:107260004D7B020088ED00E0F0F5020000230020D5
:10727000002300203A493B480A1A02D007229143D2
:107280008D46394939480A1A06D00722914381F3BD
:107290000988022282F3148835483649364A00F0BC
:1072A00041F836483649374A00F03CF83648374905
:1072B000374A00F037F837483749384A00F032F893
:1072C00037483849384A00F02DF838483849394AA3
:1072D00000F028F838483949394A00F023F839488D
:1072E0003949002200F036F838483949002200F0C8
:1072F00031F838483849091A07F0E2FF374A904711
:1073000025482649884205D00268043003B49047D6
:1073100003BCF7E700208646EC4600200021304AF7
:107320009047FEE7884214D0521A12D003460B430E
:1073300013430324234206D1036804300B60043155
:10734000043AF9D17047037801300B700131013AEA
:10735000F9D17047884202D002700130FAE77047D5
:107360000000042000E003200000042000000420AE
:107370000C1C03000023002078230020E47302008B
:10738000E473020002F502000C1C0300002300203D
:1073900000230020F0F50200F0F50200F0F50200F5
:1073A000F0F50200F0F50200F0F50200F0F5020041
:1073B000F0F50200091C0300841C03007823002060
:1073C0007823002078230020702C0020702C0020CF
:1073D000702C0020702C0020704C002041720200A4
:0473E00049770200E7
:1073E40000B585B00190019B002B0AD0074B43F0F8
:1073F40001030393019B9B010293039B029898470B
:1074040000E000BF05B05DF804FB00BF60F60200B9
:1074140000B583B00190019B1B68184600F0D0F8BA
:107424000346002B04D10B494FF4F67005F00CFA17
:10743400019B1B681F2B02D84FF0A04306E0019B61
:107444001B6803F01F02019B1A60034B184603B02C
:107454005DF804FBF0F502000003005000B585B0B0
:107464000190084611461A4603468DF803300B4630
:107474008DF8023013468DF8013001AB1846FFF742
:10748400C7FF03909DF803209DF802305B001A4368
:107494009DF801309B001A439DF818301B0242EA04
:1074A40003019DF81C301B04019A1943039B02F548
:1074B400E07243F8221000BF05B05DF804FB00B58C
:1074C40085B003900023019300230093002301223D
:1074D40001210398FFF7C2FF00BF05B05DF804FB6C
:1074E40000B585B0019001AB1846FFF791FF0390FA
:1074F400019B012202FA03F31946039800F04CF8A9
:1075040000BF05B05DF804FB00B585B0019001AB88
:107514001846FFF77DFF0390019B012202FA03F353
:107524001946039800F042F800BF05B05DF804FB6B
:1075340000B585B0019001AB1846FFF769FF0390D1
:10754400039BD3F804350293029BDA43019B012188
:1075540001FA03F31A40039BC3F80825019B012297
:107564009A40029B1A40039BC3F80C2500BF05B048
:107574005DF804FB00B583B001900091009B002BE3
:1075840003D10198FFF7C0FF02E00198FFF7A8FFBD
:1075940000BF03B05DF804FB82B001900091019B31
:1075A400009AC3F8082500BF02B0704782B001906A
:1075B4000091019B009AC3F80C2500BF02B07047EC
:1075C40084B00190019B5B09029300230393029B07
:1075D400002B03D0029B012B04D007E04FF0FF33B4
:1075E400039303E04FF6FF73039300BF019B03F083
:1075F4001F030193039A019B22FA03F303F001038F
:10760400002B14BF01230023DBB2184604B07047DB
:1076140000B583B00190019B002B0AD04FF47A701F
:10762400FFF7DEFE019B013B0193019B002BF5D18B
:1076340000E000BF03B05DF804FB000082B00190DD
:107644000091019B1B78002B02D0022B04D004E094
:10765400034B00221A7000E000BF00BF02B0704765
:10766400F823002000B589B06B462022002118467B
:1076740007F09EFE2B2300932C2301934FF0FF333E
:1076840002934FF0FF330393074B069306238DF8C1
:107694001C306B46054A1946054802F0BFF900BF85
:1076A40009B05DF804FB00BF00E0D7014176020099
:1076B40058F6020000B587B00190019807F00AFE61
:1076C4000590019B049323E0059B802B28BF802316
:1076D400039300E020BF134B1B78DBB2002BF9D1DE
:1076E400039A0499104807F031FE0E4B01221A70D8
:1076F400039A0D490D4802F073FA0346002B0BD18F
:10770400049A039B13440493059A039BD31A059389
:10771400059B002BD8D100E000BF00BF07B05DF887
:1077240004FB00BFF82300207823002058F6020051
:1077340008B52D20FFF7C3FE01212D20FFF71AFF06
:1077440000BF08BD00B58BB0FFF7F2FFFFF78AFF5B
:107754000D48FFF7AFFF0D48FFF7ACFF0023099377
:107764002D20FFF7E5FE099B5A1C099201A8084A3F
:10777400202107F06AFA01AB1846FFF79BFF4FF48C
:10778400FA70FFF745FFEBE720F6020034F602003B
:1077940048F60200BFF34F8F00BF064BDB6803F4CB
:1077A400E0620449044B1343CB60BFF34F8F00BF27
:1077B40000BFFDE700ED00E00400FA0582B0164BBF
:1077C4001B680193154B1B680093019B082B1FD169
:1077D400009B052B1AD801A252F823F0F977020076
:1077E400FD770200017802000578020009780200A2
:1077F4000D78020001230CE001230AE0012308E0D4
:10780400012306E0012304E0012302E0012300E058
:107814000023184602B070473001001034010010F4
:1078240082B0164B1B680193154B1B680093019B98
:10783400082B1FD1009B052B1AD801A252F823F064
:107844005D780200617802006578020069780200C0
:107854006D7802007178020001230CE001230AE034
:10786400012308E0012306E0012304E0012302E0F0
:10787400012300E00023184602B0704730010010D5
:107884003401001082B0164B1B680193154B1B6822
:107894000093019B082B1FD1009B052B1AD801A232
:1078A40052F823F0C1780200C5780200C9780200BA
:1078B400CD780200D1780200D578020001230CE0D3
:1078C40000230AE0002308E0002306E0002304E08C
:1078D400002302E0002300E00023184602B07047B2
:1078E400300100103401001082B0164B1B68019364
:1078F400154B1B680093019B082B1FD1009B052B84
:107904001AD801A252F823F025790200297902003D
:107914002D790200317902003579020039790200AB
:1079240001230CE000230AE0002308E0002306E022
:10793400002304E0002302E0002300E000231846B3
:1079440002B07047300100103401001082B0164BB1
:107954001B680193154B1B680093019B082B1FD1D7
:10796400009B052B1AD801A252F823F08979020052
:107974008D790200917902009579020099790200CB
:107984009D79020001230CE000230AE0002308E0B3
:10799400002306E0002304E0002302E0002300E0CB
:1079A4000023184602B07047300100103401001063
:1079B40082B0164B1B680193154B1B680093019B07
:1079C400082B1FD1009B052B1AD801A252F823F0D3
:1079D400ED790200F1790200F5790200F9790200EB
:1079E400FD790200017A020001230CE000230AE081
:1079F400002308E0002306E0002304E0002302E063
:107A0400002300E00023184602B070473001001044
:107A14003401001082B0164B1B680193154B1B6890
:107A24000093019B082B1FD1009B052B1AD801A2A0
:107A340052F823F0517A0200557A0200597A020072
:107A44005D7A0200617A0200657A020001230CE08B
:107A540001230AE0012308E0012306E0012304E0F6
:107A6400012302E0012300E00023184602B070471E
:107A7400300100103401001082B0164B1B680193D2
:107A8400154B1B680093019B082B1FD1009B052BF2
:107A94001AD801A252F823F0B57A0200B97A02008A
:107AA400BD7A0200C17A0200C57A0200C97A0200D6
:107AB40000230CE000230AE0002308E0002306E092
:107AC400012304E0012302E0012300E0002318461F
:107AD40002B07047300100103401001008B5FFF700
:107AE400CBFF0346002B07D04FF010234FF080420A
:107AF400D3F80832C2F8583500BF08BD00BF044BA4
:107B0400D3F80034002BFAD000BF00BF704700BF89
:107B140000E0014000B583B00190054A019BC2F822
:107B24000435FFF7EBFF00BF03B05DF804FB00BFB3
:107B340000E00140024B034A1A6000BF704700BFD7
:107B4400002300200090D00308B5FFF737FE03465A
:107B5400002B0ED04FF080430022C3F80C214FF0CD
:107B640080430022C3F810214FF080430022C3F861
:107B74003825FFF755FE0346002B76D04FF080538F
:107B8400734AD3F80434C2F820354FF08053704A56
:107B9400D3F80834C2F824354FF080536C4AD3F834
:107BA4000C34C2F828354FF08053694AD3F81034A6
:107BB400C2F82C354FF08053654AD3F81434C2F818
:107BC40030354FF08053624AD3F81834C2F8343554
:107BD4004FF080535E4AD3F81C34C2F840354FF05E
:107BE40080535B4AD3F82034C2F844354FF08053B5
:107BF400574AD3F82434C2F848354FF08053544AD6
:107C0400D3F82834C2F84C354FF08053504AD3F897
:107C14002C34C2F850354FF080534D4AD3F83034E9
:107C2400C2F854354FF08053494AD3F83434C2F87B
:107C340060354FF08053464AD3F83834C2F864357F
:107C44004FF08053424AD3F83C34C2F868354FF0C1
:107C540080533F4AD3F84034C2F86C354FF0805318
:107C64003B4AD3F84434C2F87035FFF70BFE0346A1
:107C7400002B02D0374B384A1A60FFF735FE034613
:107C8400002B03D0354BFB22C3F81825FFF75EFE0B
:107C94000346002B0AD0324B1B6823F00F02314BF2
:107CA4001B6803F00F032E4913430B60FFF780FE9C
:107CB4000346002B03D02C4B4FF400721A60FFF7DD
:107CC400A9FE0346002B0DD04FF08043D3F80034B7
:107CD40003F00103002B05D04FF080436FF0010245
:107CE400C3F80024214BD3F88830204A43F47003AE
:107CF400C2F88830BFF34F8F00BFBFF36F8F00BF50
:107D0400FFF7ECFE4FF01023D3F80032002B05DB15
:107D14004FF01023D3F80432002B15DA0120FFF7BB
:107D2400F9FE4FF010231222C3F80022FFF7E6FEFB
:107D34004FF010231222C3F80422FFF7DFFE0020C5
:107D4400FFF7E8FEFFF726FDFFF7F4FE00BF08BDCE
:107D540000C000408C5600404881030000F0004001
:107D6400E40E0040580200104096024000ED00E08E
:107D740084B00346ADF806300023039316E00F49A0
:107D8400039A13469B0013449B000B441B88BDF8C5
:107D940006209A4207D1039A13469B0013449B0082
:107DA400064A134406E0039B01330393039B002B11
:107DB400E5D00023184604B0704700BFFC23002020
:107DC40082B001900B46ADF80230019BBDF8022051
:107DD4001A80019B00221A72019B054903F10A02D1
:107DE4000B4603CB1060516000BF02B0704700BF68
:107DF4002C24002082B00190019B4FF6FF721A8060
:107E040000BF02B0704788B00390029111461A4631
:107E14000B46ADF806301346ADF80430039B9B883F
:107E24001A46BDF8063013440793039B9B881946F2
:107E3400039B9B88BDF80620934228BF13469BB240
:107E4400CB1A0693039BDB881A46BDF8043013440F
:107E54000593039BDB881946039BDB88BDF804204C
:107E6400934228BF13469BB2CB1A0493029B5A88B1
:107E7400039B1B889A4205D3029B5A88039B5B8809
:107E84009A4201D900231CE0029B9B881A46069B58
:107E9400934205D8029B9B881A46079B934201D2C2
:107EA40000230EE0029BDB881A46049B934205D80C
:107EB400029BDB881A46059B934201D2002300E013
:107EC4000123184608B0704700B583B00190064BF3
:107ED4009B69002B03D0044B9B690198984700BF12
:107EE40003B05DF804FB00BF1024002000B587B088
:107EF40003460091ADF80630009B5B7A002B1AD143
:107F0400009B1B7A002B03D1164B5B68059302E0A0
:107F1400144B9B680593009B5B68BDF8062005998C
:107F2400184604F0E5FA0490049B002B16D004983C
:107F3400FFF7CAFF12E0009B00221A72094B5B692B
:107F4400002B0BD001238DF80C30BDF80630ADF8B2
:107F54000E30044B5B6903AA1046984700BF07B074
:107F64005DF804FB1024002000B585B00190019B4E
:107F7400DB7B8DF80F30019B9B88ADF80C309DF8AE
:107F84000F30012B2CD14FF6FF70FFF7F1FE02905A
:107F9400029B002B03D10420FFF796FF21E0BDF8DC
:107FA4000C3019460298FFF70BFF029B03F10A00FD
:107FB400019B03F110014FF6FF7340F2F312FFF738
:107FC40022FF03461A46029B5A72074BDB89002B99
:107FD40007D1BDF80C3002991846FFF787FF00E07F
:107FE40000BF05B05DF804FB1024002000B587B085
:107FF4000190019B9B88ADF81630BDF816301846E9
:10800400FFF7B6FE0490049B002B0ED0049B5B6824
:10801400184604F0C5FA0390039B002B02D0039882
:10802400FFF752FF0498FFF7E5FE00BF07B05DF8C5
:1080340004FB000000B587B00190019B0633059353
:10804400059B1A88194BDB899A422BD1059B5B89C6
:10805400022B27D1019B9B88ADF81230BDF812305A
:108064001846FFF785FE0390039B002B1AD0059B4F
:108074000C33184600F0FBF90346002B06D0BDF87C
:10808400123003991846FFF731FF0BE0039B5B683E
:10809400184604F085FA0290029B002B02D0029845
:1080A400FFF712FF00BF07B05DF804FB10240020A7
:1080B40000B585B00190019B9B88ADF80E30BDF8EA
:1080C4000E301846FFF754FE0290029B002B15D089
:1080D400029B03F10A00019B03F108014FF6FF73B1
:1080E40040F2F312FFF78FFE03461A46029B5A72C0
:1080F400BDF80E3002991846FFF7F8FE00BF05B030
:108104005DF804FB00B583B001900091019B1B88CE
:10811400502B12D0502B18DC122B12D0122B14DC43
:10812400102B02D0112B04D00FE00198FFF71CFF95
:108134000CE00198FFF75AFF08E00198FFF77AFF77
:1081440004E00198FFF7B4FF00E000BF00BF03B0F4
:108154005DF804FB30B58FB00190009100230293C9
:10816400009B002B1AD000230D9314E06B460D994D
:10817400184604F017FC0346002B09D0029B5A1C36
:1081840002920D9A92B25B0038336B4423F82C2C84
:108194000D9B01330D930D9B132BE7D9019B1D46BA
:1081A40002AC0FCC0FC50FCC0FC594E8070085E8CF
:1081B400070001980FB030BD00B583B00346ADF899
:1081C4000630BDF80630132B01D900230CE0BDF8AE
:1081D40006301946064804F0B4FBBDF806301946CB
:1081E400044804F0AEFB0123184603B05DF804FB19
:1081F4003C2400203824002000B585B00346ADF8A7
:108204000630002303930DE0039B9B00094A1344AB
:108214000433BDF806201146184604F0AAFB039B5C
:1082240001330393039B1D2BEED900BF00BF05B0A0
:108234005DF804FB3424002000B583B00346ADF898
:108244000630BDF806301946034804F092FB00BF1F
:1082540003B05DF804FB00BF3C24002030B59BB0A4
:10826400184B9B68DB431893164B5A6818AB11469E
:10827400184604F0F6FB189A6B4611461846FFF7A9
:1082840069FF0DAC6D460FCD0FC40FCD0FC495E83B
:10829400070084E80700002319930BE0199B5B0097
:1082A40068336B4433F8303C1846FFF7A5FF199B3D
:1082B400013319930D9B199A9A42EFD300BF00BF63
:1082C4001BB030BD3424002000B583B001900B46B0
:1082D400ADF8023013468DF801309DF80130002BC3
:1082E40006D0BDF802301946019804F02AFB05E0D7
:1082F400BDF802301946019804F03BFB00BF03B0FF
:108304005DF804FB00B585B001900091019B9B884A
:10831400ADF80E30019B1B88103B0A2B00F28880BD
:1083240001A252F823F000BF598302009583020092
:10833400358402003584020035840200358402004D
:10834400358402003584020035840200FF83020074
:10835400A1830200FFF782FFBDF80E301846FFF735
:108364002BFF034683F00103DBB2002B05D0324A16
:10837400F021042003F098FF57E0019BDB7B022BE4
:1083840053D1BDF80E3019462C4804F0DAFA4CE00B
:10839400BDF80E301846FFF74FFF49E0019B1B7AEA
:1083A400C3F30313DBB28DF80D309DF80D30032BAE
:1083B4008CBF01230023DAB2BDF80E3019462048E1
:1083C400FFF782FF9DF80D30022B8CBF01230023A1
:1083D400DAB2BDF80E3019461A48FFF775FF9DF85A
:1083E4000D30012B8CBF01230023DAB2BDF80E300F
:1083F40019461548FFF768FF1AE0019B1B7A002B0A
:1084040015D1019B5B7AC3F3C003DBB2002B14BF0D
:10841400012300238DF80C309DF80C20BDF80E309C
:1084240019460748FFF750FF01E000BF00E000BF16
:1084340000BF05B05DF804FB68F60200402400208C
:108444004C240020482400204424002082B00190C1
:10845400019B1B781AB2019B01331B781BB21B02D0
:108464001BB213431BB29BB2184602B0704700B54F
:1084740085B001900198FFF7E9FF0346ADF80E308F
:10848400BDF80E3003F00103002B14BF01230023B9
:10849400DBB2184605B05DF804FB000082B0034669
:1084A4008DF807309DF90730002B13DB9DF807305A
:1084B40003F01F0209499DF907305B09012000FA06
:1084C40002F2203341F82320BFF34F8F00BFBFF3E4
:1084D4006F8F00BF00BF02B0704700BF00E100E033
:1084E400044BD3F80034002B14BF01230023DBB268
:1084F400184670470000014008B506F047FA0346E5
:1085040083F00103DBB2002B03D109497B2004F083
:108514009BF9FFF7E5FF034683F00103DBB2002B71
:1085240004D000F067FB034B00229A7000BF08BD23
:1085340060F80200B024002000B583B0002301934A
:10854400184B1B78002B02D0852301931CE0154B9C
:1085540000229A60134B00225A60124B00221A61C7
:10856400104B0022DA60104800F00AFB019006F07C
:108574000DFA034683F00103DBB2002B01D000F0B7
:1085840025FB084B01221A70FFF7AAFF0346002BB4
:1085940002D0044B01229A70019B184603B05DF887
:1085A40004FB00BFB02400208586020084B0019043
:1085B400019B1B680393039B002B03D0039B1A6846
:1085C400019B1A60039B184604B0704700B583B042
:1085D400164B1B78002B04D1154940F2171004F0F8
:1085E40033F9124BDB68002B04D111494FF48C7022
:1085F40004F02AF900238DF807300DF1070318461B
:1086040004F088F8094BDB68013B084AD360074B48
:10861400DB68002B01D1FFF76FFF9DF80730184688
:1086240004F08EF800BF03B05DF804FBB024002012
:1086340060F8020000B585B003468DF807309DF858
:108644000730002B02D10C4B039301E00B4B039337
:108654000398FFF7ABFF0290029B002B06D0029B0E
:108664005B689DF8072010469847F1E700BF00BFFC
:1086740005B05DF804FB00BFB8240020C02400202E
:1086840000B583B003468DF807309DF80730002B02
:1086940005D10A4B01225A700020FFF7CBFF9DF849
:1086A4000730012B05D1054B01229A700120FFF7F9
:1086B400C1FF00BF03B05DF804FB00BFB02400207D
:1086C40000B583B001900091019B002B05D1054BAF
:1086D40001225A700020FFF7ADFF00BF03B05DF820
:1086E40004FB00BFB024002000B585B00346009110
:1086F4008DF807309DF80730032B29D0032B35DC88
:10870400002B02D0012B04D030E00020FFF7C6FE7E
:108714002DE000238DF80F300DF10F03184603F000
:10872400F9FF154B1B7883F00103DBB2002B01D05A
:10873400FFF702FF104BDB6801330F4AD3600E4B87
:1087440001229A709DF80F30184603F0F9FF0EE0ED
:10875400094B1B78002B04D1084940F2522004F045
:1087640073F800F033FAFFF731FF00E000BF00BFF9
:1087740005B05DF804FB00BFB024002060F80200DF
:1087840000B589B001900091009B0793019B1B7871
:108794008DF80C30019B5B680493019B9B68DBB2F2
:1087A4008DF81430019BDB680693074A079B52F847
:1087B40023300649079A51F8221003AA1046984715
:1087C40000BF09B05DF804FBC4240020CC240020C1
:1087D40000B589B001900091009B0793019B1B7821
:1087E4008DF80C30019B5B680493019B9B68DBB2A2
:1087F4008DF81430019BDB680693074A079B52F8F7
:1088040023300649079A51F8221003AA10469847C4
:1088140000BF09B05DF804FBC4240020CC24002070
:1088240030B58FB0039002910192039B1B780C9397
:108834002C490C9B019A41F82320029B1A692A496E
:108844000C9B41F823200C9B012B07D1029B5B7FDF
:10885400002B03D12549762003F0F6FF029B5B7FB2
:108864001946234A0C9B13440A461A70029B04AC13
:108874001D460FCD0FC495E80F0084E80F000C9B34
:10888400089300230D93039B1B781A46184B9B5C9B
:10889400002B0DD0039B181D019B002B01D0154A02
:1088A40000E0002204AB194601F040FF0D9014E0F3
:1088B400039B1B781A460E4B9B5C002B0DD1039B2C
:1088C40003F10C00019B002B01D00B4A00E00022B5
:1088D40004AB194601F0A2F80D900D9B18460FB099
:1088E40030BD00BFC4240020CC240020FCF80200CA
:1088F400D424002085870200D587020010B487B0F5
:1089040001900091019B009A53E8004F04EA020091
:1089140043E8000191F0000FF6D10594049003910F
:10892400059B184607B05DF8044B704782B00346B8
:108934008DF807309DF90730002B0CDB9DF80730CC
:1089440003F01F0205499DF907305B09012000FA75
:1089540002F241F8232000BF02B0704700E100E0BA
:1089640082B0034600918DF807309DF90730002B43
:108974000ADB009BDAB20C499DF907305201D2B2EE
:108984000B4483F800230BE0009BDAB207499DF8FF
:10899400073003F00F03043B5201D2B20B441A76A2
:1089A40000BF02B0704700BF00E100E000ED00E04E
:1089B40082B00190019B1B0B5BB2184602B070475A
:1089C40000B583B003460A468DF8073013468DF888
:1089D40006309DF80630012B03D99DF80630032B91
:1089E4000BD99DF80630042B03D99DF80630072BCC
:1089F40003D908496B2003F027FF9DF806209DF951
:108A0400073011461846FFF7ABFF00BF03B05DF80F
:108A140004FB00BF94F9020000B583B003468DF84F
:108A240007309DF907301846FFF780FF00BF03B0F9
:108A34005DF804FB82B003468DF807300F4A9DF9B8
:108A44000730002B00DA1F335B115BB252F823208E
:108A54009DF90730594203F01F0301F01F0158BF6D
:108A64004B425BB222FA03F303F00103002B14BF61
:108A740001230023DBB2184602B0704700E100E096
:108A840082B001904FF08042019BC2F8083300BFCE
:108A940002B0704782B003468DF807309DF8073066
:108AA40003F1804301221A6000BF02B0704784B012
:108AB4000346ADF80630BDF8063003F180430022CA
:108AC4001A60BDF8063003F180431B680393039BCF
:108AD40000BF04B0704782B00346ADF80630BDF85D
:108AE400063003F180431B68002B14BF01230023CD
:108AF400DBB2184602B0704782B001904FF080425A
:108B0400019BC2F8183500BF02B070474FF0804394
:108B1400D3F818341B0C03F00103002B14BF0123FA
:108B24000023DBB21846704700B583B006238DF8E6
:108B340007304FF08040FFF73BFF03461846FFF72E
:108B440079FF034683F00103DBB2002B13D04FF00F
:108B54008040FFF72DFF03461A469DF8073019465B
:108B64001046FFF72DFF4FF08040FFF721FF03462B
:108B74001846FFF751FF00BF03B05DF804FB000087
:108B840000B585B00190019B002B03D10D49A420B1
:108B940003F05AFE002303930B4B1B79002B02D0E6
:108BA4008523039308E0084A019B1360064B0122C6
:108BB4001A71054B00225A71039B184605B05DF8E3
:108BC40004FB00BFCCF90200D824002008B5074BF1
:108BD4001B79002B03D10649BD2003F035FEFFF7B6
:108BE400A3FF0120FFF788FF00BF08BDD8240020A1
:108BF400CCF9020008B50D4B1B79002B03D10C49AD
:108C0400F72003F021FE0220FFF73AFF4FF48270B1
:108C1400FFF74DFF0C20FFF73DFF00BFFFF776FF86
:108C24000346002BFAD100BF00BF08BDD8240020A2
:108C3400CCF9020008B54FF48070FFF74CFF0346EF
:108C4400002B14D04FF48070FFF731FF0120FFF7A1
:108C540017FF114B5B7983F00103DBB2002B06D0C5
:108C64000D4B01225A710C4B1B68002098474FF49E
:108C74008270FFF730FF0346002B0AD04FF4827056
:108C8400FFF715FF0220FFF7FBFE034B1B680120D3
:108C9400984700BF08BD00BFD824002000B583B0AA
:108CA4000346ADF80630BDF80630184600F026F845
:108CB40003461B68012B0CBF01230023DBB21846BB
:108CC40003B05DF804FB00B585B00346ADF806308B
:108CD400BDF80630184600F011F803461A46002382
:108CE4001360BDF80630184600F008F803461B6808
:108CF4000393039B00BF05B05DF804FB82B00346F9
:108D0400ADF80630BDF8063003F1804303F5C043E7
:108D1400184602B07047000082B00190034BD3F8AC
:108D24000423019B1340184602B0704700600040C2
:108D340082B00190054A019B03F5A27352F82330D7
:108D44001B0A03F03F03184602B07047006000405E
:108D540082B00190064A019B03F5A27352F82330B6
:108D64001B0C03F00303DBB2184602B0704700BFCC
:108D74000060004000B583B00190019B1B68184659
:108D840000F0AAF80346002B04D10B494FF4F67007
:108D940003F05AFD019B1B681F2B02D84FF0A04320
:108DA40006E0019B1B6803F01F02019B1A60034B42
:108DB400184603B05DF804FB94FA02000003005067
:108DC40000B585B001900B468DF8033001AB184611
:108DD400FFF7D0FF0390019A039B02F5E07253F86A
:108DE4002230019A23F44031039B02F5E07243F8E8
:108DF4002210019A039B02F5E07253F822109DF8A9
:108E040003301B04019A1943039B02F5E07243F8F3
:108E1400221000BF05B05DF804FB00B585B00190D9
:108E240001AB1846FFF7A6FF0390019A039B02F5D6
:108E3400E07253F822301B0C03F00303DBB2184634
:108E440005B05DF804FB000088B003900291019224
:108E5400164A05AB92E8030083E80300039B0793DB
:108E640019E0079B9B0020336B4453F80C3CD3F868
:108E74002025019B1A60079B9B0020336B4453F809
:108E84000C3C019A1268C3F82025019B043301931A
:108E9400079B01330793039A029B1344079A9A4250
:108EA400DFD300BF00BF08B0704700BFC4FA0200A0
:108EB40000B585B0019001AB1846FFF75BFF039046
:108EC400019B012202FA03F31A46039BC3F82025EF
:108ED40000BF05B05DF804FB84B00190019B5B0901
:108EE400029300230393029B002B03D0029B012BCC
:108EF40004D007E04FF0FF33039303E04FF6FF7312
:108F0400039300BF019B03F01F030193039A019B8A
:108F140022FA03F303F00103002B14BF01230023FF
:108F2400DBB2184604B0704784B001900091009BF6
:108F34000393019BDB080293019B03F00703019356
:108F44000122019B02FA03F30399029A0A4412785C
:108F54001340184604B0704782B00190044A019B44
:108F64001344303393F90030184602B0704700BF01
:108F7400E024002082B00190034A019B52F8233080
:108F8400184602B0704700BFE024002084B001906E
:108F9400074A019B1344603393F900308DF80F3076
:108FA4009DF80F3023F0C003184604B0704700BF8B
:108FB400E024002084B00190074A019B13446033ED
:108FC40093F900308DF80F309DF80F309B09DBB218
:108FD400184604B0704700BFE024002000B585B0F7
:108FE4000190019A02210020FFF72EFF0023039332
:108FF4000BE0039B9B00019A13441B68002B01D0D8
:10900400012306E0039B01330393039B012BF0D957
:109014000023184605B05DF804FB000000B587B0D6
:109024000190002305935BE0344A059B13446033AD
:1090340093F90030B3F1FF3F4ED00598FFF7A6FF38
:10904400049001990498FFF76FFF0346002B44D066
:109054000598FFF7AFFF03468DF80F300498FFF72C
:10906400DCFE03468DF80E309DF80E30022B01D144
:10907400032300E002238DF80D309DF80D301946CE
:109084000498FFF79DFE0498FFF712FF0498FFF77A
:1090940063FF03461846FFF76DFF0290029B002B07
:1090A4001BD09DF80F30032B0FD09DF80E30022BF0
:1090B40003D19DF80F30012B07D09DF80E30032B00
:1090C4000BD19DF80F30022B07D19DF80F20029B86
:1090D40011460498984700E000BF059B01330593AF
:1090E400059B032BA0D90198FFF778FF0346002BBB
:1090F40097D100BF00BF07B05DF804FBE024002057
:1091040000B58BB00023089301AB00221A605A60AB
:109114004FF48073ADF81A300123099300230793A9
:1091240021E0BDF81A301846FFF7B8FD0346002BBE
:109134000ED00998FFF7F0FD0346002B08D0BDF8C8
:109144001A301846FFF7BFFD089A099B134308938A
:10915400099B5B000993BDF81A300433ADF81A304B
:10916400079B01330793079B072BDAD94FF4BE7093
:10917400FFF794FD0346002B0DD04FF4BE70FFF7AC
:10918400A2FD089B43F00043089301AB1A46022159
:109194000020FFF759FE089BDBB2002B29D00123E6
:1091A40009930023079321E0099A089B1340002B9D
:1091B40016D00798FFF7BCFD05900798FFF7C8FD88
:1091C40003468DF813300798FFF7D4FE0390039BF2
:1091D400002B05D09DF81320039B11460598984752
:1091E400099B5B000993079B01330793079B072B9C
:1091F400DAD9089B002B03DA01AB1846FFF70EFF00
:1092040000BF0BB05DF804FB08B5064B1B68002BD0
:1092140003D10549512003F017FB024B1B68984703
:1092240008BD00BF4C25002070FB020082B00190F5
:10923400019B044A934201D1034B00E000231846EA
:1092440002B07047002000404C25002000B587B0D4
:1092540001900091019B002B03D11C49772003F05E
:10926400F3FA0198FFF7E2FF0590059B002B25D048
:1092740000238DF8133000238DF80B300DF10B0310
:10928400184603F047FA059B1B79002B03D00123F2
:109294008DF8133005E0059B009A1A60059B0122A6
:1092A4001A719DF80B30184603F04AFA9DF81330F2
:1092B400002B03D011230393039B02E000230393A9
:1092C400039B184607B05DF804FB00BF70FB020067
:1092D40000B585B00190019B002B03D10A499B2066
:1092E40003F0B2FA0198FFF7A1FF0390039B002B50
:1092F40005D0039B00221A60039B00221A7100BF51
:1093040005B05DF804FB00BF70FB020082B00346A9
:109314008DF807309DF90730002B0CDB9DF80730E2
:1093240003F01F0205499DF907305B09012000FA8B
:1093340002F241F8232000BF02B0704700E100E0D0
:1093440082B003468DF807309DF90730002B13DBFC
:109354009DF8073003F01F0209499DF907305B09A6
:10936400012000FA02F2203341F82320BFF34F8F8B
:1093740000BFBFF36F8F00BF00BF02B0704700BFD4
:1093840000E100E082B0034600918DF807309DF9BA
:109394000730002B0ADB009BDAB20C499DF9073039
:1093A4005201D2B20B4483F800230BE0009BDAB2E3
:1093B40007499DF8073003F00F03043B5201D2B272
:1093C4000B441A7600BF02B0704700BF00E100E012
:1093D40000ED00E082B00190019B1B0B5BB21846CC
:1093E40002B0704700B583B003460A468DF80730D3
:1093F40013468DF806309DF80630012B03D99DF8ED
:109404000630032B0BD99DF80630042B03D99DF8A5
:109414000630072B03D908496B2003F015FA9DF891
:1094240006209DF9073011461846FFF7ABFF00BF31
:1094340003B05DF804FB00BF0CFC020000B583B070
:1094440003468DF807309DF907301846FFF75EFF95
:1094540000BF03B05DF804FB00B583B003468DF88C
:1094640007309DF907301846FFF76AFF00BF03B0C5
:109474005DF804FB84B001900B46ADF80230BDF8F2
:109484000230019A134400221A60BDF80230019A96
:1094940013441B680393039B00BF04B0704782B05E
:1094A40001900B46ADF80230BDF80230019A134426
:1094B4001B68002B14BF01230023DBB2184602B043
:1094C400704782B001900091019B009AC3F8042375
:1094D40000BF02B0704782B001900091019BD3F8A5
:1094E4000423009B1340002B14BF01230023DBB291
:1094F400184602B0704782B001900091019B009A17
:10950400C3F8082300BF02B0704784B00190019BE8
:10951400D3F880340393019B039AC3F88024039BFC
:10952400184604B0704782B00190019B0422C3F82E
:10953400002500BF02B0704782B00190019B002259
:10954400C3F8002500BF02B0704784B003900291B5
:109554000192039B019AC3F81425039B029AC3F852
:109564000C2500BF04B0704700B583B001904FF0E4
:10957400FF324FF0FF310198FFF7E7FF00BF03B060
:109584005DF804FB82B00190019BD3F80C351846BA
:1095940002B0704782B00190019BD3F8143518468D
:1095A40002B0704782B00190019BD3F80835184689
:1095B40002B0704782B00190019BD3F81035184671
:1095C40002B0704784B0039002910192039B029A07
:1095D400C3F80825039B019AC3F8102500BF04B003
:1095E400704700B583B001904FF0FF324FF0FF3168
:1095F4000198FFF7E7FF00BF03B05DF804FB82B0FA
:109604000190019BD3F81835DBB2184602B07047BD
:1096140082B001900B468DF803309DF80320019B26
:10962400C3F81C2500BF02B0704782B001900B46FE
:109634008DF803309DF80330019A134401221A6017
:1096440000BF02B0704782B001900B468DF8033022
:1096540013468DF802309DF803209DF80230134321
:10966400DBB21A46019BC3F86C2500BF02B07047F9
:1096740082B001900091019B009AC3F8242500BF99
:1096840002B0704700B583B00190019B1B68184677
:1096940000F0A4F80346002B04D10B494FF4F670F4
:1096A40003F0D2F8019B1B681F2B02D84FF0A04394
:1096B40006E0019B1B6803F01F02019B1A60034B29
:1096C400184603B05DF804FB3CFC020000030050A4
:1096D40000B585B00190084611461A4603468DF838
:1096E40003300B468DF8023013468DF8013001AB80
:1096F4001846FFF7C7FF03909DF803209DF802303A
:109704005B001A439DF801309B001A439DF8183002
:109714001B0242EA03019DF81C301B04019A194301
:10972400039B02F5E07243F8221000BF05B05DF818
:1097340004FB00B585B0039000230193002300933C
:109744000023012201210398FFF7C2FF00BF05B0E7
:109754005DF804FB00B585B003900B468DF80B3023
:109764009DF80B3000220192002200920022002179
:109774000398FFF7ADFF00BF05B05DF804FB00B52B
:1097840085B003900023019300230093002301225A
:1097940000210398FFF79CFF00BF05B05DF804FBB0
:1097A40000B585B0019001AB1846FFF76BFF03903D
:1097B400019B012202FA03F31946039800F004F80E
:1097C40000BF05B05DF804FB82B001900091019BDD
:1097D400009AC3F8082500BF02B0704784B0019016
:1097E400019B5B09029300230393029B002B03D08C
:1097F400029B012B04D007E04FF0FF33039303E0F7
:109804004FF6FF73039300BF019B03F01F03019303
:10981400039A019B22FA03F303F00103002B14BF04
:1098240001230023DBB2184604B0704700B583B0AF
:1098340001900091009B1B68B3F1FF3F09D0009B8E
:109844001B681846FFF7ACFF009B1B681846FFF720
:1098540070FF009B5B68B3F1FF3F05D0009B5B6822
:1098640000211846FFF776FF019B1A68009B9B694D
:1098740019461046FFF7FCFE019B1868009B597DB2
:10988400009B1B7D1A46FFF7DEFE019B1868009BB8
:109894001968009B5B681A46FFF757FE009B1B7D07
:1098A400012B22D1009B9B68B3F1FF3F05D0009BA5
:1098B4009B6800211846FFF74DFF009BDB68B3F15E
:1098C400FF3F09D0009BDB681846FFF769FF009B48
:1098D400DB681846FFF72DFF019B1868009BD968C9
:1098E400009B9B681A46FFF76DFE00BF03B05DF84E
:1098F40004FB000000B583B001900B468DF80330E3
:10990400019B1B684FF48E711846FFF7B3FD019B52
:109914001B684FF4A2711846FFF7ACFD019B1B684E
:109924000E491846FFF7CDFD019B1B681846FFF74B
:1099340051FD03461A469DF8033019461046FFF7B9
:1099440051FD019B1B681846FFF744FD034618466A
:10995400FFF774FD00BF03B05DF804FB8000020054
:1099640000B583B00190019B1B6808491846FFF7B6
:10997400C2FD019B1B681846FFF72CFD03461846E1
:10998400FFF76AFD00BF03B05DF804FB8402020028
:1099940000B587B00190019B1B681846FFF7F2FDE4
:1099A4000590019B1B681846FFF7F4FD0490019B8A
:1099B4001B681846FFF7F6FD0390019B1B681846C9
:1099C400FFF7F8FD0290019B1B681846FFF7CCFDDA
:1099D400019B1B681846FFF704FE059BB3F1FF3F8C
:1099E40002D00598FFF7CBFE049BB3F1FF3F02D0F2
:1099F4000498FFF7C4FE029BB3F1FF3F02D0029824
:109A0400FFF7BDFE039BB3F1FF3F02D00398FFF7BE
:109A1400B6FE00BF07B05DF804FB000000B587B0D8
:109A2400039002910192029B002B03D12D49AA209D
:109A340002F00AFF039B1B791A462C2302FB03F353
:109A4400294A1344049300230593049B93F82A3072
:109A5400002B03D008230593059B3EE0039B1A6863
:109A6400039B1B791946214B53F8213019461046A4
:109A7400FFF7ECFB0346002B03D011230593059B52
:109A84002BE002990398FFF7D1FE049B019A5A60D8
:109A9400029B1A69049B1A60049B5B68002B05D027
:109AA400029B1B7F19460398FFF724FF039B1B6847
:109AB4001846FFF738FD049B00229A61049B00229C
:109AC400DA61049B002283F82920049B00225A6156
:109AD400049B012283F82A20059B184607B05DF8F1
:109AE40004FB00BF74FC0200542500200CFD02009E
:109AF40000B585B00190019B1B791A462C2302FB0B
:109B040003F3114A13440393019B1B681846FFF7A0
:109B140013FD039B5B68002B02D00198FFF720FF25
:109B24000198FFF735FF019B1B681846FFF7D0FB30
:109B3400039B002283F82A20039B00225A6000BF63
:109B440005B05DF804FB00BF5425002000B585B0C6
:109B5400019000914FF48E710198FFF78BFC009BEC
:109B64009A68009B1B6A13441B788DF80F30009B86
:109B74001B6A5A1C009B1A629DF80F301946019803
:109B8400FFF746FD00BF05B05DF804FB00B585B0E6
:109B940001900091009B5B69039316E0009B93F88E
:109BA4002830DBB2002B01D0002314E04FF48E7177
:109BB4000198FFF774FC034683F00103DBB2002B2A
:109BC400ECD100990198FFF7C1FF009B1B6A039A2F
:109BD4009A42EBD80123184605B05DF804FB000057
:109BE40000B587B0039002910192039B1B791A463A
:109BF4002C2302FB03F33C4A13440493049B93F881
:109C04002A30012B04D039494FF48C7002F01CFE29
:109C1400029B002B04D1354940F2191002F014FEC6
:109C2400019B002B04D131494FF48D7002F00CFEDE
:109C3400039800F05DF80346002B03D0112305932D
:109C4400059B4CE0049B019A5A61049B029A9A601A
:109C5400049B00221A62049B002283F8282000231C
:109C64000593039B1B684FF48E711846FFF702FCA3
:109C7400039B1B6808211846FFF7D7FC039B1B684E
:109C840004991846FFF762FF049B5B68002B25D1FB
:109C9400039B1B6804991846FFF778FF034683F07B
:109CA4000103DBB2002B02D00F23059313E000BFA6
:109CB400039B1B684FF48E711846FFF7F0FB0346B5
:109CC40083F00103DBB2002BF2D1039B1B680C2150
:109CD4001846FFF7AAFC049B00225A61059B18460C
:109CE40007B05DF804FB00BF5425002074FC02009B
:109CF40082B00190019B1B791946074A2C2301FB72
:109D040003F3134414331B68002B14BF01230023F3
:109D1400DBB2184602B070475425002010B582B05B
:109D240001900091009B9B69002B08D14FF4847132
:109D34000198FFF79FFB0198FFF761FC13E04FF4D4
:109D440084710198FFF796FB009BDA68009B5B6ABD
:109D5400D4180198FFF753FC03462370009B5B6AF9
:109D64005A1C009B5A6202B010BD00B589B0039022
:109D74000291019201238DF81030029B0693019BFE
:109D84000593039B5B68039A116804AA10469847DD
:109D940000BF09B05DF804FB00B587B001900091E5
:109DA40000238DF80830009B0493019B9B68039368
:109DB400019B00225A61019B5B68019A116802AA07
:109DC4001046984700BF07B05DF804FB00B58BB0A0
:109DD400019000914FF400710198FFF77CFB03465A
:109DE400002B39D04FF492710198FFF758FB0346CA
:109DF400002B31D04FF492710198FFF73BFB4FF4E5
:109E040001710198FFF777FB009B93F8293083F0E9
:109E14000103DBB2002B03D004210198FFF705FCFA
:109E240002238DF80C300198FFF76FFB034606936D
:109E3400009B9B690593009BDB680493009B0022B5
:109E44009A61009B0022DA61009B5B68009A1168AA
:109E540003AA1046984752E004210198FFF73BFB00
:109E64000346002B4BD04FF484710198FFF717FB86
:109E74000346002B43D000990198FFF74FFF009B46
:109E84009A69009B5B6A9A4239D1009BDB69002B7B
:109E940019D0009BDB680993009B5B6A0893009BC5
:109EA400DA69009B9A61009B1A69009BDA60009B47
:109EB4000022DA61009B00225A62099A08990098EC
:109EC400FFF753FF1BE0009B93F8293083F0010355
:109ED400DBB2002B03D004210198FFF7A6FB4FF45B
:109EE40001710198FFF707FB009B00229A61009B18
:109EF400596A009BDB681A460098FFF736FF4FF457
:109F04008E710198FFF7CBFA0346002B24D0009BF7
:109F14005B690793009B1B6A079A9A420DD9009BC1
:109F240093F82830DBB283F00103DBB2002B04D0BA
:109F340000990198FFF70AFE0EE04FF48E71019824
:109F4400FFF798FA009B5B69002B05D0009B5B69C7
:109F540019460098FFF720FF4FF4A2710198FFF70C
:109F64009EFA0346002B1CD04FF4A2710198FFF710
:109F740081FA009B93F82930002B03D0002101982B
:109F8400FFF753FB009B9B69002B0AD0009B002228
:109F94009A61009B596A009BDB681A460098FFF798
:109FA400E4FE00BF0BB05DF804FB000008B50349F4
:109FB4000348FFF70BFF00BF08BD00BF5425002076
:109FC4000020004082B003468DF807309DF9073029
:109FD400002B0CDB9DF8073003F01F0205499DF9A7
:109FE40007305B09012000FA02F241F8232000BF88
:109FF40002B0704700E100E082B003468DF80730FC
:10A004009DF90730002B13DB9DF8073003F01F0286
:10A0140009499DF907305B09012000FA02F2203357
:10A0240041F82320BFF34F8F00BFBFF36F8F00BFF2
:10A0340000BF02B0704700BF00E100E082B00346F9
:10A0440000918DF807309DF90730002B0ADB009B47
:10A05400DAB20C499DF907305201D2B20B4483F8AD
:10A0640000230BE0009BDAB207499DF8073003F0A8
:10A074000F03043B5201D2B20B441A7600BF02B064
:10A08400704700BF00E100E000ED00E082B0019005
:10A09400019B03F06043B3F1005F0CBF0123002375
:10A0A400DBB2184602B0704782B00190019B1B0BD3
:10A0B4005BB2184602B0704700B583B003460A4647
:10A0C4008DF8073013468DF806309DF80630012BC5
:10A0D40003D99DF80630032B0BD99DF80630042BC9
:10A0E40003D99DF80630072B03D908496B2002F0E9
:10A0F400ABFB9DF806209DF9073011461846FFF783
:10A104009DFF00BF03B05DF804FB00BF10FD02001B
:10A1140000B583B003468DF807309DF90730184623
:10A12400FFF750FF00BF03B05DF804FB00B583B038
:10A1340003468DF807309DF907301846FFF75CFF9A
:10A1440000BF03B05DF804FB84B001900B46ADF88A
:10A154000230BDF80230019A134400221A60BDF89F
:10A164000230019A13441B680393039B00BF04B09D
:10A17400704782B001900B46ADF80230BDF8023052
:10A18400019A13441B68002B14BF01230023DBB284
:10A19400184602B0704782B001900091019BD3F839
:10A1A4000022009BDB431A40019BC3F8002200BF3E
:10A1B40002B0704782B001900091019B009AC3F8ED
:10A1C400042300BF02B0704782B001900091019B4C
:10A1D400009AC3F8082300BF02B0704784B001900E
:10A1E400019BD3F880340393019B039AC3F8802422
:10A1F400039B184604B0704782B00190019B08226B
:10A20400C3F8002500BF02B0704782B00190019BE3
:10A214000022C3F8002500BF02B0704784B0039049
:10A2240002910192039B029AC3F80C25039B019AA5
:10A23400C3F8142500BF04B0704700B583B0019083
:10A244004FF0FF324FF0FF310198FFF7E7FF00BFF7
:10A2540003B05DF804FB82B00190019BD3F80C3588
:10A26400184602B0704782B00190019BD3F81435B0
:10A27400184602B0704782B00190019BD3F80835AC
:10A28400184602B0704782B00190019BD3F8103594
:10A29400184602B0704784B0039002910192039B68
:10A2A400029AC3F80825039B019AC3F8102500BF3E
:10A2B40004B0704700B583B001904FF0FF324FF007
:10A2C400FF310198FFF7E7FF00BF03B05DF804FB1F
:10A2D40082B001900B468DF803309DF80330019A4B
:10A2E400134401221A6000BF02B0704782B001908B
:10A2F4000B468DF8033013468DF802309DF8032089
:10A304009DF802301343DBB21A46019BC3F86C2557
:10A3140000BF02B0704782B001900091019B009A87
:10A32400C3F8242500BF02B0704784B003900291A3
:10A334000192029A039BC3F84425039B019AC3F834
:10A34400482500BF04B0704782B00190019BD3F848
:10A354004C35184602B0704782B00190019BD3F887
:10A364003C35184602B0704700B583B00190019B9C
:10A374001B68184600F0A4F80346002B04D10B49CF
:10A384004FF4F67002F060FA019B1B681F2B02D891
:10A394004FF0A04306E0019B1B6803F01F02019BE2
:10A3A4001A60034B184603B05DF804FB40FD02003D
:10A3B4000003005000B585B00190084611461A46C6
:10A3C40003468DF803300B468DF8023013468DF8A2
:10A3D400013001AB1846FFF7C7FF03909DF8032037
:10A3E4009DF802305B001A439DF801309B001A432C
:10A3F4009DF818301B0242EA03019DF81C301B042F
:10A40400019A1943039B02F5E07243F8221000BF3E
:10A4140005B05DF804FB00B585B0039000230193FB
:10A42400002300930023012201210398FFF7C2FFB8
:10A4340000BF05B05DF804FB00B585B003900B4682
:10A444008DF80B309DF80B3000220192002200920F
:10A45400002200210398FFF7ADFF00BF05B05DF8AF
:10A4640004FB00B585B003900023019300230093FF
:10A474000023012200210398FFF79CFF00BF05B0D1
:10A484005DF804FB00B585B0019001AB1846FFF7F9
:10A494006BFF0390019B012202FA03F31946039810
:10A4A40000F004F800BF05B05DF804FB82B0019031
:10A4B4000091019B009AC3F8082500BF02B07047C1
:10A4C40084B00190019B5B09029300230393029BD8
:10A4D400002B03D0029B012B04D007E04FF0FF3385
:10A4E400039303E04FF6FF73039300BF019B03F054
:10A4F4001F030193039A019B22FA03F303F0010360
:10A50400002B14BF01230023DBB2184604B07047AC
:10A5140000B583B001900091009B1B68B3F1FF3F2D
:10A5240009D0009B1B681846FFF7ACFF009B1B6813
:10A534001846FFF770FF009B5B68B3F1FF3F05D03F
:10A54400009B5B6800211846FFF776FF019B1A68A1
:10A55400009B9B6919461046FFF7DDFE019B1868B6
:10A56400009B597D009B1B7D1A46FFF7BFFE019B94
:10A574001868009B1968009B5B681A46FFF74EFE3B
:10A58400009B1B7D012B22D1009B9B68B3F1FF3FF5
:10A5940005D0009B9B6800211846FFF74DFF009BE8
:10A5A400DB68B3F1FF3F09D0009BDB681846FFF777
:10A5B40069FF009BDB681846FFF72DFF019B1868B5
:10A5C400009BD968009B9B681A46FFF764FE00BF96
:10A5D40003B05DF804FB000000B583B001900B46A6
:10A5E4008DF80330019B1B684FF488711846FFF700
:10A5F400ABFD019B1B684FF490711846FFF7A4FD57
:10A60400019B1B684FF492711846FFF79DFD019B57
:10A614001B684FF4A2711846FFF796FD019B1B6857
:10A624004FF4AC711846FFF78FFD019B1B680F496F
:10A634001846FFF7BFFD019B1B681846FFF734FD62
:10A6440003461A469DF8033019461046FFF734FDB9
:10A65400019B1B681846FFF727FD03461846FFF7C2
:10A6640057FD00BF03B05DF804FB00BF10034200B8
:10A6740000B583B00190019B1B6808491846FFF799
:10A68400A3FD019B1B681846FFF70EFD0346184601
:10A69400FFF74CFD00BF03B05DF804FB100342005C
:10A6A40000B587B00190019B1B681846FFF7D3FDE6
:10A6B4000590019B1B681846FFF7D5FD0490019B8C
:10A6C4001B681846FFF7D7FD0390019B1B681846CB
:10A6D400FFF7D9FD0290019B1B681846FFF7ADFDFB
:10A6E400019B1B681846FFF7E5FD059BB3F1FF3F8F
:10A6F40002D00598FFF7B5FE049BB3F1FF3F02D0EB
:10A704000498FFF7AEFE029BB3F1FF3F02D002981C
:10A71400FFF7A7FE039BB3F1FF3F02D00398FFF7B7
:10A72400A0FE00BF07B05DF804FB000000B587B0D1
:10A73400039002910192029B002B03D12B49CF205D
:10A7440002F082F8039B1B791A461346DB0013447C
:10A754009B00274A1344049300230593049B93F816
:10A764002030002B03D008230593059B3AE0039B7C
:10A774001A68039B1B7919461E4B53F8213019465E
:10A784001046FEF763FD0346002B03D01123059307
:10A79400059B27E002990398FFF7BAFE049B019AF0
:10A7A4005A60029B1A69049B1A60049B5B68002B25
:10A7B40005D0029B1B7F19460398FFF70DFF039BEF
:10A7C4001B681846FFF718FD049B00229A61049B3E
:10A7D4000022DA61049B00225A61049B012283F85F
:10A7E4002020059B184607B05DF804FB78FD0200A5
:10A7F4008025002010FE020000B585B00190019B69
:10A804001B791A461346DB0013449B002A4A13445F
:10A814000393019B1B680293039B5B68002B02D08C
:10A824000198FFF725FF20210298FFF7B4FC039B52
:10A834009B69002B08D04FF4A2710298FFF784FCA7
:10A8440004210298FFF744FD4FF4AC710298FFF71E
:10A854007BFC0C210298FFF73BFD00BF4FF4AC7169
:10A864000298FFF786FC034683F00103DBB2002B5A
:10A87400F4D1039B9B69002B0AD04FF4A271029878
:10A88400FFF777FC034683F00103DBB2002BE5D12D
:10A894000298FFF7BAFC0198FFF702FF0298FEF74F
:10A8A40017FD039B002283F82020039B00225A609B
:10A8B40000BF05B05DF804FB8025002000B589B019
:10A8C400039002910192039B1B791A461346DB0005
:10A8D40013449B00574A13440593059B93F8203077
:10A8E400012B04D0544940F2531001F0ADFF029BF8
:10A8F400002B04D150494FF4AA7001F0A5FF019B2D
:10A90400002B04D14C4940F2551001F09DFF039BEC
:10A914001B79002B03D1019BB3F5803F04D3464937
:10A924004FF4AB7001F090FF0298FFF7AFFB0346C2
:10A9340083F00103DBB2002B03D010230793079BA2
:10A9440073E0039800F07AF80346002B03D0112338
:10A954000793079B69E0059B019A5A61059B029A3C
:10A964009A6000230793039B1B684FF49071184669
:10A97400FFF7EAFB039B1B684FF4AC711846FFF723
:10A98400E3FB039B1868059B9968059B5B691A4662
:10A99400FFF7CBFC039B1B6808211846FFF798FCC4
:10A9A400059B5B68002B3FD1039B1B684FF49071A0
:10A9B4001846FFF7DEFB03468DF81B30039B1B682C
:10A9C4004FF4AC711846FFF7D4FB03468DF81A30E8
:10A9D4009DF81B3083F00103DBB2002B06D09DF8F9
:10A9E4001A3083F00103DBB2002BDDD19DF81A305D
:10A9F400002B02D00F23079313E0039B1B680C2149
:10AA04001846FFF765FC00BF039B1B684FF4AC714D
:10AA14001846FFF7AEFB034683F00103DBB2002BBD
:10AA2400F2D1059B00225A61079B184609B05DF8D4
:10AA340004FB00BF8025002078FD020082B0019055
:10AA4400019B1B791946084A0B46DB000B449B000B
:10AA5400134414331B68002B14BF01230023DBB2FF
:10AA6400184602B0704700BF8025002000B589B0A9
:10AA740003900291019201238DF81030029B0693FA
:10AA8400019B0593039B5B68039A116804AA104613
:10AA9400984700BF09B05DF804FB00B587B001908A
:10AAA400009100238DF80830009B0493019B9B6860
:10AAB4000393019B00225A61019B5B68019A116810
:10AAC40002AA1046984700BF07B05DF804FB00B522
:10AAD40089B0019000914FF492710198FFF749FBFE
:10AAE4000346002B22D04FF492710198FFF72CFB00
:10AAF40002238DF808300198FFF770FB0346059395
:10AB04000198FFF729FC03460493009BDB68039339
:10AB1400009B00229A61009B0022DA61009B5B6823
:10AB2400009A116802AA104698473BE04FF48871D6
:10AB34000198FFF71EFB0346002B33D04FF48871B6
:10AB44000198FFF701FB0198FFF706FC0790009BB3
:10AB54009B69079A9A4225D1009BDB69002B17D089
:10AB6400009BDB68069320210198FFF714FB009BF0
:10AB7400DA69009B9A61009B1A69009BDA60009B6A
:10AB84000022DA61069A07990098FFF76FFF09E03F
:10AB9400009B00229A61009BDB681A460799009883
:10ABA400FFF764FF4FF4A2710198FFF7E2FA03463E
:10ABB400002B18D04FF4A2710198FFF7C5FA009B3F
:10ABC4009B69002B0FD0009B00229A61009B0022FE
:10ABD400DA610198FFF7C0FB0146009BDB681A4667
:10ABE4000098FFF743FF4FF490710198FFF7C1FA03
:10ABF4000346002B14D04FF490710198FFF7A4FA88
:10AC04000C210198FFF764FB009B5B69002B07D0C4
:10AC14000198FFF799FB034619460098FFF73DFF9B
:10AC24004FF4AC710198FFF7A4FA0346002B10D03F
:10AC34004FF4AC710198FFF787FA009B5B69002B16
:10AC440007D00198FFF780FB034619460098FFF7E9
:10AC540024FF00BF09B05DF804FB000008B50349F8
:10AC64000348FFF734FF00BF08BD00BF8025002064
:10AC74000020004082B00190019B9A00024B1B68A7
:10AC84001344184602B07047A0FF020082B001903E
:10AC9400019B03F1804303F51C33184602B070474F
:10ACA40082B00190019B03F1804303F51C331846E5
:10ACB40002B0704700B583B003468DF807309DF8A5
:10ACC40007301846FFF7E2FF034601221A60BFF37C
:10ACD4006F8F00BFBFF34F8F00BF00BF03B05DF89D
:10ACE40004FB00B583B00346ADF80630BDF806306A
:10ACF4001846FFF7CBFF034600221A60BFF36F8F9D
:10AD040000BFBFF34F8F00BF00BF03B05DF804FB6B
:10AD140000B583B00346ADF80630BDF806301846DA
:10AD2400FFF7BEFF03461B68002B14BF012300235B
:10AD3400DBB2184603B05DF804FB00B585B00346EA
:10AD4400ADF80630BDF806301846FFF7E1FF0346BC
:10AD54008DF80F309DF80F30002B04D0BDF806306D
:10AD64001846FFF7BEFF9DF80F30184605B05DF892
:10AD740004FB0000024BD3F804331846704700BFAD
:10AD840000700240024BD3F800341846704700BFED
:10AD94000070024082B00190064A019BC2F8003460
:10ADA400BFF36F8F00BFBFF34F8F00BF00BF02B070
:10ADB400704700BF0070024000B583B0FFF7E2FFA8
:10ADC40001900198FFF7E6FFBFF36F8F00BFBFF359
:10ADD4004F8F00BF019B184603B05DF804FB0000D1
:10ADE400024BD3F86C341846704700BF0070024021
:10ADF40082B00190064A019BC2F86C34BFF36F8F96
:10AE040000BFBFF34F8F00BF00BF02B0704700BF49
:10AE14000070024000B583B0FFF7E2FF0190019893
:10AE2400FFF7E6FF019B184603B05DF804FB000042
:10AE3400024BD3F88034DBB21846704700700240EE
:10AE440000B585B003468DF807309DF90730002B17
:10AE540005DA9DF8073003F00F03082B0EDD9DF98A
:10AE64000730002B05DB9DF8073003F00F03082B98
:10AE740004DD1C4940F25F4001F0E6FC9DF9073017
:10AE8400002B04DA17494FF48C6001F0DDFC9DF8C7
:10AE9400073003F00803002B0CD0134BD3F8C03455
:10AEA4000393039B03F48033002B01D0002303930B
:10AEB400039B13E09DF8073003F00803002B04D034
:10AEC400084940F26B4001F0BFFC074A9DF8073087
:10AED40003F00F0303F5947352F82330184605B0BA
:10AEE4005DF804FB44FE02000070024000B585B02A
:10AEF40003468DF807309DF90730002B05DA9DF8DD
:10AF0400073003F00F03082B0EDD9DF90730002BEB
:10AF140005DB9DF8073003F00F03082B04DD184907
:10AF240040F2714001F090FC9DF90730002B04DAE7
:10AF3400134940F2724001F087FC9DF8073003F09A
:10AF44000803002B04D10E4940F2734001F07CFC4D
:10AF54000C4BD3F8C0340393039B002B03D14FF065
:10AF6400FF33039306E0039B03F48033002B01D0EB
:10AF740000230393039B184605B05DF804FB00BF50
:10AF840044FE02000070024000B583B003468DF811
:10AF940007309DF90730002B05DB9DF8073003F0DF
:10AFA4000803002B04D00C4940F2834001F04CFC10
:10AFB4000A4A9DF8073003F00F0303F59473002148
:10AFC40042F82310BFF36F8F00BFBFF34F8F00BF52
:10AFD40000BF03B05DF804FB44FE020000700240B1
:10AFE40082B003468DF80730034A9DF80730C2F853
:10AFF400083500BF02B0704700700240024BD3F81E
:10B0040020351846704700BF00700240044BD3F847
:10B014002C35002B14BF01230023DBB218467047E4
:10B024000070024000B587B00346029101928DF88A
:10B034000F309DF90F30002B36DA9DF80F3003F0F6
:10B044000803002B08D0354A029BC2F8A036334AC5
:10B05400019BC2F8A4365DE09DF80F3003F00F03A6
:10B064008DF816309DF81630072B04D92C4940F280
:10B07400345001F0E9FB29499DF8162013469B0042
:10B0840013449B000B4403F5C063029A1A602349DE
:10B094009DF8162013469B0013449B000B4403F2B7
:10B0A4000463019A1A6035E09DF80F3003F0080339
:10B0B400002B08D0194A029BC2F8A037174A019BFB
:10B0C400C2F8A43726E09DF80F3003F00F038DF883
:10B0D40017309DF81730072B04D9114940F243501B
:10B0E40001F0B2FB0D499DF8172013469B00134451
:10B0F4009B000B4403F5E063029A1A6007499DF82C
:10B10400172013469B0013449B000B4403F2047363
:10B11400019A1A6000BF07B05DF804FB007002409A
:10B1240044FE020082B0164B1B680193154B1B684A
:10B134000093019B082B1FD1009B052B1AD801A259
:10B1440052F823F061B1020065B1020069B1020056
:10B154006DB1020071B1020075B1020001230CE06F
:10B1640001230AE0012308E0012306E0012304E0AF
:10B17400012302E0012300E00023184602B07047D7
:10B18400300100103401001008B5FFF7CBFF03466F
:10B19400184608BD00B583B003468DF807309DF905
:10B1A4000730002B05DA9DF8073003F00F03082B56
:10B1B4000EDD9DF90730002B05DB9DF8073003F009
:10B1C4000F03082B04DD0B494FF4B97001F03CFB6D
:10B1D4009DF90730002B01DA074A00E0074A9DF881
:10B1E400073003F00F035B0013441B88184603B0B9
:10B1F4005DF804FB7CFE020078FF02008CFF020075
:10B2040000B583B003468DF807309DF90730002B55
:10B2140005DA9DF8073003F00F03082B0EDD9DF9C6
:10B224000730002B05DB9DF8073003F00F03082BD4
:10B2340004DD054940F2852001F006FB9DF8073046
:10B24400184603B05DF804FB7CFE020000B583B031
:10B2540003468DF807309DF90730002B05DA9DF879
:10B26400073003F00F03082B0EDD9DF90730002B88
:10B2740005DB9DF8073003F00F03082B04DD0C49B0
:10B2840040F2922001F0E0FA9DF90730002B01DA38
:10B29400042200E028229DF8073003F00F03DBB2FC
:10B2A4009B00DBB21344DBB2184603B05DF804FB29
:10B2B4007CFE020000B583B003468DF807309DF98B
:10B2C4000730002B05DA9DF8073003F00F03082B35
:10B2D4000EDD9DF90730002B05DB9DF8073003F0E8
:10B2E4000F03082B04DD0B4940F2A22001F0ACFA55
:10B2F4009DF90730002B01DA074A00E0074A9DF860
:10B30400073003F00F031B011344184603B05DF824
:10B3140004FB00BF7CFE020048260020B825002064
:10B3240000B583B003468DF807309DF90730002B34
:10B3340005DA9DF8073003F00F03082B0EDD9DF9A5
:10B344000730002B05DB9DF8073003F00F03082BB3
:10B3540004DD0B4940F2B52001F076FA9DF907307F
:10B36400002B01DA002200E010229DF8073003F0E0
:10B374000F03DBB21344DBB2184603B05DF804FBE1
:10B384007CFE020082B003468DF807309DF807303A
:10B394000F2B04D99DF80730103BDBB204E09DF875
:10B3A400073063F07F03DBB2184602B07047000039
:10B3B40008B5FFF7E9FE0346002B02D0034B8222B7
:10B3C4001A60034B01221A7000BF08BD1C7C0240A6
:10B3D400B425002008B5FFF7D7FE0346002B02D0A2
:10B3E400034B00221A60034B00221A7000BF08BDF1
:10B3F4001C7C0240B425002000B583B003468DF8C0
:10B4040007309DF807301846FFF720FF034618461B
:10B41400FFF750FC00BF03B05DF804FB10B586B025
:10B4240003468DF8073000238DF811300DF1110318
:10B43400184601F06FF99DF807301846FFF73AFFF8
:10B4440005909DF90730002B39DB634B1B68DC4307
:10B454009DF807301846FFF763FF03461A46012399
:10B4640093402340002B05D09DF80730184600F088
:10B4740091FE20E0059B00221A609DF807301846D3
:10B48400FFF74EFF03461A4601239340DA43524B1B
:10B494001B681340504A13609DF807301846FFF7A5
:10B4A4003FFF03461A4601239340DA434B4B1B6884
:10B4B40013404A4A1360059B03229A7383E09DF864
:10B4C400073003F00803002B37D19DF80730802B99
:10B4D4001CD09DF8073003F00F0303F2DA33404A1F
:10B4E4005B0013603F4B1B688DF812309DF81230DF
:10B4F40043F002038DF812303A4B1A689DF812306B
:10B50400384913430B60374B1B6816E0344B40F249
:10B51400B4721A60334B1B688DF813309DF81330E6
:10B5240043F004038DF813302E4B1A689DF8133042
:10B534002C4913430B602B4B1B68284B1B68DA43C5
:10B54400254B1B6842EA03049DF807301846FFF7B1
:10B55400E7FE03461A46012393402340002B32D0D2
:10B564009DF807301846FFF7DBFE03461A46012311
:10B574009340DA43184B1B681340174A13609DF835
:10B5840007301846FFF7CCFE03461A46012303FA98
:10B5940002F2124B1B681343104A1360059B0022EE
:10B5A4001A60059B03229A7306238DF80C309DF8CC
:10B5B40007308DF80E3003238DF80F300A4B1B68CB
:10B5C40003AA104698479DF81130184601F0B8F8C0
:10B5D40000BF06B010BD00BFB0250020AC25002080
:10B5E4000078024004780240A425002000B583B00E
:10B5F400094B00221A70094B00221A700023019390
:10B6040001238DF80430064B1B6801AA10469847A5
:10B6140000BF03B05DF804FBA8250020A925002085
:10B62400A425002000BF704700B583B080238DF8A7
:10B634000730FFF7CFFE9DF807301846FFF73AFEB4
:10B644000090009B9B7B032B0ED19DF8073018467E
:10B65400FFF766FE03461A4601239340DB4319466F
:10B664000C48FDF74BF911E0009B1B68002B0DD132
:10B674009DF807301846FFF753FE03461A46012388
:10B684009340DB4319460348FDF738F900BF03B084
:10B694005DF804FBB025002000B585B003468DF8A5
:10B6A40007309DF90730002B04DB264940F2B63001
:10B6B40001F0CAF89DF8073003F00803002B04D00A
:10B6C400204940F2B73001F0BFF89DF8073003F08D
:10B6D4000F03002B04DC1B494FF46E7001F0B4F827
:10B6E400FFF778FE9DF807301846FFF7E3FD039057
:10B6F400039B9B7B032B0ED19DF807301846FFF765
:10B704000FFE03461A4601239340DB4319460E48B5
:10B71400FDF7F4F811E0039B1B68002B0DD19DF895
:10B7240007301846FFF7FCFD03461A4601239340F1
:10B73400DB4319460448FDF7E1F800BF05B05DF8A6
:10B7440004FB00BF7CFE0200B025002000B585B0DC
:10B7540003468DF807309DF90730002B04DB284998
:10B764004FF4757001F070F89DF8073003F008038A
:10B77400002B04D1224940F2D53001F065F8FFF7DF
:10B7840029FE9DF807301846FFF794FD0390039BAC
:10B794009B7B032B0ED19DF807301846FFF7C0FDA5
:10B7A40003461A4601239340DB4319461548FDF727
:10B7B400A5F820E0039B1B68002B1CD19DF80730E3
:10B7C4001846FFF7ADFD03461A4601239340DB43B9
:10B7D40019460C48FDF792F806238DF808309DF8B9
:10B7E40007308DF80A3000238DF80B30064B1B68A8
:10B7F40002AA1046984700BF05B05DF804FB00BFDD
:10B804007CFE0200B0250020A425002000B585B0F0
:10B8140000238DF80F30FFF7DDFD9DF80F3018463B
:10B82400FFF748FD0290029B9B7B032B0ED19DF8F2
:10B834000F301846FFF774FD03461A460123934060
:10B84400DB4319461548FDF759F823E0029B1B68B2
:10B85400002B1DD19DF80F301846FFF761FD0346FC
:10B864001A4601239340DB4319460C48FDF746F87A
:10B8740006238DF804309DF80F308DF80630002330
:10B884008DF80730064B1B6801AA1046984701E063
:10B8940000F079FC00BF05B05DF804FBB025002082
:10B8A400A425002000B585B003468DF807309DF926
:10B8B4000730002B04DA2E4940F2144000F0C4FF94
:10B8C4009DF8073003F00803002B04D0284940F208
:10B8D400154000F0B9FF9DF8073003F00F03002B6B
:10B8E40004DC234940F2164000F0AEFFFFF772FD7E
:10B8F4009DF807301846FFF7DDFC0390039B9B7B04
:10B90400032B0ED19DF807301846FFF709FD0346B7
:10B914001A4601239340DB4319461648FCF7EEFF11
:10B9240020E0039B1B68002B1CD19DF807301846B0
:10B93400FFF7F6FC03461A4601239340DB431946FE
:10B944000C48FCF7DBFF06238DF808309DF8073020
:10B954008DF80A3000238DF80B30074B1B6802AAC0
:10B964001046984700F080FA00BF05B05DF804FB6C
:10B974007CFE0200B0250020A425002000B585B07F
:10B9840003468DF807309DF8073003F00803002BB9
:10B9940004D11B4940F23A4000F056FFFFF71AFD6C
:10B9A4009DF807301846FFF785FC0390039B9B7BAB
:10B9B400032B20D0039B1B68002B1CD19DF8073060
:10B9C4001846FFF7ADFC03461A4601239340DB43B8
:10B9D40019460C48FCF792FF06238DF808309DF8B1
:10B9E40007308DF80A3000238DF80B30064B1B68A6
:10B9F40002AA1046984700BF05B05DF804FB00BFDB
:10BA04007CFE0200B0250020A425002008B5FFF725
:10BA14000BFE00BF08BD08B58120FFF73DFE00BF47
:10BA240008BD08B58220FFF737FE00BF08BD08B582
:10BA34008320FFF731FE00BF08BD08B58420FFF75F
:10BA44002BFE00BF08BD08B58520FFF725FE00BF0B
:10BA540008BD08B58620FFF71FFE00BF08BD08B566
:10BA64008720FFF719FE00BF08BD08B58820FFF73F
:10BA74006DFE00BF08BD08B5FFF7C8FE00BF08BDD6
:10BA840008B50120FFF70EFF00BF08BD08B502206E
:10BA9400FFF708FF00BF08BD08B50320FFF702FF4A
:10BAA40000BF08BD08B50420FFF7FCFE00BF08BDB9
:10BAB40008B50520FFF7F6FE00BF08BD08B506204F
:10BAC400FFF7F0FE00BF08BD08B50720FFF7EAFE48
:10BAD40000BF08BD08B50820FFF750FF00BF08BD30
:10BAE40000B583B000238DF80030FFF787FA0346D2
:10BAF4009BB2ADF802308820FFF712FC03461A46C9
:10BB04000123934001930820FFF7F0F90346B3F1B2
:10BB1400FF3F09D00820FFF703FC03461A46012320
:10BB24009340019A13430193074B1A68019B1343F3
:10BB3400054A1360054B1B686A461046984700BFC8
:10BB440003B05DF804FB00BFAC250020A425002051
:10BB540000B585B003460A468DF8073013468DF8C4
:10BB640006309DF8063001229A402B4B1B68134384
:10BB7400294A13609DF90730002B30DA9DF807300D
:10BB84001846FFF707FB03461846FFF7D6F80346A7
:10BB9400002B0BD09DF80730802B05D09DF8073083
:10BBA4001846FFF779FD01E0FFF73EFD9DF80630EA
:10BBB40001229A40194B1B681340002B27D10623FE
:10BBC4008DF80C309DF807308DF80E3000238DF879
:10BBD4000F30134B1B6803AA1046984717E09DF8D3
:10BBE400063001229A400D4B1B681340002B0ED1E6
:10BBF40006238DF808309DF807308DF80A300123AC
:10BC04008DF80B30064B1B6802AA1046984700BFFC
:10BC140005B05DF804FB00BFAC250020B025002072
:10BC2400A425002010B5074B1C78064B1B7818463A
:10BC3400FFF776FB034619462046FFF789FF00BF4E
:10BC440010BD00BFA925002010B582B0FFF7F0F8A1
:10BC540003468DF80730284B1B68DB439AB2274B09
:10BC64001B6842EA0304264B1B781846FFF758FB6F
:10BC740003461A46012393402340002B04D0204B53
:10BC84001B781846FFF7CAFB9DF90730002B01DB30
:10BC9400002200E080221A4B1A700020FFF740FBBC
:10BCA40003461A46012303FA02F48020FFF738FB07
:10BCB40003461A46012393402343DB4319460F48A6
:10BCC400FCF71CFE8020FFF72BFB03461A460123DA
:10BCD40003FA02F2084B1B681343074A136000235C
:10BCE400009305238DF80030064B1B686A46104606
:10BCF400984700BF02B010BDAC250020B02500203D
:10BD0400A9250020A425002000B585B0FFF754F82C
:10BD14000390039B03F48073002B0CD0264B012269
:10BD24001A700023029302238DF80830234B1B68FA
:10BD340002AA10469847039B03F40073002B0CD00F
:10BD44001D4B00221A700023019303238DF8043045
:10BD54001A4B1B6801AA10469847039B03F480639F
:10BD6400002B24D0144B1B78DBB2002B1FD0FFF721
:10BD74004DF9034683F00103DBB2002B04D11049D3
:10BD840040F2F54000F060FD0B4B00221A700120D8
:10BD9400FFF726F95820FEF78DFF002300930423B4
:10BDA4008DF80030054B1B686A461046984700BF63
:10BDB40005B05DF804FB00BFA8250020A4250020E1
:10BDC4007CFE020000B587B0FFF724F805902BE055
:10BDD400059B0293029B93FAA3F30193019B0393A4
:10BDE400039B002B01D1202303E0039BB3FA83F3CD
:10BDF400DBB28DF813309DF813301846FFF7C2FA02
:10BE040003468DF812309DF81330012202FA03F331
:10BE1400DB43059A134005939DF813209DF81230D7
:10BE240011461846FFF794FE059B002BD0D100F075
:10BE34001BF800BF07B05DF804FB86B00190019BBE
:10BE44000493049B93FAA3F30393039B0593059B29
:10BE5400002B01D1202303E0059BB3FA83F3DBB26B
:10BE6400184606B07047000010B588B0764B1B78B2
:10BE740083F00103DBB2002B00F0E280D4E0049BEA
:10BE840003F00123002B09D0049B03F0012318467F
:10BE9400FFF7D3FF03468DF81A3005E00498FFF747
:10BEA400CCFF03468DF81A309DF81A301846FFF778
:10BEB40069FA03468DF819309DF819301846FFF7D2
:10BEC400F9F90590059B1B68002B04D15F4940F2EA
:10BED400615000F0B9FC9DF91930002B15DA059B6F
:10BEE4001B68059A5168059A928902A898470346E7
:10BEF4008DF81B309DF81B3083F00103DBB2002B5F
:10BF040057D0059B00221A6053E09DF8193018465B
:10BF140000F026F90790059B1C68059B5968059B52
:10BF24009B891A4602A8079BA04703468DF81B303D
:10BF3400029B002B08D1039B002B30D0434940F2D5
:10BF44007D5000F081FC2AE0039B079A9A421DD998
:10BF5400059B02229A739DF81A30012202FA03F318
:10BF6400DB4319463A48FCF7C9FC06238DF8043034
:10BF74009DF819308DF8063002238DF80730354BC3
:10BF84001B6801AA1046984700BF4DE0039B079A1F
:10BF94009A4204D02D4940F28C5000F055FC9DF893
:10BFA4001B3083F00103DBB2002B02D0059B00227F
:10BFB4001A60FFF7FDF99DF81A30012202FA03F323
:10BFC400DA43254B1B681340234A1360059B9A6888
:10BFD400039B1A44059B9A600299039A9DF81930B1
:10BFE4001846FFF71FF89DF819301846FFF704FAB2
:10BFF40000BF9DF819301846FFF7CCF803461846E1
:10C00400FEF786FE034683F00103DBB2002B16D055
:10C014004FF48070FEF77CFE034683F00103DBB22D
:10C02400002BE6D100BF0BE0094B1A680A4B1B68D2
:10C0340013400493049B002B7FF421AF00E000BF66
:10C0440000BF08B010BD00BFB42500207CFE020074
:10C05400B0250020A4250020AC25002000B58BB01D
:10C06400FEF788FE0790079B09930023089330E0AE
:10C07400099B0493049B93FAA3F30393039B0593F3
:10C08400059B002B01D1202303E0059BB3FA83F326
:10C09400DBB28DF819309DF819301846FEF7EAFD29
:10C0A40003469BB21846FEF748FE0346002B07D012
:10C0B4009DF81930012202FA03F3089A13430893F6
:10C0C4009DF81930012202FA03F3DB43099A134065
:10C0D4000993099B002BCBD1089B03F40003002B8D
:10C0E40014BF012300238DF81B30089B23F40003A5
:10C0F400089321E0089B0193019B93FAA3F3009317
:10C10400009B0293029B002B01D1202303E0029B9E
:10C11400B3FA83F3DBB28DF81A309DF81A300E4A65
:10C1240052F8233098479DF81A30012202FA03F39B
:10C13400DB43089A13400893089B002BDAD1FFF7DE
:10C1440093FE9DF81B30002B01D0044B984700BF91
:10C154000BB05DF804FB00BF14FF02004DBC0200ED
:10C1640000B583B003468DF807309DF807301846B4
:10C17400FFF746F803461846FEF762FE03461846E4
:10C1840003B05DF804FB08B54C20FEF793FD00BF37
:10C1940008BD000000B585B003468DF807309DF951
:10C1A4000730002B04DA184940F6DF0000F04CFB9E
:10C1B40000238DF80F300DF10F03184600F0AAFA92
:10C1C4009DF807301846FFF7ABF803461A460123DB
:10C1D4009340DA430D4B1B6813400C4A13609DF8DF
:10C1E400073003F00803002B04D19DF807301846EC
:10C1F400FEF7CAFE9DF80F30184600F0A1FA00BF02
:10C2040005B05DF804FB00BF7CFE0200AC250020F5
:10C2140086B003900291019201238DF817309DF8A6
:10C224001730204A039B13601E4A029B53601D4A29
:10C23400019B9360039B44F20102934212D0039B3F
:10C2440044F20202934220D1019B164AD360154B5B
:10C25400DB681B68134A9361124BDB685B68114A05
:10C26400D36112E0019B0F4A13610E4B1B699B685B
:10C274000C4A53610B4B1B691B680A4A9361094BB7
:10C284001B695B68074AD36100BF72B600BF00BF79
:10C294009DF81730DBB2002BFAD162B600BF00BFA5
:10C2A40006B07047D826002000B583B002900091F4
:10C2B400019244F2010071466A4600F003F803B0AB
:10C2C40000BD00BF30B58BB007900691059272B6E1
:10C2D40000BF02F083F901F0ABFF0346002BFAD153
:10C2E400079B44F2020293422FD0079B44F20202BE
:10C2F400934269D8079B44F20102934237D0079BCB
:10C3040044F2010293425FD8079B012B05D0079B9F
:10C3140041F2010293420CD056E0394A394BD31A08
:10C32400DB081B0443F001033749184601F024FFDE
:10C3340057E0334A334BD31ADB081B0443F00103A1
:10C344003249184601F018FF4BE0059B09932C4A2B
:10C354002C4BD31ADB081B0443F00100099B5B68D8
:10C364001A46099B1B682A4901F025FF39E0059B01
:10C374000893234A234BD31ADB081B0443F001041C
:10C38400089B9D68089B9B68184601F031FA034698
:10C394001846089B5B681946089B1B68069A02921C
:10C3A4000193009103462A461A49204601F017FFDB
:10C3B400134A144BD31ADB081B0443F00103164938
:10C3C400184601F0D9FE0CE00D4A0E4BD31ADB08D7
:10C3D4001B0443F00103069A1049184601F0DAFEE3
:10C3E40000BF0F4B1B6803F00103002B00D000BEFD
:10C3F400059A06990798FFF70BFF00BF0BB030BDF5
:10C4040078F5020048F502004C0003006C000300BC
:10C4140090000300AC000300D4000300E800030014
:10C42400F0ED00E02DE9F04383B0144800F0E4F9A6
:10C43400034600221C461546114BD3E9002314EB96
:10C44400020845EB0309CDE900890E4BD3E900232B
:10C45400DDE90001904271EB030307D2DDE900231B
:10C4640012F1807643F10007CDE90067DDE900238E
:10C474001046194603B0BDE8F08300BF0423002032
:10C48400F82600200027002008B5024800F0C1F972
:10C4940000BF08BD0423002000B585B00346009109
:10C4A4008DF80730114A02AB1946104600F01CFA09
:10C4B4000390039B002B13D0039B9DF807201A7055
:10C4C400039B009A5A60094A02AB1946104600F0D1
:10C4D40024FA0346002B01D0FFF7D6FF002300E027
:10C4E4000423184605B05DF804FB00BF08270020AC
:10C4F400F0B589B0039002910192039B002B04D103
:10C50400264940F26B2000F09FF9039B0693002319
:10C514008DF817300DF11703184600F0FBF8069B51
:10C52400D3E90223B3F1FF3F08BFB2F1FF3F11D1BA
:10C53400FFF778FF02460B46029900200C46054699
:10C54400161943EB0507069BC3E9026701238DF81F
:10C554001F3002E000238DF81F309DF81730184675
:10C5640000F0EEF89DF81F3083F00103DBB2002BDE
:10C5740001D000230EE0069B019A9A61069B1B6979
:10C58400002B02D0069B029A1A6106990020FFF73D
:10C5940083FF0346184609B0F0BD00BF0C01030039
:10C5A40000B587B00190019B002B04D11E4940F2D5
:10C5B400932000F049F9019B049300238DF80F3078
:10C5C4000DF10F03184600F0A5F8049BD3E90223EC
:10C5D400B3F1FF3F08BFB2F1FF3F03D100238DF851
:10C5E400173009E004994FF0FF324FF0FF33C1E9EF
:10C5F400022301238DF817309DF80F30184600F000
:10C604009FF89DF8173083F00103DBB2002B01D0B3
:10C61400002304E004990120FFF73EFF0346184677
:10C6240007B05DF804FB00BF0C01030082B0EFF318
:10C6340010830093009B019372B600BF019B1846C0
:10C6440002B0704762B600BF00BF704700B585B046
:10C654000190FFF7EBFF0390164B9B68002B1BD157
:10C66400144B01229A60144BD3F88020134B1340CF
:10C67400104A1360104B114AC3F880200E4BD3F8B4
:10C6840084300C4A53600C4B4FF0FF32C3F88420C3
:10C69400019B00221A7002E0019B01221A70039B85
:10C6A400002B01D1FFF7CEFF0023184605B05DF83B
:10C6B40004FB00BF1827002000E100E0FC06FFBDDA
:10C6C40000B585B003468DF80730104B9B68002BEE
:10C6D40016D09DF80730002B12D1FFF7A7FF039067
:10C6E4000B4A0A4B1B681360094A084B5B6853608A
:10C6F400064B00229A60039B002B01D1FFF7A2FF97
:10C704000023184605B05DF804FB00BF182700207D
:10C7140000E100E000B583B0019000F02BF803467F
:10C72400012B03D00549432000F08EF80198FFF750
:10C734008DFF00BF03B05DF804FB00BFA806030033
:10C7440000B583B003468DF8073000F013F80346B4
:10C75400012B03D00649512000F076F89DF80730EC
:10C764001846FFF7ADFF00BF03B05DF804FB00BF40
:10C77400A806030084B0EFF305830193019BC3F380
:10C7840008030393039B002B0DD1EFF31483009351
:10C79400009B0293029B03F00103002B0CBF0123B7
:10C7A4000023DBB200E00123184604B07047000008
:10C7B40082B003468DF807309DF90730002B0DDB5E
:10C7C4009DF8073003F01F0206499DF907305B0905
:10C7D400012000FA02F2403341F8232000BF02B0E6
:10C7E400704700BF00E100E082B00190019BD3F8E4
:10C7F4000435184602B0704700B583B00190019B20
:10C804001B681846FFF7F0FF0346184603B05DF8AF
:10C8140004FB00B583B00190019B93F904301846E2
:10C82400FFF7C6FF00BF03B05DF804FB08B5044B77
:10C834001B68044A12681046984700BF08BD00BF31
:10C84400242700202827002000B585B00346009146
:10C85400ADF80630BDF806300293009B039302AB9B
:10C864001A46002144F20200FFF72CFD00BF05B078
:10C874005DF804FB86B001900091019B53E8011F11
:10C884008AB2D88902449889824228BF121A188928
:10C89400824202BFBFF32F8F002307E0C2EA0102E6
:10C8A40043E801200028E9D14FF001038DF80F304F
:10C8B400059002910492029A009B1A609DF80F3031
:10C8C400DBB2184606B0704784B00190019951E874
:10C8D400013FC3EA034341E80132002AF7D103923E
:10C8E400029300BF04B0704700B585B00190009179
:10C8F400009B19460198FFF7BDFF0346002B07D0A4
:10C90400019B1B68009A128813440393039B00E065
:10C914000023184605B05DF804FB00B583B0019010
:10C924000091009B1A88009B5B889A4204D101986D
:10C93400FFF7CAFF012300E00023184603B05DF8A7
:10C9440004FB00B585B001900091009B5B099B003E
:10C95400019A1A44009B03F01F03012101FA03F317
:10C964001946104600F04DF8039000BF05B05DF87D
:10C9740004FB00B585B001900091009B5B099B000E
:10C98400019A1A44009B03F01F03012101FA03F3E7
:10C99400DB431946104600F064F8039000BF05B06D
:10C9A4005DF804FB82B001900091009B5B099B0041
:10C9B400019A13441A68009B03F01F0322FA03F33D
:10C9C40003F00103002B14BF01230023DBB218463C
:10C9D40002B0704710B487B001900091019B009A97
:10C9E40053E8004F104643E8000191F0000FF7D1DF
:10C9F400059404900391059B184607B05DF8044B19
:10CA0400704710B487B001900091019B009A53E8DD
:10CA1400004F44EA020043E8000191F0000FF6D110
:10CA2400059404900391049B184607B05DF8044BE9
:10CA3400704710B487B001900091019B009A53E8AD
:10CA4400004F04EA020043E8000191F0000FF6D120
:10CA5400059404900391059B184607B05DF8044BB8
:10CA6400704710B487B001900091019B009A53E87D
:10CA7400004F04EA020043E8000191F0000FF6D1F0
:10CA8400059404900391049B184607B05DF8044B89
:10CA9400704710B487B001900091019B009A53E84D
:10CAA400004F04EB020043E8000191F0000FF6D1BF
:10CAB400059404900391049B184607B05DF8044B59
:10CAC400704710B487B001900091019B009A53E81D
