:020000022000DC
:1070000000000420197202000172020003720200E3
:1070100005720200077202000972020000000000FF
:107020000000000000000000000000000B720200E1
:107030000D720200000000000F72020011720200C7
:10704000019302001372020019950200CD9802000C
:10705000137202001372020099930200137202006D
:10706000137202001372020065950200137202008F
:1070700013720200137202001372020013720200F4
:107080001372020031A70200137202001372020091
:10709000137202001372020061BB0200137202003D
:1070A00013720200137202001372020013720200C4
:1070B00013720200137202000000000000000000C2
:1070C00013720200137202001372020013720200A4
:1070D0001372020013720200137202001372020094
:1070E000137202001372020013720200000000000B
:1070F0000000000013720200000000001372020082
:10710000000000000000000000000000000000007F
:10711000000000000000000000000000000000006F
:10712000000000000000000000000000000000005F
:10713000000000000000000000000000000000004F
:10714000000000000000000000000000000000003F
:10715000000000000000000000000000000000002F
:10716000000000000000000000000000000000001F
:10717000000000000000000000000000000000000F
:1071800000000000000000000000000000000000FF
:1071900000000000000000000000000000000000EF
:1071A00000000000000000000000000000000000DF
:1071B00000000000000000000000000000000000CF
:1071C00000000000000000000000000000000000BF
:1071D00000000000000000000000000000000000AF
:1071E000000000000000000000000000000000009F
:1071F000000000000000000000000000000000008F
:10720000FEE7FEE7FEE7FEE7FEE7FEE7FEE7FEE756
:10721000FEE7FEE700F002B8FFF7FCBF0F484FF0B3
:107220000701884385460E4880470E48016841F4AF
:1072300070010160BFF34F8FBFF36F8F00F01AB87A
:1072400009480A490A4A884207D0521A05D00378E9
:1072500001300B700131013AF9D170470000042070
:107260006181020088ED00E0D8C80200782B002080
:10727000782B002039493A480A1A02D00722914354
:107280008D46384938480A1A06D00722914381F3BF
:107290000988022282F3148834483549354A00F0BF
:1072A0003EF835483549364A00F039F83548364910
:1072B000364A00F034F836483649374A00F02FF89D
:1072C00036483749374A00F02AF837483749384AAC
:1072D00000F025F837483849384A00F020F8384897
:1072E0003849002200F033F837483849002200F0CE
:1072F0002EF837483749091A05F03BF9364A9047C6
:1073000024482549884205D00268043003B49047D8
:1073100003BCF7E700200021304A9047FEE788428F
:1073200014D0521A12D003460B43134303242342B2
:1073300006D1036804300B600431043AF9D1704778
:10734000037801300B700131013AF9D1704788425E
:1073500002D002700130FAE77047000000000420FC
:1073600000E00320000004200000042074DE02007E
:10737000782B0020E82B0020E0730200E07302006D
:10738000DCC7020074DE0200782B0020782B00207E
:10739000D8C80200D8C80200D8C80200D8C8020065
:1073A000D8C80200D8C80200D8C80200D8C8020055
:1073B00071DE0200E4DE0200E82B0020E82B002052
:1073C000E82B0020884800208848002088480020BA
:1073D000884800208868002041720200197C020061
:1073E000A8DF7047ADDF7047AEDF704762DF7047E0
:1073F0000388502B10B502D0572B1BD010BD4A89E3
:10740000C3889A42FAD1038A012BF7D1827C154BAB
:107410001548C01AC008531E092B4FEA0040BDE8AA
:10742000104095BF1149124940F0030040F002009E
:1074300004F0EEB80F4C002322688B756421B2FB78
:10744000F1F301FB13234BB90748064B0A49C01A55
:10745000C008000440F0030004F0DAF823680133A8
:107460002360CBE740C8020078C80200D8C80200F9
:10747000F0C80200F02B00201EC90200F0B5434BFB
:10748000434D4449ED1AED082D0445F003058FB036
:107490000646284604F0B8F83F4B02AA03F110074D
:1074A00018685968144603C40833BB422246F7D112
:1074B00006F1120102A8FFF799FF0446002861D1E6
:1074C00036492846012704F09FF8B37C8DF8063032
:1074D000324601A93846ADF80470FFF781FF044633
:1074E00000284FD132882E49284604F091F82146D1
:1074F0001D220DF11B0005F0CDF80223ADF8183068
:10750000B37C8DF81A30274B079332469DF825300F
:1075100032F8020B8DF82B7043F0100306A98DF89A
:10752000253001F03CFB044660BB1F497822284609
:1075300004F06EF82146B4751D220DF11B0005F014
:10754000A9F80323ADF81830B37C8DF81A304FF04A
:107550000113079332469DF8253032F80A0B8DF857
:107560002A7043F0080306A98DF8253001F017FBB7
:10757000044638B90D49284604F046F80C49284617
:1075800004F042F820460FB0F0BD00BF40C8020032
:1075900078C8020045C90200D5D9020065C90200B9
:1075A00081C9020078000200A4C90200DCC90200FF
:1075B000FCC902002DE9F0411C464FF6FF739942C9
:1075C00088B005460E4617460ED14848484B4949F3
:1075D000C01AC008000440F0020004F015F80824A6
:1075E000204608B0BDE8F0810023ADF80430ADF8C6
:1075F0000A300223C188ADF8083002AA01AB304638
:107600000393FFF7EFFE0028E9D1BDF80430012B0A
:10761000E5D1AB7DB3B138490B685A1C0A606421CF
:10762000B3FBF1F001FB10330BB11124D8E7304B61
:107630002E483249C01AC008000440F0020003F08E
:10764000E7FFF2E704B15FB9294B28482C49C01A7B
:10765000C008000440F0010003F0D6FF0724BFE794
:107660006400A4B2782C32D8ADF806406A88ADF830
:10767000102001234FF000080DF10602AB7504A99C
:107680003046CDF813808DF817808DF812300797AB
:107690000692FFF7A9FE04460028A1D0194985F8F3
:1076A00016800A68531C0B600A21B2FBF1F001FB43
:1076B0001022002A94D10E4A0C481349801AC0089F
:1076C0000004224640F0010003F0AAFF88E7084BBF
:1076D00006480E49C01AC0080004782240F0020093
:1076E000ADF8062003F094FFC0E700BF78C80200A1
:1076F00040C8020020CA0200EC2B002050CA020041
:1077000062CA0200E82B0020ABCA02008BCA02004A
:1077100072DF704773DF704776DF70477ADF70473C
:107720007CDF70477FDF70478FDF7047B1DF7047C6
:1077300002F046BC10B50C4B0C4C0D49E41AE408A1
:10774000240444F00304204603F05EFF094B0121AA
:107750001878FFF7DFFF08B102F032FC2046064937
:10776000BDE8104003F050BF40C8020078C80200D6
:10777000D4CA0200982B0020F0CA02000388212BF3
:1077800037B5054677D007D8112B46D0132B64D0D8
:10779000102B17D003B030BD522B79D0562B00F0F0
:1077A0008E803B2BF6D14948494B4A49C01AC00844
:1077B000000440F0010003F027FFA8881321FFF721
:1077C000ABFF51E0424B414C4349E41AE408240426
:1077D00044F00304204603F017FFAA883F492046DF
:1077E00003F016FF3C49204603F00EFFA9883C4DEC
:1077F0003C48298001F0C8FB08B102F0E1FB3A4B9C
:107800002A883A499A82204603F0FEFE38492046EB
:1078100003B0BDE8304003F0F7BE2D4B2B4C2E4992
:10782000E41AE408240444F0030003F0EDFE2A7A8D
:10783000304944F0030003F0EBFE274944F0030015
:1078400003F0E2FE264A4FF6FF731380264A938226
:1078500003B0BDE83040FFF76DBF2148002300882A
:107860001A468521FFF75EFF002893D003B0BDE8DC
:10787000304002F0A5BB204B80881B88ADF8043057
:1078800001A9FFF751FF002884D002F099FB81E79E
:107890000F4B0E4C1949E41AE408240444F0030485
:1078A000204603F0B1FE0E48002300881A46194610
:1078B000FFF73CFF08B102F083FB1149A7E703483B
:1078C000034B1049C01AC008000472E778C80200D0
:1078D00040C8020015CC02001DCB020046CB0200BE
:1078E0009A2B0020803D0020663D002065CB0200E1
:1078F0008CCB0200B4CB0200F4D90200D6CB02003C
:10790000FFCB020039CC020038B50378ABB90D4D7E
:107910000D492A780978914210D00C4C04EB0224CE
:10792000204604F031FE21460246094802F000FBE1
:107930002B78013303F00F032B7038BD054A137009
:10794000FBE700BFFA2C0020FB2C0020FC2C0020C1
:10795000E8D90200FC3C002008B503784BB9054B80
:107960003B211888FFF7D8FE18B1BDE8084002F0A7
:1079700027BB08BD9A2B00200A8840F677239A423D
:1079800010B50C460ED1084B08488A880849C01A21
:10799000C0080004D31E40F0030003F041FE054B75
:1079A00062889A8210BD00BF40C8020078C80200F9
:1079B0005DCC0200663D0020064AD2F80435D9436A
:1079C00001F4005103F40053C2F80815C2F80C3555
:1079D000704700BF0003005002F0F2BA1FB57F29C4
:1079E00028BF7F2100238DF80C308DF80D100093F7
:1079F00003AA0223282102F0BFF8B0FA80F0400960
:107A000005B000BD9FED1E7A1E4BC0EE074A9A6876
:107A1000D3ED017A93ED035A5A6037EEA40A1A693E
:107A2000C3ED007AF0EE007A83ED025ADA60C3ED1E
:107A3000044AA5EE670A144BDFED147AD3ED015A20
:107A400093ED026AD3ED036A93ED047AC3ED005A15
:107A5000A5EEA70ADFED0E7A83ED016AA6EE270AEE
:107A6000DFED0C7AC3ED026AA6EEA70ADFED0A7A13
:107A700083ED037AA7EE270A83ED040A704700BF5F
:107A800051D6A540143D0020003D0020D2A153BE98
:107A900044BB513F36B9F9BFFD71154000B5102206
:107AA00089B00DEB0200002104F0F4FD2B222C2301
:107AB000CDE900234FF0FF33CDE90233054B0693A8
:107AC000054A0648062369468DF81C3002F056F92F
:107AD00009B000BD00E0D70109790200E8D9020031
:107AE0002DE9F843814604F04FFDFF2827D8DFF841
:107AF0006480144E98F8003037785D1C05F00F054F
:107B0000AF421CD0104C421C494604EB032004F049
:107B10008FFD0E4B88F800501A7882B9012204EBD1
:107B200007201A7004F030FD04EB072102460848D4
:107B300002F0FEF93378013303F00F033370BDE830
:107B4000F88300BFFA2C0020FC2C0020FC3C002015
:107B5000E8D90200FB2C002010B5074A074913782A
:107B60000978013303F03F0399421FBF1478044999
:107B7000137021F8140010BD792C0020782C0020FF
:107B80007A2C0020094B0A4A1978137899420BD0B5
:107B90001178084B33F8113003801378013303F068
:107BA0003F0313700120704700207047792C00209C
:107BB000782C00207A2C00201FB5094B0FCB8DE8C4
:107BC0000F00002307481A46694601F0DDFE10B198
:107BD0000548FFF785FF034801F056FF05B000BDDB
:107BE000F8D902007C2B00208ECC0200044B03222B
:107BF000C3F834274FF40052C3F80825704700BF7C
:107C0000000300504FF0A0430322C3F870274FF049
:107C10008052C3F8082570472DE9F0434FF48041A6
:107C2000A7B0002003F05CFB08B102F0C9F903F033
:107C3000A3FA9D4D9D4B9E49ED1AED082D0445F08C
:107C40000304204603F0E0FC9A49204603F0DCFCE4
:107C50009749204603F0D8FC97492046FFF7C6FF16
:107C600003F0D2FC02F08AFA08B102F0A9F9934AB3
:107C70009348012102F0B2FA08B102F0A1F991494A
:107C8000204603F0C1FC03F035F908B102F098F981
:107C90008D49204603F0B8FC03F00CFF08B102F058
:107CA0008FF9002317A90120179303F093FF08B160
:107CB00002F086F917A804F04DF808B102F080F937
:107CC0008249204603F0A0FC112381498DF8203021
:107CD000072208A8FFF724FD08B102F071F9204639
:107CE0007B4A7C4903F094FC0023ADF860307A4B6A
:107CF000179317A84FF41673ADF86230FFF70EFD17
:107D000008B102F05DF97549204603F07DFC744925
:107D1000204603F079FC7349734801F021F808B15B
:107D200002F04EF97048F72101F02EF808B102F088
:107D300047F96E492046F72203F06AFC6C4B6D4808
:107D4000179317A901F00EF908B102F039F96A4842
:107D5000FFF794FB08B102F033F9DFF89C810126AC
:107D600098F812308DF806303C22002108A8ADF8B2
:107D7000046004F08FFC02238DF820303C2240F296
:107D80000163002117A8ADF8223004F083FC5B4AA0
:107D9000ADF86C6001AB52F8041C1C9308A800F00D
:107DA00046FB08B102F00CF9554B17A8996803F18E
:107DB0000C0200F03CFB08B102F002F9182200218D
:107DC00002A804F067FC01238DF81D308DF80830FF
:107DD0004B494C484FF4A07302AA0493FFF798FC58
:107DE00008B102F0EDF81422002117A804F052FCAB
:107DF00043F69A334EF66B62CDE9182303238DF8D0
:107E00006830414B1C9317A8404B1D9300F0CEFDEA
:107E100008B102F0D5F8FFF78DFC3D49204603F08C
:107E2000F3FB3C49204603F0EFFBFFF7DFFEFFF7D3
:107E3000E9FEFFF733FE3848FFF752FEFFF7BCFEBE
:107E40003648FFF74DFE3649204603F0DDFB354846
:107E5000FFF746FE2046344903F0D6FB334801F0D5
:107E600019F940B93248FFF73BFE324945F00100AD
:107E700003F0CAFBFEE73048FFF732FE2F492046E9
:107E800003F0C2FB2E48FFF72BFE284801F017F93C
:107E900000285BD12B48FFF723FE2B4945F001005A
:107EA00003F0B2FBFEE700BF78C8020040C8020042
:107EB0001DCB0200A8CC0200C3CC0200B97902009D
:107EC000F0D90200DACC0200FACC020014CD020094
:107ED00033CD02003BCD02003C0050004FCD0200EC
:107EE00076CD0200797902008C3D002098CD020009
:107EF00031770200803D0020663D00208C2B002061
:107F0000882B0020982B002059790200D979020093
:107F1000B5CD0200D1CD0200F6CD02000CCE02009C
:107F20001FCE020033CE02004FCE02007C2B002079
:107F30006CCE020089CE0200AACE0200C8CE02009A
:107F4000EACE02000ECF02002FCF02006348FFF7F7
:107F5000C7FD6349204603F057FB62480D21FFF738
:107F60003DFD002800F083805F48FFF7B9FD5F49C1
:107F70000D22204603F04CFB00225D48ADF808209E
:107F80004FF48041ADF8202002F03AF908B102F038
:107F900017F85849584EDFF89891204603F034FB03
:107FA0005649204603F030FB55493C22204603F059
:107FB0002FFB5049204603F027FB0027337899F820
:107FC00000209A4219D03378BBB133780A2B14D8E9
:107FD00031784448013901EB410301EB8301CDB213
:107FE0002946FFF7FBFC40B1337889F8003032783E
:107FF00044492B46204603F013FB3A4802A901F0FE
:1080000080F870B1BDF9083000EE103AB8EEC00A41
:10801000FFF7F8FCBDEEC00A10EE103A18B2FFF7F9
:108020009BFD08A8FFF7AEFDD0B1374A1368591C75
:1080300011606422B3FBF2F102FB11334BB9BDF9BD
:108040002030324A202117A803F067FF17A8FFF756
:1080500047FD2F4B1A884FF6FF739A4210D1002725
:1080600003F090F90028A9D102F05AFFA6E72948A9
:10807000FFF736FD284945F0020003F0C5FA7BE71B
:108080007D1C264ABDF8203022F81730EDB23B2D7A
:1080900021D9B8F8141022483C23FFF78BFA074681
:1080A00028B111281FBF1F4A1368013313601E49EE
:1080B0000B685A1C0A606421B3FBF1F001FB10331A
:1080C0002BB9184B19491B68204603F0A9FA002F59
:1080D000C5D0112FC3D02F46C2E700BF58CF020032
:1080E00070CF02007C2B00209BCF0200C1CF02008A
:1080F000A02B00201DCB0200842B002034D00200D6
:1081000052D0020098D00200742C0020C1D002008E
:108110009A2B0020F4CF020017D00200FC2B002085
:10812000663D0020F82B0020F42B0020C6D0020072
:10813000782B00204FF08053D3F83021082A03BF5A
:10814000D3F83401B0FA80F04009002070470000F5
:10815000024AD2F80034002BFBD0704700E0014007
:108160004FF0805310B5D3F83021082A4ED14FF08C
:1081700080420021C2F80C11C2F81011C2F8381563
:1081800002F54042D3F80414C2F82015D3F80814BD
:10819000C2F82415D3F80C14C2F82815D3F810141B
:1081A000C2F82C15D3F81414C2F83015D3F81814EB
:1081B000C2F83415D3F81C14C2F84015D3F82014B3
:1081C000C2F84415D3F82414C2F84815D3F828147B
:1081D000C2F84C15D3F82C14C2F85015D3F830144B
:1081E000C2F85415D3F83414C2F86015D3F8381413
:1081F000C2F86415D3F83C14C2F86815D3F84014DB
:10820000C2F86C15D3F84434C2F87035FFF792FF0A
:1082100018B1404B404AC3F88C26FFF78BFF18B1CA
:108220003E4BFB22C3F81825FFF784FF58B14FF0EF
:1082300080424FF08051D2F8E43ED1F8581261F3F9
:108240000303C2F8E43EFFF775FF20B1344B4FF44F
:108250000072C3F840264FF08053D3F83031082B1A
:1082600009D14FF08043D3F80024D20744BF6FF008
:108270000102C3F800242B4AD2F8883043F470037B
:10828000C2F88830BFF34F8FBFF36F8F4FF080532A
:10829000D3F83021082A0BD1D3F83431032B81BF16
:1082A0004FF01023D3F808224FF08043C3F858252D
:1082B0004FF01023D3F80022002A03DBD3F8043256
:1082C000002B22DA184901234FF01020C1F80435A1
:1082D0001224FFF73DFFC0F80042FFF739FFC0F856
:1082E0000442FFF735FF0023C1F80435FFF730FFE4
:1082F000BFF34F8F0B490D4BCA6802F4E062134382
:10830000CB60BFF34F8F00BFFDE7094B094A1A60EE
:1083100010BD00BF005000404881030000F0004045
:108320000090024000ED00E000E001400400FA058A
:10833000C02B00200090D0036DDF704779DF7047BD
:108340007DDF704764DF70472DE9F04F85B0002571
:108350000E9CBDF83CA027880191804691469B4623
:108360002E46B8F80020B24205DC002D38D100209E
:1083700005B0BDE8F08FD8F8042052F8260003902D
:1083800000220DF10B0103A8FFF7DCFF0028EFD15D
:108390009DF80B204A4521D1228885F0010002EB8F
:1083A000090101EB4001514523DC4DB9013292B284
:1083B000019B22800BF802302288013292B2228087
:1083C0005A440DF10B0103A8FFF7BCFF0028CFD1E1
:1083D00021889DF80B200A44228001250136C0E740
:1083E0002288013AD21B92B2FF2A02D80BF807204A
:1083F000BDE70C20BCE72DE9F341089CBDF82450F3
:108400001746CDE90045022206469846FFF79CFF35
:1084100050B94346102239463046CDE9084502B0EE
:10842000BDE8F041FFF790BF02B0BDE8F0812DE953
:10843000F04F0023178885B0138090F82D30064642
:108440000D46144653B3082F40F29C8102A8FFF753
:1084500073FF002840F0DF802388DDF80910082230
:10846000EA54238801339BB21B222380EA542388D9
:1084700001339BB2EA182380E950BDF80D30938098
:1084800023889DF8082006339BB2012A94BF00225E
:1084900001222380EA54238801332380B37803B375
:1084A00023880433BB4200F26D8102A8FFF746FF28
:1084B000002840F0B08023880322EA542388013347
:1084C0009BB219222380EA542388BDF80820013387
:1084D0009BB2E9182380EA54120A4A7023880233B7
:1084E0002380F278A2B12388D91CB94200F24A81D4
:1084F0000221E954238801339BB201212380E954EE
:1085000023880B449BB22380EA5423880B442380A6
:108510007268B2B12388D91CB94200F233810221BA
:1085200092F90020E954238801339BB20A21238069
:10853000E954238801339BB22380EA542388013312
:1085400023803389002B5BD1338A53B1CDE90047B7
:108550002B460722032106F11000FFF74CFF0028ED
:1085600059D1338B53B1CDE900472B461522142145
:1085700006F11800FFF73FFF00284CD1326A002AAD
:108580004CD1D6F82480B8F1000F2FD0B8F80430C1
:108590002188981C8A1C0244BA4200F2F380FE280B
:1085A00000F2F08003336B54238801339BB2FF2227
:1085B0002380EA54238801339BB22380B8F800203B
:1085C000EA54E918120A4A70208802302080B8F86C
:1085D00004205AB1D8F8081051B315FA80F004F00D
:1085E00027F82388B8F804201344238096F82C3009
:1085F000002B56D13378002B40F0948000200AE005
:10860000CDE900472B460622022106F10800FFF7BC
:10861000F2FE002898D005B0BDE8F08FB4F800C095
:108620000CF10603BB4200F2AD801188052901D888
:108630000720F0E76FF4486E01EB0E039BB24FF298
:108640007D3E7345F4D95388052BF1D96FF448600A
:10865000181880B27045EBD94FF6FF70814201D0F7
:108660009942E5D8052305F80C30238801339BB2E5
:1086700012212380E954238801339BB2238011887F
:10868000E954E818090A4170238802339BB2238019
:108690005288EA54E918120A4A7023880233238068
:1086A0006FE7B36A002BC3D04FF000094FF00C0AFC
:1086B0004FF0160B96F82C305FFA89F2934299D955
:1086C000B16A0AFB02F201EB0208B8F80430981C08
:1086D000FE2857D8208803332B54238801339BB2BC
:1086E000238005F803B0238801339BB223808A5A84
:1086F000EA54E918120A4A70208802302080B8F83B
:10870000042062B1D8F80810002991D015FA80F041
:1087100003F08EFF2388B8F804201344238009F166
:108720000109C7E7012B02D17278002A80D0228884
:10873000901CB84226D8012B04D17378023313441D
:108740009F421FD3023FBF1ABFB202A92844ADF80F
:108750000870FFF7F5FD00287FF45DAF3278BDF8B3
:108760000830022A02D07178994201D39F4206D282
:10877000012A09D173789F4208D3082100E009211A
:10878000FE2B05D90C2046E73B46F6E73B46082181
:108790002288581CA8542288013292B22280A954FF
:1087A000228801321344238028E775DF704776DF83
:1087B00070477ADF70477BDF70470000034B1A88F1
:1087C00082420CBF18460020704700BFC43D002005
:1087D000024B9B6903B11847704700BFA83D0020BA
:1087E00073B584B22046FFF7E9FF054668B1174E1E
:1087F000027A337B9A4211D200F10A012046FFF738
:10880000D4FF20B92B7A01332B7202B070BD11282E
:10881000FBD002B0BDE87040FFF7DABF002303725F
:10882000337C43B13B212046FFF7C1FF30F0080302
:1088300001D0FFF7CDFF7369002BE6D000228DF841
:108840000420ADF8064001A89847DEE7A83D0020C7
:1088500013B50B46497A0F4C024671B9D4E90101B0
:108860001C7A002C08BF0146586801F0C9FC78B199
:1088700002B0BDE81040FFF7ABBF00211972636979
:1088800033B10121ADF806008DF8041001A8984716
:1088900002B010BDA83D00204B8802889A4213D830
:1088A00042889A4210D383888A8840F2F3118B421F
:1088B00094BFD81A581A90420B448CBF0020012054
:1088C000934238BF00207047002070470388122B66
:1088D00070B5014659D004D8102B1ED0112B44D0AE
:1088E00070BD502BFCD12F4BC288DB899A42F7D147
:1088F000038A022BF4D186883046FFF75FFF0546D6
:108900000028EDD001F1120000F045F938BB68688D
:1089100001F0A4FC0028E3D009E0C37B012BDFD1E8
:108920004FF6FF70FFF74AFF054620B90420BDE867
:108930007040FFF74DBF1C4A8E88068000230372EB
:108940001368C0F80A305368C0F80E3010310A308E
:10895000FFF7A2FF134B6872DB89002BC0D12946B9
:108960003046BDE87040FFF773BF8088FFF726FFF1
:1089700004460028B4D0406801F070FC08B1FFF74D
:1089800027FF4FF6FF732380AAE786883046FFF75C
:1089900015FF05460028A3D008310A30FFF77CFFF9
:1089A0006872DCE7A83D0020A03D0020F8B507462E
:1089B00050B305460FCD154E34460FC495E8070059
:1089C00084E807003868124C3460B8B1FFF7F1FE54
:1089D000C8B93A6813682360536863600D4A4FF65C
:1089E000FF73104613800C4B40F8043F0B4A0021E4
:1089F00001F0F4FB002818BF032004E02046FFF735
:108A0000DAFE0028EAD0F8BD0E20FCE7A83D0020E1
:108A1000A03D0020C43D0020D83D0020E187020099
:108A20000AB101F01DBF01F024BF73B50191019C93
:108A300006466CB100252C46294601A801F023FF0B
:108A400018B106EB440301349D800135142DF3D198
:108A50003046346002B070BD2DE9F0470388848849
:108A6000103B8CB005460A2B21D8DFE803F0064006
:108A700020202020202020654700DFF8E880D8F85B
:108A80000830DB430093D8F80410684601F027FF54
:108A9000009901A8FFF7C9FF0DF106090027019B06
:108AA0009F4207D3132C12D9042001F089FA0CB08D
:108AB000BDE8F08739F802AF00260136514608EBD1
:108AC000860001F0D6FE1E2EF7D10137E7E71F48DA
:108AD000214601F0C5FE1E48214601F0C1FEEB7B98
:108AE000022BE4D11B48214601F0BAFEDFE717480C
:108AF00021460CB0BDE8F04701F0BBBE057A164830
:108B0000C5F30315032D94BF002201222146FFF770
:108B100087FF022D94BF0022012210482146FFF753
:108B20007FFF012D0E4894BF0022012221460CB088
:108B3000BDE8F047FFF774BF037A002BB7D1427A44
:108B40000548C2F3C0022146F1E700BF003E002005
:108B5000FC3D0020043E0020103E00200C3E002082
:108B6000083E0020F83D0020AADF704700230138AE
:108B70000B70042806D8DFE800F00306080A0C0092
:108B800011230B7070472123FBE73123F9E71223F0
:108B9000F7E72223F5E7008800F0010070472DE990
:108BA000F0418B7890B00C46012B38BF01238DF833
:108BB0000E304FF000080B88ADF80C3069460546C2
:108BC000607C8DF80280FFF7D1FFA07C0DF10101E0
:108BD000FFF7CCFF1646227D237B013202F0030211
:108BE00043EA4203E27B43EAC203227C43EA0213E4
:108BF0009DF8022063F304028DF8022041461C22F6
:108C000009A803F047FD637B03F030036F46A3B16F
:108C10000DF10901E07CADF808808DF80A80FFF7BE
:108C2000A5FF11238DF808309DF80A30012102AA12
:108C300061F342038DF80A300E92637B8DF8243085
:108C4000A37B8DF825300023CDE90633089303ABD1
:108C5000CDE90437A388ADF81C30A3681BB1E288C6
:108C6000ADF818200893A26942B301A90023ADF81A
:108C700004308B701388ADF82C305388ADF82E304B
:108C800053680D91107B0A93FFF770FF507B0DF135
:108C90000501FFF76BFF917B137A013101F00301AE
:108CA00043EA4103917AD27A43EAC10343EA0213C9
:108CB0009DF8062063F304028DF80620E36903B1F2
:108CC0000C93334604AA09A92846FFF74DFF10B0BC
:108CD000BDE8F08190DF7047A5DF7047B5DF7047D2
:108CE0007FB50023ADF80810ADF80A106A4602A956
:108CF000064603930093ADF80430FFF7EBFF0546FB
:108D000000B3124B124CE41AE40802F08FF9240469
:108D100044F0010403460F493246204602F080FC2D
:108D2000BDF80020BDF8023052EA030103D00A4921
:108D3000204602F075FCBDF804201AB10749204610
:108D400002F066FC284604B070BD00BF40C80200B7
:108D500098C80200DDD0020027D1020066D10200CF
:108D600080B14FF0F71303601B230371F723C38017
:108D70001723038141F61B32002301614381828165
:108D8000184670470E20704730B1A1F11703E02B51
:108D900004D80180002070470E20704707207047DC
:108DA00013B5034680880C46B8B91A88242A00F007
:108DB000968014D8112A71D0232A00F09C80102AA2
:108DC0003BD0A37A4BB1E1880020FFF785FF002854
:108DD00040F097804FF48073638102B010BD3A2A4F
:108DE00065D0552AEDD1DB88C988A072172B38BF12
:108DF00017238B4228BF0B462381FFF76FFF60B11B
:108E000002F014F94849494B5B1ADB081B0402467F
:108E1000474943F0010002F0FBFBE37A002BD0D17D
:108E20002369002BCDD040F6772200922289ADF83D
:108E30000420694620469847C3E7DB7B0A790A731A
:108E4000012B13D0022B14D0E18823898B4205D249
:108E50000020FFF741FF70B90123E372217B637BA0
:108E60008B42AED20020FFF73BFFAAE70B88E380DE
:108E7000EAE74B88FBE7112802D10123A372EDE753
:108E800002F0D4F82849294B5B1ADB081B04024680
:108E9000284943F0010002F0BBFBDFE7F723CB805A
:108EA00017230B8141F61B3348818B8189E75B894E
:108EB000CA88934228BF1346172B0A6938BF172365
:108EC0000B814AB1C97A39B140F677210091ADF8EA
:108ED00004306946204690470023638171E71A7A7F
:108EE0000B694A73002B3FF46CAF4DF67A21009169
:108EF0008DF804209DE7197A237B994228BF1946F3
:108F0000B1E711283FF469AF02F090F80649074B2A
:108F10005B1ADB081B040749024643F0010002B05C
:108F2000BDE8104002F074BB40C8020098C80200BF
:108F3000EDD10200BCD10200B0DF704766DF7047A0
:108F400010B5002104464088FFF7F8FF08B92072E9
:108F500010BD112802D101232372F9E76368BDE82F
:108F60001040184760B159B10378DE2B0AD00B6866
:108F70004360DE2303704FF6FF7343800020704789
:108F80000E2070470820704728B10378DE2B04D1EB
:108F90004180002070470E20704708207047F0B5D0
:108FA000054685B00C46002942D0002840D00B78F9
:108FB000DE2B3DD182884B889A4204D10B7A13B1C3
:108FC0000846FFF7BDFF2B88112B33D0512B0FD054
:108FD000012B2DD12B7A012B2AD1A98862889142AD
:108FE00026D12046237205B0BDE8F040FFF7A8BFA8
:108FF000AB8866889E421BD1AF79022F18D1AD7B1A
:109000002B1F022B14D800211022684603F042FBCC
:10901000052D14BF4FF4C0730023694630468DF808
:109020000070ADF80430FFF787FF08B16368984718
:1090300005B0F0BD6388AA889A4204BF4FF6FF735B
:109040006380F5E71FB5890041F0400100238DF8EA
:109050000C108DF80D20009303AA0223402100F08C
:109060008BFDB0FA80F0400905B000BD1FB50023AC
:109070008DF80F1000930DF10F020123402100F035
:109080007BFDB0FA80F0400905B000BD0621FFF776
:10909000EDBF000070B5FFF7F9FF064640B1054D82
:1090A0000A2445F001054FF47A40A847013CFAD163
:1090B000304670BD10DA02000821FFF7D7BF38B57F
:1090C000802200210446FFF7BDFFDC220546012176
:1090D0002046FFF7B7FF0022054002212046FFF798
:1090E000B1FF0022054003212046FFF7ABFF2840D7
:1090F00010F0FF0004D02046BDE83840FFF7DCBF89
:1091000038BD30B585B0002310220C46ADF80C30C8
:109110008DF80B2000930DF10B0201234021054631
:1091200000F02AFD10B1002005B030BD022303AAD3
:109130004021284600F033FD0028F4D1BDF80C3062
:109140005BBA23800120EFE738B5084B051EA3F179
:10915000080214BF1C46144623682BB11A6822600B
:109160005B6828469847F7E738BD00BF843E00207B
:1091700020B9054B01225A70FFF7E6BF012802D142
:10918000014A9070F8E77047743E002020B9034B05
:1091900001225A70FFF7D8BF704700BF743E00200D
:1091A00038B50E4C2378B3B90D486360A3602361D2
:1091B000E36000F075F8054602F0BAFC08B900F06B
:1091C0007BF801232370074BD3F800340BB1012344
:1091D000A370284638BD8525F5E700BF743E002002
:1091E000719102000000014037B50D4C00230DF1D4
:1091F00007008DF8073001F037F9E368013BE360C1
:10920000E36833B9074BD3F8005415B900F066F89A
:10921000A5709DF8070001F04BF903B030BD00BF09
:10922000743E002000000140012813B50CD0032833
:1092300020D038B9134B0122C3F88020BFF34F8FE1
:10924000BFF36F8F02B010BD0F4C00230DF107006C
:109250008DF8073001F008F923780BB9FFF7A0FF6C
:10926000E3689DF807000133E3600123A37001F078
:109270001FF9E7E700F020F802B0BDE81040FFF763
:10928000B3BF00BF00E100E0743E002000F1804069
:10929000002382B0036003680193019B02B0704712
:1092A000044A137923B90121106091801846704750
:1092B00085207047883E0020074B1A68D20704D4E7
:1092C000C02283F8002301221A604FF0804301225C
:1092D000C3F81825704700BF00E100E04FF080425E
:1092E00008B50223C2F808334FF48270FFF7CEFFAF
:1092F0000123D360D2F81834DB03FBD408BD00008F
:109300004FF0804110B5D1F8003163B14FF4807057
:10931000FFF7BCFF0D4B58790122C1F8082310B9A3
:109320005A711B6898474FF08042D2F8043163B1FC
:109330004FF48270FFF7AAFF0223C2F80833034BF1
:10934000BDE810401B680120184710BD883E002072
:1093500000F1804000F5C040002382B00360036844
:109360000193019B02B070471F288ABF094B4FF041
:10937000A04300F01F0003EB8000D0F8003723F477
:109380004033C0F80037D0F8003743EA0143C0F853
:1093900000377047000300502DE9F04F002485B0DE
:1093A000CDE90244584D4FF48072012102F180430F
:1093B00003F5C0431B68012B07D1D5F804330B42DA
:1093C00003D090B2FFF7C4FF0C430432B2F5907F94
:1093D0004FEA4101EAD14C4BD3F87C31012B11D13A
:1093E0004FF4BE70FFF7B4FF4FF0A04344F00044C9
:1093F000D3F820250292C3F82025D3F82028039221
:10940000C3F82028E3B2D3B1404F002501263442EF
:1094100010D0AB0003F1804303F5C043D3F810052F
:10942000D3F8101557F8253023B1C1F30141C0F32B
:10943000052098470135082D4FEA4606E7D1002C54
:1094400059DA324EDFF8CC90314F4FF0000A4FF02E
:10945000010817F9013F5A1C3AD0C3F3C202103277
:109460006A44DCB212F8081C03F0070208FA02F2A0
:10947000114203F03F052BD01F2D8BBF03F01F02BD
:109480002A464B464FF0A04302F5E071284653F8B8
:1094900021100193C1F3014BBBF1020F14BF022154
:1094A0000321FFF761FF019B08FA02F2C3F82025B0
:1094B000731993F9303056F823304BB1A1090329C1
:1094C00004D0BBF1020F19D1012901D128469847D8
:1094D0000AF1010ABAF1040FBBD14FF0A042D2F851
:1094E00020350293C2F82035D9F820250392134382
:1094F000C9F82025A8D105B0BDE8F08FBBF1030F56
:10950000E6D10229E1E700BF00600040903E002064
:10951000EF3E002000030050014B1B68184700BFBE
:10952000FC3E00200D4B984237B50D4611D100236B
:109530000DF107008DF8073000F096FF084B1C79FD
:1095400014B901221D601A719DF8070000F0B0FFE8
:1095500014B9002003B030BD1120FBE7002000400B
:10956000FC3E00202DE9F341104C114F114E002517
:109570004FF48038236883B1D7F8043308FA05F232
:109580001A420AD0002323602368019304F5C040E7
:10959000019B80B2D6E9003198470135042D04F1D2
:1095A0000404E7D102B0BDE8F08100BF40A1004053
:1095B00000A00040043F0020002382B043504358E5
:1095C0000193019B02B0704738B5D0F804510446AE
:1095D0000A4625B14FF48271FFF7EEFF012592F89C
:1095E0002F302BB34FF492712046FFF7E5FF4FF475
:1095F0008E71FFF7E1FF4FF48471FFF7DDFF002D5F
:109600007BD0002382F82D3092F82F30002B3AD1F6
:10961000916A506B88421CBF1D46052185F00105EB
:109620001CBFC4F80035C4F8001582F82F502AE09A
:10963000D4F824314BB14FF492712046FFF7BCFFB0
:109640000123636182F82F30D9E7D4F81C3143B38A
:109650004FF48E712046FFF7AFFF536BD4F82411FF
:109660000133536311B14FF49271E7E7916A8B4272
:1096700004D2516ACB5CC4F81C35C0E792F82C3098
:109680001BB10123E361002038BD136A13F0400FC2
:109690004FF0010303D0E36182F82D30F3E76361FB
:1096A000ADE7D4F80831002BA9D04FF484712046DF
:1096B000FFF782FFD4F82431002BD4D1536B916A89
:1096C0008B429CD2516AD4F81805C854536B916AE6
:1096D0000133481E8342536308D1136A590602D4EA
:1096E0000223C4F800320123236288E78B42FAD1B7
:1096F000136A5B0683D50223CEE70120C4E700008E
:1097000037B53B4B01930D464FF48271FFF754FF81
:109710004FF49271FFF750FF4FF48E71FFF74CFF3B
:109720004FF48471FFF748FF0023C0F800326B63E9
:1097300085F82F300123036295F82D209A4218BF37
:109740008360AB6A044673B16B6A1B78C0F81C3542
:109750002B680BB340F28623AB60AB68C4F80433CC
:10976000002003B030BD95F82C3013B10123C36144
:10977000EEE72B6A13F0400F4FF0010316BFC361F1
:10978000436185F82D30E3E729462046FFF71CFFAB
:1097900028B1019B013B0193019B002BF4DC95F860
:1097A0002F0050B9019B002BDBDC0023C4F80035EF
:1097B0000523C4F800350320D3E7D4F8C434C4F833
:1097C000C43493B113F0010F14BF4FF402400320CF
:1097D00048F2012213F0020F18BF104613F0040FD5
:1097E00048F2022318BF1846DCE70320DAE700BF7F
:1097F000A086010037B5344B01930D464FF48271BA
:10980000FFF7DAFE4FF49271FFF7D6FE4FF48E7138
:10981000FFF7D2FE4FF48471FFF7CEFE00236B6397
:1098200085F82F30AB6A012B044617D12B6A5B06F3
:1098300014D40223C4F800320123236295F82D20AA
:10984000022A18BF23602B6893B140F28623AB60D5
:10985000AB68C4F80433002003B030BD0123E9E74E
:1098600029462046FFF7B0FE28B1019B013B01933A
:10987000019B002BF4DC95F82F0050B9019B002BC5
:10988000EADC0023C4F800350523C4F800350320C2
:10989000E2E7D4F8C434C4F8C43493B113F0010F30
:1098A00014BF4FF40240032048F2012213F0020FCC
:1098B00018BF104613F0040F48F2022318BF1846D1
:1098C000DCE70320DAE700BFA0860100F0B52B4CEF
:1098D0002B4887B02146FFF777FE002846D194F841
:1098E0002F70D4F820C0FFB9237B9A1E012A1BD801
:1098F000616AA269914217D1E2696262CCF3401CAD
:1099000062691F48A262032B84F82CC084F82D7072
:10991000214604D107B0BDE8F040FFF7F1BE07B023
:10992000BDE8F040FFF766BF164E0FCE01AD0FC584
:1099300033682B60E7B1124AD2F8C434C2F8C43499
:10994000990717D45A0717D403F00103C3F104038E
:109950008DF800301CF0040F4FF0000384F8303015
:1099600000D01FB1D4E900316846984707B0F0BD78
:109970003B46EDE70123EBE70223E9E7103F002038
:10998000003000401C3F00202DE9F84F0779394D89
:109990004FF03C0A0AFB07FA05EB0A049B4694F8D1
:1099A0002E3080460E469146002B5FD1324900682A
:1099B000FFF7B8FD00285BD184F82D003268737B77
:1099C00084F838301F2A8CBF02F01F03134603F5BA
:1099D000E07388BF2949A06098BF4FF0A04140F2D2
:1099E0000C6C84F8300041F823C07168C4F804B0EE
:1099F0001F298CBF01F01F030B4684F8310003F5CB
:109A0000E07388BF1D4C45F80A9098BF4FF0A04402
:109A100044F823C0D8F80030C3F80825B268C3F86A
:109A20000C15C3F82425B9F1000F12D0327B43F393
:109A30000733002B4FEA421213DB1149CC1884F88C
:109A4000002301225C0903F01F0302FA03F341F82B
:109A500024303C2303FB0755012385F82E30BDE855
:109A6000F88F084903F00F03CA54F2E70820F6E71D
:109A70001120F4E7103F0020CD98020000030050B1
:109A800000E100E014ED00E0036802790521C3F86D
:109A90000015044B3C2101FB0233022283F82E20E7
:109AA000704700BF103F00202DE9F843304F067982
:109AB0003C2303FB06738C4693F82D30012B15468F
:109AC00004D10B78012B06D1082013E0022B02D120
:109AD0000B78012BF8D1D0F80090264BC9F8083349
:109AE0003C2404FB067494F830302BB1A368C9F809
:109AF00004331120BDE8F883C5F3800383F001032C
:109B0000E04684F83030B8E80F0004F10C0EAEE8FF
:109B10000F00D8F80030CEF80030DCF80430A36233
:109B2000DCF80C30256263629CF80130C9F8883596
:109B30009CF80030012B16D09BB9C5F340153C238F
:109B400003FB06732146484683F82C50FFF7D8FDE7
:109B50003C235E43BA19BB59002BCBD182F830307D
:109B6000C8E70125EBE721464846FFF743FEEFE74C
:109B7000103F00208642040010B586B00024CDE9D5
:109B800004249DF820208DF80510520101A9CDE98B
:109B900002348DF80440FFF787FF06B010BD10B502
:109BA00086B0012402930023CDE903328DF805101D
:109BB0001A4601A98DF804400593FFF775FF06B01A
:109BC00010BD002382B0435043580193019B02B063
:109BD00070470A4610B54FF48E71FFF7F2FF136A13
:109BE0009168C95C136A01331362C0F81C1510BD7B
:109BF0008B690A4610B54FF4847123B9FFF7E1FF72
:109C0000D0F8183510BDFFF7DCFF536AD168D0F8E3
:109C10001805C854536A01335362F3E71FB5012393
:109C20008DF80030044BCDE90110D3E900126846ED
:109C3000904705B000BD00BF4C3F002030B54D4DF2
:109C4000D5F804339A0585B051D5D5F82431002BC9
:109C50004DD04FF492712846FFF7B3FF4FF40173D4
:109C6000C5F80833444B93F829200AB901226A60E9
:109C7000404902228DF80020D1F88024C1F88024C8
:109C800003929A690292DA6801920022C3E90622DD
:109C90006846D3E9001290473648D0F81C315BB1D2
:109CA000354A5169136A99424DD992F82830002BF0
:109CB00049D11146FFF78DFF2E48D0F84431002BD3
:109CC00056D04FF4A271FFF77CFF2B4B93F829205D
:109CD0000AB1012202609A69002A49D0586AD968FB
:109CE00000229A6105B0BDE83040FFF797BFD5F874
:109CF00004335B07D0D5D5F80831002BCCD01E4CEF
:109D00001C482146FFF774FF636AA2699A42C3D1D7
:109D1000E369E1684BB1A3612369E3600023606AF2
:109D2000E3616362FFF77AFFB6E794F829300BB975
:109D300001236B600F4B4FF40172C3F8082300231B
:109D4000606AA361EEE70B484FF48E71FFF739FFAD
:109D50005369002BB0D051690291002391688DF8AE
:109D60000030019153616846D2E900139847A3E798
:109D700005B030BD002000404C3F00202DE9F843E5
:109D80005F4C90F804802C2303FB0843074693F8AC
:109D90002A300D469146002B40F0AD8059490068AD
:109DA000FFF7C0FB0646002840F0A78029684A1C40
:109DB00010D01F2987BF544A01F01F030B464FF0F4
:109DC000A0420120984003F5E073C2F80805032083
:109DD00042F823006868431C0DD01F288BBF00F099
:109DE0001F030346484A4FF0A04203F5E0734FF0CB
:109DF000000C42F823C03B68AA69C3F8242595F8F3
:109E000014C06A7DBCF1010F4CEA0202C3F86C2554
:109E1000C3F81405C3F80C152BD1A968481C0DD044
:109E20001F298BBF01F01F020A4637484FF0A040A0
:109E300002F5E0724FF0000C40F822C0E868421CC6
:109E400013D01F2887BF304A00F01F0C84464FF004
:109E5000A0424FF0010E0EFA0CFE0CF5E07CC2F8A9
:109E600008E54FF0030E42F82CE0C3F80805C3F8EC
:109E700010152C2303FB08F3E218C2F804902A699A
:109E8000E250B9F1000F1ED038682A7F4FF48E716E
:109E9000FFF797FE4FF4A271FFF793FE1B4BC0F83C
:109EA000043340F30733002B4FEA42121EDB1849FC
:109EB000C81880F800230122580903F01F0302FA92
:109EC00003F341F820303B680422C3F800252C231B
:109ED00003FB08430022C3E9062283F829205A61C4
:109EE000012283F82A203046BDE8F883094903F0AF
:109EF0000F03CA54E7E70826F5E71126F3E700BF8A
:109F00004C3F00203D9C02000003005080000200F6
:109F100000E100E014ED00E00279044B2C2101FB8C
:109F200002335869003818BF012070474C3F0020A9
:109F30002DE9F047814690F804808A461746FFF7DE
:109F4000EBFF0546002835D11C4E2C2404FB086489
:109F50004FF48E716761206284F82800D9F8000000
:109F6000C4F808A0FFF72DFE012383602146FFF708
:109F700030FE636803BB6569236A9D4210D8D0F840
:109F80001C31002BFBD00123C36000202C2303FBDA
:109F9000086600237361BDE8F08794F828303BB968
:109FA000D0F81C31002BF8D02146FFF712FEE3E772
:109FB0000F20EBE71120EEE72846ECE74C3F0020AE
:109FC0001FB50021039001AA44F20100CDE901115F
:109FD00000F002F805B000BD38B572B601F04CFBD8
:109FE00001F0D0F90028FBD1104B114C114D124952
:109FF000E41AE408240444F0010001F005FBD5F85C
:10A00000F030DB0700D500BE0C4944F0020001F03F
:10A01000FBFABFF34F8FEA68094B02F4E062134387
:10A02000EB60BFF34F8F00BFFDE700BF40C80200E9
:10A0300078C8020000ED00E060D202006CD202009D
:10A040000400FA0510B5D0E90242D1E90203A042AA
:10A0500093412CBF0120002010BD000008B50A4824
:10A0600000F04FFB094AD2E90031C018084BD3E990
:10A07000002341F10001904271EB030303D210F180
:10A08000807041F1000108BDC42B0020F03F00208A
:10A09000E83F0020294B73B51E7804461EB9002600
:10A0A000304602B070BD0028F9D0FFF7D7FFD4E9E1
:10A0B00002239042994139D300230DF107008DF816
:10A0C000073000F0D1F923692BB94FF0FF324FF080
:10A0D000FF33C4E902239DF8070000F0E9F9D4E951
:10A0E0000530984700250DF107008DF8075000F066
:10A0F000BBF92369C3B1D4E90212B2F1FF3F08BF33
:10A10000B1F1FF3F05D05B1842F10002C4E9023211
:10A1100035469DF8070000F0CBF9002DBFD0084868
:10A12000214600F042FFBBE71D46F2E7B3F1FF3FD7
:10A1300008BFB2F1FF3FB2D0F1E700BFF83F002007
:10A1400018DA020037B505460C460A4801A900F0A6
:10A150001EFB68B10570446001A9064800F040FB91
:10A1600010B9002003B030BD034800F0CFFAF8E783
:10A170000420F7E77C3F0020C42B002013B5104BD0
:10A180000193104910480823582200F0EDFA0446C4
:10A1900098B90E4A0E4801A900F0ACF9044660B91E
:10A1A0000B48012100F090FA01230A4A0848194699
:10A1B00000F0F8F9084B01221A70204602B010BDD9
:10A1C000010006008C3F00207C3F0020B9A2020065
:10A1D000C42B0020FFFF7F00F83F002030B56AB19C
:10A1E00003684FF0FF344FF0FF355A614A1E514269
:10A1F000C3E9024551411961002030BD0720FCE749
:10A20000F7B5044600250DF1070017460E468DF8F8
:10A21000075000F029F9D4E90223B3F1FF3F08BF4A
:10A22000B2F1FF3F07D1FFF719FF301841F10001EC
:10A23000C4E9020101259DF8070000F039F955B184
:10A240002369A76103B126612146002003B0BDE860
:10A25000F040FFF777BF284603B0F0BD37B505469D
:10A2600000240DF107008DF8074000F0FDF8D5E956
:10A270000223B3F1FF3F08BFB2F1FF3F1FBF4FF012
:10A28000FF324FF0FF33C5E9022301249DF8070098
:10A2900000F00EF934B12946012003B0BDE830408A
:10A2A000FFF750BF204603B030BD0000014800F06A
:10A2B00028BA00BFC42B00202DE9F743074600F061
:10A2C0000BFA40B1604AD2E9003113F1807341F1D9
:10A2D0000001C2E900310021384600F00CFA38B123
:10A2E0005A4C236823B12068FFF7D4FE0023236073
:10A2F0000121384600F0FFF920B1FFF7AFFE544BC3
:10A30000C3E900015348514C01A900F074FA4FF021
:10A31000FF384FF0FF3990B94C4D4F4800F05BFECD
:10A32000002800F08780D0E90223B3F1FF3F08BF87
:10A33000B2F1FF3F34D1484800F047FEEDE7037823
:10A34000012B17D0022B22D05BB94168D1E902233F
:10A35000B3F1FF3F08BFB2F1FF3F02D03E4800F02B
:10A3600024FE01A93B4800F070FA01A9394800F029
:10A3700042FAD0E741682368994202D10023236062
:10A38000EFE7354800F02AFEEBE7C0E902893248E2
:10A3900000F01BFE0028F8D1304B01221A70E0E7D4
:10A3A000296891B12968D1E9020182428B412FD2FB
:10A3B0002B68D3E90223B3F1FF3F08BFB2F1FF3F9F
:10A3C00003D02968244800F0F0FD234800F0FDFD8B
:10A3D000D0E902480646FFF741FE201A68EB010863
:10A3E000012878F1000818DBB0F5350F13D3FFF71B
:10A3F0005DFF1B4A82181B484FF49603002100F0B2
:10A40000F1F890B92B6813B9384600F0C3F82E6004
:10A4100003B0BDE8F0832246EDE71248002100F0CA
:10A4200060F93046FFF736FE01E00D28F9D0002331
:10A430002B6072E7054B1B68002BE9D1384603B04F
:10A44000BDE8F04300F0AAB8F03F0020FC3F002038
:10A45000E83F00207C3F002018DA0200F83F00208F
:10A46000FFFFB400C42B002070B5EFF3108672B666
:10A470000C4A9468012384B993600B4B0B4DD3F8BD
:10A48000801029401160C3F88050D3F884105160C7
:10A490004FF0FF32C3F884202346037006B962B63A
:10A4A00070BD00BF0040002000E100E0FC06FFBDE1
:10A4B000084B9A6810B55AB150B9EFF3108172B6D3
:10A4C000054A1C6814605C685460986001B962B603
:10A4D00010BD00BF0040002000E100E003464058EE
:10A4E00082B028B100225A505B580193019B012091
:10A4F00002B0704770B51F4C437944F823201E4CBE
:10A500001E4A121B1E4C04EBC303D2081B79120413
:10A5100033B142F002001B4901F076F8082070BD0B
:10A5200003680D88C3F8085590F904308978002B2A
:10A530004FEA411119DB144DEE1886F80013012182
:10A540005E0903F01F0301FA03F345F8263043794F
:10A5500004EBC301012544F833000D7142F0030000
:10A560000A4901F051F80020D9E7094D03F00F0323
:10A57000E954ECE71440002040C8020088C80200FB
:10A580000C40002083D2020000E100E0A5D20200CE
:10A5900014ED00E0036801221A607047036801228D
:10A5A0005A60704773B501F15005AD000068ADB257
:10A5B0004FF480348C400026C0F80843C0F848436C
:10A5C000465101F5A8714559019522F07F42019D40
:10A5D00040F82120C0F844430BB1C0F8044302B056
:10A5E00070BD00002DE9F3470D46814600684FF429
:10A5F000803705F150068F40B60000EB8101C0F8AE
:10A600004873B6B2C0F80873984622F07F444FF002
:10A61000000AD0F80425D1F84035C1F8402540F8AB
:10A6200006A09B1A8159009123F07F43012B0099CA
:10A630000CD1244B4FF4806043F001039847D9F8C4
:10A64000000040F806A083590193019BD0F80465EF
:10A65000C0F84473A31B23F07F43012B14D1194B83
:10A6600005F5A875013440F8254043F001034FF487
:10A6700080609847D9F80000D0F804359E421BD07E
:10A680000D2002B0BDE8F08700EB8505621EC5F81D
:10A690004045D0F80435C8F1FF18D21A22F07F42A5
:10A6A00008F57F489045EBD332B90134C5F84045F1
:10A6B000D0F804259342E2E7C0F84473C0F804736D
:10A6C0000020DEE730DA020003680222C3F84423E8
:10A6D00009B1C3F80423704700684FF48271FFF793
:10A6E000FDBE4FF4803303FA01F10368C3F8481349
:10A6F000C3F80813704750318900006889B2FFF72A
:10A70000EDBE0368D3F804057047000090F90430EB
:10A71000002B09DB5A09012103F01F03994002F1C4
:10A720004003024A42F82310704700BF00E100E0F6
:10A73000024B034A1B681068184700BF14400020F2
:10A740000C40002050E8012FC2EA024240E80123F9
:10A75000002BF7D1704750E8022FC2EA224240E8AE
:10A760000223002BF7D1704710B561B1B2FBF3F4AF
:10A7700003FB1424A4B244B9C0E9001484608281AC
:10A78000C381204610BD0E20FCE70920FAE737B54B
:10A7900050E8013F9DB2C48925448489A54228BF61
:10A7A0002D1B0489A54202BFBFF32F8F002207E0B3
:10A7B000C5EA030540E80154002CE9D14FF001023D
:10A7C0008DF803200193019A9DF803300A6023B1AC
:10A7D000006810FA82F003B030BD03F0FF00FAE722
:10A7E00008B50A884B889A4203D1FFF7ABFF0120D6
:10A7F00008BD0020FCE737B550E8023F1FFAA3F57B
:10A80000C488A54202BFBFF32F8F00220DE0C48988
:10A8100025448489A54228BF2D1BC3EA054540E88D
:10A820000254002CE8D14FF001028DF8032001936F
:10A83000019A9DF803300A6023B1006800EB1240D2
:10A8400003B030BD03F0FF00FAE708B50A884B8873
:10A850009A4203D1FFF77FFF012008BD0020FCE7EB
:10A8600001F01F024B090121914000EB830000F031
:10A870001EB801F01F0301229A404B0900EB830030
:10A88000D14300F02CB84B0901F01F0150F8230010
:10A89000C84000F00100704710B5034653E8000FB0
:10A8A0000A4643E8002494F0000FF7D110BD10B51C
:10A8B000034653E8002F42EA010043E8000494F005
:10A8C000000FF6D110BD10B5034653E8000F00EAA3
:10A8D000010243E8002494F0000FF6D110BD10B53A
:10A8E000034653E8002F02EA010043E8000494F015
:10A8F000000FF6D110BD10B5034653E8002F02EB50
:10A90000010043E8000494F0000FF6D110BD10B52B
:10A91000034653E8002FA2EB010043E8000494F043
:10A92000000FF6D110BD0121FFF7C1BF0021FFF7D5
:10A93000CABF10B588B1D0E9012301689B1ADBB208
:10A940000A60026813B91371184610BD1168013B03
:10A95000DBB24C1C14600B70F3E70E20F5E737B543
:10A96000054600240DF107008DF80740FFF77CFD38
:10A970002A68696813688B420ED9591E116013F852
:10A98000013C288AEC6800FB0344AB685B1A117930
:10A99000DBB2994238BF13719DF80700FFF788FDBD
:10A9A000204603B030BD37B5054600230DF1070042
:10A9B0000C468DF80730FFF757FD2A681368591CBD
:10A9C0001160EA68A41A2A8AB4FBF2F41C709DF89C
:10A9D0000700FFF76DFD03B030BD826810B5044677
:10A9E0002AB143690168006998470023A36010BD3C
:10A9F0000EB403B5039921B104AB01AA019300F091
:10AA000077F802B05DF804EB03B070470A2938B557
:10AA100004460D4602D10D21FFF7F8FFA368226816
:10AA2000591CA160D554D4E901329A4204D320467E
:10AA3000BDE83840FFF7D1BF38BD00002DE9F84F21
:10AA40009846DDE90A43164682460F460A464FF00D
:10AA50000109B2420FD2C14538BFC14613F0010B04
:10AA600001D16CB900240125B8F1010F1CD908F1FE
:10AA7000FF387543F8E709F10109B2FBF6F2E8E7A0
:10AA80009B070ED5B8F1000F0CBF30252025A1453E
:10AA9000E9D2013C29465046FFF7B8FF002CF6D119
:10AAA000E0E72025F3E77543B7FBF5F39E42FAD9BB
:10AAB000DFF83880B7FBF5F3504618F8031005FBB4
:10AAC0001377FFF7A3FFB542B5FBF6F5F2D2BBF162
:10AAD000000F00D034B9BDE8F88F20215046013C6A
:10AAE000FFF794FF4C45F8D8F5E700BF36DA0200CF
:10AAF0002DE9F74F064690460F46002900F04A819F
:10AB0000397849B9337B002B00F04481304603B0DB
:10AB1000BDE8F04FFFF761BF252907F1010740F0BD
:10AB2000BF80002539782D293A4607F1010721D049
:10AB3000302922D02B2923D02A293B4623D1D8F8EB
:10AB400000301A1D1C68C8F800203A4611782E29DA
:10AB500028D1501C4FF0000A0A270178A1F1300CCF
:10AB6000BCF1090F02461FD807FB0A110130A1F101
:10AB7000300AF2E745F00105D4E745F00205D1E7D8
:10AB800045F00405CEE7002413F8011CA1F13000C4
:10AB90000928DBD80A2202FB0411A1F130041A466D
:10ABA0000133F1E74FF0000A013201F0FB006828A1
:10ABB000174602D112F8011BF7E7782909D86F2947
:10ABC0000BD8632966D021D8252969D0582900F0EF
:10ABD0008B803B78002B93D194E770390829F8D803
:10ABE00001A252F821F000BF6BAD0200D3AB02000E
:10ABF000D3AB0200FDAC0200D3AB0200D3AC020029
:10AC0000D3AB0200D3AB0200E9AC0200642901D04F
:10AC10006929DED1D8F80020D2F80090111D89EA08
:10AC2000E972C8F80010A2EBE9724FF0010B0A219B
:10AC3000092A39DCD34538BFD3462CB1B9F1000F0E
:10AC400001DB6A0700D5013CAB0702D5BAF1000F62
:10AC500004D0E80702D40CB1A3452AD3B9F1000F00
:10AC60002DDAC9F100092D213046FFF7CFFE05F09E
:10AC70000302022A05D1BAF1000F02D10CB1A3459B
:10AC800021D3CDE9004553460A2249463046FFF715
:10AC9000D5FE9EE7D8F800301A1D1978C8F80020B4
:10ACA0003046FFF7B3FE94E70BF1010BB2FBF1F274
:10ACB000BEE720213046013CFFF7A8FECBE769073D
:10ACC000D5D52B21D0E730213046013CFFF79EFE41
:10ACD000D4E7D8F800100A1DC8F80020CDE90045D7
:10ACE00053460A220968D1E7D8F800100A1DC8F8AF
:10ACF00000205346CDE900451022F3E7D8F8003094
:10AD00001A1DC8F8002015F00105D3F8009024D1D1
:10AD1000B9F1000F03D0484601F036FC0546AC42BD
:10AD20001DD809F1FF3919F8011F00293FF451AF6F
:10AD30003046FFF76BFEF6E730460135FFF766FE5B
:10AD400019F805100029F7D1A542BFF442AF202120
:10AD50003046013CFFF75AFEF6E70025F0E72021D8
:10AD60003046013CFFF752FED9E7D8F800301A1DF3
:10AD7000C8F80020302130461C68FFF747FE7821D4
:10AD80003046FFF743FE00220823CDE9003221467A
:10AD900010227BE703B0BDE8F08F00BF2DE9F0473C
:10ADA000B0F806904479D2F800A09DF8207009FB15
:10ADB00004F4043C06460AEB0300A042884688BF20
:10ADC000A4EB030A191DC2F800A0B1FBF9F509FBB9
:10ADD00015114DB9A9EB0104544528BF5446BAF1E9
:10ADE000000F04D1BDE8F0873668013DF1E704317A
:10ADF000701822467FB1014608EB0500AAEB040A51
:10AE000001F016FCD145254436684C464FF0000150
:10AE100028BF5446E3E708EB0501EFE7FFF789BDDC
:10AE2000F8B546790146721E0546002393422D6807
:10AE300003D30024A64202D8F8BD0133F6E70F6819
:10AE40002846FFF7B0FD01343946F3E72DE9F0411C
:10AE5000068A07460D46FFF782FD0446F8B1331F08
:10AE600003354FF480721D44B5FBF3F5EDB28280DB
:10AE7000C380013D076080460026AE4210D23846AE
:10AE8000FFF76DFD40B16379013363710136C8F896
:10AE9000000007608046F0E72046FFF7C1FF00246E
:10AEA0002046BDE8F08101210430FFF724BD10B534
:10AEB000012104460430FFF72AFDC0B220B9204624
:10AEC000BDE81040FFF7ACBF10BD1FB503920022D4
:10AED000009203AAFFF762FF05B000BD1FB5039201
:10AEE0000122009203AAFFF759FF05B000BD41DF20
:10AEF00070470000064B10B500241C70054B1C6009
:10AF0000BFF35F8F0449054800F03BF8204610BDB1
:10AF1000204000202440002048DA02001840002091
:10AF200007B500230DF107008DF80730FFF79CFAF5
:10AF3000F1EE103A23F09F03E1EE103ABFF35F8F7A
:10AF40000A4B4022C3F884219DF80700FFF7B0FAAE
:10AF500000F0EEFD20B103B05DF804EBFFF7C7BFD2
:10AF600020BF40BF20BF03B000BD00BF00E100E034
:10AF7000836800225A60C3E904229A60DA601A608A
:10AF80007047D1E90032934208BF0023016043605B
:10AF90007047436843B10268916852680B4493421A
:10AFA000436004BF00234360704770B544680646A1
:10AFB0000D46206818B1B3682946984718B9236828
:10AFC0002B60256070BD2468F3E74368186808B1FA
:10AFD00002681A60704743681868704743681868C9
:10AFE00000B970471A688A4203D10A681A600120C2
:10AFF00070471346F3E7000010B50B4AA2F59473AF
:10B000009A4201D800200CE0D11A091103EBC104C7
:10B0100053F83110814205D802D204F10803EFE75A
:10B02000606810BD2246EBE77CDB020008B5FFF745
:10B03000E3FF024B002808BF184608BD7CDB020076
:10B040007047000007B5044B0093044A402300F00A
:10B0500032F803B000BD00BF61B0020028400020FC
:10B060002DE9F0478A461446B2B10F4B0F4F032625
:10B070004FF0000843F0010922460AEB08010020C6
:10B0800000F0A0FC054648B93B782BB14FF47A405C
:10B09000C847013E02D13E70BDE8F0870123641B22
:10B0A000A8443B70E8D1F7E790DB0200684000203D
:10B0B000704700F0B3BCF0B595B01C461646084684
:10B0C0000D46FFF7F0FE1A9B0D93CDE908640024AE
:10B0D0002346082205A928460A948DF82C400C9492
:10B0E000FFF7FCFE079B0293069B03939DF8143029
:10B0F0008DF8114003F00302012A1CD1BDF8144061
:10B10000059EC3F3C203C4F383148DF81030A2006C
:10B1100008230EA92846FFF7E1FE08AB009322465C
:10B1200002AB0EA9C6F3952000F014FB2846FFF7EA
:10B13000BEFE15B0F0BD022AF8D1BDF81640C3F32B
:10B14000C203C4F389148DF810300827082C264652
:10B1500028BF08263B4632460EA92846FFF7BEFE0A
:10B16000A41B08AB02AA31460EA8374400F056FBD8
:10B17000002CEBD1DAE7000008B5FFF79AFF04488E
:10B18000042100F057FA034B01225A7108BD00BF99
:10B19000C8C80200CC2B0020037813F0040215D09D
:10B1A00003F00303012B03D0022B09D001207047C9
:10B1B0000B6802880233C2F3831213440B60F5E775
:10B1C0000B684288023303EB9213F7E7104670478F
:10B1D0002DE9F0413E4C86B0002388460546861C8A
:10B1E0000DF1070017468DF80730FFF73DF962684B
:10B1F000C8F80020A36803F580739B1A9E4217D8F5
:10B200000022002F60D005F00F05AD0145F00505C7
:10B2100065F30F0261689DF80700CBB203330E445B
:10B2200044F823206660FFF743F906B0BDE8F081DB
:10B2300001212848FFF75FFB2748FFF774FB2748E9
:10B24000FFF771FBA0680290C0B2033004EB8000EE
:10B2500002A9FFF7A1FF029AD3B200BB04EB83035C
:10B26000911CDB6803930132D2B204EB820203F03B
:10B270000303012BD26802911ED0022B11D080460D
:10B280001648FFF753FB08B1029BA36011484146E3
:10B29000FFF731FBA368626803F58073ADE7D81C44
:10B2A000D4E7BDF80E30C3F3891303334FEA1248D5
:10B2B00001EB93030293E3E7BDF80C30C3F3831370
:10B2C0004FEA12480B44F5E7AD0545F00602A1E749
:10B2D0006C400020884400208444002080440020EA
:10B2E000064B074810B500221A70FFF797FD044679
:10B2F00010B90448FFF73CFE204610BD6C4000200A
:10B300002CC80200A4DB020030B50A4C71B10A4B14
:10B310000A491B1BDA0800239A4201D1002030BDE4
:10B3200031F82350854202D00133F5E7034654F843
:10B330003300F4E740C80200C8C80200782B0020A0
:10B34000094B013903EBC000032909D8DFE801F0FC
:10B35000020A04060220704700797047407970475E
:10B36000002070470420704740C80200704700006A
:10B37000034BD3E90130C31A58425841704700BF0C
:10B380006C4000202DE9F04387B0FFF7F1FF002863
:10B390007FD1734CC4F81804BFF34F8FA06802909C
:10B3A000C0B2033004EB800002A9FFF7F5FE029B58
:10B3B00018B1D4F81824002A67D0DAB29F1C0133E0
:10B3C00004EB8202DBB204EB8303D268DB680493F4
:10B3D00002F00303022B0392029763D1BDF80E30F3
:10B3E0006048C3F389184646502E28BF502666F39E
:10B3F0008F1306F10801ADF80E30FFF727FD054663
:10B40000002800F09780FFF74EFD002303A90822D3
:10B410002846FFF75AFDFB43DBB20133F9B2033193
:10B42000B6EB830F4FEA830904EB810137D9082378
:10B430004A462846FFF749FDA6EB09064A4909F1A5
:10B440000803F2B208F10308284607EB9807FFF754
:10B450003CFD0297D4F81834002B57D1D4F810646F
:10B46000002E5CD12846FFF722FD0DF107008DF874
:10B470000760FEF7F9FFD4F818340BB9029BA360FC
:10B480009DF80700FFF714F843E062689A4204D879
:10B49000A260002007B0BDE8F083D8B281E708239E
:10B4A0003246CFE7012B45D1BDF80C302D48C3F310
:10B4B0008311062928BF062161F38913023101F0A7
:10B4C0000F018900ADF80C30FFF7C0FC054688B3CA
:10B4D000FFF7E9FC0023082203A92846FFF7F5FC43
:10B4E0000026BDF80C30C3F38313B342B2D90299DE
:10B4F0004B1CC9B202930331B3000833042204EB9E
:10B5000081012846FFF7E1FC0136EAE72846FFF70C
:10B51000CEFCFFF72DFF80F00100C0B2BAE7F36860
:10B520005B7923B1336829461B6830469847F36836
:10B530001E6895E7D4F8104454B90C4B0C480D49DB
:10B54000C01AC008000440F0020000F05DF8E0E717
:10B55000236820469B689847E3681C68ECE700BFB7
:10B560006C4000202CC802007840002040C8020037
:10B5700078C8020093D602002DE9F34704460E4630
:10B580001846914601A901229A46FFF721FE019D26
:10B590001B4FAB1C4FF00008D04525D100211948A6
:10B5A000FFF77AF980F310006B1CDBB2E10007EBC8
:10B5B0008303000401F0380140EA1440EDB241F089
:10B5C0000101D860033541EA88113B7841EA8621C0
:10B5D00047F825101BB1FFF7D5FE0028FBD1FFF778
:10B5E000C5FE02B0BDE8F08708EB0302D2B207EB5C
:10B5F000820259F82810D16008F10108CCE700BF99
:10B600006C4000208844002000231A46FFF7B4BF96
:10B6100007B50123019201AAFFF7AEFF03B000BDF9
:10B6200007B5CDE9002302236A46FFF7A5FF03B063
:10B6300000BD000030B50F4CD4F810240023114693
:10B6400031B9C1680B7182B9C4F810040A600AE00C
:10B65000C9680D79AB4201D00968F1E701330A2BC3
:10B66000EDD14FF0FF33184630BDD26814680C603E
:10B670001060F8E76C40002038B5084B0125D3F87E
:10B6800010441D7004B938BDE3685D71236820461D
:10B690005B689847E3681C68F4E700BF6C400020D3
:10B6A00010B5037A052B0C460FD0437A23B1084A14
:10B6B00008492046FFF79CF907492046FFF798F90B
:10B6C0002046BDE81040FFF788B9002AF8D0F3E71C
:10B6D000A8D602004CCD0200A5CC0200C38873B5E9
:10B6E00004460D4633B1144A00921449144A2846C0
:10B6F000FFF77EF9217A05291CD0637A4BB1A08827
:10B70000FFF71EFE0F4B104953F820202846FFF785
:10B710006FF9227A0D4BA08853F822600021FFF7C1
:10B72000F3FD0B4903463246284602B0BDE870409F
:10B73000FFF75EB902B070BDA8D60200B5D6020010
:10B74000ADD60200B0DB02004CCD0200D4DB02001B
:10B75000CDD602002DE9F04385B01F460C9D002395
:10B7600095F80C902B7306460C46904629463846B1
:10B77000FFF7B4FFB8F1060F09D8DFE808F00412AC
:10B78000181F2833400031462846FFF731F90022C0
:10B7900029463846FFF784FF85F80C9005B0BDE8D0
:10B7A000F083226831462846FFF722F9EFE7D4E913
:10B7B000002331462846FFF71BF9E8E7A36800930A
:10B7C000D4E9002331462846FFF712F9DFE7E368A2
:10B7D0000193A3680093D4E9002331462846FFF77C
:10B7E00007F9D4E723690293E3680193A368009300
:10B7F000D4E9002331462846FFF7FAF8C7E7636922
:10B80000039323690293E3680193A3680093D4E947
:10B81000002331462846FFF7EBF8B8E708292DE961
:10B82000F04780460E4617461C4635D8002593F84B
:10B830000C901D7319461046FFF750FFAE422DD9EC
:10B8400018F805201B492046FFF7D2F80135082DCE
:10B85000F4D119492046FFF7CBF84FF0000A5645BE
:10B8600023D918F80A507E2D1DD8284600F06EFF07
:10B87000002814BF2A462E2210492046FFF7B8F8A8
:10B880000AF1010ABAF1080FE9D10122214638462E
:10B89000FFF706FF84F80C90BDE8F08708492046C2
:10B8A000FFF7A6F8D2E72E22E6E706492046FFF783
:10B8B0009FF8E5E7D7D60200E1D60200E3D6020002
:10B8C000DDD60200DFD602000369C26893429CBF46
:10B8D00081685B18013B981A70472DE9F041D0E967
:10B8E000027405463E1B4068964220448846144434
:10B8F00004D900F09DFEEC60BDE8F0813246E41B07
:10B9000000F096FE6868224608EB0601F1E72DE993
:10B91000F843C5680646894617464FF00008336964
:10B92000B46870689D4228BF1B19641BBC4203F1B8
:10B93000FF3328BF3C465B1B9C4228BF1C46494640
:10B940002844224600F074FEB3682544AB4208BF89
:10B9500000253F1BA044A144F560E0D14046BDE86E
:10B96000F88300001149124A022310B5C1E90433DB
:10B97000104B8A61CB618A644FF400730E4A0B62EC
:10B980000C460023CA6410228B624B62CB628B652B
:10B990004B65CB650A65E01D084900F031FE08499A
:10B9A000204600F02DFE2023A37110BD0448002086
:10B9B00031D7020004460020F44500203AD70200A7
:10B9C0003ED70200F8B5144B182600FB06651D444F
:10B9D00006FB00330F46DB6A012B14460AD0022B0C
:10B9E00014D023B92846FFF76FFF844208D90024FA
:10B9F0002046F8BD2846FFF767FF844228BF04466B
:10BA0000224639462846FFF768FFF1E72846BDE899
:10BA1000F840FFF77CBF00BF04480020FFF7A2BF3B
:10BA200010DF704713B5044609496846FFF7A9FAC5
:10BA3000019808B902B010BDD0E9003120469847FE
:10BA400018B16846FFF7A5FAF2E71120F2E700BF48
:10BA500000DC020013B5044607496846FFF791FA77
:10BA6000019B0BB902B010BD2046D3E900219047DD
:10BA70006846FFF78EFAF3E7F4DB02000B4991F812
:10BA80001623EC2352091341DB0706D5084B9A68AD
:10BA90003AB94FF480030B60704742F20200FEF7A0
:10BAA0008FBA1A6842F480021A60704700E100E021
:10BAB00000400020F7B5194F3C7864BB184E0125B3
:10BAC00020463570FFF7AEFF112821D02046FFF742
:10BAD000C1FF144B8DF80340186801900DF103006D
:10BAE000FEF7C2FC104901A8FFF79AFF0446B0FA1E
:10BAF00080F0400938709DF80300FEF7D9FC3CB98E
:10BB00000A4B34701C70FFF7B9FF2846FFF7A2FFFD
:10BB1000204603B0F0BD0824FAE700BF7E480020AD
:10BB20007C4800200CDC0200D99F02007D480020E8
:10BB3000014B1878704700BF7E48002007B50749C1
:10BB40006846FFF71EFA019B0BB903B000BDD3E9AD
:10BB5000002090476846FFF71CFAF4E7E8DB020094
:10BB6000FFF7ECBF60DF704769DF704761DF704748
:10BB700030B54FF4FA75ADF5017D0DF1020103A862
:10BB8000ADF80250FFF7F2FF70B90D4901A8FFF7B9
:10BB9000F8F9029B002BF0D003A8D3E900219047CD
:10BBA00001A8FFF7F6F9F4E7052805D00DF5017DAA
:10BBB000BDE83040FEF704BA0DF5017D30BD00BF91
:10BBC00010DC0200024B1B780BB1FFF7D1BF7047AE
:10BBD0007F48002030B5054685B00C46002900F0AE
:10BBE000A4800023CDE90133514A039301230A6065
:10BBF0008DF804008DF8063001A906232020ADF849
:10BC00000830FFF7B1FF60B1FFF710FA49494A4B1E
:10BC10005B1ADB081B040246484943F00100FFF7AA
:10BC2000F7FC0023CDE9013303932268012301A926
:10BC300040208DF80530FFF797FF60B1FFF7F6F968
:10BC40003C493D4B5B1ADB081B0402463C4943F070
:10BC50000100FFF7DDFC0023CDE9013303932268E7
:10BC60008DF80450F72301A92320ADF80630FFF723
:10BC70007BFF60B1FFF7DAF92E492F4B5B1ADB0827
:10BC80001B0402462F4943F00100FFF7C1FC0023CB
:10BC9000CDE90133039322680A2301A901208DF81D
:10BCA0000430FFF761FF60B1FFF7C0F92149224B73
:10BCB0005B1ADB081B040246234943F00100FFF72F
:10BCC000A7FC0023CDE9023322684FF4B06301A939
:10BCD000A1200193FFF748FF60B1FFF7A7F91549CD
:10BCE000154B5B1ADB081B040246184943F00100A0
:10BCF000FFF78EFC00232268039301A9A020CDE961
:10BD00000133FFF731FF10B9002005B030BDFFF758
:10BD10008DF90849084B5B1ADB081B0402460C49E5
:10BD200043F00100FFF774FCEEE70E20EDE700BFE3
:10BD3000782B002040C80200A8C802004DD702009E
:10BD400093D70200DFD7020026D8020072D8020083
:10BD5000C3D80200F8B506460768FFF703FF33684B
:10BD6000BB4205461ED91A4B1A4C1B49E41AE4087B
:10BD7000240444F00200FFF747FC336817493A46B1
:10BD800044F00200FFF74CFC4FF080533268D3F8C8
:10BD90000C3113499B0203F100539A1A44F002003C
:10BDA000FFF736FC25B90F4B01221A702846F8BD63
:10BDB0002846FFF73BF90649064B5B1ADB081B04D4
:10BDC0000246094943F00100FFF722FCEEE700BFFD
:10BDD00040C80200A8C8020016D9020045D90200D6
:10BDE00076D902007F480020A0D902004BDF7047BF
:10BDF0001FB501A8FFF7FAFF70B90C4902A8FFF7B9
:10BE0000C0F8039B002BF4D00198D3E900219047A0
:10BE100002A8FFF7BEF8F4E7052804D005B05DF8E6
:10BE200004EBFEF7CDB805B000BD00BF1CDC02007E
:10BE300010B582B0044600698DF8071078B1D4E9D6
:10BE400000239A4231D26269531C63618154D4E960
:10BE50000501884229D1204600F02CF825E0E06851
:10BE600050B1D4E9002C62451FD2531CB3EB0C0334
:10BE700018BF0B46835418E0A06858B1D4E9002CD1
:10BE8000624512D2531CB3EB0C0318BFCBB240F87F
:10BE900022300AE0236A43B1D4E90001884204D287
:10BEA0000DF10701204601229847206801302060EB
:10BEB00002B010BD42694AB110B50446036A002BB6
:10BEC0001CBF216998470020606110BD7047012A9E
:10BED0000CDBF8B514460D460646671E304629466B
:10BEE000FFF7A6FF012C3C46F7D8F8BD7047CB06FC
:10BEF00006D43023890558BF20231946FFF7E7BF32
:10BF0000704738B5044600F0F5FB05462046002191
:10BF1000242200F0BFFBE56138BD81B070B58BB065
:10BF200014460D4606460F930FA8009001A8FFF790
:10BF3000E8FF04960295009A01A8214600F006F851
:10BF40000BB0BDE8704001B0704700002DE9F04F24
:10BF500089B01546894682460020CAF800000DF1D6
:10BF60000E0819F8011B252906D0002900F04F8280
:10BF70005046FFF75DFFF4E72C4600274A4619F8C4
:10BF8000010BA0F12003102B0DD88021DFE803F076
:10BF9000091B1B191B1B1B151B1B30181B101B1B04
:10BFA000120040210DE05E280DD14FF4805108E0D1
:10BFB000102106E04FF4007103E04FF4004100E06F
:10BFC00020210F43DAE7A0F13001C9B209294FF06F
:10BFD00000010BD801EB810100EB410119F8010BC5
:10BFE000A0F13002D2B230390A2AF3D325460CE050
:10BFF000254655F8040B010048BF4142102303EACF
:10C00000D060074302F1020950782E280BD14A462E
:10C0100012F8010B2A2809D155F804BB99F8010040
:10C0200009F1020218E04FF0000B1EE0A0F130030E
:10C03000DBB2092B4FF0000B14D80BEB8B0300EB9A
:10C04000430312F8010BA0F130095FFA89F9B9F145
:10C050000A0FA3F1300BF0D3BBF1000F04D447F467
:10C06000807701E047F480779146A0F16802D3B26F
:10C07000D20142EA5302D2B2092A22D8DFE802F002
:10C08000050E122121210F21210F4A4612F8010B22
:10C09000682812D199F8010008370BE0023719F827
:10C0A000010B0EE04A4612F8010B6C2807D199F8F3
:10C0B0000100023709F1020903E0043700E001370B
:10C0C0009146622821EAE17620DDA0F1630115297D
:10C0D0003FF647AFDFE811F03800170016001600F2
:10C0E00016001600170016001600160016009A001B
:10C0F0004400060116001600290016004E00160026
:10C10000160022002DE747F4804737E0252800F08D
:10C110008A80582840F08C8147F4005743F2580237
:10C1200078281ED143F278021BE001952D68002D7E
:10C1300004BF4DF64845C0F20205F805284600F157
:10C14000458100F021FA44E12C78013E5046394601
:10C150003246FFF7CCFE50462146FFF769FE4AE122
:10C160003022390602EAE1710291F90508D527F477
:10C17000007705E0F90548BF27F400770021029118
:10C1800079044FEA8771009604D4002909D4291D47
:10C1900000240CE0002913D4294651F8045BEC1765
:10C1A00014E0E91D21F0070505F108016C687A0724
:10C1B0002D6814D417F0080F13D00024EDB210E04E
:10C1C000E91D21F007014C6851F8085B01917907DE
:10C1D00009D439070AD545F3C0146DB206E0ADB2F3
:10C1E0000024019126E045F3C0342DB2002C07DB7A
:10C1F000B9061DD47906029A48BF2022029219E09E
:10C2000000216D4261EB04042D2112E055F8040B6E
:10C210003907DAF8001000F1F880BA0752BF016060
:10C22000002206C09DE650462521FFF701FE98E654
:10C230002B210291F90548BF27F40077F90558BF73
:10C240004FF0010B00266E2821DD6F38092800F21F
:10C250007980DFE800F00556777777772277775691
:10C2600055EA04006ED0E80840EA4470062262F302
:10C27000DF0508F80650013650EAD4014FEAD4042D
:10C280004FEAD001054641EA4470F0D15AE05828FF
:10C2900037D0642818BF692854D155EA040051D01A
:10C2A000380407D506F00300032802BF2C2008F845
:10C2B00006000136284621460A22002300F0C2F873
:10C2C00000EB8002A5EB4202D5F109030023A34154
:10C2D00042F0300208F8062006F1010605460C4639
:10C2E000DED32FE02846009650F8045B0190380614
:10C2F000232101EAE070029047F4807700244FF098
:10C30000080B002655EA04001CD04DF62840C0F268
:10C310000200B9045CBF4DF63840C0F202002909A2
:10C3200041EA047105F00F020D46825C08F8062010
:10C33000013651EA14114FEA14144FEA151141EA7B
:10C340000471EFD1ABEB060020EAE07B06EB0B00BB
:10C350000099029D0C1A4FF0FF30FF2D88BF013865
:10C36000002D18BF0444B80505D45046394622466E
:10C37000FFF7BDFD0024FF2D04D9290A5046FFF721
:10C3800057FD00E01DB150462946FFF751FD5046CC
:10C3900039462246FFF7ABFD504630215A46FFF79B
:10C3A00096FD012E08DB751E504618F80510FFF7A4
:10C3B0003FFD012E2E46F6D8F806019D7FF5D1AD42
:10C3C000504620212246FFF782FDCAE5594600F07B
:10C3D000F1F8044627F40077361A504639463246BB
:10C3E000FFF785FD34B115F8011B5046FFF720FD1E
:10C3F000013CF8D1019D0435F8067FF5B2AD5046F9
:10C4000020213246FFF763FDABE50170A9E5DAF8BC
:10C410000C0028B1DAE9001291423CBF00224254DC
:10C420005046FFF747FDDAF8000009B0BDE8F08F8D
:10C4300000287FF496AD5046FFF73CFD4FF0FF30EB
:10C44000F3E70000002B35D129B9B0FBF2FC0CFB5F
:10C45000120260467047914215D22DE9F041B2FABE
:10C4600082F39A409940D3F1200C30FA0CFC51EA47
:10C470000C01984000F04EF8280036FA03F2002133
:10C480000023BDE8F081F0B5B1FBF2FC0CFB12110A
:10C49000B2FA82F39A409940D3F1200630FA06F6B8
:10C4A0003143984000F036F8614628003200DA4007
:10C4B0000023F0BDF3B5B3FA83FC49085FEA30000E
:10C4C00013FA0CF3DCF1200432FA04F423430CB425
:10C4D0001A0000F01FF80CBC33FA0CF3DCF11F0C4F
:10C4E00035FA0CF518BF6D1E03BCA5FB026705FBF2
:10C4F0000377801BB941904271EB030C05D3821A7C
:10C5000071EB0303681C0021F0BD02000B00280042
:10C510000021F0BD940D4FF6C2752D02B5FBF4F469
:10C52000D60A761C04FB04F5A5FB0656F64306EB7B
:10C530000416550832BF002777086D1C05FB1677D7
:10C54000A6FB07477F0807EBC63714001500E7FB7B
:10C5500002457F1B4D1C0400E7FB014505FB12064D
:10C56000A64284BF6D1EB618964224BF6D1CB61A33
:10C570007047082907D344F68002C2F20002106017
:10C580000022C0E900217047017889B14FF0013CD9
:10C590000346194653F8042BCCFA52F2002AF8D07D
:10C5A00092FAA2F2B2FA82F201EBD201081A7047B3
:10C5B0000020704700291CBF0278002A01D100200A
:10C5C000704700B50429D0F800E0024609D34FF0C7
:10C5D000013CCCFA5EF323B90439032952F804EF85
:10C5E000F7D84FF00133C3FA5EF393FAA3F3B3FA2B
:10C5F00083F3101AB1EBD30F88BFD908084400BDEC
:10C600000246F0B44FF00137FB0151F8044BE51B33
:10C61000A5431D4002D142F8044BF6E7091FF0BCC8
:10C6200011F8013B02F8013B002BF9D170470000E3
:10C630005AB3844690EA01039B071FD1830707D0B2
:10C6400011F8013B00F8013B521EF7D11CE0844673
:10C65000203A09D32DE9F007B1E8F807A0E8F80778
:10C66000203AF9D2BDE8F0071C3205D451F8043B5A
:10C6700040F8043B121FF9D2043205D011F8013BF7
:10C6800000F8013B521EF9D16046704700220B00B2
:10C6900011001A0084465AB3830704D000F8011B26
:10C6A000521EF9D124E0C9B241EA012141EA014117
:10C6B000202A11D3203A2DE9F0030B460C460D46F3
:10C6C0000E460F4688468946A0E8FA03203AFBD278
:10C6D000BDE8F00320320BD0042A05D340F8041B38
:10C6E000121F05D0042AF9D200F8011B521EFBD1FB
:10C6F0006046704744F68400C2F2000000680028DB
:10C7000004BF42F6D430C2F20000704784460020D5
:10C71000002918BF002A0ED0097848B200280BD48F
:10C72000BCF1000F18BFCCF800100021C3E90011C4
:10C73000002818BF012070476FF0010070477F2963
:10C740008EBF6FF0010001700120704744F6840134
:10C75000C2F200010968002904BF42F6D431C2F2D6
:10C760000001496889680A68092110477F280BD8A9
:10C770004DF6E452C0F202024DF66463C0F20203C9
:10C78000105C595C0840704700207047A0F16101BF
:10C790001A2938BF20387047A0F141011A2938BF43
:10C7A000203070477F280BD84DF6E452C0F20202C9
:10C7B0004DF66463C0F20203105C595C0840704798
:10C7C00000207047A0F161011A2938BF2038704756
:0CC7D000A0F141011A2938BF2030704749
:08C7DC008D9102000000000035
:10C7E400598A020000000000A18D02008C3D002047
:10C7F400CD880200000000009F8F0200803D0020D1
:10C80400F1730200663D00207D7702000000000005
:08C8140029920200000000005F
:10C81C00C5BB020000000000F1BD020000000000DA
:10C82C0024450020EC450020F44500202C45002038
:04C83C0018000000E0
:10C840002FD202000000000035D2020000000000DC
:10C850003CD202000000000040D2020000000000B4
:10C8600046D20200000000004AD202000000000090
:10C870004FD2020000000000A4D602000000030313
:10C8800055D202000000000079D202000000000032
:10C8900029D20200000000001CD2020000000303A5
:10C8A00045D7020000000303BDD9020000000303C6
:10C8B000C9D9020000000303B7D202000000000043
:08C8C000C0D2020000000000DC
:10C8C80098DB02000000000083D60200CC2B002079
:10C8D8004761696E2077726974652072656365695E
:10C8E8007665643A20256400496E76616C69642037
:10C8F8006761696E2076616C75652072656365692C
:10C908007665643A202564202876616C69643A204B
:10C91800312D31302900424C4520545820636F6D29
:10C92800706C6574653A202564206E6F7469666959
:10C93800636174696F6E732073656E7400496E6904
:10C948007469616C697A696E6720454D4720424C6D
:10C958004520736572766963652E2E2E00454D4716
:10C968002073657276696365205555494420726560
:10C97800676973746572656400454D472073657215
:10C9880076696365206164646564202D2068616E42
:10C99800646C653A2030782530347800454D47205E
:10C9A8006E6F746966792063686172616374657219
:10C9B8006973746963206164646564202D206D6106
:10C9C80078207061796C6F61643A202564206279FF
:10C9D800746573004761696E2077726974652063B6
:10C9E80068617261637465726973746963206164F4
:10C9F80064656400454D47207365727669636520F8
:10CA0800696E697469616C697A6174696F6E2063B3
:10CA18006F6D706C657465004E6F7469667920700F
:10CA280061636B6574206661696C65643A20696E40
:10CA380076616C696420636F6E6E656374696F6E8E
:10CA48002068616E646C6500545820627573793A89
:10CA58002025642074696D6573004E6F746966796A
:10CA6800207061636B6574206661696C65643A2047
:10CA7800696E76616C696420706172616D65746558
:10CA88007273005061636B65742073697A65206CFA
:10CA9800696D6974656420746F20256420627974F7
:10CAA8006573004E6F74696679207061636B657495
:10CAB800206661696C65643A206572723D3078253C
:10CAC800782C20636F756E743D2564005374617211
